{
  "contractName": "BancorPriceFloor",
  "abi": [
    {
      "constant": true,
      "inputs": [],
      "name": "TOKEN_PRICE_D",
      "outputs": [
        {
          "name": "",
          "type": "uint256"
        }
      ],
      "payable": false,
      "stateMutability": "view",
      "type": "function"
    },
    {
      "constant": true,
      "inputs": [],
      "name": "TOKEN_PRICE_N",
      "outputs": [
        {
          "name": "",
          "type": "uint256"
        }
      ],
      "payable": false,
      "stateMutability": "view",
      "type": "function"
    },
    {
      "constant": true,
      "inputs": [],
      "name": "version",
      "outputs": [
        {
          "name": "",
          "type": "string"
        }
      ],
      "payable": false,
      "stateMutability": "view",
      "type": "function"
    },
    {
      "constant": false,
      "inputs": [
        {
          "name": "_token",
          "type": "address"
        },
        {
          "name": "_to",
          "type": "address"
        },
        {
          "name": "_amount",
          "type": "uint256"
        }
      ],
      "name": "withdrawTokens",
      "outputs": [],
      "payable": false,
      "stateMutability": "nonpayable",
      "type": "function"
    },
    {
      "constant": false,
      "inputs": [],
      "name": "acceptOwnership",
      "outputs": [],
      "payable": false,
      "stateMutability": "nonpayable",
      "type": "function"
    },
    {
      "constant": true,
      "inputs": [],
      "name": "owner",
      "outputs": [
        {
          "name": "",
          "type": "address"
        }
      ],
      "payable": false,
      "stateMutability": "view",
      "type": "function"
    },
    {
      "constant": true,
      "inputs": [],
      "name": "newOwner",
      "outputs": [
        {
          "name": "",
          "type": "address"
        }
      ],
      "payable": false,
      "stateMutability": "view",
      "type": "function"
    },
    {
      "constant": false,
      "inputs": [
        {
          "name": "_newOwner",
          "type": "address"
        }
      ],
      "name": "transferOwnership",
      "outputs": [],
      "payable": false,
      "stateMutability": "nonpayable",
      "type": "function"
    },
    {
      "constant": true,
      "inputs": [],
      "name": "token",
      "outputs": [
        {
          "name": "",
          "type": "address"
        }
      ],
      "payable": false,
      "stateMutability": "view",
      "type": "function"
    },
    {
      "inputs": [
        {
          "name": "_token",
          "type": "address"
        }
      ],
      "payable": false,
      "stateMutability": "nonpayable",
      "type": "constructor"
    },
    {
      "payable": true,
      "stateMutability": "payable",
      "type": "fallback"
    },
    {
      "anonymous": false,
      "inputs": [
        {
          "indexed": true,
          "name": "_prevOwner",
          "type": "address"
        },
        {
          "indexed": true,
          "name": "_newOwner",
          "type": "address"
        }
      ],
      "name": "OwnerUpdate",
      "type": "event"
    },
    {
      "constant": false,
      "inputs": [],
      "name": "sell",
      "outputs": [
        {
          "name": "amount",
          "type": "uint256"
        }
      ],
      "payable": false,
      "stateMutability": "nonpayable",
      "type": "function"
    },
    {
      "constant": false,
      "inputs": [
        {
          "name": "_amount",
          "type": "uint256"
        }
      ],
      "name": "withdraw",
      "outputs": [],
      "payable": false,
      "stateMutability": "nonpayable",
      "type": "function"
    }
  ],
  "bytecode": "0x60c0604052600360808190527f302e31000000000000000000000000000000000000000000000000000000000060a090815261003e91600291906100ab565b5034801561004b57600080fd5b506040516020806108a6833981016040525160008054600160a060020a0319163317905580600160a060020a038116151561008557600080fd5b5060038054600160a060020a031916600160a060020a0392909216919091179055610146565b828054600181600116156101000203166002900490600052602060002090601f016020900481019282601f106100ec57805160ff1916838001178555610119565b82800160010185558215610119579182015b828111156101195782518255916020019190600101906100fe565b50610125929150610129565b5090565b61014391905b80821115610125576000815560010161012f565b90565b610751806101556000396000f3006080604052600436106100ae5763ffffffff7c01000000000000000000000000000000000000000000000000000000006000350416630d2806ad81146100b05780632e1a7d4d146100d757806345710074146100ef57806345cfad3e1461010457806354fd4d50146101195780635e35359e146101a357806379ba5097146101cd5780638da5cb5b146101e2578063d4ee1d9014610213578063f2fde38b14610228578063fc0c546a14610249575b005b3480156100bc57600080fd5b506100c561025e565b60408051918252519081900360200190f35b3480156100e357600080fd5b506100ae600435610263565b3480156100fb57600080fd5b506100c56102ab565b34801561011057600080fd5b506100c5610442565b34801561012557600080fd5b5061012e610447565b6040805160208082528351818301528351919283929083019185019080838360005b83811015610168578181015183820152602001610150565b50505050905090810190601f1680156101955780820380516001836020036101000a031916815260200191505b509250505060405180910390f35b3480156101af57600080fd5b506100ae600160a060020a03600435811690602435166044356104d2565b3480156101d957600080fd5b506100ae6105e4565b3480156101ee57600080fd5b506101f761066c565b60408051600160a060020a039092168252519081900360200190f35b34801561021f57600080fd5b506101f761067b565b34801561023457600080fd5b506100ae600160a060020a036004351661068a565b34801561025557600080fd5b506101f76106eb565b606481565b600054600160a060020a0316331461027a57600080fd5b604051339082156108fc029083906000818181858888f193505050501580156102a7573d6000803e3d6000fd5b5050565b600354604080517fdd62ed3e000000000000000000000000000000000000000000000000000000008152336004820152306024820152905160009283928392600160a060020a039092169163dd62ed3e9160448082019260209290919082900301818787803b15801561031d57600080fd5b505af1158015610331573d6000803e3d6000fd5b505050506040513d602081101561034757600080fd5b5051600354604080517f23b872dd000000000000000000000000000000000000000000000000000000008152336004820152306024820152604481018490529051929450600160a060020a03909116916323b872dd916064808201926020929091908290030181600087803b1580156103bf57600080fd5b505af11580156103d3573d6000803e3d6000fd5b505050506040513d60208110156103e957600080fd5b505115156103f357fe5b60646104008360016106fa565b81151561040957fe5b6040519190049150339082156108fc029083906000818181858888f1935050505015801561043b573d6000803e3d6000fd5b5092915050565b600181565b6002805460408051602060018416156101000260001901909316849004601f810184900484028201840190925281815292918301828280156104ca5780601f1061049f576101008083540402835291602001916104ca565b820191906000526020600020905b8154815290600101906020018083116104ad57829003601f168201915b505050505081565b600054600160a060020a031633146104e957600080fd5b82600160a060020a03811615156104ff57600080fd5b82600160a060020a038116151561051557600080fd5b83600160a060020a03811630141561052c57600080fd5b85600160a060020a031663a9059cbb86866040518363ffffffff167c01000000000000000000000000000000000000000000000000000000000281526004018083600160a060020a0316600160a060020a0316815260200182815260200192505050602060405180830381600087803b1580156105a857600080fd5b505af11580156105bc573d6000803e3d6000fd5b505050506040513d60208110156105d257600080fd5b505115156105dc57fe5b505050505050565b600154600160a060020a031633146105fb57600080fd5b60015460008054604051600160a060020a0393841693909116917f343765429aea5a34b3ff6a3785a98a5abb2597aca87bfbb58632c173d585373a91a3600180546000805473ffffffffffffffffffffffffffffffffffffffff19908116600160a060020a03841617909155169055565b600054600160a060020a031681565b600154600160a060020a031681565b600054600160a060020a031633146106a157600080fd5b600054600160a060020a03828116911614156106bc57600080fd5b6001805473ffffffffffffffffffffffffffffffffffffffff1916600160a060020a0392909216919091179055565b600354600160a060020a031681565b6000828202831580610716575082848281151561071357fe5b04145b151561071e57fe5b93925050505600a165627a7a72305820410aae3ca0029c8697bd2233e2c7c65a134d715ebc1ea5ae80b34bd7042c07bb0029",
  "source": "pragma solidity ^0.4.24;\nimport '../utility/TokenHolder.sol';\nimport '../utility/Owned.sol';\nimport '../utility/Utils.sol';\nimport '../token/interfaces/ISmartToken.sol';\n\n/*\n    BancorPriceFloor v0.1\n\n    The bancor price floor contract is a simple contract that allows selling smart tokens for a constant ETH price\n\n    'Owned' is specified here for readability reasons\n*/\ncontract BancorPriceFloor is Owned, TokenHolder {\n    uint256 public constant TOKEN_PRICE_N = 1;      // crowdsale price in wei (numerator)\n    uint256 public constant TOKEN_PRICE_D = 100;    // crowdsale price in wei (denominator)\n\n    string public version = '0.1';\n    ISmartToken public token; // smart token the contract allows selling\n\n    /**\n        @dev constructor\n\n        @param _token   smart token the contract allows selling\n    */\n    constructor(ISmartToken _token)\n        public\n        validAddress(_token)\n    {\n        token = _token;\n    }\n\n    /**\n        @dev sells the smart token for ETH\n        note that the function will sell the full allowance amount\n\n        @return ETH sent in return\n    */\n    function sell() public returns (uint256 amount) {\n        uint256 allowance = token.allowance(msg.sender, this); // get the full allowance amount\n        assert(token.transferFrom(msg.sender, this, allowance)); // transfer all tokens from the sender to the contract\n        uint256 etherValue = safeMul(allowance, TOKEN_PRICE_N) / TOKEN_PRICE_D; // calculate ETH value of the tokens\n        msg.sender.transfer(etherValue); // send the ETH amount to the seller\n        return etherValue;\n    }\n\n    /**\n        @dev withdraws ETH from the contract\n\n        @param _amount  amount of ETH to withdraw\n    */\n    function withdraw(uint256 _amount) public ownerOnly {\n        msg.sender.transfer(_amount); // send the amount\n    }\n\n    /**\n        @dev deposits ETH in the contract\n    */\n    function() public payable {\n    }\n}\n",
  "sourcePath": "/Users/rudo/Documents/ichiba/submodules/contracts/solidity/contracts/legacy/BancorPriceFloor.sol",
  "compiler": {
    "name": "solc",
    "version": "0.4.24+commit.e67f0147.Emscripten.clang"
  },
  "schemaVersion": "2.0.1",
  "updatedAt": "2019-03-03T09:13:38.314Z"
}