{
  "contractName": "ContractIds",
  "abi": [
    {
      "constant": true,
      "inputs": [],
      "name": "BANCOR_CONVERTER_UPGRADER",
      "outputs": [
        {
          "name": "",
          "type": "bytes32"
        }
      ],
      "payable": false,
      "stateMutability": "view",
      "type": "function"
    },
    {
      "constant": true,
      "inputs": [],
      "name": "BNT_TOKEN",
      "outputs": [
        {
          "name": "",
          "type": "bytes32"
        }
      ],
      "payable": false,
      "stateMutability": "view",
      "type": "function"
    },
    {
      "constant": true,
      "inputs": [],
      "name": "CONTRACT_REGISTRY",
      "outputs": [
        {
          "name": "",
          "type": "bytes32"
        }
      ],
      "payable": false,
      "stateMutability": "view",
      "type": "function"
    },
    {
      "constant": true,
      "inputs": [],
      "name": "BANCOR_CONVERTER_FACTORY",
      "outputs": [
        {
          "name": "",
          "type": "bytes32"
        }
      ],
      "payable": false,
      "stateMutability": "view",
      "type": "function"
    },
    {
      "constant": true,
      "inputs": [],
      "name": "BNT_CONVERTER",
      "outputs": [
        {
          "name": "",
          "type": "bytes32"
        }
      ],
      "payable": false,
      "stateMutability": "view",
      "type": "function"
    },
    {
      "constant": true,
      "inputs": [],
      "name": "BANCOR_FORMULA",
      "outputs": [
        {
          "name": "",
          "type": "bytes32"
        }
      ],
      "payable": false,
      "stateMutability": "view",
      "type": "function"
    },
    {
      "constant": true,
      "inputs": [],
      "name": "CONTRACT_FEATURES",
      "outputs": [
        {
          "name": "",
          "type": "bytes32"
        }
      ],
      "payable": false,
      "stateMutability": "view",
      "type": "function"
    },
    {
      "constant": true,
      "inputs": [],
      "name": "BANCOR_NETWORK",
      "outputs": [
        {
          "name": "",
          "type": "bytes32"
        }
      ],
      "payable": false,
      "stateMutability": "view",
      "type": "function"
    },
    {
      "constant": true,
      "inputs": [],
      "name": "BANCOR_GAS_PRICE_LIMIT",
      "outputs": [
        {
          "name": "",
          "type": "bytes32"
        }
      ],
      "payable": false,
      "stateMutability": "view",
      "type": "function"
    },
    {
      "constant": true,
      "inputs": [],
      "name": "BANCOR_X",
      "outputs": [
        {
          "name": "",
          "type": "bytes32"
        }
      ],
      "payable": false,
      "stateMutability": "view",
      "type": "function"
    }
  ],
  "bytecode": "0x608060405234801561001057600080fd5b50610320806100206000396000f3006080604052600436106100a35763ffffffff7c01000000000000000000000000000000000000000000000000000000006000350416630c87355e81146100a85780631d000b61146100cf57806325f9bfef146100e45780635a46f06c146100f957806362614ae61461010e5780636d7bd3fc1461012357806383315b6e146101385780639232494e1461014d5780639249993a14610162578063c4a8598e14610177575b600080fd5b3480156100b457600080fd5b506100bd61018c565b60408051918252519081900360200190f35b3480156100db57600080fd5b506100bd6101b0565b3480156100f057600080fd5b506100bd6101d4565b34801561010557600080fd5b506100bd6101f8565b34801561011a57600080fd5b506100bd61021c565b34801561012f57600080fd5b506100bd610240565b34801561014457600080fd5b506100bd610264565b34801561015957600080fd5b506100bd610288565b34801561016e57600080fd5b506100bd6102ac565b34801561018357600080fd5b506100bd6102d0565b7f42616e636f72436f6e766572746572557067726164657200000000000000000081565b7f424e54546f6b656e00000000000000000000000000000000000000000000000081565b7f436f6e747261637452656769737472790000000000000000000000000000000081565b7f42616e636f72436f6e766572746572466163746f72790000000000000000000081565b7f424e54436f6e766572746572000000000000000000000000000000000000000081565b7f42616e636f72466f726d756c610000000000000000000000000000000000000081565b7f436f6e747261637446656174757265730000000000000000000000000000000081565b7f42616e636f724e6574776f726b0000000000000000000000000000000000000081565b7f42616e636f7247617350726963654c696d69740000000000000000000000000081565b7f42616e636f725800000000000000000000000000000000000000000000000000815600a165627a7a72305820e3173f9d82f8d8b1a4b8d1346d5ef76410c4af2a2b90e5377392a0beed1421cc0029",
  "source": "pragma solidity ^0.4.24;\n\n/**\n    Id definitions for bancor contracts\n\n    Can be used in conjunction with the contract registry to get contract addresses\n*/\ncontract ContractIds {\n    // generic\n    bytes32 public constant CONTRACT_FEATURES = \"ContractFeatures\";\n    bytes32 public constant CONTRACT_REGISTRY = \"ContractRegistry\";\n\n    // bancor logic\n    bytes32 public constant BANCOR_NETWORK = \"BancorNetwork\";\n    bytes32 public constant BANCOR_FORMULA = \"BancorFormula\";\n    bytes32 public constant BANCOR_GAS_PRICE_LIMIT = \"BancorGasPriceLimit\";\n    bytes32 public constant BANCOR_CONVERTER_UPGRADER = \"BancorConverterUpgrader\";\n    bytes32 public constant BANCOR_CONVERTER_FACTORY = \"BancorConverterFactory\";\n\n    // Ids of BNT converter and BNT token\n    bytes32 public constant BNT_TOKEN = \"BNTToken\";\n    bytes32 public constant BNT_CONVERTER = \"BNTConverter\";\n\n    // Id of BancorX contract\n    bytes32 public constant BANCOR_X = \"BancorX\";\n}\n",
  "sourcePath": "/Users/rudo/Documents/ichiba/submodules/contracts/solidity/contracts/ContractIds.sol",
  "compiler": {
    "name": "solc",
    "version": "0.4.24+commit.e67f0147.Emscripten.clang"
  },
  "schemaVersion": "2.0.1",
  "updatedAt": "2019-03-03T10:38:53.235Z"
}