{
  "contractName": "Distributor",
  "abi": [
    {
      "constant": true,
      "inputs": [],
      "name": "auction",
      "outputs": [
        {
          "name": "",
          "type": "address"
        }
      ],
      "payable": false,
      "stateMutability": "view",
      "type": "function"
    },
    {
      "inputs": [
        {
          "name": "_auction_address",
          "type": "address"
        }
      ],
      "payable": false,
      "stateMutability": "nonpayable",
      "type": "constructor"
    },
    {
      "anonymous": false,
      "inputs": [],
      "name": "Deployed",
      "type": "event"
    },
    {
      "constant": false,
      "inputs": [
        {
          "name": "addresses",
          "type": "address[]"
        }
      ],
      "name": "distribute",
      "outputs": [],
      "payable": false,
      "stateMutability": "nonpayable",
      "type": "function"
    }
  ],
  "bytecode": "0x608060405234801561001057600080fd5b506040516020806102fd8339810160405251600160a060020a038116151561003757600080fd5b60008054600160a060020a031916600160a060020a0383161781556040517f3fad920548ed9f22deb8333b4cc1e4f9bc36666a1c2aa30ad59a0a3bb9dcbb929190a150610274806100896000396000f3006080604052600436106100325763ffffffff60e060020a6000350416636138889b81146100375780637d9f6db51461008e575b600080fd5b34801561004357600080fd5b506040805160206004803580820135838102808601850190965280855261008c953695939460249493850192918291850190849080828437509497506100bf9650505050505050565b005b34801561009a57600080fd5b506100a3610239565b60408051600160a060020a039092168252519081900360200190f35b60005b81518163ffffffff16101561023557600080548351600160a060020a03909116906362ea82db90859063ffffffff86169081106100fb57fe5b906020019060200201516040518263ffffffff1660e060020a0281526004018082600160a060020a0316600160a060020a03168152602001915050602060405180830381600087803b15801561015057600080fd5b505af1158015610164573d6000803e3d6000fd5b505050506040513d602081101561017a57600080fd5b5051111561022d576000548251600160a060020a039091169063aeaaaa0890849063ffffffff85169081106101ab57fe5b906020019060200201516040518263ffffffff1660e060020a0281526004018082600160a060020a0316600160a060020a03168152602001915050602060405180830381600087803b15801561020057600080fd5b505af1158015610214573d6000803e3d6000fd5b505050506040513d602081101561022a57600080fd5b50505b6001016100c2565b5050565b600054600160a060020a0316815600a165627a7a72305820c2500f9eaf590c44f80895c2c5c45290a59cfdd53b9820e5039ea2d0089999560029",
  "source": "pragma solidity ^0.4.17;\n\nimport './DutchAuction.sol';\n\n/// @title Distributor contract - distribution of tokens after an auction has ended.\ncontract Distributor {\n    /*\n     * Storage\n     */\n\n    DutchAuction public auction;\n\n    /*\n     * Events\n     */\n\n    event Deployed();\n\n    /*\n      * Public functions\n      */\n    /// @dev Contract constructor function, sets the auction contract address.\n    /// @param _auction_address Address of auction contract.\n    function Distributor(address _auction_address) public {\n        require(_auction_address != 0x0);\n\n        auction = DutchAuction(_auction_address);\n        Deployed();\n    }\n\n    /// @notice Claim tokens in behalf of the following token owners: `addresses`.\n    /// @dev Function that is called with an array of addresses for claiming tokens in their behalf.\n    /// @param addresses Addresses of auction bidders that will be assigned tokens.\n    function distribute(address[] addresses) public {\n        for (uint32 i = 0; i < addresses.length; i++) {\n            if (auction.bids(addresses[i]) > 0) {\n                auction.proxyClaimTokens(addresses[i]);\n            }\n        }\n    }\n}\n",
  "sourcePath": "/Users/rudo/Documents/ichiba/submodules/contracts/solidity/contracts/DutchAuction/distributor.sol",
  "compiler": {
    "name": "solc",
    "version": "0.4.24+commit.e67f0147.Emscripten.clang"
  },
  "schemaVersion": "2.0.1",
  "updatedAt": "2019-03-03T08:58:01.563Z"
}