{
  "contractName": "DutchAuction",
  "abi": [
    {
      "constant": true,
      "inputs": [],
      "name": "num_tokens_auctioned",
      "outputs": [
        {
          "name": "",
          "type": "uint256"
        }
      ],
      "payable": false,
      "stateMutability": "view",
      "type": "function"
    },
    {
      "constant": true,
      "inputs": [],
      "name": "final_price",
      "outputs": [
        {
          "name": "",
          "type": "uint256"
        }
      ],
      "payable": false,
      "stateMutability": "view",
      "type": "function"
    },
    {
      "constant": true,
      "inputs": [],
      "name": "price_exponent",
      "outputs": [
        {
          "name": "",
          "type": "uint32"
        }
      ],
      "payable": false,
      "stateMutability": "view",
      "type": "function"
    },
    {
      "constant": true,
      "inputs": [],
      "name": "end_time",
      "outputs": [
        {
          "name": "",
          "type": "uint256"
        }
      ],
      "payable": false,
      "stateMutability": "view",
      "type": "function"
    },
    {
      "constant": true,
      "inputs": [],
      "name": "token_multiplier",
      "outputs": [
        {
          "name": "",
          "type": "uint256"
        }
      ],
      "payable": false,
      "stateMutability": "view",
      "type": "function"
    },
    {
      "constant": true,
      "inputs": [],
      "name": "price_start",
      "outputs": [
        {
          "name": "",
          "type": "uint256"
        }
      ],
      "payable": false,
      "stateMutability": "view",
      "type": "function"
    },
    {
      "constant": true,
      "inputs": [],
      "name": "bid_threshold",
      "outputs": [
        {
          "name": "",
          "type": "uint256"
        }
      ],
      "payable": false,
      "stateMutability": "view",
      "type": "function"
    },
    {
      "constant": true,
      "inputs": [],
      "name": "funds_claimed",
      "outputs": [
        {
          "name": "",
          "type": "uint256"
        }
      ],
      "payable": false,
      "stateMutability": "view",
      "type": "function"
    },
    {
      "constant": true,
      "inputs": [],
      "name": "token_claim_waiting_period",
      "outputs": [
        {
          "name": "",
          "type": "uint256"
        }
      ],
      "payable": false,
      "stateMutability": "view",
      "type": "function"
    },
    {
      "constant": true,
      "inputs": [],
      "name": "whitelister_address",
      "outputs": [
        {
          "name": "",
          "type": "address"
        }
      ],
      "payable": false,
      "stateMutability": "view",
      "type": "function"
    },
    {
      "constant": true,
      "inputs": [
        {
          "name": "",
          "type": "address"
        }
      ],
      "name": "bids",
      "outputs": [
        {
          "name": "",
          "type": "uint256"
        }
      ],
      "payable": false,
      "stateMutability": "view",
      "type": "function"
    },
    {
      "constant": true,
      "inputs": [],
      "name": "received_wei",
      "outputs": [
        {
          "name": "",
          "type": "uint256"
        }
      ],
      "payable": false,
      "stateMutability": "view",
      "type": "function"
    },
    {
      "constant": true,
      "inputs": [],
      "name": "owner_address",
      "outputs": [
        {
          "name": "",
          "type": "address"
        }
      ],
      "payable": false,
      "stateMutability": "view",
      "type": "function"
    },
    {
      "constant": true,
      "inputs": [],
      "name": "start_time",
      "outputs": [
        {
          "name": "",
          "type": "uint256"
        }
      ],
      "payable": false,
      "stateMutability": "view",
      "type": "function"
    },
    {
      "constant": true,
      "inputs": [
        {
          "name": "",
          "type": "address"
        }
      ],
      "name": "whitelist",
      "outputs": [
        {
          "name": "",
          "type": "bool"
        }
      ],
      "payable": false,
      "stateMutability": "view",
      "type": "function"
    },
    {
      "constant": true,
      "inputs": [],
      "name": "price_constant",
      "outputs": [
        {
          "name": "",
          "type": "uint256"
        }
      ],
      "payable": false,
      "stateMutability": "view",
      "type": "function"
    },
    {
      "constant": true,
      "inputs": [],
      "name": "start_block",
      "outputs": [
        {
          "name": "",
          "type": "uint256"
        }
      ],
      "payable": false,
      "stateMutability": "view",
      "type": "function"
    },
    {
      "constant": true,
      "inputs": [],
      "name": "stage",
      "outputs": [
        {
          "name": "",
          "type": "uint8"
        }
      ],
      "payable": false,
      "stateMutability": "view",
      "type": "function"
    },
    {
      "constant": true,
      "inputs": [],
      "name": "wallet_address",
      "outputs": [
        {
          "name": "",
          "type": "address"
        }
      ],
      "payable": false,
      "stateMutability": "view",
      "type": "function"
    },
    {
      "constant": true,
      "inputs": [],
      "name": "token",
      "outputs": [
        {
          "name": "",
          "type": "address"
        }
      ],
      "payable": false,
      "stateMutability": "view",
      "type": "function"
    },
    {
      "inputs": [
        {
          "name": "_wallet_address",
          "type": "address"
        },
        {
          "name": "_whitelister_address",
          "type": "address"
        },
        {
          "name": "_price_start",
          "type": "uint256"
        },
        {
          "name": "_price_constant",
          "type": "uint256"
        },
        {
          "name": "_price_exponent",
          "type": "uint32"
        }
      ],
      "payable": false,
      "stateMutability": "nonpayable",
      "type": "constructor"
    },
    {
      "payable": true,
      "stateMutability": "payable",
      "type": "fallback"
    },
    {
      "anonymous": false,
      "inputs": [
        {
          "indexed": true,
          "name": "_price_start",
          "type": "uint256"
        },
        {
          "indexed": true,
          "name": "_price_constant",
          "type": "uint256"
        },
        {
          "indexed": true,
          "name": "_price_exponent",
          "type": "uint32"
        }
      ],
      "name": "Deployed",
      "type": "event"
    },
    {
      "anonymous": false,
      "inputs": [],
      "name": "Setup",
      "type": "event"
    },
    {
      "anonymous": false,
      "inputs": [
        {
          "indexed": true,
          "name": "_start_time",
          "type": "uint256"
        },
        {
          "indexed": true,
          "name": "_block_number",
          "type": "uint256"
        }
      ],
      "name": "AuctionStarted",
      "type": "event"
    },
    {
      "anonymous": false,
      "inputs": [
        {
          "indexed": true,
          "name": "_sender",
          "type": "address"
        },
        {
          "indexed": false,
          "name": "_amount",
          "type": "uint256"
        },
        {
          "indexed": false,
          "name": "_missing_funds",
          "type": "uint256"
        }
      ],
      "name": "BidSubmission",
      "type": "event"
    },
    {
      "anonymous": false,
      "inputs": [
        {
          "indexed": true,
          "name": "_recipient",
          "type": "address"
        },
        {
          "indexed": false,
          "name": "_sent_amount",
          "type": "uint256"
        }
      ],
      "name": "ClaimedTokens",
      "type": "event"
    },
    {
      "anonymous": false,
      "inputs": [
        {
          "indexed": false,
          "name": "_final_price",
          "type": "uint256"
        }
      ],
      "name": "AuctionEnded",
      "type": "event"
    },
    {
      "anonymous": false,
      "inputs": [],
      "name": "TokensDistributed",
      "type": "event"
    },
    {
      "constant": false,
      "inputs": [
        {
          "name": "_token_address",
          "type": "address"
        }
      ],
      "name": "setup",
      "outputs": [],
      "payable": false,
      "stateMutability": "nonpayable",
      "type": "function"
    },
    {
      "constant": false,
      "inputs": [
        {
          "name": "_bidder_addresses",
          "type": "address[]"
        }
      ],
      "name": "addToWhitelist",
      "outputs": [],
      "payable": false,
      "stateMutability": "nonpayable",
      "type": "function"
    },
    {
      "constant": false,
      "inputs": [
        {
          "name": "_bidder_addresses",
          "type": "address[]"
        }
      ],
      "name": "removeFromWhitelist",
      "outputs": [],
      "payable": false,
      "stateMutability": "nonpayable",
      "type": "function"
    },
    {
      "constant": false,
      "inputs": [],
      "name": "startAuction",
      "outputs": [],
      "payable": false,
      "stateMutability": "nonpayable",
      "type": "function"
    },
    {
      "constant": false,
      "inputs": [],
      "name": "finalizeAuction",
      "outputs": [],
      "payable": false,
      "stateMutability": "nonpayable",
      "type": "function"
    },
    {
      "constant": false,
      "inputs": [],
      "name": "bid",
      "outputs": [],
      "payable": true,
      "stateMutability": "payable",
      "type": "function"
    },
    {
      "constant": false,
      "inputs": [],
      "name": "claimTokens",
      "outputs": [
        {
          "name": "",
          "type": "bool"
        }
      ],
      "payable": false,
      "stateMutability": "nonpayable",
      "type": "function"
    },
    {
      "constant": false,
      "inputs": [
        {
          "name": "receiver_address",
          "type": "address"
        }
      ],
      "name": "proxyClaimTokens",
      "outputs": [
        {
          "name": "",
          "type": "bool"
        }
      ],
      "payable": false,
      "stateMutability": "nonpayable",
      "type": "function"
    },
    {
      "constant": true,
      "inputs": [],
      "name": "price",
      "outputs": [
        {
          "name": "",
          "type": "uint256"
        }
      ],
      "payable": false,
      "stateMutability": "view",
      "type": "function"
    },
    {
      "constant": true,
      "inputs": [],
      "name": "missingFundsToEndAuction",
      "outputs": [
        {
          "name": "",
          "type": "uint256"
        }
      ],
      "payable": false,
      "stateMutability": "view",
      "type": "function"
    }
  ],
  "bytecode": "0x608060405234801561001057600080fd5b5060405160a0806111518339810160409081528151602083015191830151606084015160809094015191939091600160a060020a038516151561005257600080fd5b600160a060020a038416151561006757600080fd5b60028054600160a060020a03878116600160a060020a031992831617909255600380549287169282169290921790915560018054909116331790556011805460ff191690556100c08383836401000000006100ff810204565b8063ffffffff1682847f386f36f3306fb418dd13e11a0f5b005c8b23a70fb5da6c18ab5123e5fe68598560405160405180910390a45050505050610177565b600060115460ff16600481111561011257fe5b148061012e5750600160115460ff16600481111561012c57fe5b145b151561013957600080fd5b6000831161014657600080fd5b6000821161015357600080fd5b6004929092556005556006805463ffffffff191663ffffffff909216919091179055565b610fcb806101866000396000f30060806040526004361061017f5763ffffffff7c010000000000000000000000000000000000000000000000000000000060003504166303cc7b8581146101a857806308b309e3146101cf5780630c64a739146101e457806316243356146102125780631998aeef146102275780631e3359621461023157806329b4d111146102465780632a8872991461025b5780632aefb7c51461027057806348c54b9d146102855780634b7829f1146102ae5780634e012918146102c3578063548db174146102f457806362ea82db1461034957806366d382031461036a5780636b64c7691461038b5780637b10e717146103a05780637f649783146103b557806380edef8e1461040a578063834ee4171461041f5780639b19251a146104345780639dbf054314610455578063a035b1fe1461046a578063aeaaaa081461047f578063b87fb3db146104a0578063c040e6b8146104b5578063c5cd88db146104ee578063e776a5b514610503578063f77282ab14610518578063fc0c546a1461052d575b60028060115460ff16600481111561019357fe5b1461019d57600080fd5b6101a5610542565b50005b3480156101b457600080fd5b506101bd610689565b60408051918252519081900360200190f35b3480156101db57600080fd5b506101bd61068f565b3480156101f057600080fd5b506101f9610695565b6040805163ffffffff9092168252519081900360200190f35b34801561021e57600080fd5b506101bd6106a1565b61022f610542565b005b34801561023d57600080fd5b506101bd6106a7565b34801561025257600080fd5b506101bd6106ad565b34801561026757600080fd5b506101bd6106b3565b34801561027c57600080fd5b506101bd6106c0565b34801561029157600080fd5b5061029a6106c6565b604080519115158252519081900360200190f35b3480156102ba57600080fd5b506101bd6106f6565b3480156102cf57600080fd5b506102d86106fb565b60408051600160a060020a039092168252519081900360200190f35b34801561030057600080fd5b506040805160206004803580820135838102808601850190965280855261022f9536959394602494938501929182918501908490808284375094975061070a9650505050505050565b34801561035557600080fd5b506101bd600160a060020a036004351661078b565b34801561037657600080fd5b5061022f600160a060020a036004351661079d565b34801561039757600080fd5b5061022f610970565b3480156103ac57600080fd5b506101bd6109ed565b3480156103c157600080fd5b506040805160206004803580820135838102808601850190965280855261022f953695939460249493850192918291850190849080828437509497506109f39650505050505050565b34801561041657600080fd5b506102d8610a74565b34801561042b57600080fd5b506101bd610a83565b34801561044057600080fd5b5061029a600160a060020a0360043516610a89565b34801561046157600080fd5b506101bd610a9e565b34801561047657600080fd5b506101bd610aa4565b34801561048b57600080fd5b5061029a600160a060020a0360043516610af0565b3480156104ac57600080fd5b506101bd610e3a565b3480156104c157600080fd5b506104ca610e40565b604051808260048111156104da57fe5b60ff16815260200191505060405180910390f35b3480156104fa57600080fd5b506101bd610e49565b34801561050f57600080fd5b506102d8610e85565b34801561052457600080fd5b5061022f610e94565b34801561053957600080fd5b506102d8610f32565b600060028060115460ff16600481111561055857fe5b1461056257600080fd5b6000341161056f57600080fd5b336000908152600f6020526040902054683635c9adc5dea00000349091011115806105a957503360009081526010602052604090205460ff165b15156105b457600080fd5b336000908152600f60205260409020543490810110156105d057fe5b6105d8610e49565b9150348210156105e757600080fd5b336000908152600f6020526040808220805434908101909155600a8054820190556002549151600160a060020a03909216926108fc8215029290818181858888f1935050505015801561063e573d6000803e3d6000fd5b506040805134815260208101849052815133927fc9c6176cbf7c0a8c29655fe8ccbe5e28382ca11459d145223308723bfc697545928290030190a2600a5434111561068557fe5b5050565b600d5481565b600e5481565b60065463ffffffff1681565b60085481565b600c5481565b60045481565b683635c9adc5dea0000081565b600b5481565b600060038060115460ff1660048111156106dc57fe5b146106e657600080fd5b6106ef33610af0565b91505b5090565b600081565b600354600160a060020a031681565b600354600090600160a060020a0316331461072457600080fd5b5060005b81518163ffffffff16101561068557600060106000848463ffffffff1681518110151561075157fe5b602090810291909101810151600160a060020a03168252810191909152604001600020805460ff1916911515919091179055600101610728565b600f6020526000908152604090205481565b600154600160a060020a031633146107b457600080fd5b60008060115460ff1660048111156107c857fe5b146107d257600080fd5b600160a060020a03821615156107e757600080fd5b6000805473ffffffffffffffffffffffffffffffffffffffff1916600160a060020a0384811691909117808355604080517f70a08231000000000000000000000000000000000000000000000000000000008152306004820152905191909216926370a0823192602480820193602093909283900390910190829087803b15801561087157600080fd5b505af1158015610885573d6000803e3d6000fd5b505050506040513d602081101561089b57600080fd5b5051600d5560008054604080517f313ce5670000000000000000000000000000000000000000000000000000000081529051600160a060020a039092169263313ce567926004808401936020939083900390910190829087803b15801561090157600080fd5b505af1158015610915573d6000803e3d6000fd5b505050506040513d602081101561092b57600080fd5b505160ff16600a0a600c556011805460ff191660011790556040517f587930504fa5b1062f394d90f9dac9ecadd354ed23a97af9ea4e44dff4870a8490600090a15050565b600154600160a060020a0316331461098757600080fd5b60018060115460ff16600481111561099b57fe5b146109a557600080fd5b6011805460ff191660021790554260078190554360098190556040519091907ff8910119ddbef5440c54532457dfe8250a10ed39e583292818f44724b9e1344c90600090a350565b600a5481565b600354600090600160a060020a03163314610a0d57600080fd5b5060005b81518163ffffffff16101561068557600160106000848463ffffffff16815181101515610a3a57fe5b602090810291909101810151600160a060020a03168252810191909152604001600020805460ff1916911515919091179055600101610a11565b600154600160a060020a031681565b60075481565b60106020526000908152604090205460ff1681565b60055481565b6000600360115460ff166004811115610ab957fe5b1480610ad55750600460115460ff166004811115610ad357fe5b145b15610ae257506000610aed565b610aea610f41565b90505b90565b6000808060038060115460ff166004811115610b0857fe5b14610b1257600080fd5b6008544211610b2057600080fd5b600160a060020a0385161515610b3557600080fd5b600160a060020a0385166000908152600f60205260409020541515610b5d5760009350610e32565b600e54600160a060020a0386166000908152600f6020526040902054600c5402811515610b8657fe5b60008054604080517f70a082310000000000000000000000000000000000000000000000000000000081523060048201529051949093049650600160a060020a0316926370a08231926024808201936020939283900390910190829087803b158015610bf157600080fd5b505af1158015610c05573d6000803e3d6000fd5b505050506040513d6020811015610c1b57600080fd5b5051915081831115610c2b578192505b600160a060020a038086166000818152600f602090815260408083208054600b80549091019055839055825481517fa9059cbb000000000000000000000000000000000000000000000000000000008152600481019590955260248501899052905194169363a9059cbb93604480820194918390030190829087803b158015610cb357600080fd5b505af1158015610cc7573d6000803e3d6000fd5b505050506040513d6020811015610cdd57600080fd5b50511515610cea57600080fd5b604080518481529051600160a060020a038716917fe9aa550fd75d0d28e07fa9dd67d3ae705678776f6c4a75abd09534f93e7d7907919081900360200190a2600a54600b541415610d6c576011805460ff191660041790556040517fcea85459abe456c560868e61c476933dcee35a72aba5f546e93715929a69618690600090a15b60008054604080517f70a08231000000000000000000000000000000000000000000000000000000008152600160a060020a0389811660048301529151879492909316926370a0823192602480840193602093929083900390910190829087803b158015610dd957600080fd5b505af1158015610ded573d6000803e3d6000fd5b505050506040513d6020811015610e0357600080fd5b50511015610e0d57fe5b600160a060020a0385166000908152600f602052604090205415610e2d57fe5b600193505b505050919050565b60095481565b60115460ff1681565b600080600c54610e57610aa4565b600d5402811515610e6457fe5b049050600a5481111515610e7b57600091506106f2565b600a549003919050565b600254600160a060020a031681565b600060028060115460ff166004811115610eaa57fe5b14610eb457600080fd5b610ebc610e49565b91508115610ec957600080fd5b600d54600a54600c5402811515610edc57fe5b04600e819055426008556011805460ff1916600317905560408051918252517f45806e512b1f4f10e33e8b3cb64d1d11d998d8c554a95e0841fc1c701278bd5d916020908290030190a1600e5460001061068557fe5b600054600160a060020a031681565b60008080600260115460ff166004811115610f5857fe5b1415610f6657600754420391505b60055460065463ffffffff16830a811515610f7d57fe5b0490508082600101018260010160045402811515610f9757fe5b0492505050905600a165627a7a72305820594fb8a495b00d6df56c6bc73a276a6d478675abe400f317b53134ca5bba4dad0029",
  "source": "pragma solidity ^0.4.17;\n\nimport '../token/ERC20Token.sol';\n\n/// @title Dutch auction contract - distribution of a fixed number of tokens using an auction.\n/// The contract code is inspired by the Gnosis auction contract. Main difference is that the\n/// auction ends if a fixed number of tokens was sold.\ncontract DutchAuction {\n    /*\n     * Auction for the RDN Token.\n     *\n     * Terminology:\n     * 1 token unit = Rei\n     * 1 token = RDN = Rei * token_multiplier\n     * token_multiplier set from token's number of decimals (i.e. 10 ** decimals)\n     */\n\n    // Disable waiting period\n    uint constant public token_claim_waiting_period = 0;\n\n    // Bid value over which the address has to be whitelisted\n    // At deployment moment, less than 1k$\n    uint constant public bid_threshold = 1000 ether;\n\n    /*\n     * Storage\n     */\n\n    ERC20Token public token;\n    address public owner_address;\n    address public wallet_address;\n    address public whitelister_address;\n\n    // Price decay function parameters to be changed depending on the desired outcome\n\n    // Starting price in WEI; e.g. 2 * 10 ** 18\n    uint public price_start;\n\n    // Divisor constant; e.g. 524880000\n    uint public price_constant;\n\n    // Divisor exponent; e.g. 3\n    uint32 public price_exponent;\n\n    // For calculating elapsed time for price\n    uint public start_time;\n    uint public end_time;\n    uint public start_block;\n\n    // Keep track of all ETH received in the bids\n    uint public received_wei;\n\n    // Keep track of cumulative ETH funds for which the tokens have been claimed\n    uint public funds_claimed;\n\n    uint public token_multiplier;\n\n    // Total number of Rei (RDN * token_multiplier) that will be auctioned\n    uint public num_tokens_auctioned;\n\n    // Wei per RDN (Rei * token_multiplier)\n    uint public final_price;\n\n    // Bidder address => bid value\n    mapping (address => uint) public bids;\n\n    // Whitelist for addresses that want to bid more than bid_threshold\n    mapping (address => bool) public whitelist;\n\n    Stages public stage;\n\n    /*\n     * Enums\n     */\n    enum Stages {\n        AuctionDeployed,\n        AuctionSetUp,\n        AuctionStarted,\n        AuctionEnded,\n        TokensDistributed\n    }\n\n    /*\n     * Modifiers\n     */\n    modifier atStage(Stages _stage) {\n        require(stage == _stage);\n        _;\n    }\n\n    modifier isOwner() {\n        require(msg.sender == owner_address);\n        _;\n    }\n\n    modifier isWhitelister() {\n        require(msg.sender == whitelister_address);\n        _;\n    }\n\n    /*\n     * Events\n     */\n\n    event Deployed(\n        uint indexed _price_start,\n        uint indexed _price_constant,\n        uint32 indexed _price_exponent\n    );\n    event Setup();\n    event AuctionStarted(uint indexed _start_time, uint indexed _block_number);\n    event BidSubmission(\n        address indexed _sender,\n        uint _amount,\n        uint _missing_funds\n    );\n    event ClaimedTokens(address indexed _recipient, uint _sent_amount);\n    event AuctionEnded(uint _final_price);\n    event TokensDistributed();\n\n    /*\n     * Public functions\n     */\n\n    /// @dev Contract constructor function sets the starting price, divisor constant and\n    /// divisor exponent for calculating the Dutch Auction price.\n    /// @param _wallet_address Wallet address to which all contributed ETH will be forwarded.\n    /// @param _price_start High price in WEI at which the auction starts.\n    /// @param _price_constant Auction price divisor constant.\n    /// @param _price_exponent Auction price divisor exponent.\n    function DutchAuction(\n        address _wallet_address,\n        address _whitelister_address,\n        uint _price_start,\n        uint _price_constant,\n        uint32 _price_exponent)\n        public\n    {\n        require(_wallet_address != 0x0);\n        require(_whitelister_address != 0x0);\n        wallet_address = _wallet_address;\n        whitelister_address = _whitelister_address;\n\n        owner_address = msg.sender;\n        stage = Stages.AuctionDeployed;\n        changeSettings(_price_start, _price_constant, _price_exponent);\n        Deployed(_price_start, _price_constant, _price_exponent);\n    }\n\n    /// @dev Fallback function for the contract, which calls bid() if the auction has started.\n    function () public payable atStage(Stages.AuctionStarted) {\n        bid();\n    }\n\n    /// @notice Set `_token_address` as the token address to be used in the auction.\n    /// @dev Setup function sets external contracts addresses.\n    /// @param _token_address Token address.\n    function setup(address _token_address) public isOwner atStage(Stages.AuctionDeployed) {\n        require(_token_address != 0x0);\n        token = ERC20Token(_token_address);\n\n        // Get number of Rei (RDN * token_multiplier) to be auctioned from token auction balance\n        num_tokens_auctioned = token.balanceOf(address(this));\n\n        // Set the number of the token multiplier for its decimals\n        token_multiplier = 10 ** uint(token.decimals());\n\n        stage = Stages.AuctionSetUp;\n        Setup();\n    }\n\n    /// @notice Set `_price_start`, `_price_constant` and `_price_exponent` as\n    /// the new starting price, price divisor constant and price divisor exponent.\n    /// @dev Changes auction price function parameters before auction is started.\n    /// @param _price_start Updated start price.\n    /// @param _price_constant Updated price divisor constant.\n    /// @param _price_exponent Updated price divisor exponent.\n    function changeSettings(\n        uint _price_start,\n        uint _price_constant,\n        uint32 _price_exponent)\n        internal\n    {\n        require(stage == Stages.AuctionDeployed || stage == Stages.AuctionSetUp);\n        require(_price_start > 0);\n        require(_price_constant > 0);\n\n        price_start = _price_start;\n        price_constant = _price_constant;\n        price_exponent = _price_exponent;\n    }\n\n    /// @notice Adds account addresses to whitelist.\n    /// @dev Adds account addresses to whitelist.\n    /// @param _bidder_addresses Array of addresses.\n    function addToWhitelist(address[] _bidder_addresses) public isWhitelister {\n        for (uint32 i = 0; i < _bidder_addresses.length; i++) {\n            whitelist[_bidder_addresses[i]] = true;\n        }\n    }\n\n    /// @notice Removes account addresses from whitelist.\n    /// @dev Removes account addresses from whitelist.\n    /// @param _bidder_addresses Array of addresses.\n    function removeFromWhitelist(address[] _bidder_addresses) public isWhitelister {\n        for (uint32 i = 0; i < _bidder_addresses.length; i++) {\n            whitelist[_bidder_addresses[i]] = false;\n        }\n    }\n\n    /// @notice Start the auction.\n    /// @dev Starts auction and sets start_time.\n    function startAuction() public isOwner atStage(Stages.AuctionSetUp) {\n        stage = Stages.AuctionStarted;\n        start_time = now;\n        start_block = block.number;\n        AuctionStarted(start_time, start_block);\n    }\n\n    /// @notice Finalize the auction - sets the final RDN token price and changes the auction\n    /// stage after no bids are allowed anymore.\n    /// @dev Finalize auction and set the final RDN token price.\n    function finalizeAuction() public atStage(Stages.AuctionStarted)\n    {\n        // Missing funds should be 0 at this point\n        uint missing_funds = missingFundsToEndAuction();\n        require(missing_funds == 0);\n\n        // Calculate the final price = WEI / RDN = WEI / (Rei / token_multiplier)\n        // Reminder: num_tokens_auctioned is the number of Rei (RDN * token_multiplier) that are auctioned\n        final_price = token_multiplier * received_wei / num_tokens_auctioned;\n\n        end_time = now;\n        stage = Stages.AuctionEnded;\n        AuctionEnded(final_price);\n\n        assert(final_price > 0);\n    }\n\n    /// --------------------------------- Auction Functions ------------------\n\n\n    /// @notice Send `msg.value` WEI to the auction from the `msg.sender` account.\n    /// @dev Allows to send a bid to the auction.\n    function bid()\n        public\n        payable\n        atStage(Stages.AuctionStarted)\n    {\n        require(msg.value > 0);\n        require(bids[msg.sender] + msg.value <= bid_threshold || whitelist[msg.sender]);\n        assert(bids[msg.sender] + msg.value >= msg.value);\n\n        // Missing funds without the current bid value\n        uint missing_funds = missingFundsToEndAuction();\n\n        // We require bid values to be less than the funds missing to end the auction\n        // at the current price.\n        require(msg.value <= missing_funds);\n\n        bids[msg.sender] += msg.value;\n        received_wei += msg.value;\n\n        // Send bid amount to wallet\n        wallet_address.transfer(msg.value);\n\n        BidSubmission(msg.sender, msg.value, missing_funds);\n\n        assert(received_wei >= msg.value);\n    }\n\n    /// @notice Claim auction tokens for `msg.sender` after the auction has ended.\n    /// @dev Claims tokens for `msg.sender` after auction. To be used if tokens can\n    /// be claimed by beneficiaries, individually.\n    function claimTokens() public atStage(Stages.AuctionEnded) returns (bool) {\n        return proxyClaimTokens(msg.sender);\n    }\n\n    /// @notice Claim auction tokens for `receiver_address` after the auction has ended.\n    /// @dev Claims tokens for `receiver_address` after auction has ended.\n    /// @param receiver_address Tokens will be assigned to this address if eligible.\n    function proxyClaimTokens(address receiver_address)\n        public\n        atStage(Stages.AuctionEnded)\n        returns (bool)\n    {\n        // Waiting period after the end of the auction, before anyone can claim tokens\n        // Ensures enough time to check if auction was finalized correctly\n        // before users start transacting tokens\n        require(now > end_time + token_claim_waiting_period);\n        require(receiver_address != 0x0);\n\n        if (bids[receiver_address] == 0) {\n            return false;\n        }\n\n        // Number of Rei = bid_wei / Rei = bid_wei / (wei_per_RDN * token_multiplier)\n        uint num = (token_multiplier * bids[receiver_address]) / final_price;\n\n        // Due to final_price floor rounding, the number of assigned tokens may be higher\n        // than expected. Therefore, the number of remaining unassigned auction tokens\n        // may be smaller than the number of tokens needed for the last claimTokens call\n        uint auction_tokens_balance = token.balanceOf(address(this));\n        if (num > auction_tokens_balance) {\n            num = auction_tokens_balance;\n        }\n\n        // Update the total amount of funds for which tokens have been claimed\n        funds_claimed += bids[receiver_address];\n\n        // Set receiver bid to 0 before assigning tokens\n        bids[receiver_address] = 0;\n\n        require(token.transfer(receiver_address, num));\n\n        ClaimedTokens(receiver_address, num);\n\n        // After the last tokens are claimed, we change the auction stage\n        // Due to the above logic, rounding errors will not be an issue\n        if (funds_claimed == received_wei) {\n            stage = Stages.TokensDistributed;\n            TokensDistributed();\n        }\n\n        assert(token.balanceOf(receiver_address) >= num);\n        assert(bids[receiver_address] == 0);\n        return true;\n    }\n\n    /// @notice Get the RDN price in WEI during the auction, at the time of\n    /// calling this function. Returns `0` if auction has ended.\n    /// Returns `price_start` before auction has started.\n    /// @dev Calculates the current RDN token price in WEI.\n    /// @return Returns WEI per RDN (token_multiplier * Rei).\n    function price() public constant returns (uint) {\n        if (stage == Stages.AuctionEnded ||\n            stage == Stages.TokensDistributed) {\n            return 0;\n        }\n        return calcTokenPrice();\n    }\n\n    /// @notice Get the missing funds needed to end the auction,\n    /// calculated at the current RDN price in WEI.\n    /// @dev The missing funds amount necessary to end the auction at the current RDN price in WEI.\n    /// @return Returns the missing funds amount in WEI.\n    function missingFundsToEndAuction() constant public returns (uint) {\n\n        // num_tokens_auctioned = total number of Rei (RDN * token_multiplier) that is auctioned\n        uint required_wei_at_price = num_tokens_auctioned * price() / token_multiplier;\n        if (required_wei_at_price <= received_wei) {\n            return 0;\n        }\n\n        // assert(required_wei_at_price - received_wei > 0);\n        return required_wei_at_price - received_wei;\n    }\n\n    /*\n     *  Private functions\n     */\n\n    /// @dev Calculates the token price (WEI / RDN) at the current timestamp\n    /// during the auction; elapsed time = 0 before auction starts.\n    /// Based on the provided parameters, the price does not change in the first\n    /// `price_constant^(1/price_exponent)` seconds due to rounding.\n    /// Rounding in `decay_rate` also produces values that increase instead of decrease\n    /// in the beginning; these spikes decrease over time and are noticeable\n    /// only in first hours. This should be calculated before usage.\n    /// @return Returns the token price - Wei per RDN.\n    function calcTokenPrice() constant private returns (uint) {\n        uint elapsed;\n        if (stage == Stages.AuctionStarted) {\n            elapsed = now - start_time;\n        }\n\n        uint decay_rate = elapsed ** price_exponent / price_constant;\n        return price_start * (1 + elapsed) / (1 + elapsed + decay_rate);\n    }\n}\n",
  "sourcePath": "/Users/rudo/Documents/ichiba/submodules/contracts/solidity/contracts/DutchAuction/DutchAuction.sol",
  "compiler": {
    "name": "solc",
    "version": "0.4.24+commit.e67f0147.Emscripten.clang"
  },
  "schemaVersion": "2.0.1",
  "updatedAt": "2019-03-03T09:13:38.243Z"
}