{
  "contractName": "EtherToken",
  "abi": [
    {
      "constant": true,
      "inputs": [],
      "name": "name",
      "outputs": [
        {
          "name": "",
          "type": "string"
        }
      ],
      "payable": false,
      "stateMutability": "view",
      "type": "function"
    },
    {
      "constant": false,
      "inputs": [
        {
          "name": "_spender",
          "type": "address"
        },
        {
          "name": "_value",
          "type": "uint256"
        }
      ],
      "name": "approve",
      "outputs": [
        {
          "name": "success",
          "type": "bool"
        }
      ],
      "payable": false,
      "stateMutability": "nonpayable",
      "type": "function"
    },
    {
      "constant": true,
      "inputs": [],
      "name": "totalSupply",
      "outputs": [
        {
          "name": "",
          "type": "uint256"
        }
      ],
      "payable": false,
      "stateMutability": "view",
      "type": "function"
    },
    {
      "constant": true,
      "inputs": [],
      "name": "decimals",
      "outputs": [
        {
          "name": "",
          "type": "uint8"
        }
      ],
      "payable": false,
      "stateMutability": "view",
      "type": "function"
    },
    {
      "constant": true,
      "inputs": [],
      "name": "standard",
      "outputs": [
        {
          "name": "",
          "type": "string"
        }
      ],
      "payable": false,
      "stateMutability": "view",
      "type": "function"
    },
    {
      "constant": false,
      "inputs": [
        {
          "name": "_token",
          "type": "address"
        },
        {
          "name": "_to",
          "type": "address"
        },
        {
          "name": "_amount",
          "type": "uint256"
        }
      ],
      "name": "withdrawTokens",
      "outputs": [],
      "payable": false,
      "stateMutability": "nonpayable",
      "type": "function"
    },
    {
      "constant": true,
      "inputs": [
        {
          "name": "",
          "type": "address"
        }
      ],
      "name": "balanceOf",
      "outputs": [
        {
          "name": "",
          "type": "uint256"
        }
      ],
      "payable": false,
      "stateMutability": "view",
      "type": "function"
    },
    {
      "constant": false,
      "inputs": [],
      "name": "acceptOwnership",
      "outputs": [],
      "payable": false,
      "stateMutability": "nonpayable",
      "type": "function"
    },
    {
      "constant": true,
      "inputs": [],
      "name": "owner",
      "outputs": [
        {
          "name": "",
          "type": "address"
        }
      ],
      "payable": false,
      "stateMutability": "view",
      "type": "function"
    },
    {
      "constant": true,
      "inputs": [],
      "name": "symbol",
      "outputs": [
        {
          "name": "",
          "type": "string"
        }
      ],
      "payable": false,
      "stateMutability": "view",
      "type": "function"
    },
    {
      "constant": true,
      "inputs": [],
      "name": "newOwner",
      "outputs": [
        {
          "name": "",
          "type": "address"
        }
      ],
      "payable": false,
      "stateMutability": "view",
      "type": "function"
    },
    {
      "constant": true,
      "inputs": [
        {
          "name": "",
          "type": "address"
        },
        {
          "name": "",
          "type": "address"
        }
      ],
      "name": "allowance",
      "outputs": [
        {
          "name": "",
          "type": "uint256"
        }
      ],
      "payable": false,
      "stateMutability": "view",
      "type": "function"
    },
    {
      "constant": false,
      "inputs": [
        {
          "name": "_newOwner",
          "type": "address"
        }
      ],
      "name": "transferOwnership",
      "outputs": [],
      "payable": false,
      "stateMutability": "nonpayable",
      "type": "function"
    },
    {
      "inputs": [],
      "payable": false,
      "stateMutability": "nonpayable",
      "type": "constructor"
    },
    {
      "payable": true,
      "stateMutability": "payable",
      "type": "fallback"
    },
    {
      "anonymous": false,
      "inputs": [
        {
          "indexed": false,
          "name": "_amount",
          "type": "uint256"
        }
      ],
      "name": "Issuance",
      "type": "event"
    },
    {
      "anonymous": false,
      "inputs": [
        {
          "indexed": false,
          "name": "_amount",
          "type": "uint256"
        }
      ],
      "name": "Destruction",
      "type": "event"
    },
    {
      "anonymous": false,
      "inputs": [
        {
          "indexed": true,
          "name": "_from",
          "type": "address"
        },
        {
          "indexed": true,
          "name": "_to",
          "type": "address"
        },
        {
          "indexed": false,
          "name": "_value",
          "type": "uint256"
        }
      ],
      "name": "Transfer",
      "type": "event"
    },
    {
      "anonymous": false,
      "inputs": [
        {
          "indexed": true,
          "name": "_owner",
          "type": "address"
        },
        {
          "indexed": true,
          "name": "_spender",
          "type": "address"
        },
        {
          "indexed": false,
          "name": "_value",
          "type": "uint256"
        }
      ],
      "name": "Approval",
      "type": "event"
    },
    {
      "anonymous": false,
      "inputs": [
        {
          "indexed": true,
          "name": "_prevOwner",
          "type": "address"
        },
        {
          "indexed": true,
          "name": "_newOwner",
          "type": "address"
        }
      ],
      "name": "OwnerUpdate",
      "type": "event"
    },
    {
      "constant": false,
      "inputs": [],
      "name": "deposit",
      "outputs": [],
      "payable": true,
      "stateMutability": "payable",
      "type": "function"
    },
    {
      "constant": false,
      "inputs": [
        {
          "name": "_amount",
          "type": "uint256"
        }
      ],
      "name": "withdraw",
      "outputs": [],
      "payable": false,
      "stateMutability": "nonpayable",
      "type": "function"
    },
    {
      "constant": false,
      "inputs": [
        {
          "name": "_to",
          "type": "address"
        },
        {
          "name": "_amount",
          "type": "uint256"
        }
      ],
      "name": "withdrawTo",
      "outputs": [],
      "payable": false,
      "stateMutability": "nonpayable",
      "type": "function"
    },
    {
      "constant": false,
      "inputs": [
        {
          "name": "_to",
          "type": "address"
        },
        {
          "name": "_value",
          "type": "uint256"
        }
      ],
      "name": "transfer",
      "outputs": [
        {
          "name": "success",
          "type": "bool"
        }
      ],
      "payable": false,
      "stateMutability": "nonpayable",
      "type": "function"
    },
    {
      "constant": false,
      "inputs": [
        {
          "name": "_from",
          "type": "address"
        },
        {
          "name": "_to",
          "type": "address"
        },
        {
          "name": "_value",
          "type": "uint256"
        }
      ],
      "name": "transferFrom",
      "outputs": [
        {
          "name": "success",
          "type": "bool"
        }
      ],
      "payable": false,
      "stateMutability": "nonpayable",
      "type": "function"
    }
  ],
  "bytecode": "0x60c0604052600960808190527f546f6b656e20302e31000000000000000000000000000000000000000000000060a090815262000040916002919062000186565b50604080516020810191829052600090819052620000619160039162000186565b50604080516020810191829052600090819052620000829160049162000186565b506005805460ff1916905560006006553480156200009f57600080fd5b50604080518082018252600b81527f457468657220546f6b656e0000000000000000000000000000000000000000006020808301919091528251808401909352600383527f45544800000000000000000000000000000000000000000000000000000000009083015260008054600160a060020a03191633178155815191929160129110801562000131575060008251115b15156200013d57600080fd5b82516200015290600390602086019062000186565b5081516200016890600490602085019062000186565b506005805460ff191660ff92909216919091179055506200022b9050565b828054600181600116156101000203166002900490600052602060002090601f016020900481019282601f10620001c957805160ff1916838001178555620001f9565b82800160010185558215620001f9579182015b82811115620001f9578251825591602001919060010190620001dc565b50620002079291506200020b565b5090565b6200022891905b8082111562000207576000815560010162000212565b90565b610c34806200023b6000396000f3006080604052600436106100fb5763ffffffff7c010000000000000000000000000000000000000000000000000000000060003504166306fdde038114610105578063095ea7b31461018f57806318160ddd146101c7578063205c2878146101ee57806323b872dd146102125780632e1a7d4d1461023c578063313ce567146102545780635a3b7e421461027f5780635e35359e1461029457806370a08231146102be57806379ba5097146102df5780638da5cb5b146102f457806395d89b4114610325578063a9059cbb1461033a578063d0e30db0146100fb578063d4ee1d901461035e578063dd62ed3e14610373578063f2fde38b1461039a575b6101036103bb565b005b34801561011157600080fd5b5061011a61044f565b6040805160208082528351818301528351919283929083019185019080838360005b8381101561015457818101518382015260200161013c565b50505050905090810190601f1680156101815780820380516001836020036101000a031916815260200191505b509250505060405180910390f35b34801561019b57600080fd5b506101b3600160a060020a03600435166024356104dd565b604080519115158252519081900360200190f35b3480156101d357600080fd5b506101dc610596565b60408051918252519081900360200190f35b3480156101fa57600080fd5b50610103600160a060020a036004351660243561059c565b34801561021e57600080fd5b506101b3600160a060020a0360043581169060243516604435610681565b34801561024857600080fd5b506101036004356106b8565b34801561026057600080fd5b506102696106c5565b6040805160ff9092168252519081900360200190f35b34801561028b57600080fd5b5061011a6106ce565b3480156102a057600080fd5b50610103600160a060020a0360043581169060243516604435610726565b3480156102ca57600080fd5b506101dc600160a060020a0360043516610838565b3480156102eb57600080fd5b5061010361084a565b34801561030057600080fd5b506103096108d2565b60408051600160a060020a039092168252519081900360200190f35b34801561033157600080fd5b5061011a6108e1565b34801561034657600080fd5b506101b3600160a060020a036004351660243561093c565b34801561036a57600080fd5b50610309610971565b34801561037f57600080fd5b506101dc600160a060020a0360043581169060243516610980565b3480156103a657600080fd5b50610103600160a060020a036004351661099d565b336000908152600760205260409020546103d590346109fe565b336000908152600760205260409020556006546103f290346109fe565b6006556040805134815290517f9386c90217c323f58030f9dadcbc938f807a940f4ff41cd4cead9562f5da7dc39181900360200190a160408051348152905133913091600080516020610be98339815191529181900360200190a3565b6003805460408051602060026001851615610100026000190190941693909304601f810184900484028201840190925281815292918301828280156104d55780601f106104aa576101008083540402835291602001916104d5565b820191906000526020600020905b8154815290600101906020018083116104b857829003601f168201915b505050505081565b600082600160a060020a03811615156104f557600080fd5b8215806105235750336000908152600860209081526040808320600160a060020a0388168452909152902054155b151561052e57600080fd5b336000818152600860209081526040808320600160a060020a03891680855290835292819020879055805187815290519293927f8c5be1e5ebec7d5bd14f71427d1e84f3dd0314c0f7b2291e5b200ac8c7c3b925929181900390910190a35060019392505050565b60065481565b81600160a060020a0381163014156105b357600080fd5b336000908152600760205260409020546105cd9083610a14565b336000908152600760205260409020556006546105ea9083610a14565b600655604051600160a060020a0384169083156108fc029084906000818181858888f19350505050158015610623573d6000803e3d6000fd5b5060408051838152905130913391600080516020610be98339815191529181900360200190a36040805183815290517f9a1b418bc061a5d80270261562e6986a35d995f8051145f277be16103abd34539181900360200190a1505050565b600082600160a060020a03811630141561069a57600080fd5b6106a5858585610a26565b15156106ad57fe5b506001949350505050565b6106c2338261059c565b50565b60055460ff1681565b6002805460408051602060018416156101000260001901909316849004601f810184900484028201840190925281815292918301828280156104d55780601f106104aa576101008083540402835291602001916104d5565b600054600160a060020a0316331461073d57600080fd5b82600160a060020a038116151561075357600080fd5b82600160a060020a038116151561076957600080fd5b83600160a060020a03811630141561078057600080fd5b85600160a060020a031663a9059cbb86866040518363ffffffff167c01000000000000000000000000000000000000000000000000000000000281526004018083600160a060020a0316600160a060020a0316815260200182815260200192505050602060405180830381600087803b1580156107fc57600080fd5b505af1158015610810573d6000803e3d6000fd5b505050506040513d602081101561082657600080fd5b5051151561083057fe5b505050505050565b60076020526000908152604090205481565b600154600160a060020a0316331461086157600080fd5b60015460008054604051600160a060020a0393841693909116917f343765429aea5a34b3ff6a3785a98a5abb2597aca87bfbb58632c173d585373a91a3600180546000805473ffffffffffffffffffffffffffffffffffffffff19908116600160a060020a03841617909155169055565b600054600160a060020a031681565b6004805460408051602060026001851615610100026000190190941693909304601f810184900484028201840190925281815292918301828280156104d55780601f106104aa576101008083540402835291602001916104d5565b600082600160a060020a03811630141561095557600080fd5b61095f8484610b3d565b151561096757fe5b5060019392505050565b600154600160a060020a031681565b600860209081526000928352604080842090915290825290205481565b600054600160a060020a031633146109b457600080fd5b600054600160a060020a03828116911614156109cf57600080fd5b6001805473ffffffffffffffffffffffffffffffffffffffff1916600160a060020a0392909216919091179055565b600082820183811015610a0d57fe5b9392505050565b600081831015610a2057fe5b50900390565b600083600160a060020a0381161515610a3e57600080fd5b83600160a060020a0381161515610a5457600080fd5b600160a060020a0386166000908152600860209081526040808320338452909152902054610a829085610a14565b600160a060020a038716600081815260086020908152604080832033845282528083209490945591815260079091522054610abd9085610a14565b600160a060020a038088166000908152600760205260408082209390935590871681522054610aec90856109fe565b600160a060020a0380871660008181526007602090815260409182902094909455805188815290519193928a1692600080516020610be983398151915292918290030190a350600195945050505050565b600082600160a060020a0381161515610b5557600080fd5b33600090815260076020526040902054610b6f9084610a14565b3360009081526007602052604080822092909255600160a060020a03861681522054610b9b90846109fe565b600160a060020a038516600081815260076020908152604091829020939093558051868152905191923392600080516020610be98339815191529281900390910190a350600193925050505600ddf252ad1be2c89b69c2b068fc378daa952ba7f163c4a11628f55a4df523b3efa165627a7a7230582014748679710193f42426841411d3829e4e8beaa20c905ba07d1d5db9739338fd0029",
  "source": "pragma solidity ^0.4.24;\nimport './ERC20Token.sol';\nimport './interfaces/IEtherToken.sol';\nimport '../utility/Owned.sol';\nimport '../utility/TokenHolder.sol';\n\n/**\n    Ether tokenization contract\n\n    'Owned' is specified here for readability reasons\n*/\ncontract EtherToken is IEtherToken, Owned, ERC20Token, TokenHolder {\n    // triggered when the total supply is increased\n    event Issuance(uint256 _amount);\n    // triggered when the total supply is decreased\n    event Destruction(uint256 _amount);\n\n    /**\n        @dev constructor\n    */\n    constructor()\n        public\n        ERC20Token('Ether Token', 'ETH', 18) {\n    }\n\n    /**\n        @dev deposit ether in the account\n    */\n    function deposit() public payable {\n        balanceOf[msg.sender] = safeAdd(balanceOf[msg.sender], msg.value); // add the value to the account balance\n        totalSupply = safeAdd(totalSupply, msg.value); // increase the total supply\n\n        emit Issuance(msg.value);\n        emit Transfer(this, msg.sender, msg.value);\n    }\n\n    /**\n        @dev withdraw ether from the account\n\n        @param _amount  amount of ether to withdraw\n    */\n    function withdraw(uint256 _amount) public {\n        withdrawTo(msg.sender, _amount);\n    }\n\n    /**\n        @dev withdraw ether from the account to a target account\n\n        @param _to      account to receive the ether\n        @param _amount  amount of ether to withdraw\n    */\n    function withdrawTo(address _to, uint256 _amount)\n        public\n        notThis(_to)\n    {\n        balanceOf[msg.sender] = safeSub(balanceOf[msg.sender], _amount); // deduct the amount from the account balance\n        totalSupply = safeSub(totalSupply, _amount); // decrease the total supply\n        _to.transfer(_amount); // send the amount to the target account\n\n        emit Transfer(msg.sender, this, _amount);\n        emit Destruction(_amount);\n    }\n\n    // ERC20 standard method overrides with some extra protection\n\n    /**\n        @dev send coins\n        throws on any error rather then return a false flag to minimize user errors\n\n        @param _to      target address\n        @param _value   transfer amount\n\n        @return true if the transfer was successful, false if it wasn't\n    */\n    function transfer(address _to, uint256 _value)\n        public\n        notThis(_to)\n        returns (bool success)\n    {\n        assert(super.transfer(_to, _value));\n        return true;\n    }\n\n    /**\n        @dev an account/contract attempts to get the coins\n        throws on any error rather then return a false flag to minimize user errors\n\n        @param _from    source address\n        @param _to      target address\n        @param _value   transfer amount\n\n        @return true if the transfer was successful, false if it wasn't\n    */\n    function transferFrom(address _from, address _to, uint256 _value)\n        public\n        notThis(_to)\n        returns (bool success)\n    {\n        assert(super.transferFrom(_from, _to, _value));\n        return true;\n    }\n\n    /**\n        @dev deposit ether in the account\n    */\n    function() public payable {\n        deposit();\n    }\n}\n",
  "sourcePath": "/Users/rudo/Documents/ichiba/submodules/contracts/solidity/contracts/token/EtherToken.sol",
  "compiler": {
    "name": "solc",
    "version": "0.4.24+commit.e67f0147.Emscripten.clang"
  },
  "schemaVersion": "2.0.1",
  "updatedAt": "2019-03-01T08:20:46.989Z"
}