{
  "contractName": "FinancieTicketStore",
  "abi": [
    {
      "constant": true,
      "inputs": [],
      "name": "notifier",
      "outputs": [
        {
          "name": "",
          "type": "address"
        }
      ],
      "payable": false,
      "stateMutability": "view",
      "type": "function"
    },
    {
      "constant": false,
      "inputs": [],
      "name": "acceptOwnership",
      "outputs": [],
      "payable": false,
      "stateMutability": "nonpayable",
      "type": "function"
    },
    {
      "constant": true,
      "inputs": [],
      "name": "owner",
      "outputs": [
        {
          "name": "",
          "type": "address"
        }
      ],
      "payable": false,
      "stateMutability": "view",
      "type": "function"
    },
    {
      "constant": true,
      "inputs": [],
      "name": "managedContracts",
      "outputs": [
        {
          "name": "",
          "type": "address"
        }
      ],
      "payable": false,
      "stateMutability": "view",
      "type": "function"
    },
    {
      "constant": true,
      "inputs": [
        {
          "name": "",
          "type": "uint256"
        }
      ],
      "name": "ticketsaleTokens",
      "outputs": [
        {
          "name": "",
          "type": "address"
        }
      ],
      "payable": false,
      "stateMutability": "view",
      "type": "function"
    },
    {
      "constant": true,
      "inputs": [],
      "name": "etherToken",
      "outputs": [
        {
          "name": "",
          "type": "address"
        }
      ],
      "payable": false,
      "stateMutability": "view",
      "type": "function"
    },
    {
      "constant": true,
      "inputs": [],
      "name": "platformToken",
      "outputs": [
        {
          "name": "",
          "type": "address"
        }
      ],
      "payable": false,
      "stateMutability": "view",
      "type": "function"
    },
    {
      "constant": true,
      "inputs": [],
      "name": "newOwner",
      "outputs": [
        {
          "name": "",
          "type": "address"
        }
      ],
      "payable": false,
      "stateMutability": "view",
      "type": "function"
    },
    {
      "constant": false,
      "inputs": [
        {
          "name": "_newOwner",
          "type": "address"
        }
      ],
      "name": "transferOwnership",
      "outputs": [],
      "payable": false,
      "stateMutability": "nonpayable",
      "type": "function"
    },
    {
      "inputs": [
        {
          "name": "_notifier_address",
          "type": "address"
        },
        {
          "name": "_managedContracts",
          "type": "address"
        },
        {
          "name": "_platformToken",
          "type": "address"
        },
        {
          "name": "_ether_token",
          "type": "address"
        }
      ],
      "payable": false,
      "stateMutability": "nonpayable",
      "type": "constructor"
    },
    {
      "payable": true,
      "stateMutability": "payable",
      "type": "fallback"
    },
    {
      "anonymous": false,
      "inputs": [
        {
          "indexed": false,
          "name": "_sender",
          "type": "address"
        },
        {
          "indexed": true,
          "name": "_issuer",
          "type": "uint32"
        },
        {
          "indexed": false,
          "name": "_ticket",
          "type": "address"
        },
        {
          "indexed": true,
          "name": "_card",
          "type": "address"
        },
        {
          "indexed": false,
          "name": "_amount",
          "type": "uint256"
        },
        {
          "indexed": false,
          "name": "_price",
          "type": "uint256"
        }
      ],
      "name": "DepositTickets",
      "type": "event"
    },
    {
      "anonymous": false,
      "inputs": [
        {
          "indexed": true,
          "name": "_sender",
          "type": "address"
        },
        {
          "indexed": true,
          "name": "_issuer",
          "type": "uint32"
        },
        {
          "indexed": true,
          "name": "_ticket",
          "type": "address"
        },
        {
          "indexed": false,
          "name": "_amount",
          "type": "uint256"
        },
        {
          "indexed": false,
          "name": "_price",
          "type": "uint256"
        }
      ],
      "name": "BuyTicket",
      "type": "event"
    },
    {
      "anonymous": false,
      "inputs": [
        {
          "indexed": true,
          "name": "_prevOwner",
          "type": "address"
        },
        {
          "indexed": true,
          "name": "_newOwner",
          "type": "address"
        }
      ],
      "name": "OwnerUpdate",
      "type": "event"
    },
    {
      "constant": false,
      "inputs": [
        {
          "name": "_ticket",
          "type": "address"
        },
        {
          "name": "_card",
          "type": "address"
        },
        {
          "name": "_amount",
          "type": "uint256"
        },
        {
          "name": "_price",
          "type": "uint256"
        },
        {
          "name": "_start_at",
          "type": "uint256"
        },
        {
          "name": "_end_at",
          "type": "uint256"
        }
      ],
      "name": "depositTickets",
      "outputs": [],
      "payable": false,
      "stateMutability": "nonpayable",
      "type": "function"
    },
    {
      "constant": true,
      "inputs": [
        {
          "name": "_ticket",
          "type": "address"
        }
      ],
      "name": "getTicketPrice",
      "outputs": [
        {
          "name": "",
          "type": "uint256"
        }
      ],
      "payable": false,
      "stateMutability": "view",
      "type": "function"
    },
    {
      "constant": true,
      "inputs": [
        {
          "name": "_ticket",
          "type": "address"
        }
      ],
      "name": "getTicketStock",
      "outputs": [
        {
          "name": "",
          "type": "uint256"
        }
      ],
      "payable": false,
      "stateMutability": "view",
      "type": "function"
    },
    {
      "constant": true,
      "inputs": [
        {
          "name": "_ticket",
          "type": "address"
        }
      ],
      "name": "getTicketCurrency",
      "outputs": [
        {
          "name": "",
          "type": "address"
        }
      ],
      "payable": false,
      "stateMutability": "view",
      "type": "function"
    },
    {
      "constant": true,
      "inputs": [
        {
          "name": "_ticket",
          "type": "address"
        }
      ],
      "name": "getTicketStartAt",
      "outputs": [
        {
          "name": "",
          "type": "uint256"
        }
      ],
      "payable": false,
      "stateMutability": "view",
      "type": "function"
    },
    {
      "constant": true,
      "inputs": [
        {
          "name": "_ticket",
          "type": "address"
        }
      ],
      "name": "getTicketEndAt",
      "outputs": [
        {
          "name": "",
          "type": "uint256"
        }
      ],
      "payable": false,
      "stateMutability": "view",
      "type": "function"
    },
    {
      "constant": true,
      "inputs": [],
      "name": "ticketsaleTokenCount",
      "outputs": [
        {
          "name": "",
          "type": "uint16"
        }
      ],
      "payable": false,
      "stateMutability": "view",
      "type": "function"
    },
    {
      "constant": false,
      "inputs": [
        {
          "name": "_ticket",
          "type": "address"
        },
        {
          "name": "_card",
          "type": "address"
        },
        {
          "name": "_price",
          "type": "uint256"
        },
        {
          "name": "_start_at",
          "type": "uint256"
        },
        {
          "name": "_end_at",
          "type": "uint256"
        }
      ],
      "name": "setTicketSale",
      "outputs": [],
      "payable": false,
      "stateMutability": "nonpayable",
      "type": "function"
    },
    {
      "constant": false,
      "inputs": [
        {
          "name": "_ticket",
          "type": "address"
        },
        {
          "name": "_spender",
          "type": "address"
        },
        {
          "name": "_amount",
          "type": "uint256"
        }
      ],
      "name": "approveTicket",
      "outputs": [],
      "payable": false,
      "stateMutability": "nonpayable",
      "type": "function"
    },
    {
      "constant": false,
      "inputs": [
        {
          "name": "_ticket",
          "type": "address"
        },
        {
          "name": "_from",
          "type": "address"
        },
        {
          "name": "_to",
          "type": "address"
        },
        {
          "name": "_amount",
          "type": "uint256"
        }
      ],
      "name": "transferTicket",
      "outputs": [],
      "payable": false,
      "stateMutability": "nonpayable",
      "type": "function"
    },
    {
      "constant": false,
      "inputs": [
        {
          "name": "_ticket",
          "type": "address"
        }
      ],
      "name": "buyTicket",
      "outputs": [],
      "payable": false,
      "stateMutability": "nonpayable",
      "type": "function"
    }
  ],
  "bytecode": "0x608060405234801561001057600080fd5b506040516080806111f283398101604090815281516020830151918301516060909301516000805433600160a060020a0319918216178255600280548216600160a060020a03958616179055600380548216958516959095179094556004805485169584169590951790945560058054909316911617905561115a90819061009890396000f3006080604052600436106100f85763ffffffff60e060020a60003504166309276ea481146100fd57806316b150b91461012e5780631885933514610161578063211df8281461018d57806321749841146101bf57806379ba5097146101e057806381b92e5d146101f5578063849abc8b146102165780638da5cb5b1461024957806390567f7c1461025e57806397ff1f961461028e578063a5f8cdbb146102a3578063b59239a4146102c4578063b8066bcb146102dc578063c2b0ea1c146102f1578063d1b812cd1461031b578063d4ee1d9014610330578063f2fde38b14610345578063fab042b714610366578063fdbafc6d14610387575b600080fd5b34801561010957600080fd5b506101126103a8565b60408051600160a060020a039092168252519081900360200190f35b34801561013a57600080fd5b5061014f600160a060020a03600435166103b7565b60408051918252519081900360200190f35b34801561016d57600080fd5b506101766103d5565b6040805161ffff9092168252519081900360200190f35b34801561019957600080fd5b506101bd600160a060020a03600435811690602435166044356064356084356103db565b005b3480156101cb57600080fd5b5061014f600160a060020a036004351661056a565b3480156101ec57600080fd5b506101bd610602565b34801561020157600080fd5b5061014f600160a060020a036004351661068a565b34801561022257600080fd5b506101bd600160a060020a036004358116906024351660443560643560843560a4356106a8565b34801561025557600080fd5b506101126109c6565b34801561026a57600080fd5b506101bd600160a060020a03600435811690602435811690604435166064356109d5565b34801561029a57600080fd5b50610112610a9d565b3480156102af57600080fd5b506101bd600160a060020a0360043516610aac565b3480156102d057600080fd5b50610112600435610e3a565b3480156102e857600080fd5b50610112610e62565b3480156102fd57600080fd5b506101bd600160a060020a0360043581169060243516604435610e71565b34801561032757600080fd5b50610112610f28565b34801561033c57600080fd5b50610112610f37565b34801561035157600080fd5b506101bd600160a060020a0360043516610f46565b34801561037257600080fd5b5061014f600160a060020a0360043516610fa7565b34801561039357600080fd5b50610112600160a060020a0360043516610fc5565b600254600160a060020a031681565b600160a060020a031660009081526006602052604090206003015490565b60075490565b60008054600160a060020a031633146103f357600080fd5b85905060a06040519081016040528082600160a060020a031663525564216040518163ffffffff1660e060020a028152600401602060405180830381600087803b15801561044057600080fd5b505af1158015610454573d6000803e3d6000fd5b505050506040513d602081101561046a57600080fd5b505163ffffffff9081168252600160a060020a039788166020838101919091526040808401989098526060808401979097526080928301959095529787166000818152600686528781208451815497860151909a166401000000000277ffffffffffffffffffffffffffffffffffffffff00000000199a909b1663ffffffff1990971696909617989098169890981784559481015160018085019190915593810151600284015590930151600390910155600780549182018155909252507fa66cc928b5edb82af9bd49922954155ab7b0942694bea4ce44661d9a8736c68801805473ffffffffffffffffffffffffffffffffffffffff19169091179055565b604080517f70a0823100000000000000000000000000000000000000000000000000000000815230600482015290516000918391600160a060020a038316916370a0823191602480830192602092919082900301818887803b1580156105cf57600080fd5b505af11580156105e3573d6000803e3d6000fd5b505050506040513d60208110156105f957600080fd5b50519392505050565b600154600160a060020a0316331461061957600080fd5b60015460008054604051600160a060020a0393841693909116917f343765429aea5a34b3ff6a3785a98a5abb2597aca87bfbb58632c173d585373a91a3600180546000805473ffffffffffffffffffffffffffffffffffffffff19908116600160a060020a03841617909155169055565b600160a060020a031660009081526006602052604090206001015490565b600354604080517f33920503000000000000000000000000000000000000000000000000000000008152600160a060020a03808a166004830152915160009384938b9391169163339205039160248082019260209290919082900301818887803b15801561071557600080fd5b505af1158015610729573d6000803e3d6000fd5b505050506040513d602081101561073f57600080fd5b5051151561074c57600080fd5b600354604080517f33920503000000000000000000000000000000000000000000000000000000008152600160a060020a03808c16600483015291518b9392909216916333920503916024808201926020929091908290030181600087803b1580156107b757600080fd5b505af11580156107cb573d6000803e3d6000fd5b505050506040513d60208110156107e157600080fd5b505115156107ee57600080fd5b600054600160a060020a0316331461080557600080fd5b6000881161081257600080fd5b6000871161081f57600080fd5b6000861161082c57600080fd5b6000851161083957600080fd5b604080517f23b872dd000000000000000000000000000000000000000000000000000000008152336004820152306024820152604481018a905290518b9550859450600160a060020a038516916323b872dd9160648083019260209291908290030181600087803b1580156108ad57600080fd5b505af11580156108c1573d6000803e3d6000fd5b505050506040513d60208110156108d757600080fd5b505115156108e157fe5b6108ee8a8a8989896103db565b88600160a060020a031684600160a060020a031663525564216040518163ffffffff1660e060020a028152600401602060405180830381600087803b15801561093657600080fd5b505af115801561094a573d6000803e3d6000fd5b505050506040513d602081101561096057600080fd5b505160408051338152600160a060020a038e1660208201528082018c9052606081018b9052905163ffffffff909216917f8f5fdd208285241ed50ec09cde9140a51fef6fffa09a3145a8b1b6fae485032e9181900360800190a350505050505050505050565b600054600160a060020a031681565b60008054600160a060020a031633146109ed57600080fd5b50604080517f23b872dd000000000000000000000000000000000000000000000000000000008152600160a060020a038581166004830152848116602483015260448201849052915186928316916323b872dd9160648083019260209291908290030181600087803b158015610a6257600080fd5b505af1158015610a76573d6000803e3d6000fd5b505050506040513d6020811015610a8c57600080fd5b50511515610a9657fe5b5050505050565b600354600160a060020a031681565b600160a060020a03811660009081526006602052604081206002810154909190819081904210801590610ae25750836003015442105b1515610aed57600080fd5b83546001850154604080517f70a082310000000000000000000000000000000000000000000000000000000081523360048201529051640100000000909304600160a060020a03169550909185916370a082319160248083019260209291908290030181600087803b158015610b6257600080fd5b505af1158015610b76573d6000803e3d6000fd5b505050506040513d6020811015610b8c57600080fd5b50511015610b9957600080fd5b83546001850154604080517f79cc6790000000000000000000000000000000000000000000000000000000008152336004820152602481019290925251640100000000909204600160a060020a0316935083916379cc67909160448082019260009290919082900301818387803b158015610c1357600080fd5b505af1158015610c27573d6000803e3d6000fd5b5050604080517f70a08231000000000000000000000000000000000000000000000000000000008152306004820152905188945060019350600160a060020a03851692506370a08231916024808201926020929091908290030181600087803b158015610c9357600080fd5b505af1158015610ca7573d6000803e3d6000fd5b505050506040513d6020811015610cbd57600080fd5b50511015610cca57600080fd5b604080517fa9059cbb000000000000000000000000000000000000000000000000000000008152336004820152600160248201529051600160a060020a0383169163a9059cbb9160448083019260209291908290030181600087803b158015610d3257600080fd5b505af1158015610d46573d6000803e3d6000fd5b505050506040513d6020811015610d5c57600080fd5b5050600180850154610d749133918591859190610feb565b84600160a060020a031682600160a060020a031663525564216040518163ffffffff1660e060020a028152600401602060405180830381600087803b158015610dbc57600080fd5b505af1158015610dd0573d6000803e3d6000fd5b505050506040513d6020811015610de657600080fd5b5051600186810154604080519283526020830191909152805163ffffffff9093169233927f8b81c441e6a2d50721c862fec17639bcb8b0f90493c1a705139e6e5f206ad93c92908290030190a45050505050565b6007805482908110610e4857fe5b600091825260209091200154600160a060020a0316905081565b600554600160a060020a031681565b60008054600160a060020a03163314610e8957600080fd5b50604080517f095ea7b3000000000000000000000000000000000000000000000000000000008152600160a060020a038481166004830152602482018490529151859283169163095ea7b39160448083019260209291908290030181600087803b158015610ef657600080fd5b505af1158015610f0a573d6000803e3d6000fd5b505050506040513d6020811015610f2057600080fd5b505050505050565b600454600160a060020a031681565b600154600160a060020a031681565b600054600160a060020a03163314610f5d57600080fd5b600054600160a060020a0382811691161415610f7857600080fd5b6001805473ffffffffffffffffffffffffffffffffffffffff1916600160a060020a0392909216919091179055565b600160a060020a031660009081526006602052604090206002015490565b600160a060020a0390811660009081526006602052604090205464010000000090041690565b600260009054906101000a9004600160a060020a0316600160a060020a0316636f7798c96040518163ffffffff1660e060020a028152600401602060405180830381600087803b15801561103e57600080fd5b505af1158015611052573d6000803e3d6000fd5b505050506040513d602081101561106857600080fd5b50516002805473ffffffffffffffffffffffffffffffffffffffff1916600160a060020a039283161790819055604080517f5b62fabf000000000000000000000000000000000000000000000000000000008152888416600482015287841660248201528684166044820152606481018690526084810185905290519190921691635b62fabf9160a480830192600092919082900301818387803b15801561110f57600080fd5b505af1158015611123573d6000803e3d6000fd5b5050505050505050505600a165627a7a72305820545561b8ad7fcb47788135b5fa5a39f4ecc745483f19140461c3e4a1e13ddc270029",
  "source": "pragma solidity ^0.4.18;\nimport './IFinancieTicketStore.sol';\nimport './IFinancieIssuerToken.sol';\nimport './FinancieNotifierDelegate.sol';\nimport '../token/interfaces/IERC20Token.sol';\nimport './FinancieCoreComponents.sol';\nimport '../utility/Utils.sol';\n\ncontract FinancieTicketStore is IFinancieTicketStore, FinancieNotifierDelegate, FinancieCoreComponents, Utils {\n\n    struct TicketSale {\n        uint32  issuer;\n        address card;\n        uint256 price;\n        uint256 start_at;\n        uint256 end_at;\n    }\n\n    mapping (address => TicketSale) ticketSales;\n\n    IERC20Token[] public ticketsaleTokens;\n\n    event DepositTickets(address _sender, uint32 indexed _issuer, address _ticket, address indexed _card, uint256 _amount, uint256 _price);\n    event BuyTicket(address indexed _sender, uint32 indexed _issuer, address indexed _ticket, uint256 _amount, uint256 _price);\n\n    constructor(address _notifier_address, address _managedContracts, address _platformToken, address _ether_token)\n        public\n        FinancieCoreComponents(_managedContracts, _platformToken, _ether_token)\n        FinancieNotifierDelegate(_notifier_address)\n    {\n    }\n\n    function() payable public {\n        revert();\n    }\n\n    /**\n    *   @dev issuer deposits tickets into this contract and register it as a sales item\n    */\n    function depositTickets(address _ticket, address _card, uint256 _amount, uint256 _price, uint256 _start_at, uint256 _end_at)\n        public\n        validTargetContract(_ticket)\n        validTargetContract(_card)\n        ownerOnly\n    {\n        require(_amount > 0);\n        require(_price > 0);\n        require(_start_at > 0);\n        require(_end_at > 0);\n\n        /**\n        * check ticket issuer and deposit tickets into this contract\n        */\n        IFinancieIssuerToken ticket = IFinancieIssuerToken(_ticket);\n\n        IERC20Token tokenTicket = IERC20Token(_ticket);\n        assert(tokenTicket.transferFrom(msg.sender, this, _amount));\n        /**\n        * register it as a sales item\n        */\n        setTicketSale(_ticket, _card, _price, _start_at, _end_at);\n\n        DepositTickets(msg.sender, ticket.getIssuer(), _ticket, _card, _amount, _price);\n    }\n\n    function getTicketPrice(address _ticket) public view returns(uint256) {\n        return ticketSales[_ticket].price;\n    }\n\n    function getTicketStock(address _ticket) public view returns(uint256) {\n        IERC20Token tokenTicket = IERC20Token(_ticket);\n        return tokenTicket.balanceOf(this);\n    }\n\n    function getTicketCurrency(address _ticket) public view returns(address) {\n        return ticketSales[_ticket].card;\n    }\n\n    function getTicketStartAt(address _ticket) public view returns(uint256) {\n        return ticketSales[_ticket].start_at;\n    }\n\n    function getTicketEndAt(address _ticket) public view returns(uint256) {\n        return ticketSales[_ticket].end_at;\n    }\n\n    function ticketsaleTokenCount() public view returns (uint16) {\n        return uint16(ticketsaleTokens.length);\n    }\n\n    function setTicketSale(address _ticket, address _card, uint256 _price, uint256 _start_at, uint256 _end_at) public ownerOnly {\n      IFinancieIssuerToken ticket = IFinancieIssuerToken(_ticket);\n      ticketSales[_ticket] = TicketSale(ticket.getIssuer(), _card, _price, _start_at, _end_at);\n      ticketsaleTokens.push(IERC20Token(_ticket));\n    }\n\n    function approveTicket(address _ticket, address _spender, uint256 _amount) public ownerOnly {\n      IERC20Token tokenTicket = IERC20Token(_ticket);\n      tokenTicket.approve(_spender, _amount);\n    }\n\n    function transferTicket(address _ticket, address _from, address _to, uint256 _amount) public ownerOnly {\n      IERC20Token tokenTicket = IERC20Token(_ticket);\n      assert(tokenTicket.transferFrom(_from, _to, _amount));\n    }\n\n    function buyTicket(address _ticket) public {\n        TicketSale ticketSale = ticketSales[_ticket];\n        require(now >= ticketSale.start_at && now < ticketSale.end_at);\n        /**\n        * check currency balance and burn the number of price from the buyer\n        */\n        IERC20Token cardToken = IERC20Token(ticketSale.card);\n        require(cardToken.balanceOf(msg.sender) >= ticketSale.price);\n\n        IFinancieIssuerToken card = IFinancieIssuerToken(ticketSale.card);\n        card.burnFrom(msg.sender, ticketSale.price);\n\n        /**\n        * check tickets in stock and transfer a ticket to the buyer\n        */\n        IERC20Token ticket = IERC20Token(_ticket);\n        require(ticket.balanceOf(address(this)) >= 1);\n        ticket.transfer(msg.sender, 1);\n\n        notifyPurchaseTickets(msg.sender, card, ticket, ticketSale.price, 1);\n\n        BuyTicket(msg.sender, card.getIssuer(), _ticket, 1, ticketSale.price);\n    }\n}\n",
  "sourcePath": "/Users/rudo/Documents/ichiba/submodules/contracts/solidity/contracts/Financie/FinancieTicketStore.sol",
  "compiler": {
    "name": "solc",
    "version": "0.4.24+commit.e67f0147.Emscripten.clang"
  },
  "schemaVersion": "2.0.1",
  "updatedAt": "2019-03-01T08:20:46.949Z"
}