{
  "contractName": "FinancieNotifierDelegate",
  "abi": [
    {
      "constant": true,
      "inputs": [],
      "name": "notifier",
      "outputs": [
        {
          "name": "",
          "type": "address"
        }
      ],
      "payable": false,
      "stateMutability": "view",
      "type": "function"
    },
    {
      "constant": false,
      "inputs": [],
      "name": "acceptOwnership",
      "outputs": [],
      "payable": false,
      "stateMutability": "nonpayable",
      "type": "function"
    },
    {
      "constant": true,
      "inputs": [],
      "name": "owner",
      "outputs": [
        {
          "name": "",
          "type": "address"
        }
      ],
      "payable": false,
      "stateMutability": "view",
      "type": "function"
    },
    {
      "constant": true,
      "inputs": [],
      "name": "newOwner",
      "outputs": [
        {
          "name": "",
          "type": "address"
        }
      ],
      "payable": false,
      "stateMutability": "view",
      "type": "function"
    },
    {
      "constant": false,
      "inputs": [
        {
          "name": "_newOwner",
          "type": "address"
        }
      ],
      "name": "transferOwnership",
      "outputs": [],
      "payable": false,
      "stateMutability": "nonpayable",
      "type": "function"
    },
    {
      "inputs": [
        {
          "name": "_notifier",
          "type": "address"
        }
      ],
      "payable": false,
      "stateMutability": "nonpayable",
      "type": "constructor"
    },
    {
      "anonymous": false,
      "inputs": [
        {
          "indexed": true,
          "name": "_prevOwner",
          "type": "address"
        },
        {
          "indexed": true,
          "name": "_newOwner",
          "type": "address"
        }
      ],
      "name": "OwnerUpdate",
      "type": "event"
    }
  ],
  "bytecode": "0x608060405234801561001057600080fd5b506040516020806102a5833981016040525160008054600160a060020a0319908116331790915560028054600160a060020a03909316929091169190911790556102468061005f6000396000f30060806040526004361061006c5763ffffffff7c010000000000000000000000000000000000000000000000000000000060003504166309276ea4811461007157806379ba5097146100a25780638da5cb5b146100b9578063d4ee1d90146100ce578063f2fde38b146100e3575b600080fd5b34801561007d57600080fd5b50610086610104565b60408051600160a060020a039092168252519081900360200190f35b3480156100ae57600080fd5b506100b7610113565b005b3480156100c557600080fd5b5061008661019b565b3480156100da57600080fd5b506100866101aa565b3480156100ef57600080fd5b506100b7600160a060020a03600435166101b9565b600254600160a060020a031681565b600154600160a060020a0316331461012a57600080fd5b60015460008054604051600160a060020a0393841693909116917f343765429aea5a34b3ff6a3785a98a5abb2597aca87bfbb58632c173d585373a91a3600180546000805473ffffffffffffffffffffffffffffffffffffffff19908116600160a060020a03841617909155169055565b600054600160a060020a031681565b600154600160a060020a031681565b600054600160a060020a031633146101d057600080fd5b600054600160a060020a03828116911614156101eb57600080fd5b6001805473ffffffffffffffffffffffffffffffffffffffff1916600160a060020a03929092169190911790555600a165627a7a72305820fb45f638b2a3e5a03683bef82d9037a50c9d90beb8dbff08655ca1ffe890c3f10029",
  "source": "pragma solidity ^0.4.18;\nimport './IFinancieNotifier.sol';\nimport '../utility/Owned.sol';\n\ncontract FinancieNotifierDelegate is Owned {\n    IFinancieNotifier public notifier;\n\n    constructor(address _notifier)\n        public\n    {\n        notifier = IFinancieNotifier(_notifier);\n    }\n\n    function notifyApproveNewCards(address _card)\n        internal\n    {\n        notifier = IFinancieNotifier(notifier.latestNotifier());\n        notifier.notifyApproveNewCards(_card);\n    }\n\n    function notifyCardAuctionFinalized(address _card, address _auction)\n        internal\n    {\n        notifier = IFinancieNotifier(notifier.latestNotifier());\n        notifier.notifyCardAuctionFinalized(_card, _auction);\n    }\n\n    function notifyApproveNewBancor(address _card, address _bancor)\n        internal\n    {\n        notifier = IFinancieNotifier(notifier.latestNotifier());\n        notifier.notifyApproveNewBancor(_card, _bancor);\n    }\n\n    function notifyConvertCards(\n        address _sender,\n        address _from,\n        address _to,\n        uint256 _amountFrom,\n        uint256 _amountTo)\n        internal\n    {\n        notifier = IFinancieNotifier(notifier.latestNotifier());\n        notifier.notifyConvertCards(_sender, _from, _to, _amountFrom, _amountTo);\n    }\n\n    function notifyBidCards(address _sender, address _to, uint256 _amount)\n        internal\n    {\n        notifier = IFinancieNotifier(notifier.latestNotifier());\n        notifier.notifyBidCards(_sender, _to, _amount);\n    }\n\n    function notifyWithdrawalCards(address _sender, address _to, uint256 _bids, uint256 _amount)\n        internal\n    {\n        notifier = IFinancieNotifier(notifier.latestNotifier());\n        notifier.notifyWithdrawalCards(_sender, _to, _bids, _amount);\n    }\n\n    function notifyBurnCards(address _sender, uint256 _amount)\n        internal\n    {\n        notifier = IFinancieNotifier(notifier.latestNotifier());\n        notifier.notifyBurnCards(_sender, _amount);\n    }\n\n    function notifyAuctionRevenue(\n        address _sender,\n        address _target,\n        address _card,\n        uint32  _hero,\n        uint256 _hero_amount,\n        uint256 _team_amount)\n        internal\n    {\n        notifier = IFinancieNotifier(notifier.latestNotifier());\n        notifier.notifyAuctionRevenue(_sender, _target, _card, _hero, _hero_amount, _team_amount);\n    }\n\n    function notifyExchangeRevenue(\n        address _sender,\n        address _target,\n        address _card,\n        uint32  _hero,\n        uint256 _hero_amount,\n        uint256 _team_amount)\n        internal\n    {\n        notifier = IFinancieNotifier(notifier.latestNotifier());\n        notifier.notifyExchangeRevenue(_sender, _target, _card, _hero, _hero_amount, _team_amount);\n    }\n\n}\n",
  "sourcePath": "/Users/rudo/Documents/ichiba/submodules/contracts/solidity/contracts/Financie/FinancieNotifierDelegate.sol",
  "compiler": {
    "name": "solc",
    "version": "0.4.24+commit.e67f0147.Emscripten.clang"
  },
  "schemaVersion": "2.0.1",
  "updatedAt": "2019-03-03T08:58:01.595Z"
}