{
  "contractName": "FinancieCoreComponents",
  "abi": [
    {
      "constant": true,
      "inputs": [],
      "name": "currencyToken",
      "outputs": [
        {
          "name": "",
          "type": "address"
        }
      ],
      "payable": false,
      "stateMutability": "view",
      "type": "function"
    },
    {
      "constant": false,
      "inputs": [],
      "name": "acceptOwnership",
      "outputs": [],
      "payable": false,
      "stateMutability": "nonpayable",
      "type": "function"
    },
    {
      "constant": true,
      "inputs": [],
      "name": "owner",
      "outputs": [
        {
          "name": "",
          "type": "address"
        }
      ],
      "payable": false,
      "stateMutability": "view",
      "type": "function"
    },
    {
      "constant": true,
      "inputs": [],
      "name": "managedContracts",
      "outputs": [
        {
          "name": "",
          "type": "address"
        }
      ],
      "payable": false,
      "stateMutability": "view",
      "type": "function"
    },
    {
      "constant": true,
      "inputs": [],
      "name": "platformToken",
      "outputs": [
        {
          "name": "",
          "type": "address"
        }
      ],
      "payable": false,
      "stateMutability": "view",
      "type": "function"
    },
    {
      "constant": true,
      "inputs": [],
      "name": "newOwner",
      "outputs": [
        {
          "name": "",
          "type": "address"
        }
      ],
      "payable": false,
      "stateMutability": "view",
      "type": "function"
    },
    {
      "constant": false,
      "inputs": [
        {
          "name": "_newOwner",
          "type": "address"
        }
      ],
      "name": "transferOwnership",
      "outputs": [],
      "payable": false,
      "stateMutability": "nonpayable",
      "type": "function"
    },
    {
      "inputs": [
        {
          "name": "_managedContracts",
          "type": "address"
        },
        {
          "name": "_platformToken",
          "type": "address"
        },
        {
          "name": "_currencyToken",
          "type": "address"
        }
      ],
      "payable": false,
      "stateMutability": "nonpayable",
      "type": "constructor"
    },
    {
      "anonymous": false,
      "inputs": [
        {
          "indexed": true,
          "name": "_prevOwner",
          "type": "address"
        },
        {
          "indexed": true,
          "name": "_newOwner",
          "type": "address"
        }
      ],
      "name": "OwnerUpdate",
      "type": "event"
    },
    {
      "constant": false,
      "inputs": [
        {
          "name": "_tradeOperator",
          "type": "address"
        },
        {
          "name": "_fundOperator",
          "type": "address"
        }
      ],
      "name": "setOperators",
      "outputs": [],
      "payable": false,
      "stateMutability": "nonpayable",
      "type": "function"
    }
  ],
  "bytecode": "0x608060405234801561001057600080fd5b506040516060806103b08339810160409081528151602083015191909201516000805433600160a060020a0319918216178255600280548216600160a060020a0396871617905560038054821694861694909417909355600480549093169390911692909217905561032890819061008890396000f30060806040526004361061008d5763ffffffff7c01000000000000000000000000000000000000000000000000000000006000350416636b2fa374811461009257806379ba5097146100c35780638da5cb5b146100da57806397ff1f96146100ef578063d1b812cd14610104578063d4ee1d9014610119578063dfa571f71461012e578063f2fde38b14610155575b600080fd5b34801561009e57600080fd5b506100a7610176565b60408051600160a060020a039092168252519081900360200190f35b3480156100cf57600080fd5b506100d8610185565b005b3480156100e657600080fd5b506100a761020d565b3480156100fb57600080fd5b506100a761021c565b34801561011057600080fd5b506100a761022b565b34801561012557600080fd5b506100a761023a565b34801561013a57600080fd5b506100d8600160a060020a0360043581169060243516610249565b34801561016157600080fd5b506100d8600160a060020a036004351661029b565b600454600160a060020a031681565b600154600160a060020a0316331461019c57600080fd5b60015460008054604051600160a060020a0393841693909116917f343765429aea5a34b3ff6a3785a98a5abb2597aca87bfbb58632c173d585373a91a3600180546000805473ffffffffffffffffffffffffffffffffffffffff19908116600160a060020a03841617909155169055565b600054600160a060020a031681565b600254600160a060020a031681565b600354600160a060020a031681565b600154600160a060020a031681565b600054600160a060020a0316331461026057600080fd5b60058054600160a060020a0393841673ffffffffffffffffffffffffffffffffffffffff199182161790915560068054929093169116179055565b600054600160a060020a031633146102b257600080fd5b600054600160a060020a03828116911614156102cd57600080fd5b6001805473ffffffffffffffffffffffffffffffffffffffff1916600160a060020a03929092169190911790555600a165627a7a72305820d8a68c7cd5996d8ea9ec57f2437973c0451a6dd16f731166cd23c5632208e2b90029",
  "source": "pragma solidity ^0.4.18;\nimport './IFinancieManagedContracts.sol';\nimport '../token/interfaces/IERC20Token.sol';\nimport '../utility/Owned.sol';\n\ncontract FinancieCoreComponents is Owned {\n\n    IFinancieManagedContracts public managedContracts;\n\n    IERC20Token public platformToken;\n    IERC20Token public currencyToken;\n    address tradeOperator;\n    address fundOperator;\n\n    constructor(\n        address _managedContracts,\n        address _platformToken,\n        address _currencyToken\n    ) public {\n        managedContracts = IFinancieManagedContracts(_managedContracts);\n        platformToken = IERC20Token(_platformToken);\n        currencyToken = IERC20Token(_currencyToken);\n    }\n\n    modifier validTargetContract(address _contract) {\n        require(managedContracts.validTargetContract(_contract));\n        _;\n    }\n\n    modifier validOperator(address _sender) {\n        require(_sender == owner ||\n          _sender == tradeOperator ||\n          _sender == fundOperator ||\n          managedContracts.validTargetContract(_sender));\n        _;\n    }\n\n    /**\n    * work around for avoiding 'stack too deep' issue\n    */\n    function isValidOperator(address _sender)\n        internal\n        validOperator(_sender)\n    {\n    }\n\n    function setOperators(address _tradeOperator, address _fundOperator)\n        public\n        ownerOnly\n    {\n        tradeOperator = _tradeOperator;\n        fundOperator = _fundOperator;\n    }\n\n}\n",
  "sourcePath": "/Users/rudo/Documents/ichiba/submodules/contracts/solidity/contracts/Financie/FinancieCoreComponents.sol",
  "compiler": {
    "name": "solc",
    "version": "0.4.24+commit.e67f0147.Emscripten.clang"
  },
  "schemaVersion": "2.0.1",
  "updatedAt": "2019-03-03T10:38:53.245Z"
}