{
  "contractName": "FinancieHeroesDutchAuction",
  "abi": [
    {
      "constant": true,
      "inputs": [],
      "name": "num_tokens_auctioned",
      "outputs": [
        {
          "name": "",
          "type": "uint256"
        }
      ],
      "payable": false,
      "stateMutability": "view",
      "type": "function"
    },
    {
      "constant": true,
      "inputs": [],
      "name": "final_price",
      "outputs": [
        {
          "name": "",
          "type": "uint256"
        }
      ],
      "payable": false,
      "stateMutability": "view",
      "type": "function"
    },
    {
      "constant": true,
      "inputs": [],
      "name": "notifier",
      "outputs": [
        {
          "name": "",
          "type": "address"
        }
      ],
      "payable": false,
      "stateMutability": "view",
      "type": "function"
    },
    {
      "constant": true,
      "inputs": [],
      "name": "price_exponent",
      "outputs": [
        {
          "name": "",
          "type": "uint32"
        }
      ],
      "payable": false,
      "stateMutability": "view",
      "type": "function"
    },
    {
      "constant": true,
      "inputs": [],
      "name": "end_time",
      "outputs": [
        {
          "name": "",
          "type": "uint256"
        }
      ],
      "payable": false,
      "stateMutability": "view",
      "type": "function"
    },
    {
      "constant": true,
      "inputs": [],
      "name": "token_multiplier",
      "outputs": [
        {
          "name": "",
          "type": "uint256"
        }
      ],
      "payable": false,
      "stateMutability": "view",
      "type": "function"
    },
    {
      "constant": true,
      "inputs": [],
      "name": "price_start",
      "outputs": [
        {
          "name": "",
          "type": "uint256"
        }
      ],
      "payable": false,
      "stateMutability": "view",
      "type": "function"
    },
    {
      "constant": true,
      "inputs": [],
      "name": "bid_threshold",
      "outputs": [
        {
          "name": "",
          "type": "uint256"
        }
      ],
      "payable": false,
      "stateMutability": "view",
      "type": "function"
    },
    {
      "constant": true,
      "inputs": [],
      "name": "funds_claimed",
      "outputs": [
        {
          "name": "",
          "type": "uint256"
        }
      ],
      "payable": false,
      "stateMutability": "view",
      "type": "function"
    },
    {
      "constant": false,
      "inputs": [],
      "name": "claimTokens",
      "outputs": [
        {
          "name": "",
          "type": "bool"
        }
      ],
      "payable": false,
      "stateMutability": "nonpayable",
      "type": "function"
    },
    {
      "constant": true,
      "inputs": [],
      "name": "token_claim_waiting_period",
      "outputs": [
        {
          "name": "",
          "type": "uint256"
        }
      ],
      "payable": false,
      "stateMutability": "view",
      "type": "function"
    },
    {
      "constant": true,
      "inputs": [],
      "name": "whitelister_address",
      "outputs": [
        {
          "name": "",
          "type": "address"
        }
      ],
      "payable": false,
      "stateMutability": "view",
      "type": "function"
    },
    {
      "constant": false,
      "inputs": [
        {
          "name": "_bidder_addresses",
          "type": "address[]"
        }
      ],
      "name": "removeFromWhitelist",
      "outputs": [],
      "payable": false,
      "stateMutability": "nonpayable",
      "type": "function"
    },
    {
      "constant": true,
      "inputs": [
        {
          "name": "",
          "type": "address"
        }
      ],
      "name": "bids",
      "outputs": [
        {
          "name": "",
          "type": "uint256"
        }
      ],
      "payable": false,
      "stateMutability": "view",
      "type": "function"
    },
    {
      "constant": false,
      "inputs": [
        {
          "name": "_token_address",
          "type": "address"
        }
      ],
      "name": "setup",
      "outputs": [],
      "payable": false,
      "stateMutability": "nonpayable",
      "type": "function"
    },
    {
      "constant": true,
      "inputs": [],
      "name": "team_wallet",
      "outputs": [
        {
          "name": "",
          "type": "address"
        }
      ],
      "payable": false,
      "stateMutability": "view",
      "type": "function"
    },
    {
      "constant": true,
      "inputs": [],
      "name": "pendingRevenueType",
      "outputs": [
        {
          "name": "",
          "type": "uint8"
        }
      ],
      "payable": false,
      "stateMutability": "view",
      "type": "function"
    },
    {
      "constant": false,
      "inputs": [],
      "name": "acceptOwnership",
      "outputs": [],
      "payable": false,
      "stateMutability": "nonpayable",
      "type": "function"
    },
    {
      "constant": true,
      "inputs": [],
      "name": "received_wei",
      "outputs": [
        {
          "name": "",
          "type": "uint256"
        }
      ],
      "payable": false,
      "stateMutability": "view",
      "type": "function"
    },
    {
      "constant": false,
      "inputs": [
        {
          "name": "_bidder_addresses",
          "type": "address[]"
        }
      ],
      "name": "addToWhitelist",
      "outputs": [],
      "payable": false,
      "stateMutability": "nonpayable",
      "type": "function"
    },
    {
      "constant": true,
      "inputs": [],
      "name": "owner_address",
      "outputs": [
        {
          "name": "",
          "type": "address"
        }
      ],
      "payable": false,
      "stateMutability": "view",
      "type": "function"
    },
    {
      "constant": true,
      "inputs": [],
      "name": "start_time",
      "outputs": [
        {
          "name": "",
          "type": "uint256"
        }
      ],
      "payable": false,
      "stateMutability": "view",
      "type": "function"
    },
    {
      "constant": true,
      "inputs": [],
      "name": "owner",
      "outputs": [
        {
          "name": "",
          "type": "address"
        }
      ],
      "payable": false,
      "stateMutability": "view",
      "type": "function"
    },
    {
      "constant": true,
      "inputs": [],
      "name": "heroFee",
      "outputs": [
        {
          "name": "",
          "type": "uint32"
        }
      ],
      "payable": false,
      "stateMutability": "view",
      "type": "function"
    },
    {
      "constant": true,
      "inputs": [
        {
          "name": "",
          "type": "address"
        }
      ],
      "name": "whitelist",
      "outputs": [
        {
          "name": "",
          "type": "bool"
        }
      ],
      "payable": false,
      "stateMutability": "view",
      "type": "function"
    },
    {
      "constant": true,
      "inputs": [],
      "name": "price_constant",
      "outputs": [
        {
          "name": "",
          "type": "uint256"
        }
      ],
      "payable": false,
      "stateMutability": "view",
      "type": "function"
    },
    {
      "constant": true,
      "inputs": [],
      "name": "price",
      "outputs": [
        {
          "name": "",
          "type": "uint256"
        }
      ],
      "payable": false,
      "stateMutability": "view",
      "type": "function"
    },
    {
      "constant": true,
      "inputs": [],
      "name": "start_block",
      "outputs": [
        {
          "name": "",
          "type": "uint256"
        }
      ],
      "payable": false,
      "stateMutability": "view",
      "type": "function"
    },
    {
      "constant": true,
      "inputs": [],
      "name": "stage",
      "outputs": [
        {
          "name": "",
          "type": "uint8"
        }
      ],
      "payable": false,
      "stateMutability": "view",
      "type": "function"
    },
    {
      "constant": true,
      "inputs": [],
      "name": "hero_id",
      "outputs": [
        {
          "name": "",
          "type": "uint32"
        }
      ],
      "payable": false,
      "stateMutability": "view",
      "type": "function"
    },
    {
      "constant": true,
      "inputs": [],
      "name": "missingFundsToEndAuction",
      "outputs": [
        {
          "name": "",
          "type": "uint256"
        }
      ],
      "payable": false,
      "stateMutability": "view",
      "type": "function"
    },
    {
      "constant": true,
      "inputs": [],
      "name": "newOwner",
      "outputs": [
        {
          "name": "",
          "type": "address"
        }
      ],
      "payable": false,
      "stateMutability": "view",
      "type": "function"
    },
    {
      "constant": true,
      "inputs": [],
      "name": "teamFee",
      "outputs": [
        {
          "name": "",
          "type": "uint32"
        }
      ],
      "payable": false,
      "stateMutability": "view",
      "type": "function"
    },
    {
      "constant": true,
      "inputs": [],
      "name": "wallet_address",
      "outputs": [
        {
          "name": "",
          "type": "address"
        }
      ],
      "payable": false,
      "stateMutability": "view",
      "type": "function"
    },
    {
      "constant": false,
      "inputs": [
        {
          "name": "_newOwner",
          "type": "address"
        }
      ],
      "name": "transferOwnership",
      "outputs": [],
      "payable": false,
      "stateMutability": "nonpayable",
      "type": "function"
    },
    {
      "constant": true,
      "inputs": [],
      "name": "token",
      "outputs": [
        {
          "name": "",
          "type": "address"
        }
      ],
      "payable": false,
      "stateMutability": "view",
      "type": "function"
    },
    {
      "inputs": [
        {
          "name": "_hero_id",
          "type": "uint32"
        },
        {
          "name": "_team_wallet",
          "type": "address"
        },
        {
          "name": "_whitelister_address",
          "type": "address"
        },
        {
          "name": "_teamFee",
          "type": "uint32"
        },
        {
          "name": "_price_start",
          "type": "uint256"
        },
        {
          "name": "_price_constant",
          "type": "uint256"
        },
        {
          "name": "_price_exponent",
          "type": "uint32"
        },
        {
          "name": "_notifier_address",
          "type": "address"
        },
        {
          "name": "_payment_currency_token_address",
          "type": "address"
        },
        {
          "name": "_internal_wallet_address",
          "type": "address"
        }
      ],
      "payable": false,
      "stateMutability": "nonpayable",
      "type": "constructor"
    },
    {
      "payable": true,
      "stateMutability": "payable",
      "type": "fallback"
    },
    {
      "anonymous": false,
      "inputs": [
        {
          "indexed": true,
          "name": "_prevOwner",
          "type": "address"
        },
        {
          "indexed": true,
          "name": "_newOwner",
          "type": "address"
        }
      ],
      "name": "OwnerUpdate",
      "type": "event"
    },
    {
      "anonymous": false,
      "inputs": [
        {
          "indexed": true,
          "name": "_price_start",
          "type": "uint256"
        },
        {
          "indexed": true,
          "name": "_price_constant",
          "type": "uint256"
        },
        {
          "indexed": true,
          "name": "_price_exponent",
          "type": "uint32"
        }
      ],
      "name": "Deployed",
      "type": "event"
    },
    {
      "anonymous": false,
      "inputs": [],
      "name": "Setup",
      "type": "event"
    },
    {
      "anonymous": false,
      "inputs": [
        {
          "indexed": true,
          "name": "_start_time",
          "type": "uint256"
        },
        {
          "indexed": true,
          "name": "_block_number",
          "type": "uint256"
        }
      ],
      "name": "AuctionStarted",
      "type": "event"
    },
    {
      "anonymous": false,
      "inputs": [
        {
          "indexed": true,
          "name": "_sender",
          "type": "address"
        },
        {
          "indexed": false,
          "name": "_amount",
          "type": "uint256"
        },
        {
          "indexed": false,
          "name": "_missing_funds",
          "type": "uint256"
        }
      ],
      "name": "BidSubmission",
      "type": "event"
    },
    {
      "anonymous": false,
      "inputs": [
        {
          "indexed": true,
          "name": "_recipient",
          "type": "address"
        },
        {
          "indexed": false,
          "name": "_sent_amount",
          "type": "uint256"
        }
      ],
      "name": "ClaimedTokens",
      "type": "event"
    },
    {
      "anonymous": false,
      "inputs": [
        {
          "indexed": false,
          "name": "_final_price",
          "type": "uint256"
        }
      ],
      "name": "AuctionEnded",
      "type": "event"
    },
    {
      "anonymous": false,
      "inputs": [],
      "name": "TokensDistributed",
      "type": "event"
    },
    {
      "constant": false,
      "inputs": [],
      "name": "startAuction",
      "outputs": [],
      "payable": false,
      "stateMutability": "nonpayable",
      "type": "function"
    },
    {
      "constant": false,
      "inputs": [],
      "name": "finalizeAuction",
      "outputs": [],
      "payable": false,
      "stateMutability": "nonpayable",
      "type": "function"
    },
    {
      "constant": false,
      "inputs": [],
      "name": "bid",
      "outputs": [],
      "payable": true,
      "stateMutability": "payable",
      "type": "function"
    },
    {
      "constant": false,
      "inputs": [
        {
          "name": "_bidder",
          "type": "address"
        },
        {
          "name": "_amount",
          "type": "uint256"
        }
      ],
      "name": "bidToken",
      "outputs": [
        {
          "name": "",
          "type": "uint256"
        },
        {
          "name": "",
          "type": "uint256"
        },
        {
          "name": "",
          "type": "uint256"
        }
      ],
      "payable": false,
      "stateMutability": "nonpayable",
      "type": "function"
    },
    {
      "constant": false,
      "inputs": [
        {
          "name": "receiver_address",
          "type": "address"
        }
      ],
      "name": "proxyClaimTokens",
      "outputs": [
        {
          "name": "",
          "type": "bool"
        }
      ],
      "payable": false,
      "stateMutability": "nonpayable",
      "type": "function"
    },
    {
      "constant": true,
      "inputs": [
        {
          "name": "_bidder",
          "type": "address"
        }
      ],
      "name": "bidsAmount",
      "outputs": [
        {
          "name": "",
          "type": "uint256"
        }
      ],
      "payable": false,
      "stateMutability": "view",
      "type": "function"
    },
    {
      "constant": true,
      "inputs": [
        {
          "name": "receiver_address",
          "type": "address"
        }
      ],
      "name": "estimateClaimTokens",
      "outputs": [
        {
          "name": "",
          "type": "uint256"
        }
      ],
      "payable": false,
      "stateMutability": "view",
      "type": "function"
    },
    {
      "constant": true,
      "inputs": [
        {
          "name": "receiver_address",
          "type": "address"
        }
      ],
      "name": "canClaimTokens",
      "outputs": [
        {
          "name": "",
          "type": "bool"
        }
      ],
      "payable": false,
      "stateMutability": "view",
      "type": "function"
    },
    {
      "constant": true,
      "inputs": [],
      "name": "auctionFinished",
      "outputs": [
        {
          "name": "",
          "type": "bool"
        }
      ],
      "payable": false,
      "stateMutability": "view",
      "type": "function"
    },
    {
      "constant": true,
      "inputs": [],
      "name": "targetToken",
      "outputs": [
        {
          "name": "",
          "type": "address"
        }
      ],
      "payable": false,
      "stateMutability": "view",
      "type": "function"
    },
    {
      "constant": true,
      "inputs": [],
      "name": "tokenMultiplier",
      "outputs": [
        {
          "name": "",
          "type": "uint256"
        }
      ],
      "payable": false,
      "stateMutability": "view",
      "type": "function"
    },
    {
      "constant": true,
      "inputs": [],
      "name": "finalPrice",
      "outputs": [
        {
          "name": "",
          "type": "uint256"
        }
      ],
      "payable": false,
      "stateMutability": "view",
      "type": "function"
    }
  ],
  "bytecode": "0x60806040523480156200001157600080fd5b50604051610140806200253083398101604090815281516020830151918301516060840151608085015160a086015160c087015160e088015161010089015161012090990151969895969495939492939192909190828189888888600160a060020a03851615156200008257600080fd5b600160a060020a03841615156200009857600080fd5b60028054600160a060020a03878116600160a060020a031992831617909255600380549287169282169290921790915560018054909116331790556011805460ff19169055620000f383838364010000000062000209810204565b8063ffffffff1682847f386f36f3306fb418dd13e11a0f5b005c8b23a70fb5da6c18ab5123e5fe68598560405160405180910390a450506011805461010060a860020a0319163361010002179055505060138054600160a060020a031916600160a060020a03939093169290921790915550620f424063ffffffff881611156200017c57600080fd5b60178054600160a060020a03808516600160a060020a0319928316179092556018805463ffffffff8e16740100000000000000000000000000000000000000000260a060020a63ffffffff0219948616919093161792909216179055620001f9620f4240889003888c8c8686600064010000000062000287810204565b5050505050505050505062000386565b600060115460ff1660048111156200021d57fe5b14806200023b5750600160115460ff1660048111156200023957fe5b145b15156200024757600080fd5b600083116200025557600080fd5b600082116200026357600080fd5b6004929092556005556006805463ffffffff191663ffffffff909216919091179055565b6013805460a060020a63ffffffff0219167401000000000000000000000000000000000000000063ffffffff8a811682029290921760c060020a63ffffffff02191678010000000000000000000000000000000000000000000000008a84160217600160e060020a03167c0100000000000000000000000000000000000000000000000000000000928916929092029190911790915560148054600160a060020a0319908116600160a060020a03888116919091178084556015805484168984161790556016805490931691871691909117909155839260a060020a60ff0219909116908360028111156200037857fe5b021790555050505050505050565b61219a80620003966000396000f30060806040526004361061022c5763ffffffff60e060020a60003504166303cc7b85811461025557806308b309e31461027c57806309276ea4146102915780630c64a739146102c257806316243356146102f05780631998aeef146103055780631e3359621461030f57806329b4d111146103245780632a887299146103395780632aefb7c51461034e578063327107f71461036357806348c54b9d146103785780634b7829f1146103a15780634e012918146103b6578063548db174146103cb57806362ea82db1461042057806366d38203146104415780636b64c769146104625780636ea79583146104775780636f764c531461048c5780637828b4f3146104ad57806379ba5097146104e65780637b10e717146104fb5780637f6497831461051057806380edef8e14610565578063834ee4171461057a57806384d504bc1461058f5780638da5cb5b146105b05780639b0d37f8146105c55780639b19251a146105da5780639dbf0543146105fb578063a035b1fe14610610578063a6b513ee14610625578063aeaaaa081461063a578063b5397b111461065b578063b87fb3db1461069d578063ba3f5a12146106b2578063c040e6b8146106c7578063c0d77c65146106ec578063c5cd88db14610701578063c9fddcd114610716578063ce9b53f41461072b578063d4ee1d901461074c578063d7c94efd14610761578063e776a5b514610776578063f2fde38b1461078b578063f77282ab146107ac578063fc0c546a146107c1575b60028060115460ff16600481111561024057fe5b1461024a57600080fd5b6102526107d6565b50005b34801561026157600080fd5b5061026a6107db565b60408051918252519081900360200190f35b34801561028857600080fd5b5061026a6107e1565b34801561029d57600080fd5b506102a66107e7565b60408051600160a060020a039092168252519081900360200190f35b3480156102ce57600080fd5b506102d76107f6565b6040805163ffffffff9092168252519081900360200190f35b3480156102fc57600080fd5b5061026a610802565b61030d6107d6565b005b34801561031b57600080fd5b5061026a610808565b34801561033057600080fd5b5061026a61080e565b34801561034557600080fd5b5061026a610814565b34801561035a57600080fd5b5061026a610821565b34801561036f57600080fd5b506102a6610827565b34801561038457600080fd5b5061038d610837565b604080519115158252519081900360200190f35b3480156103ad57600080fd5b5061026a610867565b3480156103c257600080fd5b506102a661086c565b3480156103d757600080fd5b506040805160206004803580820135838102808601850190965280855261030d9536959394602494938501929182918501908490808284375094975061087b9650505050505050565b34801561042c57600080fd5b5061026a600160a060020a0360043516610900565b34801561044d57600080fd5b5061030d600160a060020a0360043516610912565b34801561046e57600080fd5b5061030d610ac2565b34801561048357600080fd5b506102a6610ae1565b34801561049857600080fd5b5061026a600160a060020a0360043516610af0565b3480156104b957600080fd5b506104c2610b66565b604051808260028111156104d257fe5b60ff16815260200191505060405180910390f35b3480156104f257600080fd5b5061030d610b76565b34801561050757600080fd5b5061026a610c11565b34801561051c57600080fd5b506040805160206004803580820135838102808601850190965280855261030d95369593946024949385019291829185019084908082843750949750610c179650505050505050565b34801561057157600080fd5b506102a6610c98565b34801561058657600080fd5b5061026a610ca7565b34801561059b57600080fd5b5061038d600160a060020a0360043516610cad565b3480156105bc57600080fd5b506102a6610cfb565b3480156105d157600080fd5b506102d7610d0f565b3480156105e657600080fd5b5061038d600160a060020a0360043516610d22565b34801561060757600080fd5b5061026a610d37565b34801561061c57600080fd5b5061026a610d3d565b34801561063157600080fd5b5061026a610d88565b34801561064657600080fd5b5061038d600160a060020a0360043516610da3565b34801561066757600080fd5b5061067f600160a060020a0360043516602435610f19565b60408051938452602084019290925282820152519081900360600190f35b3480156106a957600080fd5b5061026a611129565b3480156106be57600080fd5b5061026a61112f565b3480156106d357600080fd5b506106dc611135565b604051808260048111156104d257fe5b3480156106f857600080fd5b506102d761113e565b34801561070d57600080fd5b5061026a611151565b34801561072257600080fd5b5061038d61118d565b34801561073757600080fd5b5061026a600160a060020a03600435166111da565b34801561075857600080fd5b506102a66111f5565b34801561076d57600080fd5b506102d7611204565b34801561078257600080fd5b506102a661122c565b34801561079757600080fd5b5061030d600160a060020a036004351661123b565b3480156107b857600080fd5b5061030d611299565b3480156107cd57600080fd5b506102a66112b7565b600080fd5b600d5481565b600e5481565b601354600160a060020a031681565b60065463ffffffff1681565b60085481565b600c5481565b60045481565b683635c9adc5dea0000081565b600b5481565b600054600160a060020a03165b90565b600060038060115460ff16600481111561084d57fe5b1461085757600080fd5b61086033610da3565b91505b5090565b600081565b600354600160a060020a031681565b600354600090600160a060020a0316331461089557600080fd5b5060005b81518163ffffffff1610156108fc57600060106000848463ffffffff168151811015156108c257fe5b602090810291909101810151600160a060020a03168252810191909152604001600020805460ff1916911515919091179055600101610899565b5050565b600f6020526000908152604090205481565b600154600160a060020a0316331461092957600080fd5b60008060115460ff16600481111561093d57fe5b1461094757600080fd5b600160a060020a038216151561095c57600080fd5b60008054600160a060020a031916600160a060020a03848116919091178083556040805160e060020a6370a08231028152306004820152905191909216926370a0823192602480820193602093909283900390910190829087803b1580156109c357600080fd5b505af11580156109d7573d6000803e3d6000fd5b505050506040513d60208110156109ed57600080fd5b5051600d5560008054604080517f313ce5670000000000000000000000000000000000000000000000000000000081529051600160a060020a039092169263313ce567926004808401936020939083900390910190829087803b158015610a5357600080fd5b505af1158015610a67573d6000803e3d6000fd5b505050506040513d6020811015610a7d57600080fd5b505160ff16600a0a600c556011805460ff191660011790556040517f587930504fa5b1062f394d90f9dac9ecadd354ed23a97af9ea4e44dff4870a8490600090a15050565b610aca6112c6565b600054610adf90600160a060020a0316611343565b565b601454600160a060020a031681565b600160a060020a0381166000908152600f60205260408120548190811015610b5b57600d54600a54600c5402811515610b2557fe5b600160a060020a0385166000908152600f6020526040902054600c54929091049250829102811515610b5357fe5b049150610b60565b600091505b50919050565b60145460a060020a900460ff1681565b601254600160a060020a03163314610b8d57600080fd5b601254601154604051600160a060020a0392831692610100909204909116907f343765429aea5a34b3ff6a3785a98a5abb2597aca87bfbb58632c173d585373a90600090a3601280546011805474ffffffffffffffffffffffffffffffffffffffff001916610100600160a060020a03841602179055600160a060020a0319169055565b600a5481565b600354600090600160a060020a03163314610c3157600080fd5b5060005b81518163ffffffff1610156108fc57600160106000848463ffffffff16815181101515610c5e57fe5b602090810291909101810151600160a060020a03168252810191909152604001600020805460ff1916911515919091179055600101610c35565b600154600160a060020a031681565b60075481565b6000600360115460ff166004811115610cc257fe5b1415610cf257600160a060020a0382166000908152600f60205260408120541115610cf257506008544211610cf6565b5060005b919050565b6011546101009004600160a060020a031681565b60135460a060020a900463ffffffff1681565b60106020526000908152604090205460ff1681565b60055481565b6000600360115460ff166004811115610d5257fe5b1480610d6e5750600460115460ff166004811115610d6c57fe5b145b15610d7b57506000610834565b610d83611457565b905090565b6000600d54600a54600c5402811515610d9d57fe5b04905090565b600080808060038060115460ff166004811115610dbc57fe5b14610dc657600080fd5b600160a060020a038087166000818152600f60209081526040808320548354825160e060020a6370a08231028152600481019690965291519099509416936370a0823193602480820194918390030190829087803b158015610e2757600080fd5b505af1158015610e3b573d6000803e3d6000fd5b505050506040513d6020811015610e5157600080fd5b50519250610e5e866114b5565b15610f0b57600080546040805160e060020a6370a08231028152600160a060020a038a81166004830152915191909216926370a0823192602480820193602093909283900390910190829087803b158015610eb857600080fd5b505af1158015610ecc573d6000803e3d6000fd5b505050506040513d6020811015610ee257600080fd5b5051600054909250610f02908790600160a060020a0316868686036117d3565b60019450610f10565b600094505b50505050919050565b6000808080808080808060028060115460ff166004811115610f3757fe5b14610f4157600080fd5b610f49611151565b96508a955086861115610f5a578695505b60008611610f6757600080fd5b600160a060020a038c166000908152600f60205260409020548601861115610f8b57fe5b601754604080517f23b872dd000000000000000000000000000000000000000000000000000000008152336004820152306024820152604481018990529051600160a060020a03909216916323b872dd916064808201926020929091908290030181600087803b158015610ffe57600080fd5b505af1158015611012573d6000803e3d6000fd5b505050506040513d602081101561102857600080fd5b5050600160a060020a038c166000908152600f60205260409020805487019055600a80548701905561105986611900565b945061106486611c94565b935061106f86611cc7565b925061107b8686611cff565b9150811561108557fe5b60408051878152602081018990528151600160a060020a038f16927fc9c6176cbf7c0a8c29655fe8ccbe5e28382ca11459d145223308723bfc697545928290030190a2600a548611156110d457fe5b6000546110ec908d90600160a060020a031688611d11565b600054601854611118918e913091600160a060020a03169060a060020a900463ffffffff168888611e36565b50939a919950975095505050505050565b60095481565b600c5490565b60115460ff1681565b60135460e060020a900463ffffffff1681565b600080600c5461115f610d3d565b600d540281151561116c57fe5b049050600a54811115156111835760009150610863565b600a549003919050565b6000600460115460ff1660048111156111a257fe5b14156111b057506001610834565b600360115460ff1660048111156111c357fe5b14156111d457506008544211610834565b50600090565b600160a060020a03166000908152600f602052604090205490565b601254600160a060020a031681565b6013547801000000000000000000000000000000000000000000000000900463ffffffff1681565b600254600160a060020a031681565b6011546101009004600160a060020a0316331461125757600080fd5b601154600160a060020a0382811661010090920416141561127757600080fd5b60128054600160a060020a031916600160a060020a0392909216919091179055565b6112a1611f79565b600054610adf90600160a060020a031630612017565b600054600160a060020a031681565b600154600160a060020a031633146112dd57600080fd5b60018060115460ff1660048111156112f157fe5b146112fb57600080fd5b6011805460ff191660021790554260078190554360098190556040519091907ff8910119ddbef5440c54532457dfe8250a10ed39e583292818f44724b9e1344c90600090a350565b601360009054906101000a9004600160a060020a0316600160a060020a0316636f7798c96040518163ffffffff1660e060020a028152600401602060405180830381600087803b15801561139657600080fd5b505af11580156113aa573d6000803e3d6000fd5b505050506040513d60208110156113c057600080fd5b505160138054600160a060020a031916600160a060020a039283161790819055604080517f3bce6426000000000000000000000000000000000000000000000000000000008152848416600482015290519190921691633bce642691602480830192600092919082900301818387803b15801561143c57600080fd5b505af1158015611450573d6000803e3d6000fd5b5050505050565b60008080600260115460ff16600481111561146e57fe5b141561147c57600754420391505b60055460065463ffffffff16830a81151561149357fe5b04905080826001010182600101600454028115156114ad57fe5b049250505090565b6000808060038060115460ff1660048111156114cd57fe5b146114d757600080fd5b60085442116114e557600080fd5b600160a060020a03851615156114fa57600080fd5b600160a060020a0385166000908152600f6020526040902054151561152257600093506117cb565b600e54600160a060020a0386166000908152600f6020526040902054600c540281151561154b57fe5b600080546040805160e060020a6370a082310281523060048201529051949093049650600160a060020a0316926370a08231926024808201936020939283900390910190829087803b1580156115a057600080fd5b505af11580156115b4573d6000803e3d6000fd5b505050506040513d60208110156115ca57600080fd5b50519150818311156115da578192505b600160a060020a038086166000818152600f602090815260408083208054600b80549091019055839055825481517fa9059cbb000000000000000000000000000000000000000000000000000000008152600481019590955260248501899052905194169363a9059cbb93604480820194918390030190829087803b15801561166257600080fd5b505af1158015611676573d6000803e3d6000fd5b505050506040513d602081101561168c57600080fd5b5051151561169957600080fd5b604080518481529051600160a060020a038716917fe9aa550fd75d0d28e07fa9dd67d3ae705678776f6c4a75abd09534f93e7d7907919081900360200190a2600a54600b54141561171b576011805460ff191660041790556040517fcea85459abe456c560868e61c476933dcee35a72aba5f546e93715929a69618690600090a15b600080546040805160e060020a6370a08231028152600160a060020a0389811660048301529151879492909316926370a0823192602480840193602093929083900390910190829087803b15801561177257600080fd5b505af1158015611786573d6000803e3d6000fd5b505050506040513d602081101561179c57600080fd5b505110156117a657fe5b600160a060020a0385166000908152600f6020526040902054156117c657fe5b600193505b505050919050565b601360009054906101000a9004600160a060020a0316600160a060020a0316636f7798c96040518163ffffffff1660e060020a028152600401602060405180830381600087803b15801561182657600080fd5b505af115801561183a573d6000803e3d6000fd5b505050506040513d602081101561185057600080fd5b505160138054600160a060020a031916600160a060020a039283161790819055604080517f49747f2f000000000000000000000000000000000000000000000000000000008152878416600482015286841660248201526044810186905260648101859052905191909216916349747f2f91608480830192600092919082900301818387803b1580156118e257600080fd5b505af11580156118f6573d6000803e3d6000fd5b5050505050505050565b600080600061190e84611c94565b915061191984611cc7565b90506000821115611bdc5760135460e060020a900463ffffffff16151561193f57600080fd5b601554601654604080517fdd62ed3e000000000000000000000000000000000000000000000000000000008152306004820152600160a060020a03928316602482015290518593929092169163dd62ed3e916044808201926020929091908290030181600087803b1580156119b357600080fd5b505af11580156119c7573d6000803e3d6000fd5b505050506040513d60208110156119dd57600080fd5b50511015611a8657601554601654604080517f095ea7b3000000000000000000000000000000000000000000000000000000008152600160a060020a0392831660048201526000602482018190529151929093169263095ea7b39260448083019360209383900390910190829087803b158015611a5957600080fd5b505af1158015611a6d573d6000803e3d6000fd5b505050506040513d6020811015611a8357600080fd5b50505b601554601654604080517f095ea7b3000000000000000000000000000000000000000000000000000000008152600160a060020a039283166004820152602481018690529051919092169163095ea7b39160448083019260209291908290030181600087803b158015611af857600080fd5b505af1158015611b0c573d6000803e3d6000fd5b505050506040513d6020811015611b2257600080fd5b5050601654601354601454600160a060020a0390921691637aa54eec9160e060020a900463ffffffff1690859060a060020a900460ff166002811115611b6457fe5b6040518463ffffffff1660e060020a028152600401808463ffffffff1663ffffffff1681526020018381526020018263ffffffff1663ffffffff1681526020019350505050600060405180830381600087803b158015611bc357600080fd5b505af1158015611bd7573d6000803e3d6000fd5b505050505b601554601454604080517fa9059cbb000000000000000000000000000000000000000000000000000000008152600160a060020a039283166004820152602481018590529051919092169163a9059cbb9160448083019260209291908290030181600087803b158015611c4e57600080fd5b505af1158015611c62573d6000803e3d6000fd5b505050506040513d6020811015611c7857600080fd5b50511515611c8257fe5b611c8c8282612134565b949350505050565b601354600090620f424090611cb790849060a060020a900463ffffffff1661214a565b811515611cc057fe5b0492915050565b601354600090620f424090611cb79084907801000000000000000000000000000000000000000000000000900463ffffffff1661214a565b600081831015611d0b57fe5b50900390565b601360009054906101000a9004600160a060020a0316600160a060020a0316636f7798c96040518163ffffffff1660e060020a028152600401602060405180830381600087803b158015611d6457600080fd5b505af1158015611d78573d6000803e3d6000fd5b505050506040513d6020811015611d8e57600080fd5b505160138054600160a060020a031916600160a060020a039283161790819055604080517f83505556000000000000000000000000000000000000000000000000000000008152868416600482015285841660248201526044810185905290519190921691638350555691606480830192600092919082900301818387803b158015611e1957600080fd5b505af1158015611e2d573d6000803e3d6000fd5b50505050505050565b601360009054906101000a9004600160a060020a0316600160a060020a0316636f7798c96040518163ffffffff1660e060020a028152600401602060405180830381600087803b158015611e8957600080fd5b505af1158015611e9d573d6000803e3d6000fd5b505050506040513d6020811015611eb357600080fd5b505160138054600160a060020a031916600160a060020a039283161790819055604080517fa90b56f000000000000000000000000000000000000000000000000000000000815289841660048201528884166024820152878416604482015263ffffffff871660648201526084810186905260a481018590529051919092169163a90b56f09160c480830192600092919082900301818387803b158015611f5957600080fd5b505af1158015611f6d573d6000803e3d6000fd5b50505050505050505050565b600060028060115460ff166004811115611f8f57fe5b14611f9957600080fd5b611fa1611151565b91508115611fae57600080fd5b600d54600a54600c5402811515611fc157fe5b04600e819055426008556011805460ff1916600317905560408051918252517f45806e512b1f4f10e33e8b3cb64d1d11d998d8c554a95e0841fc1c701278bd5d916020908290030190a1600e546000106108fc57fe5b601360009054906101000a9004600160a060020a0316600160a060020a0316636f7798c96040518163ffffffff1660e060020a028152600401602060405180830381600087803b15801561206a57600080fd5b505af115801561207e573d6000803e3d6000fd5b505050506040513d602081101561209457600080fd5b505160138054600160a060020a031916600160a060020a039283161790819055604080517f19a4bef400000000000000000000000000000000000000000000000000000000815285841660048201528484166024820152905191909216916319a4bef491604480830192600092919082900301818387803b15801561211857600080fd5b505af115801561212c573d6000803e3d6000fd5b505050505050565b60008282018381101561214357fe5b9392505050565b6000828202831580612166575082848281151561216357fe5b04145b151561214357fe00a165627a7a7230582006c06aa6b17fbda0cbad43da17fe0ee710da3ab9f0b5338fb0f9bdc6e72748ed0029",
  "source": "pragma solidity ^0.4.17;\n\nimport '../DutchAuction/DutchAuction.sol';\nimport './IFinancieAuction.sol';\nimport './FinancieFee.sol';\nimport './FinancieNotifierDelegate.sol';\nimport './IFinancieInternalWallet.sol';\nimport '../utility/Owned.sol';\nimport '../token/interfaces/IERC20Token.sol';\n\n/// @title overrided from DutchAuction.\ncontract FinancieHeroesDutchAuction is IFinancieAuction, DutchAuction, Owned, FinancieNotifierDelegate, FinancieFee {\n\n    IERC20Token paymentCurrentyToken;\n    IFinancieInternalWallet internalWallet;\n    uint32 hero_id;\n\n    /*\n     * Public functions\n     */\n\n    /**\n    *   @dev Contract constructor function sets the starting price, divisor constant and\n    *        divisor exponent for calculating the Dutch Auction price.\n    *\n    *   @param   _hero_id           Issuer id.\n    *   @param   _price_start       High price in WEI at which the auction starts.\n    *   @param   _price_constant    Auction price divisor constant.\n    *   @param   _price_exponent    Auction price divisor exponent.\n    *   @param   _notifier_address  Financie Notifier address.\n    */\n    constructor(\n        uint32  _hero_id,\n        address _team_wallet,\n        address _whitelister_address,\n        uint32 _teamFee,\n        uint _price_start,\n        uint _price_constant,\n        uint32 _price_exponent,\n        address _notifier_address,\n        address _payment_currency_token_address,\n        address _internal_wallet_address)\n        public\n        DutchAuction(\n          _internal_wallet_address,\n          _whitelister_address,\n          _price_start,\n          _price_constant,\n          _price_exponent\n        )\n        FinancieNotifierDelegate(_notifier_address)\n    {\n        require(_teamFee <= 1000000);\n        paymentCurrentyToken = IERC20Token(_payment_currency_token_address);\n        internalWallet = IFinancieInternalWallet(_internal_wallet_address);\n        hero_id = _hero_id;\n        setFee(\n            1000000 - _teamFee,\n            _teamFee,\n            _hero_id,\n            _team_wallet,\n            _payment_currency_token_address,\n            _internal_wallet_address,\n            FinancieFee.RevenueType.Auction\n        );\n    }\n\n    /**\n    *   @notice  overrided from DutchAuction.\n    */\n    function startAuction() public {\n        super.startAuction();\n        notifyApproveNewCards(address(token));\n    }\n\n    /**\n    *   @notice  overrided from DutchAuction.\n    */\n    function finalizeAuction() public {\n        super.finalizeAuction();\n        notifyCardAuctionFinalized(address(token), address(this));\n    }\n\n    /// --------------------------------- Auction Functions ------------------\n\n    /**\n    *   @notice  overrided from DutchAuction to prevent default bidding.\n    */\n    function bid()\n        public\n        payable\n    {\n        revert();\n    }\n\n    function bidToken(address _bidder, uint256 _amount)\n        public\n        atStage(Stages.AuctionStarted)\n        returns (uint256, uint256, uint256)\n    {\n        // Missing funds without the current bid value\n        uint missing_funds = missingFundsToEndAuction();\n\n        uint256 amount = _amount;\n        if ( amount > missing_funds ) {\n            amount = missing_funds;\n        }\n\n        require(amount > 0);\n        assert(bids[_bidder] + amount >= amount);\n\n        paymentCurrentyToken.transferFrom(msg.sender, this, amount);\n\n        bids[_bidder] += amount;\n        received_wei += amount;\n\n        // Send bid amount to wallet\n        uint256 feeAmount = distributeFees(amount);\n        uint256 heroFee = getHeroFee(amount);\n        uint256 teamFee = getTeamFee(amount);\n        uint256 net = safeSub(amount, feeAmount);\n        assert(net == 0);\n\n        BidSubmission(_bidder, amount, missing_funds);\n\n        assert(received_wei >= amount);\n\n        notifyBidCards(_bidder, address(token), amount);\n\n        // Notify logs of revenue\n        notifyAuctionRevenue(_bidder, address(this), address(token), hero_id, heroFee, teamFee);\n\n        return (amount, heroFee, teamFee);\n    }\n\n    /**\n    *   @notice  overrided from DutchAuction.\n    */\n    function proxyClaimTokens(address receiver_address)\n        public\n        atStage(Stages.AuctionEnded)\n        returns (bool)\n    {\n        uint256 myBids = bids[receiver_address];\n        uint256 balanceBefore = token.balanceOf(receiver_address);\n        if ( super.proxyClaimTokens(receiver_address) ) {\n            uint256 balanceAfter = token.balanceOf(receiver_address);\n            notifyWithdrawalCards(receiver_address, address(token), myBids, balanceAfter - balanceBefore);\n            return true;\n        }\n        return false;\n    }\n\n    function bidsAmount(address _bidder) public constant returns (uint)\n    {\n        return bids[_bidder];\n    }\n\n    function estimateClaimTokens(address receiver_address)\n        public\n        view\n        returns (uint256)\n    {\n        if ( bids[receiver_address] > 0 ) {\n          uint current_price = token_multiplier * received_wei / num_tokens_auctioned;\n          return (token_multiplier * bids[receiver_address]) / current_price;\n        }\n        return 0;\n    }\n\n    function canClaimTokens(address receiver_address)\n        public\n        view\n        returns (bool)\n    {\n        if ( stage == Stages.AuctionEnded ) {\n          if ( bids[receiver_address] > 0 ) {\n            return (now > end_time + token_claim_waiting_period);\n          }\n        }\n        return false;\n    }\n\n    function auctionFinished() public\n        view\n        returns (bool)\n    {\n        if ( stage == Stages.TokensDistributed ) {\n            return true;\n        }\n        if ( stage == Stages.AuctionEnded ) {\n            return (now > end_time + token_claim_waiting_period);\n        }\n        return false;\n    }\n\n    function targetToken()\n        public\n        view\n        returns (address)\n    {\n        return token;\n    }\n\n    function tokenMultiplier() public constant returns (uint)\n    {\n        return token_multiplier;\n    }\n\n    function finalPrice() public constant returns (uint)\n    {\n        return token_multiplier * received_wei / num_tokens_auctioned;\n    }\n}\n",
  "sourcePath": "/Users/rudo/Documents/ichiba/submodules/contracts/solidity/contracts/Financie/FinancieHeroesDutchAuction.sol",
  "compiler": {
    "name": "solc",
    "version": "0.4.24+commit.e67f0147.Emscripten.clang"
  },
  "schemaVersion": "2.0.1",
  "updatedAt": "2019-03-03T09:13:38.253Z"
}