{
  "contractName": "FinancieInternalWalletFactory",
  "abi": [
    {
      "inputs": [],
      "payable": false,
      "stateMutability": "nonpayable",
      "type": "constructor"
    },
    {
      "anonymous": false,
      "inputs": [
        {
          "indexed": true,
          "name": "_walletAddress",
          "type": "address"
        },
        {
          "indexed": true,
          "name": "_owner",
          "type": "address"
        }
      ],
      "name": "NewWallet",
      "type": "event"
    },
    {
      "constant": false,
      "inputs": [
        {
          "name": "_teamWallet",
          "type": "address"
        },
        {
          "name": "_managedContracts",
          "type": "address"
        },
        {
          "name": "_platformToken",
          "type": "address"
        },
        {
          "name": "_currencyToken",
          "type": "address"
        },
        {
          "name": "_walletdata",
          "type": "address"
        }
      ],
      "name": "createInternalWallet",
      "outputs": [
        {
          "name": "",
          "type": "address"
        }
      ],
      "payable": false,
      "stateMutability": "nonpayable",
      "type": "function"
    }
  ],
  "bytecode": "0x608060405234801561001057600080fd5b506155cd806100206000396000f3006080604052600436106100405763ffffffff7c01000000000000000000000000000000000000000000000000000000006000350416632c4a9f3d8114610045575b600080fd5b34801561005157600080fd5b5061008b73ffffffffffffffffffffffffffffffffffffffff600435811690602435811690604435811690606435811690608435166100b4565b6040805173ffffffffffffffffffffffffffffffffffffffff9092168252519081900360200190f35b6000806000878787876100c56101f4565b73ffffffffffffffffffffffffffffffffffffffff9485168152928416602084015290831660408084019190915292166060820152905190819003608001906000f080158015610119573d6000803e3d6000fd5b50604080517ff2fde38b000000000000000000000000000000000000000000000000000000008152336004820152905191935073ffffffffffffffffffffffffffffffffffffffff84169163f2fde38b9160248082019260009290919082900301818387803b15801561018b57600080fd5b505af115801561019f573d6000803e3d6000fd5b505060405184935033925073ffffffffffffffffffffffffffffffffffffffff841691507fad99b4cdeb342f8df51bd1f7c20113a98559ff13b06d1c77cc051964d7489d2b90600090a3979650505050505050565b60405161539d80610205833901905600608060405234801561001057600080fd5b5060405160808061539d833981016040908152815160208301519183015160609093015160008054600160a060020a0319908116331790915560028054600160a060020a039586169083161790556003805495851695821695909517909455600480549184169185169190911790556007805492909116919092161790556153008061009d6000396000f3006080604052600436106101715763ffffffff60e060020a6000350416630668ec26811461017657806308a4cd06146101a0578063096a8ab7146101dc5780630ca7817b146101f4578063157e98e71461022a5780633fb95fb11461024b57806342372e3f146102695780634868eb7c146102935780635173e831146102b457806365d24f5b146102d25780636b2fa374146102ff5780637281f97c14610330578063773387011461035457806379ba5097146103755780637aa54eec1461038a578063854cff2e146103b25780638da5cb5b146103e857806397ff1f96146103fd5780639ed3edf014610412578063a20153b114610427578063a5efbd5814610451578063b7fdbd8b1461048f578063caa22e81146104bc578063d0f84121146104dd578063d1b812cd146104fe578063d4ee1d9014610513578063d75d382e14610528578063ddcf4e4f14610549578063dfa571f714610576578063e08b07481461059d578063f2fde38b146105be575b600080fd5b34801561018257600080fd5b5061019e63ffffffff60043581169060243590604435166105df565b005b3480156101ac57600080fd5b506101ca600160a060020a036004351663ffffffff60243516610855565b60408051918252519081900360200190f35b3480156101e857600080fd5b5061019e6004356108e9565b34801561020057600080fd5b5061019e63ffffffff60043516602435604435600160a060020a0360643581169060843516610905565b34801561023657600080fd5b5061019e63ffffffff600435166024356110a3565b34801561025757600080fd5b506101ca63ffffffff60043516611305565b34801561027557600080fd5b5061019e63ffffffff60043516600160a060020a036024351661138c565b34801561029f57600080fd5b5061019e63ffffffff60043516602435611b16565b3480156102c057600080fd5b506101ca63ffffffff60043516611cc3565b3480156102de57600080fd5b5061019e63ffffffff60043516602435600160a060020a0360443516611d2e565b34801561030b57600080fd5b50610314611f8a565b60408051600160a060020a039092168252519081900360200190f35b34801561033c57600080fd5b506101ca63ffffffff60043581169060243516611f99565b34801561036057600080fd5b5061019e600160a060020a0360043516611ff6565b34801561038157600080fd5b5061019e6120ab565b34801561039657600080fd5b5061019e63ffffffff6004358116906024359060443516612133565b3480156103be57600080fd5b5061019e63ffffffff60043516602435604435600160a060020a03606435811690608435166122ec565b3480156103f457600080fd5b50610314612a13565b34801561040957600080fd5b50610314612a22565b34801561041e57600080fd5b506101ca612a31565b34801561043357600080fd5b506101ca63ffffffff60043516600160a060020a0360243516612a37565b34801561045d57600080fd5b5061047b63ffffffff60043516600160a060020a0360243516612f21565b604080519115158252519081900360200190f35b34801561049b57600080fd5b5061019e63ffffffff60043516602435600160a060020a03604435166132ae565b3480156104c857600080fd5b5061019e63ffffffff60043516602435613b18565b3480156104e957600080fd5b5061019e63ffffffff60043516602435613d87565b34801561050a57600080fd5b50610314613e5c565b34801561051f57600080fd5b50610314613e6b565b34801561053457600080fd5b5061019e600160a060020a0360043516613e7a565b34801561055557600080fd5b5061019e63ffffffff60043516602435600160a060020a0360443516613ef8565b34801561058257600080fd5b5061019e600160a060020a03600435811690602435166140d9565b3480156105a957600080fd5b5061019e63ffffffff6004351660243561412b565b3480156105ca57600080fd5b5061019e600160a060020a0360043516614451565b600080543390600160a060020a03168114806106085750600554600160a060020a038281169116145b806106205750600654600160a060020a038281169116145b806106a557506002546040805160e060020a6333920503028152600160a060020a0384811660048301529151919092169163339205039160248083019260209291908290030181600087803b15801561067857600080fd5b505af115801561068c573d6000803e3d6000fd5b505050506040513d60208110156106a257600080fd5b50515b15156106b057600080fd5b6106bc846009546144b2565b6008546040805160e260020a631ca07e5f02815263ffffffff808a1660048301528716602482015290519294508492600160a060020a0390921691637281f97c916044808201926020929091908290030181600087803b15801561071f57600080fd5b505af1158015610733573d6000803e3d6000fd5b505050506040513d602081101561074957600080fd5b5051101561075657600080fd5b6107618583856144c8565b6008546007546040805160e260020a6303139f13028152600160a060020a0392831660048201526024810186905290519190921691630c4e7c4c91604480830192600092919082900301818387803b1580156107bc57600080fd5b505af11580156107d0573d6000803e3d6000fd5b505060095460408051918252426020830152805163ffffffff8a1694506000805160206152b58339815191529350918290030190a26040805185815263ffffffff858116602083015242828401529151918716917f554ef03683061be81e833742338ba8aad8d69bc979590a2091ff708bb8ba7c7f9181900360600190a25050505050565b6008546040805160e160020a6304526683028152600160a060020a03858116600483015263ffffffff85166024830152915160009392909216916308a4cd069160448082019260209290919082900301818787803b1580156108b657600080fd5b505af11580156108ca573d6000803e3d6000fd5b505050506040513d60208110156108e057600080fd5b50519392505050565b600054600160a060020a0316331461090057600080fd5b600955565b6000806000806000806000610919336145f8565b8a600860009054906101000a9004600160a060020a0316600160a060020a03166308a4cd068b8f6040518363ffffffff1660e060020a0281526004018083600160a060020a0316600160a060020a031681526020018263ffffffff1663ffffffff16815260200192505050602060405180830381600087803b15801561099e57600080fd5b505af11580156109b2573d6000803e3d6000fd5b505050506040513d60208110156109c857600080fd5b505110156109d557600080fd5b60008b116109e257600080fd5b6008546040805160e060020a6370a08231028152600160a060020a03928316600482015290518b9950918916916370a08231916024808201926020929091908290030181600087803b158015610a3757600080fd5b505af1158015610a4b573d6000803e3d6000fd5b505050506040513d6020811015610a6157600080fd5b5051600480546008546040805160e060020a6370a08231028152600160a060020a03928316948101949094525193995016916370a08231916024808201926020929091908290030181600087803b158015610abb57600080fd5b505af1158015610acf573d6000803e3d6000fd5b505050506040513d6020811015610ae557600080fd5b81019080805190602001909291905050509450600860009054906101000a9004600160a060020a0316600160a060020a031663a64b6e5f8a308e6040518463ffffffff1660e060020a0281526004018084600160a060020a0316600160a060020a0316815260200183600160a060020a0316600160a060020a031681526020018281526020019350505050600060405180830381600087803b158015610b8a57600080fd5b505af1158015610b9e573d6000803e3d6000fd5b5050604080517fdd62ed3e000000000000000000000000000000000000000000000000000000008152306004820152600160a060020a038c8116602483015291518f9450918b16925063dd62ed3e9160448083019260209291908290030181600087803b158015610c0e57600080fd5b505af1158015610c22573d6000803e3d6000fd5b505050506040513d6020811015610c3857600080fd5b50511015610cd85786600160a060020a031663095ea7b38960006040518363ffffffff1660e060020a0281526004018083600160a060020a0316600160a060020a0316815260200182815260200192505050602060405180830381600087803b158015610ca457600080fd5b505af1158015610cb8573d6000803e3d6000fd5b505050506040513d6020811015610cce57600080fd5b50511515610cd857fe5b86600160a060020a031663095ea7b3898d6040518363ffffffff1660e060020a0281526004018083600160a060020a0316600160a060020a0316815260200182815260200192505050602060405180830381600087803b158015610d3b57600080fd5b505af1158015610d4f573d6000803e3d6000fd5b505050506040513d6020811015610d6557600080fd5b50511515610d6f57fe5b610d7a8c8c8b6146cf565b610d878c8c8c8c8c6147e4565b6009549296509094509250610d9d90859061489f565b600480546008546040805160e060020a63a9059cbb028152600160a060020a03928316948101949094526024840185905251939450169163a9059cbb916044808201926020929091908290030181600087803b158015610dfc57600080fd5b505af1158015610e10573d6000803e3d6000fd5b505050506040513d6020811015610e2657600080fd5b5050600160a060020a03808916908a1663ffffffff8e167f370d88b0fc9bf0fc184e80e6952e726403e76e932aa10c4661e2e635499e5421848f610e6a89896144b2565b600954604080519485526020850193909352838301919091526060830152426080830152519081900360a00190a4600480546007546009546040805160e060020a63a9059cbb028152600160a060020a039384169581019590955260248501919091525191169163a9059cbb9160448083019260209291908290030181600087803b158015610ef857600080fd5b505af1158015610f0c573d6000803e3d6000fd5b505050506040513d6020811015610f2257600080fd5b505060095460408051918252426020830152805163ffffffff8f16926000805160206152b583398151915292908290030190a2600480546008546040805160e060020a6370a08231028152600160a060020a039283169481019490945251610fec93610fe69392909216916370a082319160248083019260209291908290030181600087803b158015610fb457600080fd5b505af1158015610fc8573d6000803e3d6000fd5b505050506040513d6020811015610fde57600080fd5b50518561489f565b8661489f565b9450808514610ff757fe5b6008546040805160e060020a6370a08231028152600160a060020a0392831660048201529051611080928992908b16916370a08231916024808201926020929091908290030181600087803b15801561104f57600080fd5b505af1158015611063573d6000803e3d6000fd5b505050506040513d602081101561107957600080fd5b505161489f565b95508a861461108b57fe5b6110958c826148b1565b505050505050505050505050565b600080543390600160a060020a03168114806110cc5750600554600160a060020a038281169116145b806110e45750600654600160a060020a038281169116145b8061116957506002546040805160e060020a6333920503028152600160a060020a0384811660048301529151919092169163339205039160248083019260209291908290030181600087803b15801561113c57600080fd5b505af1158015611150573d6000803e3d6000fd5b505050506040513d602081101561116657600080fd5b50515b151561117457600080fd5b611180836009546144b2565b6008546040805160e060020a633fb95fb102815263ffffffff8816600482015290519294508492600160a060020a0390921691633fb95fb1916024808201926020929091908290030181600087803b1580156111db57600080fd5b505af11580156111ef573d6000803e3d6000fd5b505050506040513d602081101561120557600080fd5b5051101561121257600080fd5b61121c84836149d0565b6008546007546040805160e260020a6303139f13028152600160a060020a0392831660048201526024810186905290519190921691630c4e7c4c91604480830192600092919082900301818387803b15801561127757600080fd5b505af115801561128b573d6000803e3d6000fd5b505060095460408051918252426020830152805163ffffffff891694506000805160206152b58339815191529350918290030190a260408051848152426020820152815163ffffffff8716927f677cfcd8555fa1d644238df923035472a1e72e249bf047b915dd9646e6271b51928290030190a250505050565b6008546040805160e060020a633fb95fb102815263ffffffff841660048201529051600092600160a060020a031691633fb95fb191602480830192602092919082900301818787803b15801561135a57600080fd5b505af115801561136e573d6000803e3d6000fd5b505050506040513d602081101561138457600080fd5b505192915050565b6000805481908190819081908190819081903390600160a060020a03168114806113c35750600554600160a060020a038281169116145b806113db5750600654600160a060020a038281169116145b8061146057506002546040805160e060020a6333920503028152600160a060020a0384811660048301529151919092169163339205039160248083019260209291908290030181600087803b15801561143357600080fd5b505af1158015611447573d6000803e3d6000fd5b505050506040513d602081101561145d57600080fd5b50515b151561146b57600080fd5b89985088600160a060020a031663c9fddcd16040518163ffffffff1660e060020a028152600401602060405180830381600087803b1580156114ac57600080fd5b505af11580156114c0573d6000803e3d6000fd5b505050506040513d60208110156114d657600080fd5b505115156114e357600080fd5b88600160a060020a031663327107f76040518163ffffffff1660e060020a028152600401602060405180830381600087803b15801561152157600080fd5b505af1158015611535573d6000803e3d6000fd5b505050506040513d602081101561154b57600080fd5b5051600854604080517f84d504bc000000000000000000000000000000000000000000000000000000008152600160a060020a0392831660048201529051929a508a9950908b16916384d504bc916024808201926020929091908290030181600087803b1580156115bb57600080fd5b505af11580156115cf573d6000803e3d6000fd5b505050506040513d60208110156115e557600080fd5b50511561183d57600854604080517f6f764c53000000000000000000000000000000000000000000000000000000008152600160a060020a0392831660048201529051918b1691636f764c53916024808201926020929091908290030181600087803b15801561165457600080fd5b505af1158015611668573d6000803e3d6000fd5b505050506040513d602081101561167e57600080fd5b505195506000861161168c57fe5b6008546040805160e060020a6370a08231028152600160a060020a0392831660048201529051918916916370a08231916024808201926020929091908290030181600087803b1580156116de57600080fd5b505af11580156116f2573d6000803e3d6000fd5b505050506040513d602081101561170857600080fd5b5051600854604080517faeaaaa08000000000000000000000000000000000000000000000000000000008152600160a060020a0392831660048201529051929750908b169163aeaaaa08916024808201926020929091908290030181600087803b15801561177557600080fd5b505af1158015611789573d6000803e3d6000fd5b505050506040513d602081101561179f57600080fd5b50506008546040805160e060020a6370a08231028152600160a060020a0392831660048201529051918916916370a08231916024808201926020929091908290030181600087803b1580156117f357600080fd5b505af1158015611807573d6000803e3d6000fd5b505050506040513d602081101561181d57600080fd5b505193508561182c858761489f565b1461183357fe5b61183d868b614a5d565b6008546040805160e060020a63947db38f028152600160a060020a038d8116600483015263ffffffff8f1660248301529151919092169163947db38f9160448083019260209291908290030181600087803b15801561189b57600080fd5b505af11580156118af573d6000803e3d6000fd5b505050506040513d60208110156118c557600080fd5b505192506000831115611b09576008546040805160e060020a63bebe8101028152600160a060020a038d8116600483015291516402540be40093929092169163bebe8101916024808201926020929091908290030181600087803b15801561192c57600080fd5b505af1158015611940573d6000803e3d6000fd5b505050506040513d602081101561195657600080fd5b505181151561196157fe5b6008546040805160e660020a6266c78d028152600160a060020a038f81166004830152915194909304936119fe936402540be4009392909216916319b1e3409160248083019260209291908290030181600087803b1580156119c257600080fd5b505af11580156119d6573d6000803e3d6000fd5b505050506040513d60208110156119ec57600080fd5b50518115156119f757fe5b0485614b59565b811515611a0757fe5b049150611a158b838a614b7d565b600854604080517f56963e00000000000000000000000000000000000000000000000000000000008152600160a060020a038d8116600483015263ffffffff8f16602483015260006044830181905292519316926356963e009260648084019391929182900301818387803b158015611a8d57600080fd5b505af1158015611aa1573d6000803e3d6000fd5b5050505089600160a060020a031688600160a060020a03168c63ffffffff167fae3d149cfd7a5e45ccf0d3e4465daf6a706cb97e60cc28436cd73879869e46e78542604051808381526020018281526020019250505060405180910390a4611b098b89614c16565b5050505050505050505050565b6000543390600160a060020a0316811480611b3e5750600554600160a060020a038281169116145b80611b565750600654600160a060020a038281169116145b80611bdb57506002546040805160e060020a6333920503028152600160a060020a0384811660048301529151919092169163339205039160248083019260209291908290030181600087803b158015611bae57600080fd5b505af1158015611bc2573d6000803e3d6000fd5b505050506040513d6020811015611bd857600080fd5b50515b1515611be657600080fd5b600480546008546040805160e060020a6323b872dd0281523394810194909452600160a060020a03918216602485015260448401869052519116916323b872dd9160648083019260209291908290030181600087803b158015611c4857600080fd5b505af1158015611c5c573d6000803e3d6000fd5b505050506040513d6020811015611c7257600080fd5b50611c7f905083836148b1565b60408051838152426020820152815163ffffffff8616927f9a541d3c41bc46208becd88ecd75a59efd86eb872c99dc37c514be4d0f7f71b5928290030190a2505050565b600854604080517f5173e83100000000000000000000000000000000000000000000000000000000815263ffffffff841660048201529051600092600160a060020a031691635173e83191602480830192602092919082900301818787803b15801561135a57600080fd5b600080543390600160a060020a0316811480611d575750600554600160a060020a038281169116145b80611d6f5750600654600160a060020a038281169116145b80611df457506002546040805160e060020a6333920503028152600160a060020a0384811660048301529151919092169163339205039160248083019260209291908290030181600087803b158015611dc757600080fd5b505af1158015611ddb573d6000803e3d6000fd5b505050506040513d6020811015611df157600080fd5b50515b1515611dff57600080fd5b6008546040805160e160020a6304526683028152600160a060020a03868116600483015263ffffffff891660248301529151879392909216916308a4cd06916044808201926020929091908290030181600087803b158015611e6057600080fd5b505af1158015611e74573d6000803e3d6000fd5b505050506040513d6020811015611e8a57600080fd5b50511015611e9757600080fd5b600854600754604080517fa64b6e5f000000000000000000000000000000000000000000000000000000008152600160a060020a0380881660048301529283166024820152604481018890529051869550919092169163a64b6e5f91606480830192600092919082900301818387803b158015611f1357600080fd5b505af1158015611f27573d6000803e3d6000fd5b50505050611f368585856146cf565b604080518581524260208201528151600160a060020a0386169263ffffffff8916927fb6fce440600078caa51bc0bf48f0685581a0b678d1e8705afdc5306f4c4a54dd929081900390910190a35050505050565b600454600160a060020a031681565b6008546040805160e260020a631ca07e5f02815263ffffffff8086166004830152841660248201529051600092600160a060020a031691637281f97c91604480830192602092919082900301818787803b1580156108b657600080fd5b600054600160a060020a0316331461200d57600080fd5b6008805473ffffffffffffffffffffffffffffffffffffffff1916600160a060020a038381169190911791829055604080517f79ba5097000000000000000000000000000000000000000000000000000000008152905192909116916379ba50979160048082019260009290919082900301818387803b15801561209057600080fd5b505af11580156120a4573d6000803e3d6000fd5b5050505050565b600154600160a060020a031633146120c257600080fd5b60015460008054604051600160a060020a0393841693909116917f343765429aea5a34b3ff6a3785a98a5abb2597aca87bfbb58632c173d585373a91a3600180546000805473ffffffffffffffffffffffffffffffffffffffff19908116600160a060020a03841617909155169055565b6000543390600160a060020a031681148061215b5750600554600160a060020a038281169116145b806121735750600654600160a060020a038281169116145b806121f857506002546040805160e060020a6333920503028152600160a060020a0384811660048301529151919092169163339205039160248083019260209291908290030181600087803b1580156121cb57600080fd5b505af11580156121df573d6000803e3d6000fd5b505050506040513d60208110156121f557600080fd5b50515b151561220357600080fd5b600480546008546040805160e060020a6323b872dd0281523394810194909452600160a060020a03918216602485015260448401879052519116916323b872dd9160648083019260209291908290030181600087803b15801561226557600080fd5b505af1158015612279573d6000803e3d6000fd5b505050506040513d602081101561228f57600080fd5b5061229d9050848484614d98565b6040805184815263ffffffff848116602083015242828401529151918616917f8b652c189ad0b5a575ba84513da1ea972903ab79f62c54b453c438f326a4117f9181900360600190a250505050565b6000806000806000806000612300336145f8565b60008b1161230d57600080fd5b6123198b6009546144b2565b965086600860009054906101000a9004600160a060020a0316600160a060020a0316635173e8318e6040518263ffffffff1660e060020a028152600401808263ffffffff1663ffffffff168152602001915050602060405180830381600087803b15801561238657600080fd5b505af115801561239a573d6000803e3d6000fd5b505050506040513d60208110156123b057600080fd5b505110156123bd57600080fd5b6123c78c88614e2d565b6008546040805160e060020a6370a08231028152600160a060020a03928316600482015290518b9850918816916370a08231916024808201926020929091908290030181600087803b15801561241c57600080fd5b505af1158015612430573d6000803e3d6000fd5b505050506040513d602081101561244657600080fd5b5051600480546008546040805160e060020a6370a08231028152600160a060020a03928316948101949094525193985016916370a08231916024808201926020929091908290030181600087803b1580156124a057600080fd5b505af11580156124b4573d6000803e3d6000fd5b505050506040513d60208110156124ca57600080fd5b50516008546040805160e260020a6303139f13028152306004820152602481018f90529051929650600160a060020a0390911691630c4e7c4c9160448082019260009290919082900301818387803b15801561252557600080fd5b505af1158015612539573d6000803e3d6000fd5b50506008546007546009546040805160e260020a6303139f13028152600160a060020a039384166004820152602481019290925251919092169350630c4e7c4c9250604480830192600092919082900301818387803b15801561259b57600080fd5b505af11580156125af573d6000803e3d6000fd5b505050508b63ffffffff166000805160206152b583398151915260095442604051808381526020018281526020019250505060405180910390a260048054604080517fdd62ed3e0000000000000000000000000000000000000000000000000000000081523093810193909352600160a060020a038b8116602485015290518e93919092169163dd62ed3e916044808201926020929091908290030181600087803b15801561265d57600080fd5b505af1158015612671573d6000803e3d6000fd5b505050506040513d602081101561268757600080fd5b505110156127385760048054604080517f095ea7b3000000000000000000000000000000000000000000000000000000008152600160a060020a038c8116948201949094526000602482018190529151939092169263095ea7b3926044808201936020939283900390910190829087803b15801561270457600080fd5b505af1158015612718573d6000803e3d6000fd5b505050506040513d602081101561272e57600080fd5b5051151561273857fe5b60048054604080517f095ea7b3000000000000000000000000000000000000000000000000000000008152600160a060020a038c811694820194909452602481018f90529051929091169163095ea7b3916044808201926020929091908290030181600087803b1580156127ab57600080fd5b505af11580156127bf573d6000803e3d6000fd5b505050506040513d60208110156127d557600080fd5b505115156127df57fe5b6127eb8b8b8b8b614f45565b6008546040805160e060020a63a9059cbb028152600160a060020a03928316600482015260248101869052905194975092955090935088169163a9059cbb916044808201926020929091908290030181600087803b15801561284c57600080fd5b505af1158015612860573d6000803e3d6000fd5b505050506040513d602081101561287657600080fd5b50506008546040805160e060020a6370a08231028152600160a060020a03928316600482015290516128fe928916916370a082319160248083019260209291908290030181600087803b1580156128cc57600080fd5b505af11580156128e0573d6000803e3d6000fd5b505050506040513d60208110156128f657600080fd5b50518661489f565b945082851461290957fe5b61296b61291685846144b2565b600480546008546040805160e060020a6370a08231028152600160a060020a0392831694810194909452519116916370a082319160248083019260209291908290030181600087803b15801561104f57600080fd5b935086841461297657fe5b6129818c848b614b7d565b87600160a060020a031689600160a060020a03168d63ffffffff167f8dd95c863db7a901dee32bad840c807891c016810f2df354fa44017feb98899b6129d08f6129cb88886144b2565b61489f565b876129db88886144b2565b600954604080519485526020850193909352838301919091526060830152426080830152519081900360a00190a46110958c8a614c16565b600054600160a060020a031681565b600254600160a060020a031681565b60095481565b6008546040805160e060020a63947db38f028152600160a060020a03848116600483015263ffffffff861660248301529151600093849384938493919092169163947db38f91604480830192602092919082900301818787803b158015612a9d57600080fd5b505af1158015612ab1573d6000803e3d6000fd5b505050506040513d6020811015612ac757600080fd5b505192506000831115612f135784915081600160a060020a031663c5cd88db6040518163ffffffff1660e060020a028152600401602060405180830381600087803b158015612b1557600080fd5b505af1158015612b29573d6000803e3d6000fd5b505050506040513d6020811015612b3f57600080fd5b50511515612e1757600854604080517fce9b53f4000000000000000000000000000000000000000000000000000000008152600160a060020a039283166004820152905160009285169163ce9b53f491602480830192602092919082900301818787803b158015612baf57600080fd5b505af1158015612bc3573d6000803e3d6000fd5b505050506040513d6020811015612bd957600080fd5b50511115612d2757600854604080517f6f764c53000000000000000000000000000000000000000000000000000000008152600160a060020a039283166004820152905191841691636f764c53916024808201926020929091908290030181600087803b158015612c4957600080fd5b505af1158015612c5d573d6000803e3d6000fd5b505050506040513d6020811015612c7357600080fd5b50516008546040805160e060020a63bebe8101028152600160a060020a03898116600483015291519394506402540be40093919092169163bebe81019160248083019260209291908290030181600087803b158015612cd157600080fd5b505af1158015612ce5573d6000803e3d6000fd5b505050506040513d6020811015612cfb57600080fd5b5051811515612d0657fe5b04612d166402540be400836119f7565b811515612d1f57fe5b049350612f18565b6008546040805160e060020a63bebe8101028152600160a060020a03888116600483015291516402540be40093929092169163bebe8101916024808201926020929091908290030181600087803b158015612d8157600080fd5b505af1158015612d95573d6000803e3d6000fd5b505050506040513d6020811015612dab57600080fd5b5051811515612db657fe5b6008546040805160e660020a6266c78d028152600160a060020a038a8116600483015291519490930493612d16936402540be4009392909216916319b1e3409160248083019260209291908290030181600087803b1580156119c257600080fd5b81600160a060020a031663a035b1fe6040518163ffffffff1660e060020a028152600401602060405180830381600087803b158015612e5557600080fd5b505af1158015612e69573d6000803e3d6000fd5b505050506040513d6020811015612e7f57600080fd5b5051604080517fba3f5a120000000000000000000000000000000000000000000000000000000081529051612d1691600160a060020a0386169163ba3f5a12916004808201926020929091908290030181600087803b158015612ee157600080fd5b505af1158015612ef5573d6000803e3d6000fd5b505050506040513d6020811015612f0b57600080fd5b505185614b59565b600093505b50505092915050565b6000806000806000809054906101000a9004600160a060020a0316600160a060020a031685600160a060020a0316638da5cb5b6040518163ffffffff1660e060020a028152600401602060405180830381600087803b158015612f8357600080fd5b505af1158015612f97573d6000803e3d6000fd5b505050506040513d6020811015612fad57600080fd5b5051600160a060020a031614612fc257600080fd5b84925082600160a060020a031663c9fddcd16040518163ffffffff1660e060020a028152600401602060405180830381600087803b15801561300357600080fd5b505af1158015613017573d6000803e3d6000fd5b505050506040513d602081101561302d57600080fd5b505115612f13576008546040805160e060020a63947db38f028152600160a060020a03888116600483015263ffffffff8a1660248301529151919092169163947db38f9160448083019260209291908290030181600087803b15801561309257600080fd5b505af11580156130a6573d6000803e3d6000fd5b505050506040513d60208110156130bc57600080fd5b505191506000821115612f1357600854604080517f84d504bc000000000000000000000000000000000000000000000000000000008152600160a060020a0392831660048201529051918516916384d504bc916024808201926020929091908290030181600087803b15801561313157600080fd5b505af1158015613145573d6000803e3d6000fd5b505050506040513d602081101561315b57600080fd5b50511561316b5760019350612f18565b6008546040805160e060020a63bebe8101028152600160a060020a03888116600483015291516402540be40093929092169163bebe8101916024808201926020929091908290030181600087803b1580156131c557600080fd5b505af11580156131d9573d6000803e3d6000fd5b505050506040513d60208110156131ef57600080fd5b50518115156131fa57fe5b6008546040805160e660020a6266c78d028152600160a060020a038a8116600483015291519490930493613297936402540be4009392909216916319b1e3409160248083019260209291908290030181600087803b15801561325b57600080fd5b505af115801561326f573d6000803e3d6000fd5b505050506040513d602081101561328557600080fd5b505181151561329057fe5b0484614b59565b8115156132a057fe5b049050600081119350612f18565b6000806000806000806000806000806132c6336145f8565b60008c116132d357600080fd5b600860009054906101000a9004600160a060020a0316600160a060020a031663947db38f8c8f6040518363ffffffff1660e060020a0281526004018083600160a060020a0316600160a060020a031681526020018263ffffffff1663ffffffff16815260200192505050602060405180830381600087803b15801561335757600080fd5b505af115801561336b573d6000803e3d6000fd5b505050506040513d602081101561338157600080fd5b5051151561339657600954600202995061339c565b60095499505b6133a68c8b6144b2565b600860009054906101000a9004600160a060020a0316600160a060020a0316635173e8318f6040518263ffffffff1660e060020a028152600401808263ffffffff1663ffffffff168152602001915050602060405180830381600087803b15801561341057600080fd5b505af1158015613424573d6000803e3d6000fd5b505050506040513d602081101561343a57600080fd5b5051101561344757600080fd5b6008546007546040805160e260020a6303139f13028152600160a060020a039283166004820152602481018e905290519190921691630c4e7c4c91604480830192600092919082900301818387803b1580156134a257600080fd5b505af11580156134b6573d6000803e3d6000fd5b505050508c63ffffffff166000805160206152b58339815191528b42604051808381526020018281526020019250505060405180910390a26134f88d8b614e2d565b600480546008546040805160e060020a6370a08231028152600160a060020a0392831694810194909452519116916370a082319160248083019260209291908290030181600087803b15801561354d57600080fd5b505af1158015613561573d6000803e3d6000fd5b505050506040513d602081101561357757600080fd5b81019080805190602001909291905050509850600860009054906101000a9004600160a060020a0316600160a060020a0316630c4e7c4c308e6040518363ffffffff1660e060020a0281526004018083600160a060020a0316600160a060020a0316815260200182815260200192505050600060405180830381600087803b15801561360257600080fd5b505af1158015613616573d6000803e3d6000fd5b505050508a97508b600460009054906101000a9004600160a060020a0316600160a060020a031663dd62ed3e308e6040518363ffffffff1660e060020a0281526004018083600160a060020a0316600160a060020a0316815260200182600160a060020a0316600160a060020a0316815260200192505050602060405180830381600087803b1580156136a857600080fd5b505af11580156136bc573d6000803e3d6000fd5b505050506040513d60208110156136d257600080fd5b5051101561377c5760048054604080517f095ea7b3000000000000000000000000000000000000000000000000000000008152600160a060020a038f8116948201949094526000602482018190529151939092169263095ea7b3926044808201936020939283900390910190829087803b15801561374f57600080fd5b505af1158015613763573d6000803e3d6000fd5b505050506040513d602081101561377957600080fd5b50505b600460009054906101000a9004600160a060020a0316600160a060020a031663095ea7b38c8e6040518363ffffffff1660e060020a0281526004018083600160a060020a0316600160a060020a0316815260200182815260200192505050602060405180830381600087803b1580156137f457600080fd5b505af1158015613808573d6000803e3d6000fd5b505050506040513d602081101561381e57600080fd5b5050600854604080517fb5397b11000000000000000000000000000000000000000000000000000000008152600160a060020a039283166004820152602481018f90529051918a169163b5397b11916044808201926060929091908290030181600087803b15801561388f57600080fd5b505af11580156138a3573d6000803e3d6000fd5b505050506040513d60608110156138b957600080fd5b508051602082015160409092015190985090965094506138d98c8861489f565b9350600084111561396d57600480546008546040805160e060020a63a9059cbb028152600160a060020a0392831694810194909452602484018890525191169163a9059cbb9160448083019260209291908290030181600087803b15801561394057600080fd5b505af1158015613954573d6000803e3d6000fd5b505050506040513d602081101561396a57600080fd5b50505b600480546008546040805160e060020a6370a08231028152600160a060020a0392831694810194909452519116916370a082319160248083019260209291908290030181600087803b1580156139c257600080fd5b505af11580156139d6573d6000803e3d6000fd5b505050506040513d60208110156139ec57600080fd5b505192506139fa898461489f565b9150848214613a0557fe5b613a0f878c614fff565b613a1a8d888d6150fc565b613a248d88614e2d565b87600160a060020a031663327107f76040518163ffffffff1660e060020a028152600401602060405180830381600087803b158015613a6257600080fd5b505af1158015613a76573d6000803e3d6000fd5b505050506040513d6020811015613a8c57600080fd5b810190808051906020019092919050505090508a600160a060020a031681600160a060020a03168e63ffffffff167f79c788d4286fd938fc27ef030f37bf0deca43ab210d6f610bbb2da99e635350089898f426040518085815260200184815260200183815260200182815260200194505050505060405180910390a450505050505050505050505050565b600080543390600160a060020a0316811480613b415750600554600160a060020a038281169116145b80613b595750600654600160a060020a038281169116145b80613bde57506002546040805160e060020a6333920503028152600160a060020a0384811660048301529151919092169163339205039160248083019260209291908290030181600087803b158015613bb157600080fd5b505af1158015613bc5573d6000803e3d6000fd5b505050506040513d6020811015613bdb57600080fd5b50515b1515613be957600080fd5b613bf5836009546144b2565b6008546040805160e060020a633fb95fb102815263ffffffff8816600482015290519294508492600160a060020a0390921691633fb95fb1916024808201926020929091908290030181600087803b158015613c5057600080fd5b505af1158015613c64573d6000803e3d6000fd5b505050506040513d6020811015613c7a57600080fd5b50511015613c8757600080fd5b6008546007546009546040805160e260020a6303139f13028152600160a060020a0393841660048201526024810192909252519190921691630c4e7c4c91604480830192600092919082900301818387803b158015613ce557600080fd5b505af1158015613cf9573d6000803e3d6000fd5b505060095460408051918252426020830152805163ffffffff891694506000805160206152b58339815191529350918290030190a2613d3884836149d0565b613d428484615211565b60408051848152426020820152815163ffffffff8716927f2828433aee6e44dce5c7baee532f2a3aa1c7482dc1ed901ae295b1eb537dc275928290030190a250505050565b6000543390600160a060020a0316811480613daf5750600554600160a060020a038281169116145b80613dc75750600654600160a060020a038281169116145b80613e4c57506002546040805160e060020a6333920503028152600160a060020a0384811660048301529151919092169163339205039160248083019260209291908290030181600087803b158015613e1f57600080fd5b505af1158015613e33573d6000803e3d6000fd5b505050506040513d6020811015613e4957600080fd5b50515b1515613e5757600080fd5b505050565b600354600160a060020a031681565b600154600160a060020a031681565b600054600160a060020a03163314613e9157600080fd5b600854604080517ff2fde38b000000000000000000000000000000000000000000000000000000008152600160a060020a0384811660048301529151919092169163f2fde38b91602480830192600092919082900301818387803b15801561209057600080fd5b600080543390600160a060020a0316811480613f215750600554600160a060020a038281169116145b80613f395750600654600160a060020a038281169116145b80613fbe57506002546040805160e060020a6333920503028152600160a060020a0384811660048301529151919092169163339205039160248083019260209291908290030181600087803b158015613f9157600080fd5b505af1158015613fa5573d6000803e3d6000fd5b505050506040513d6020811015613fbb57600080fd5b50515b1515613fc957600080fd5b600454600160a060020a0384811691161415613fe157fe5b6008546040805160e060020a6323b872dd028152336004820152600160a060020a039283166024820152604481018790529051859450918416916323b872dd916064808201926020929091908290030181600087803b15801561404357600080fd5b505af1158015614057573d6000803e3d6000fd5b505050506040513d602081101561406d57600080fd5b5061407b9050858585614b7d565b6140858584614c16565b604080518581524260208201528151600160a060020a0386169263ffffffff8916927f8828ce81f509aaae96d6f2ecfef78f524db72071a3be52386c8165b4ec92db36929081900390910190a35050505050565b600054600160a060020a031633146140f057600080fd5b60058054600160a060020a0393841673ffffffffffffffffffffffffffffffffffffffff199182161790915560068054929093169116179055565b600080543390600160a060020a03168114806141545750600554600160a060020a038281169116145b8061416c5750600654600160a060020a038281169116145b806141f157506002546040805160e060020a6333920503028152600160a060020a0384811660048301529151919092169163339205039160248083019260209291908290030181600087803b1580156141c457600080fd5b505af11580156141d8573d6000803e3d6000fd5b505050506040513d60208110156141ee57600080fd5b50515b15156141fc57600080fd5b614208836009546144b2565b60048054604080517fdd62ed3e0000000000000000000000000000000000000000000000000000000081523393810193909352306024840152519294508492600160a060020a039091169163dd62ed3e9160448083019260209291908290030181600087803b15801561427a57600080fd5b505af115801561428e573d6000803e3d6000fd5b505050506040513d60208110156142a457600080fd5b505110156142b157600080fd5b600480546007546009546040805160e060020a6323b872dd0281523395810195909552600160a060020a0392831660248601526044850191909152519116916323b872dd9160648083019260209291908290030181600087803b15801561431757600080fd5b505af115801561432b573d6000803e3d6000fd5b505050506040513d602081101561434157600080fd5b505060095460408051918252426020830152805163ffffffff8716926000805160206152b583398151915292908290030190a2600480546008546040805160e060020a6323b872dd0281523394810194909452600160a060020a03918216602485015260448401879052519116916323b872dd9160648083019260209291908290030181600087803b1580156143d657600080fd5b505af11580156143ea573d6000803e3d6000fd5b505050506040513d602081101561440057600080fd5b505060408051848152426020820152815163ffffffff8716927fad45225b9d0759a2d0eb45446294664b010b92fc04825784a6892600e996fa3f928290030190a261444b8484615211565b50505050565b600054600160a060020a0316331461446857600080fd5b600054600160a060020a038281169116141561448357600080fd5b6001805473ffffffffffffffffffffffffffffffffffffffff1916600160a060020a0392909216919091179055565b6000828201838110156144c157fe5b9392505050565b6008546040805160e260020a631ca07e5f02815263ffffffff8087166004830152841660248201529051600092600160a060020a031691637281f97c91604480830192602092919082900301818787803b15801561452557600080fd5b505af1158015614539573d6000803e3d6000fd5b505050506040513d602081101561454f57600080fd5b5051905061455d818461489f565b600854604080517fd2c023ee00000000000000000000000000000000000000000000000000000000815263ffffffff808916600483015260248201859052861660448201529051929350600160a060020a039091169163d2c023ee9160648082019260009290919082900301818387803b1580156145da57600080fd5b505af11580156145ee573d6000803e3d6000fd5b5050505050505050565b6000548190600160a060020a03808316911614806146235750600554600160a060020a038281169116145b8061463b5750600654600160a060020a038281169116145b806146c057506002546040805160e060020a6333920503028152600160a060020a0384811660048301529151919092169163339205039160248083019260209291908290030181600087803b15801561469357600080fd5b505af11580156146a7573d6000803e3d6000fd5b505050506040513d60208110156146bd57600080fd5b50515b15156146cb57600080fd5b5050565b6008546040805160e160020a6304526683028152600160a060020a03848116600483015263ffffffff87166024830152915160009392909216916308a4cd069160448082019260209290919082900301818787803b15801561473057600080fd5b505af1158015614744573d6000803e3d6000fd5b505050506040513d602081101561475a57600080fd5b50519050614768818461489f565b600854604080517f784af991000000000000000000000000000000000000000000000000000000008152600160a060020a03868116600483015263ffffffff8916602483015260448201859052915193945091169163784af9919160648082019260009290919082900301818387803b1580156145da57600080fd5b600080600080600080600087935083600160a060020a0316639a5c0abc8c8c6040518363ffffffff1660e060020a0281526004018083815260200182815260200192505050606060405180830381600087803b15801561484357600080fd5b505af1158015614857573d6000803e3d6000fd5b505050506040513d606081101561486d57600080fd5b508051602082015160409092015190945090925090508983101561488d57fe5b919b909a509098509650505050505050565b6000818310156148ab57fe5b50900390565b6008546040805160e060020a633fb95fb102815263ffffffff851660048201529051600092600160a060020a031691633fb95fb191602480830192602092919082900301818787803b15801561490657600080fd5b505af115801561491a573d6000803e3d6000fd5b505050506040513d602081101561493057600080fd5b5051905061493e81836144b2565b600854604080517f3550275e00000000000000000000000000000000000000000000000000000000815263ffffffff87166004820152602481018490529051929350600160a060020a0390911691633550275e9160448082019260009290919082900301818387803b1580156149b357600080fd5b505af11580156149c7573d6000803e3d6000fd5b50505050505050565b6008546040805160e060020a633fb95fb102815263ffffffff851660048201529051600092600160a060020a031691633fb95fb191602480830192602092919082900301818787803b158015614a2557600080fd5b505af1158015614a39573d6000803e3d6000fd5b505050506040513d6020811015614a4f57600080fd5b5051905061493e818361489f565b6008546040805160e660020a6266c78d028152600160a060020a038481166004830152915160009392909216916319b1e3409160248082019260209290919082900301818787803b158015614ab157600080fd5b505af1158015614ac5573d6000803e3d6000fd5b505050506040513d6020811015614adb57600080fd5b50519050614ae981846144b2565b600854604080517f93e94df6000000000000000000000000000000000000000000000000000000008152600160a060020a0386811660048301526024820185905291519394509116916393e94df69160448082019260009290919082900301818387803b1580156149b357600080fd5b6000828202831580614b755750828482811515614b7257fe5b04145b15156144c157fe5b6008546040805160e160020a6304526683028152600160a060020a03848116600483015263ffffffff87166024830152915160009392909216916308a4cd069160448082019260209290919082900301818787803b158015614bde57600080fd5b505af1158015614bf2573d6000803e3d6000fd5b505050506040513d6020811015614c0857600080fd5b5051905061476881846144b2565b600854604080517f77ac56b1000000000000000000000000000000000000000000000000000000008152600160a060020a03848116600483015263ffffffff86166024830152915191909216916377ac56b19160448083019260209291908290030181600087803b158015614c8a57600080fd5b505af1158015614c9e573d6000803e3d6000fd5b505050506040513d6020811015614cb457600080fd5b505115156146cb57600854604080517f2f2d80e7000000000000000000000000000000000000000000000000000000008152600160a060020a03848116600483015263ffffffff861660248301526001604483015291519190921691632f2d80e791606480830192600092919082900301818387803b158015614d3657600080fd5b505af1158015614d4a573d6000803e3d6000fd5b5050604080514281529051600160a060020a038516935063ffffffff861692507fe9237cb14d0e4201c27a61b16e11cde12aecd0fea0c7e13cc9aa4fda0a57243a9181900360200190a35050565b6008546040805160e260020a631ca07e5f02815263ffffffff8087166004830152841660248201529051600092600160a060020a031691637281f97c91604480830192602092919082900301818787803b158015614df557600080fd5b505af1158015614e09573d6000803e3d6000fd5b505050506040513d6020811015614e1f57600080fd5b5051905061455d81846144b2565b600854604080517f5173e83100000000000000000000000000000000000000000000000000000000815263ffffffff851660048201529051600092600160a060020a031691635173e83191602480830192602092919082900301818787803b158015614e9857600080fd5b505af1158015614eac573d6000803e3d6000fd5b505050506040513d6020811015614ec257600080fd5b50519050614ed0818361489f565b600854604080517fa62a5a0000000000000000000000000000000000000000000000000000000000815263ffffffff87166004820152602481018490529051929350600160a060020a039091169163a62a5a009160448082019260009290919082900301818387803b1580156149b357600080fd5b600080600080600080600087935083600160a060020a031663ae5fe1f28c8c6040518363ffffffff1660e060020a0281526004018083815260200182815260200192505050606060405180830381600087803b158015614fa457600080fd5b505af1158015614fb8573d6000803e3d6000fd5b505050506040513d6060811015614fce57600080fd5b5080516020820151604090920151909450909250905089831015614fee57fe5b919a90995090975095505050505050565b6008546040805160e060020a63bebe8101028152600160a060020a0384811660048301529151600093929092169163bebe81019160248082019260209290919082900301818787803b15801561505457600080fd5b505af1158015615068573d6000803e3d6000fd5b505050506040513d602081101561507e57600080fd5b5051905061508c81846144b2565b600854604080517f23c64e49000000000000000000000000000000000000000000000000000000008152600160a060020a0386811660048301526024820185905291519394509116916323c64e499160448082019260009290919082900301818387803b1580156149b357600080fd5b6008546040805160e060020a63947db38f028152600160a060020a03848116600483015263ffffffff871660248301529151600093929092169163947db38f9160448082019260209290919082900301818787803b15801561515d57600080fd5b505af1158015615171573d6000803e3d6000fd5b505050506040513d602081101561518757600080fd5b5051905061519581846144b2565b600854604080517f56963e00000000000000000000000000000000000000000000000000000000008152600160a060020a03868116600483015263ffffffff891660248301526044820185905291519394509116916356963e009160648082019260009290919082900301818387803b1580156145da57600080fd5b600854604080517f5173e83100000000000000000000000000000000000000000000000000000000815263ffffffff851660048201529051600092600160a060020a031691635173e83191602480830192602092919082900301818787803b15801561527c57600080fd5b505af1158015615290573d6000803e3d6000fd5b505050506040513d60208110156152a657600080fd5b50519050614ed081836144b256001dfc114b723b55501bc1ecc910accb0d336d88fdbaa6f846317b41ebd07ef548a165627a7a72305820ec5c012873e70b58ab8e485950f8b4dd43f59b053db1963cd7fa47d47ef22d260029a165627a7a72305820033f631b06d1280064d501e98da5b854100277ccd75b731b9b5a76dfc92ef1730029",
  "source": "pragma solidity ^0.4.18;\nimport './FinancieInternalWallet.sol';\nimport './IFinancieInternalWalletFactory.sol';\n\ncontract FinancieInternalWalletFactory is IFinancieInternalWalletFactory {\n\n    event NewWallet(address indexed _walletAddress, address indexed _owner);\n    /**\n        @dev constructor\n    */\n    constructor() public{}\n\n    function createInternalWallet(\n        address _teamWallet,\n        address _managedContracts,\n        address _platformToken,\n        address _currencyToken,\n        address _walletdata\n    ) public returns(address) {\n        FinancieInternalWallet intwallet = new FinancieInternalWallet(\n            _teamWallet,\n            _managedContracts,\n            _platformToken,\n            _currencyToken\n        );\n\n        intwallet.transferOwnership(msg.sender);\n\n        address _walletAddress = address(intwallet);\n        emit NewWallet(_walletAddress, msg.sender);\n\n        return _walletAddress;\n    }\n}\n",
  "sourcePath": "/Users/rudo/Documents/ichiba/submodules/contracts/solidity/contracts/Financie/FinancieInternalWalletFactory.sol",
  "compiler": {
    "name": "solc",
    "version": "0.4.24+commit.e67f0147.Emscripten.clang"
  },
  "schemaVersion": "2.0.1",
  "updatedAt": "2019-03-03T07:14:05.130Z"
}