{
  "contractName": "FinancieCoreComponents",
  "abi": [
    {
      "constant": false,
      "inputs": [],
      "name": "acceptOwnership",
      "outputs": [],
      "payable": false,
      "stateMutability": "nonpayable",
      "type": "function"
    },
    {
      "constant": true,
      "inputs": [],
      "name": "owner",
      "outputs": [
        {
          "name": "",
          "type": "address"
        }
      ],
      "payable": false,
      "stateMutability": "view",
      "type": "function"
    },
    {
      "constant": true,
      "inputs": [],
      "name": "managedContracts",
      "outputs": [
        {
          "name": "",
          "type": "address"
        }
      ],
      "payable": false,
      "stateMutability": "view",
      "type": "function"
    },
    {
      "constant": true,
      "inputs": [],
      "name": "etherToken",
      "outputs": [
        {
          "name": "",
          "type": "address"
        }
      ],
      "payable": false,
      "stateMutability": "view",
      "type": "function"
    },
    {
      "constant": true,
      "inputs": [],
      "name": "platformToken",
      "outputs": [
        {
          "name": "",
          "type": "address"
        }
      ],
      "payable": false,
      "stateMutability": "view",
      "type": "function"
    },
    {
      "constant": true,
      "inputs": [],
      "name": "newOwner",
      "outputs": [
        {
          "name": "",
          "type": "address"
        }
      ],
      "payable": false,
      "stateMutability": "view",
      "type": "function"
    },
    {
      "constant": false,
      "inputs": [
        {
          "name": "_newOwner",
          "type": "address"
        }
      ],
      "name": "transferOwnership",
      "outputs": [],
      "payable": false,
      "stateMutability": "nonpayable",
      "type": "function"
    },
    {
      "inputs": [
        {
          "name": "_managedContracts",
          "type": "address"
        },
        {
          "name": "_platformToken",
          "type": "address"
        },
        {
          "name": "_etherToken",
          "type": "address"
        }
      ],
      "payable": false,
      "stateMutability": "nonpayable",
      "type": "constructor"
    },
    {
      "anonymous": false,
      "inputs": [
        {
          "indexed": true,
          "name": "_prevOwner",
          "type": "address"
        },
        {
          "indexed": true,
          "name": "_newOwner",
          "type": "address"
        }
      ],
      "name": "OwnerUpdate",
      "type": "event"
    }
  ],
  "bytecode": "0x608060405234801561001057600080fd5b5060405160608061032c8339810160409081528151602083015191909201516000805433600160a060020a0319918216178255600280548216600160a060020a039687161790556003805482169486169490941790935560048054909316939091169290921790556102a490819061008890396000f3006080604052600436106100825763ffffffff7c010000000000000000000000000000000000000000000000000000000060003504166379ba509781146100875780638da5cb5b1461009e57806397ff1f96146100cf578063b8066bcb146100e4578063d1b812cd146100f9578063d4ee1d901461010e578063f2fde38b14610123575b600080fd5b34801561009357600080fd5b5061009c610144565b005b3480156100aa57600080fd5b506100b36101cc565b60408051600160a060020a039092168252519081900360200190f35b3480156100db57600080fd5b506100b36101db565b3480156100f057600080fd5b506100b36101ea565b34801561010557600080fd5b506100b36101f9565b34801561011a57600080fd5b506100b3610208565b34801561012f57600080fd5b5061009c600160a060020a0360043516610217565b600154600160a060020a0316331461015b57600080fd5b60015460008054604051600160a060020a0393841693909116917f343765429aea5a34b3ff6a3785a98a5abb2597aca87bfbb58632c173d585373a91a3600180546000805473ffffffffffffffffffffffffffffffffffffffff19908116600160a060020a03841617909155169055565b600054600160a060020a031681565b600254600160a060020a031681565b600454600160a060020a031681565b600354600160a060020a031681565b600154600160a060020a031681565b600054600160a060020a0316331461022e57600080fd5b600054600160a060020a038281169116141561024957600080fd5b6001805473ffffffffffffffffffffffffffffffffffffffff1916600160a060020a03929092169190911790555600a165627a7a72305820d951089bc3ef8765c69203fc596c9bba98a28725fb43f233accfe5c5c7b950500029",
  "source": "pragma solidity ^0.4.18;\nimport './IFinancieManagedContracts.sol';\nimport '../token/interfaces/IERC20Token.sol';\nimport '../utility/Owned.sol';\n\ncontract FinancieCoreComponents is Owned {\n\n    IFinancieManagedContracts public managedContracts;\n\n    IERC20Token public platformToken;\n    IERC20Token public etherToken;\n\n    constructor(\n        address _managedContracts,\n        address _platformToken,\n        address _etherToken\n    ) public {\n        managedContracts = IFinancieManagedContracts(_managedContracts);\n        platformToken = IERC20Token(_platformToken);\n        etherToken = IERC20Token(_etherToken);\n    }\n\n    modifier validTargetContract(address _contract) {\n        require(managedContracts.validTargetContract(_contract));\n        _;\n    }\n\n}\n",
  "sourcePath": "/Users/rudo/Documents/ichiba/submodules/contracts/solidity/contracts/Financie/FinancieCoreComponents.sol",
  "compiler": {
    "name": "solc",
    "version": "0.4.24+commit.e67f0147.Emscripten.clang"
  },
  "schemaVersion": "2.0.1",
  "updatedAt": "2019-03-01T08:20:46.933Z"
}