{
  "contractName": "FinancieInternalWallet",
  "abi": [
    {
      "constant": true,
      "inputs": [],
      "name": "currencyToken",
      "outputs": [
        {
          "name": "",
          "type": "address"
        }
      ],
      "payable": false,
      "stateMutability": "view",
      "type": "function"
    },
    {
      "constant": false,
      "inputs": [],
      "name": "acceptOwnership",
      "outputs": [],
      "payable": false,
      "stateMutability": "nonpayable",
      "type": "function"
    },
    {
      "constant": true,
      "inputs": [],
      "name": "owner",
      "outputs": [
        {
          "name": "",
          "type": "address"
        }
      ],
      "payable": false,
      "stateMutability": "view",
      "type": "function"
    },
    {
      "constant": true,
      "inputs": [],
      "name": "managedContracts",
      "outputs": [
        {
          "name": "",
          "type": "address"
        }
      ],
      "payable": false,
      "stateMutability": "view",
      "type": "function"
    },
    {
      "constant": true,
      "inputs": [],
      "name": "transactionFee",
      "outputs": [
        {
          "name": "",
          "type": "uint256"
        }
      ],
      "payable": false,
      "stateMutability": "view",
      "type": "function"
    },
    {
      "constant": true,
      "inputs": [],
      "name": "platformToken",
      "outputs": [
        {
          "name": "",
          "type": "address"
        }
      ],
      "payable": false,
      "stateMutability": "view",
      "type": "function"
    },
    {
      "constant": true,
      "inputs": [],
      "name": "newOwner",
      "outputs": [
        {
          "name": "",
          "type": "address"
        }
      ],
      "payable": false,
      "stateMutability": "view",
      "type": "function"
    },
    {
      "constant": false,
      "inputs": [
        {
          "name": "_tradeOperator",
          "type": "address"
        },
        {
          "name": "_fundOperator",
          "type": "address"
        }
      ],
      "name": "setOperators",
      "outputs": [],
      "payable": false,
      "stateMutability": "nonpayable",
      "type": "function"
    },
    {
      "constant": false,
      "inputs": [
        {
          "name": "_newOwner",
          "type": "address"
        }
      ],
      "name": "transferOwnership",
      "outputs": [],
      "payable": false,
      "stateMutability": "nonpayable",
      "type": "function"
    },
    {
      "inputs": [
        {
          "name": "_teamWallet",
          "type": "address"
        },
        {
          "name": "_managedContracts",
          "type": "address"
        },
        {
          "name": "_platformToken",
          "type": "address"
        },
        {
          "name": "_currencyToken",
          "type": "address"
        }
      ],
      "payable": false,
      "stateMutability": "nonpayable",
      "type": "constructor"
    },
    {
      "anonymous": false,
      "inputs": [
        {
          "indexed": true,
          "name": "_user_id",
          "type": "uint32"
        },
        {
          "indexed": false,
          "name": "_amount",
          "type": "uint256"
        },
        {
          "indexed": false,
          "name": "_timestamp",
          "type": "uint256"
        }
      ],
      "name": "TransactionFee",
      "type": "event"
    },
    {
      "anonymous": false,
      "inputs": [
        {
          "indexed": true,
          "name": "_user_id",
          "type": "uint32"
        },
        {
          "indexed": true,
          "name": "_address",
          "type": "address"
        },
        {
          "indexed": false,
          "name": "_timestamp",
          "type": "uint256"
        }
      ],
      "name": "AddOwnedCardList",
      "type": "event"
    },
    {
      "anonymous": false,
      "inputs": [
        {
          "indexed": true,
          "name": "_user_id",
          "type": "uint32"
        },
        {
          "indexed": false,
          "name": "_amount",
          "type": "uint256"
        },
        {
          "indexed": true,
          "name": "_token_address",
          "type": "address"
        },
        {
          "indexed": false,
          "name": "_timestamp",
          "type": "uint256"
        }
      ],
      "name": "DepositTokens",
      "type": "event"
    },
    {
      "anonymous": false,
      "inputs": [
        {
          "indexed": true,
          "name": "_user_id",
          "type": "uint32"
        },
        {
          "indexed": false,
          "name": "_amount",
          "type": "uint256"
        },
        {
          "indexed": true,
          "name": "_token_address",
          "type": "address"
        },
        {
          "indexed": false,
          "name": "_timestamp",
          "type": "uint256"
        }
      ],
      "name": "WithdrawTokens",
      "type": "event"
    },
    {
      "anonymous": false,
      "inputs": [
        {
          "indexed": true,
          "name": "_user_id",
          "type": "uint32"
        },
        {
          "indexed": false,
          "name": "_amount",
          "type": "uint256"
        },
        {
          "indexed": false,
          "name": "_timestamp",
          "type": "uint256"
        }
      ],
      "name": "DepositConsumableCurrencyTokens",
      "type": "event"
    },
    {
      "anonymous": false,
      "inputs": [
        {
          "indexed": true,
          "name": "_user_id",
          "type": "uint32"
        },
        {
          "indexed": false,
          "name": "_amount",
          "type": "uint256"
        },
        {
          "indexed": false,
          "name": "_timestamp",
          "type": "uint256"
        }
      ],
      "name": "DepositWithdrawableCurrencyTokens",
      "type": "event"
    },
    {
      "anonymous": false,
      "inputs": [
        {
          "indexed": true,
          "name": "_user_id",
          "type": "uint32"
        },
        {
          "indexed": false,
          "name": "_amount",
          "type": "uint256"
        },
        {
          "indexed": false,
          "name": "_revenueType",
          "type": "uint32"
        },
        {
          "indexed": false,
          "name": "_timestamp",
          "type": "uint256"
        }
      ],
      "name": "DepositPendingRevenueCurrencyTokens",
      "type": "event"
    },
    {
      "anonymous": false,
      "inputs": [
        {
          "indexed": true,
          "name": "_user_id",
          "type": "uint32"
        },
        {
          "indexed": false,
          "name": "_amount",
          "type": "uint256"
        },
        {
          "indexed": false,
          "name": "_timestamp",
          "type": "uint256"
        }
      ],
      "name": "ConvertWithdrawableToCunsumableCurrencyTokens",
      "type": "event"
    },
    {
      "anonymous": false,
      "inputs": [
        {
          "indexed": true,
          "name": "_user_id",
          "type": "uint32"
        },
        {
          "indexed": false,
          "name": "_amount",
          "type": "uint256"
        },
        {
          "indexed": false,
          "name": "_timestamp",
          "type": "uint256"
        }
      ],
      "name": "WithdrawCurrencyTokens",
      "type": "event"
    },
    {
      "anonymous": false,
      "inputs": [
        {
          "indexed": true,
          "name": "_user_id",
          "type": "uint32"
        },
        {
          "indexed": false,
          "name": "_amount",
          "type": "uint256"
        },
        {
          "indexed": false,
          "name": "_revenueType",
          "type": "uint32"
        },
        {
          "indexed": false,
          "name": "_timestamp",
          "type": "uint256"
        }
      ],
      "name": "WithdrawPendingRevenueCurrencyTokens",
      "type": "event"
    },
    {
      "anonymous": false,
      "inputs": [
        {
          "indexed": true,
          "name": "_user_id",
          "type": "uint32"
        },
        {
          "indexed": false,
          "name": "_amount",
          "type": "uint256"
        },
        {
          "indexed": false,
          "name": "_timestamp",
          "type": "uint256"
        }
      ],
      "name": "ExpireConsumableCurrencyTokens",
      "type": "event"
    },
    {
      "anonymous": false,
      "inputs": [
        {
          "indexed": true,
          "name": "_user_id",
          "type": "uint32"
        },
        {
          "indexed": false,
          "name": "_currency_amount",
          "type": "uint256"
        },
        {
          "indexed": false,
          "name": "_card_amount",
          "type": "uint256"
        },
        {
          "indexed": true,
          "name": "_token_address",
          "type": "address"
        },
        {
          "indexed": true,
          "name": "_bancor_address",
          "type": "address"
        },
        {
          "indexed": false,
          "name": "_trading_fee",
          "type": "uint256"
        },
        {
          "indexed": false,
          "name": "_transaction_fee",
          "type": "uint256"
        },
        {
          "indexed": false,
          "name": "_timestamp",
          "type": "uint256"
        }
      ],
      "name": "BuyCards",
      "type": "event"
    },
    {
      "anonymous": false,
      "inputs": [
        {
          "indexed": true,
          "name": "_user_id",
          "type": "uint32"
        },
        {
          "indexed": false,
          "name": "_currency_amount",
          "type": "uint256"
        },
        {
          "indexed": false,
          "name": "_card_amount",
          "type": "uint256"
        },
        {
          "indexed": true,
          "name": "_token_address",
          "type": "address"
        },
        {
          "indexed": true,
          "name": "_bancor_address",
          "type": "address"
        },
        {
          "indexed": false,
          "name": "_trading_fee",
          "type": "uint256"
        },
        {
          "indexed": false,
          "name": "_transaction_fee",
          "type": "uint256"
        },
        {
          "indexed": false,
          "name": "_timestamp",
          "type": "uint256"
        }
      ],
      "name": "SellCards",
      "type": "event"
    },
    {
      "anonymous": false,
      "inputs": [
        {
          "indexed": true,
          "name": "_user_id",
          "type": "uint32"
        },
        {
          "indexed": false,
          "name": "_amount",
          "type": "uint256"
        },
        {
          "indexed": true,
          "name": "_token_address",
          "type": "address"
        },
        {
          "indexed": true,
          "name": "_auction_address",
          "type": "address"
        },
        {
          "indexed": false,
          "name": "_trading_fee",
          "type": "uint256"
        },
        {
          "indexed": false,
          "name": "_transaction_fee",
          "type": "uint256"
        },
        {
          "indexed": false,
          "name": "_timestamp",
          "type": "uint256"
        }
      ],
      "name": "BidCards",
      "type": "event"
    },
    {
      "anonymous": false,
      "inputs": [
        {
          "indexed": true,
          "name": "_user_id",
          "type": "uint32"
        },
        {
          "indexed": false,
          "name": "_amount",
          "type": "uint256"
        },
        {
          "indexed": true,
          "name": "_token_address",
          "type": "address"
        },
        {
          "indexed": true,
          "name": "_auction_address",
          "type": "address"
        },
        {
          "indexed": false,
          "name": "_timestamp",
          "type": "uint256"
        }
      ],
      "name": "ReceiveCards",
      "type": "event"
    },
    {
      "anonymous": false,
      "inputs": [
        {
          "indexed": true,
          "name": "_prevOwner",
          "type": "address"
        },
        {
          "indexed": true,
          "name": "_newOwner",
          "type": "address"
        }
      ],
      "name": "OwnerUpdate",
      "type": "event"
    },
    {
      "constant": false,
      "inputs": [
        {
          "name": "_bank",
          "type": "address"
        }
      ],
      "name": "setInternalBank",
      "outputs": [],
      "payable": false,
      "stateMutability": "nonpayable",
      "type": "function"
    },
    {
      "constant": false,
      "inputs": [
        {
          "name": "_newOwner",
          "type": "address"
        }
      ],
      "name": "transferBnakOwnership",
      "outputs": [],
      "payable": false,
      "stateMutability": "nonpayable",
      "type": "function"
    },
    {
      "constant": false,
      "inputs": [
        {
          "name": "_amount",
          "type": "uint256"
        }
      ],
      "name": "setTransactionFee",
      "outputs": [],
      "payable": false,
      "stateMutability": "nonpayable",
      "type": "function"
    },
    {
      "constant": true,
      "inputs": [
        {
          "name": "_tokenAddress",
          "type": "address"
        },
        {
          "name": "_userId",
          "type": "uint32"
        }
      ],
      "name": "getBalanceOfToken",
      "outputs": [
        {
          "name": "",
          "type": "uint256"
        }
      ],
      "payable": false,
      "stateMutability": "view",
      "type": "function"
    },
    {
      "constant": true,
      "inputs": [
        {
          "name": "_userId",
          "type": "uint32"
        }
      ],
      "name": "getBalanceOfConsumableCurrencyToken",
      "outputs": [
        {
          "name": "",
          "type": "uint256"
        }
      ],
      "payable": false,
      "stateMutability": "view",
      "type": "function"
    },
    {
      "constant": true,
      "inputs": [
        {
          "name": "_userId",
          "type": "uint32"
        }
      ],
      "name": "getBalanceOfWithdrawableCurrencyToken",
      "outputs": [
        {
          "name": "",
          "type": "uint256"
        }
      ],
      "payable": false,
      "stateMutability": "view",
      "type": "function"
    },
    {
      "constant": true,
      "inputs": [
        {
          "name": "_userId",
          "type": "uint32"
        },
        {
          "name": "_revenueType",
          "type": "uint32"
        }
      ],
      "name": "getBalanceOfPendingRevenueCurrencyToken",
      "outputs": [
        {
          "name": "",
          "type": "uint256"
        }
      ],
      "payable": false,
      "stateMutability": "view",
      "type": "function"
    },
    {
      "constant": false,
      "inputs": [
        {
          "name": "_userId",
          "type": "uint32"
        },
        {
          "name": "_amount",
          "type": "uint256"
        },
        {
          "name": "_tokenAddress",
          "type": "address"
        }
      ],
      "name": "depositTokens",
      "outputs": [],
      "payable": false,
      "stateMutability": "nonpayable",
      "type": "function"
    },
    {
      "constant": false,
      "inputs": [
        {
          "name": "_userId",
          "type": "uint32"
        },
        {
          "name": "_amount",
          "type": "uint256"
        }
      ],
      "name": "depositConsumableCurrencyTokens",
      "outputs": [],
      "payable": false,
      "stateMutability": "nonpayable",
      "type": "function"
    },
    {
      "constant": false,
      "inputs": [
        {
          "name": "_userId",
          "type": "uint32"
        },
        {
          "name": "_amount",
          "type": "uint256"
        }
      ],
      "name": "depositWithdrawableCurrencyTokens",
      "outputs": [],
      "payable": false,
      "stateMutability": "nonpayable",
      "type": "function"
    },
    {
      "constant": false,
      "inputs": [
        {
          "name": "_userId",
          "type": "uint32"
        },
        {
          "name": "_amount",
          "type": "uint256"
        },
        {
          "name": "_revenueType",
          "type": "uint32"
        }
      ],
      "name": "depositPendingRevenueCurrencyTokens",
      "outputs": [],
      "payable": false,
      "stateMutability": "nonpayable",
      "type": "function"
    },
    {
      "constant": false,
      "inputs": [
        {
          "name": "_userId",
          "type": "uint32"
        },
        {
          "name": "_amount",
          "type": "uint256"
        },
        {
          "name": "_tokenAddress",
          "type": "address"
        }
      ],
      "name": "withdrawTokens",
      "outputs": [],
      "payable": false,
      "stateMutability": "nonpayable",
      "type": "function"
    },
    {
      "constant": false,
      "inputs": [
        {
          "name": "_userId",
          "type": "uint32"
        },
        {
          "name": "_amount",
          "type": "uint256"
        }
      ],
      "name": "convertWithdrawableToConsumableCurrencyTokens",
      "outputs": [],
      "payable": false,
      "stateMutability": "nonpayable",
      "type": "function"
    },
    {
      "constant": false,
      "inputs": [
        {
          "name": "_userId",
          "type": "uint32"
        },
        {
          "name": "_amount",
          "type": "uint256"
        }
      ],
      "name": "withdrawCurrencyTokens",
      "outputs": [],
      "payable": false,
      "stateMutability": "nonpayable",
      "type": "function"
    },
    {
      "constant": false,
      "inputs": [
        {
          "name": "_userId",
          "type": "uint32"
        },
        {
          "name": "_amount",
          "type": "uint256"
        },
        {
          "name": "_revenueType",
          "type": "uint32"
        }
      ],
      "name": "withdrawPendingRevenueCurrencyTokens",
      "outputs": [],
      "payable": false,
      "stateMutability": "nonpayable",
      "type": "function"
    },
    {
      "constant": false,
      "inputs": [
        {
          "name": "_userId",
          "type": "uint32"
        },
        {
          "name": "_amount",
          "type": "uint256"
        }
      ],
      "name": "expireConsumableCurrencyTokens",
      "outputs": [],
      "payable": false,
      "stateMutability": "nonpayable",
      "type": "function"
    },
    {
      "constant": false,
      "inputs": [
        {
          "name": "_userId",
          "type": "uint32"
        },
        {
          "name": "_amount",
          "type": "uint256"
        },
        {
          "name": "_minReturn",
          "type": "uint256"
        },
        {
          "name": "_tokenAddress",
          "type": "address"
        },
        {
          "name": "_bancorAddress",
          "type": "address"
        }
      ],
      "name": "delegateBuyCards",
      "outputs": [],
      "payable": false,
      "stateMutability": "nonpayable",
      "type": "function"
    },
    {
      "constant": false,
      "inputs": [
        {
          "name": "_userId",
          "type": "uint32"
        },
        {
          "name": "_amount",
          "type": "uint256"
        },
        {
          "name": "_minReturn",
          "type": "uint256"
        },
        {
          "name": "_tokenAddress",
          "type": "address"
        },
        {
          "name": "_bancorAddress",
          "type": "address"
        }
      ],
      "name": "delegateSellCards",
      "outputs": [],
      "payable": false,
      "stateMutability": "nonpayable",
      "type": "function"
    },
    {
      "constant": false,
      "inputs": [
        {
          "name": "_userId",
          "type": "uint32"
        },
        {
          "name": "_amount",
          "type": "uint256"
        },
        {
          "name": "_auctionAddress",
          "type": "address"
        }
      ],
      "name": "delegateBidCards",
      "outputs": [],
      "payable": false,
      "stateMutability": "nonpayable",
      "type": "function"
    },
    {
      "constant": false,
      "inputs": [
        {
          "name": "_userId",
          "type": "uint32"
        },
        {
          "name": "_auctionAddress",
          "type": "address"
        }
      ],
      "name": "delegateReceiveCards",
      "outputs": [],
      "payable": false,
      "stateMutability": "nonpayable",
      "type": "function"
    },
    {
      "constant": true,
      "inputs": [
        {
          "name": "_userId",
          "type": "uint32"
        },
        {
          "name": "_auctionAddress",
          "type": "address"
        }
      ],
      "name": "delegateCanClaimTokens",
      "outputs": [
        {
          "name": "",
          "type": "bool"
        }
      ],
      "payable": false,
      "stateMutability": "view",
      "type": "function"
    },
    {
      "constant": true,
      "inputs": [
        {
          "name": "_userId",
          "type": "uint32"
        },
        {
          "name": "_auctionAddress",
          "type": "address"
        }
      ],
      "name": "delegateEstimateClaimTokens",
      "outputs": [
        {
          "name": "",
          "type": "uint256"
        }
      ],
      "payable": false,
      "stateMutability": "view",
      "type": "function"
    }
  ],
  "bytecode": "0x608060405234801561001057600080fd5b50604051608080615430833981016040908152815160208301519183015160609093015160008054600160a060020a0319908116331790915560028054600160a060020a039586169083161790556003805495851695821695909517909455600480549184169185169190911790556007805492909116919092161790556153938061009d6000396000f3006080604052600436106101715763ffffffff60e060020a6000350416630668ec26811461017657806308a4cd06146101a0578063096a8ab7146101dc5780630ca7817b146101f4578063157e98e71461022a5780633c2540381461024b5780633fb95fb11461026c57806342372e3f1461028a5780634868eb7c146102b45780635173e831146102d557806365d24f5b146102f35780636b2fa374146103205780637281f97c14610351578063773387011461037557806379ba5097146103965780637aa54eec146103ab578063854cff2e146103d35780638da5cb5b1461040957806397ff1f961461041e5780639ed3edf014610433578063a20153b114610448578063a5efbd5814610472578063b7fdbd8b146104b0578063caa22e81146104dd578063d1b812cd146104fe578063d4ee1d9014610513578063d75d382e14610528578063ddcf4e4f14610549578063dfa571f714610576578063e08b07481461059d578063f2fde38b146105be575b600080fd5b34801561018257600080fd5b5061019e63ffffffff60043581169060243590604435166105df565b005b3480156101ac57600080fd5b506101ca600160a060020a036004351663ffffffff60243516610855565b60408051918252519081900360200190f35b3480156101e857600080fd5b5061019e6004356108e9565b34801561020057600080fd5b5061019e63ffffffff60043516602435604435600160a060020a0360643581169060843516610905565b34801561023657600080fd5b5061019e63ffffffff600435166024356110a3565b34801561025757600080fd5b5061019e63ffffffff60043516602435611305565b34801561027857600080fd5b506101ca63ffffffff600435166114af565b34801561029657600080fd5b5061019e63ffffffff60043516600160a060020a0360243516611536565b3480156102c057600080fd5b5061019e63ffffffff60043516602435611cc0565b3480156102e157600080fd5b506101ca63ffffffff60043516611e6d565b3480156102ff57600080fd5b5061019e63ffffffff60043516602435600160a060020a0360443516611ec2565b34801561032c57600080fd5b5061033561211e565b60408051600160a060020a039092168252519081900360200190f35b34801561035d57600080fd5b506101ca63ffffffff6004358116906024351661212d565b34801561038157600080fd5b5061019e600160a060020a036004351661218a565b3480156103a257600080fd5b5061019e61223f565b3480156103b757600080fd5b5061019e63ffffffff60043581169060243590604435166122c7565b3480156103df57600080fd5b5061019e63ffffffff60043516602435604435600160a060020a0360643581169060843516612480565b34801561041557600080fd5b50610335612ba7565b34801561042a57600080fd5b50610335612bb6565b34801561043f57600080fd5b506101ca612bc5565b34801561045457600080fd5b506101ca63ffffffff60043516600160a060020a0360243516612bcb565b34801561047e57600080fd5b5061049c63ffffffff60043516600160a060020a03602435166130b5565b604080519115158252519081900360200190f35b3480156104bc57600080fd5b5061019e63ffffffff60043516602435600160a060020a0360443516613442565b3480156104e957600080fd5b5061019e63ffffffff60043516602435613cac565b34801561050a57600080fd5b50610335613f1b565b34801561051f57600080fd5b50610335613f2a565b34801561053457600080fd5b5061019e600160a060020a0360043516613f39565b34801561055557600080fd5b5061019e63ffffffff60043516602435600160a060020a0360443516613fb7565b34801561058257600080fd5b5061019e600160a060020a0360043581169060243516614198565b3480156105a957600080fd5b5061019e63ffffffff600435166024356141ea565b3480156105ca57600080fd5b5061019e600160a060020a0360043516614510565b600080543390600160a060020a03168114806106085750600554600160a060020a038281169116145b806106205750600654600160a060020a038281169116145b806106a557506002546040805160e060020a6333920503028152600160a060020a0384811660048301529151919092169163339205039160248083019260209291908290030181600087803b15801561067857600080fd5b505af115801561068c573d6000803e3d6000fd5b505050506040513d60208110156106a257600080fd5b50515b15156106b057600080fd5b6106bc84600954614571565b6008546040805160e260020a631ca07e5f02815263ffffffff808a1660048301528716602482015290519294508492600160a060020a0390921691637281f97c916044808201926020929091908290030181600087803b15801561071f57600080fd5b505af1158015610733573d6000803e3d6000fd5b505050506040513d602081101561074957600080fd5b5051101561075657600080fd5b610761858385614587565b6008546007546040805160e260020a6303139f13028152600160a060020a0392831660048201526024810186905290519190921691630c4e7c4c91604480830192600092919082900301818387803b1580156107bc57600080fd5b505af11580156107d0573d6000803e3d6000fd5b505060095460408051918252426020830152805163ffffffff8a1694506000805160206153488339815191529350918290030190a26040805185815263ffffffff858116602083015242828401529151918716917f554ef03683061be81e833742338ba8aad8d69bc979590a2091ff708bb8ba7c7f9181900360600190a25050505050565b6008546040805160e160020a6304526683028152600160a060020a03858116600483015263ffffffff85166024830152915160009392909216916308a4cd069160448082019260209290919082900301818787803b1580156108b657600080fd5b505af11580156108ca573d6000803e3d6000fd5b505050506040513d60208110156108e057600080fd5b50519392505050565b600054600160a060020a0316331461090057600080fd5b600955565b6000806000806000806000610919336146b7565b8a600860009054906101000a9004600160a060020a0316600160a060020a03166308a4cd068b8f6040518363ffffffff1660e060020a0281526004018083600160a060020a0316600160a060020a031681526020018263ffffffff1663ffffffff16815260200192505050602060405180830381600087803b15801561099e57600080fd5b505af11580156109b2573d6000803e3d6000fd5b505050506040513d60208110156109c857600080fd5b505110156109d557600080fd5b60008b116109e257600080fd5b6008546040805160e060020a6370a08231028152600160a060020a03928316600482015290518b9950918916916370a08231916024808201926020929091908290030181600087803b158015610a3757600080fd5b505af1158015610a4b573d6000803e3d6000fd5b505050506040513d6020811015610a6157600080fd5b5051600480546008546040805160e060020a6370a08231028152600160a060020a03928316948101949094525193995016916370a08231916024808201926020929091908290030181600087803b158015610abb57600080fd5b505af1158015610acf573d6000803e3d6000fd5b505050506040513d6020811015610ae557600080fd5b81019080805190602001909291905050509450600860009054906101000a9004600160a060020a0316600160a060020a031663a64b6e5f8a308e6040518463ffffffff1660e060020a0281526004018084600160a060020a0316600160a060020a0316815260200183600160a060020a0316600160a060020a031681526020018281526020019350505050600060405180830381600087803b158015610b8a57600080fd5b505af1158015610b9e573d6000803e3d6000fd5b5050604080517fdd62ed3e000000000000000000000000000000000000000000000000000000008152306004820152600160a060020a038c8116602483015291518f9450918b16925063dd62ed3e9160448083019260209291908290030181600087803b158015610c0e57600080fd5b505af1158015610c22573d6000803e3d6000fd5b505050506040513d6020811015610c3857600080fd5b50511015610cd85786600160a060020a031663095ea7b38960006040518363ffffffff1660e060020a0281526004018083600160a060020a0316600160a060020a0316815260200182815260200192505050602060405180830381600087803b158015610ca457600080fd5b505af1158015610cb8573d6000803e3d6000fd5b505050506040513d6020811015610cce57600080fd5b50511515610cd857fe5b86600160a060020a031663095ea7b3898d6040518363ffffffff1660e060020a0281526004018083600160a060020a0316600160a060020a0316815260200182815260200192505050602060405180830381600087803b158015610d3b57600080fd5b505af1158015610d4f573d6000803e3d6000fd5b505050506040513d6020811015610d6557600080fd5b50511515610d6f57fe5b610d7a8c8c8b61478e565b610d878c8c8c8c8c6148a3565b6009549296509094509250610d9d90859061495e565b600480546008546040805160e060020a63a9059cbb028152600160a060020a03928316948101949094526024840185905251939450169163a9059cbb916044808201926020929091908290030181600087803b158015610dfc57600080fd5b505af1158015610e10573d6000803e3d6000fd5b505050506040513d6020811015610e2657600080fd5b5050600160a060020a03808916908a1663ffffffff8e167f370d88b0fc9bf0fc184e80e6952e726403e76e932aa10c4661e2e635499e5421848f610e6a8989614571565b600954604080519485526020850193909352838301919091526060830152426080830152519081900360a00190a4600480546007546009546040805160e060020a63a9059cbb028152600160a060020a039384169581019590955260248501919091525191169163a9059cbb9160448083019260209291908290030181600087803b158015610ef857600080fd5b505af1158015610f0c573d6000803e3d6000fd5b505050506040513d6020811015610f2257600080fd5b505060095460408051918252426020830152805163ffffffff8f169260008051602061534883398151915292908290030190a2600480546008546040805160e060020a6370a08231028152600160a060020a039283169481019490945251610fec93610fe69392909216916370a082319160248083019260209291908290030181600087803b158015610fb457600080fd5b505af1158015610fc8573d6000803e3d6000fd5b505050506040513d6020811015610fde57600080fd5b50518561495e565b8661495e565b9450808514610ff757fe5b6008546040805160e060020a6370a08231028152600160a060020a0392831660048201529051611080928992908b16916370a08231916024808201926020929091908290030181600087803b15801561104f57600080fd5b505af1158015611063573d6000803e3d6000fd5b505050506040513d602081101561107957600080fd5b505161495e565b95508a861461108b57fe5b6110958c82614970565b505050505050505050505050565b600080543390600160a060020a03168114806110cc5750600554600160a060020a038281169116145b806110e45750600654600160a060020a038281169116145b8061116957506002546040805160e060020a6333920503028152600160a060020a0384811660048301529151919092169163339205039160248083019260209291908290030181600087803b15801561113c57600080fd5b505af1158015611150573d6000803e3d6000fd5b505050506040513d602081101561116657600080fd5b50515b151561117457600080fd5b61118083600954614571565b6008546040805160e060020a633fb95fb102815263ffffffff8816600482015290519294508492600160a060020a0390921691633fb95fb1916024808201926020929091908290030181600087803b1580156111db57600080fd5b505af11580156111ef573d6000803e3d6000fd5b505050506040513d602081101561120557600080fd5b5051101561121257600080fd5b61121c8483614a8f565b6008546007546040805160e260020a6303139f13028152600160a060020a0392831660048201526024810186905290519190921691630c4e7c4c91604480830192600092919082900301818387803b15801561127757600080fd5b505af115801561128b573d6000803e3d6000fd5b505060095460408051918252426020830152805163ffffffff891694506000805160206153488339815191529350918290030190a260408051848152426020820152815163ffffffff8716927f677cfcd8555fa1d644238df923035472a1e72e249bf047b915dd9646e6271b51928290030190a250505050565b6000543390600160a060020a031681148061132d5750600554600160a060020a038281169116145b806113455750600654600160a060020a038281169116145b806113ca57506002546040805160e060020a6333920503028152600160a060020a0384811660048301529151919092169163339205039160248083019260209291908290030181600087803b15801561139d57600080fd5b505af11580156113b1573d6000803e3d6000fd5b505050506040513d60208110156113c757600080fd5b50515b15156113d557600080fd5b6008546040805160e060020a635173e83102815263ffffffff8616600482015290518492600160a060020a031691635173e8319160248083019260209291908290030181600087803b15801561142a57600080fd5b505af115801561143e573d6000803e3d6000fd5b505050506040513d602081101561145457600080fd5b5051101561146157600080fd5b61146b8383614b1c565b60408051838152426020820152815163ffffffff8616927fa5b70701ae3a79f1cc2f3ead8e4c4d8f7b1051b9ed5210d57da35757bc0df341928290030190a2505050565b6008546040805160e060020a633fb95fb102815263ffffffff841660048201529051600092600160a060020a031691633fb95fb191602480830192602092919082900301818787803b15801561150457600080fd5b505af1158015611518573d6000803e3d6000fd5b505050506040513d602081101561152e57600080fd5b505192915050565b6000805481908190819081908190819081903390600160a060020a031681148061156d5750600554600160a060020a038281169116145b806115855750600654600160a060020a038281169116145b8061160a57506002546040805160e060020a6333920503028152600160a060020a0384811660048301529151919092169163339205039160248083019260209291908290030181600087803b1580156115dd57600080fd5b505af11580156115f1573d6000803e3d6000fd5b505050506040513d602081101561160757600080fd5b50515b151561161557600080fd5b89985088600160a060020a031663c9fddcd16040518163ffffffff1660e060020a028152600401602060405180830381600087803b15801561165657600080fd5b505af115801561166a573d6000803e3d6000fd5b505050506040513d602081101561168057600080fd5b5051151561168d57600080fd5b88600160a060020a031663327107f76040518163ffffffff1660e060020a028152600401602060405180830381600087803b1580156116cb57600080fd5b505af11580156116df573d6000803e3d6000fd5b505050506040513d60208110156116f557600080fd5b5051600854604080517f84d504bc000000000000000000000000000000000000000000000000000000008152600160a060020a0392831660048201529051929a508a9950908b16916384d504bc916024808201926020929091908290030181600087803b15801561176557600080fd5b505af1158015611779573d6000803e3d6000fd5b505050506040513d602081101561178f57600080fd5b5051156119e757600854604080517f6f764c53000000000000000000000000000000000000000000000000000000008152600160a060020a0392831660048201529051918b1691636f764c53916024808201926020929091908290030181600087803b1580156117fe57600080fd5b505af1158015611812573d6000803e3d6000fd5b505050506040513d602081101561182857600080fd5b505195506000861161183657fe5b6008546040805160e060020a6370a08231028152600160a060020a0392831660048201529051918916916370a08231916024808201926020929091908290030181600087803b15801561188857600080fd5b505af115801561189c573d6000803e3d6000fd5b505050506040513d60208110156118b257600080fd5b5051600854604080517faeaaaa08000000000000000000000000000000000000000000000000000000008152600160a060020a0392831660048201529051929750908b169163aeaaaa08916024808201926020929091908290030181600087803b15801561191f57600080fd5b505af1158015611933573d6000803e3d6000fd5b505050506040513d602081101561194957600080fd5b50506008546040805160e060020a6370a08231028152600160a060020a0392831660048201529051918916916370a08231916024808201926020929091908290030181600087803b15801561199d57600080fd5b505af11580156119b1573d6000803e3d6000fd5b505050506040513d60208110156119c757600080fd5b50519350856119d6858761495e565b146119dd57fe5b6119e7868b614c1e565b6008546040805160e060020a63947db38f028152600160a060020a038d8116600483015263ffffffff8f1660248301529151919092169163947db38f9160448083019260209291908290030181600087803b158015611a4557600080fd5b505af1158015611a59573d6000803e3d6000fd5b505050506040513d6020811015611a6f57600080fd5b505192506000831115611cb3576008546040805160e060020a63bebe8101028152600160a060020a038d8116600483015291516402540be40093929092169163bebe8101916024808201926020929091908290030181600087803b158015611ad657600080fd5b505af1158015611aea573d6000803e3d6000fd5b505050506040513d6020811015611b0057600080fd5b5051811515611b0b57fe5b6008546040805160e660020a6266c78d028152600160a060020a038f8116600483015291519490930493611ba8936402540be4009392909216916319b1e3409160248083019260209291908290030181600087803b158015611b6c57600080fd5b505af1158015611b80573d6000803e3d6000fd5b505050506040513d6020811015611b9657600080fd5b5051811515611ba157fe5b0485614d1a565b811515611bb157fe5b049150611bbf8b838a614d3e565b600854604080517f56963e00000000000000000000000000000000000000000000000000000000008152600160a060020a038d8116600483015263ffffffff8f16602483015260006044830181905292519316926356963e009260648084019391929182900301818387803b158015611c3757600080fd5b505af1158015611c4b573d6000803e3d6000fd5b5050505089600160a060020a031688600160a060020a03168c63ffffffff167fae3d149cfd7a5e45ccf0d3e4465daf6a706cb97e60cc28436cd73879869e46e78542604051808381526020018281526020019250505060405180910390a4611cb38b89614dd7565b5050505050505050505050565b6000543390600160a060020a0316811480611ce85750600554600160a060020a038281169116145b80611d005750600654600160a060020a038281169116145b80611d8557506002546040805160e060020a6333920503028152600160a060020a0384811660048301529151919092169163339205039160248083019260209291908290030181600087803b158015611d5857600080fd5b505af1158015611d6c573d6000803e3d6000fd5b505050506040513d6020811015611d8257600080fd5b50515b1515611d9057600080fd5b600480546008546040805160e060020a6323b872dd0281523394810194909452600160a060020a03918216602485015260448401869052519116916323b872dd9160648083019260209291908290030181600087803b158015611df257600080fd5b505af1158015611e06573d6000803e3d6000fd5b505050506040513d6020811015611e1c57600080fd5b50611e2990508383614970565b60408051838152426020820152815163ffffffff8616927f9a541d3c41bc46208becd88ecd75a59efd86eb872c99dc37c514be4d0f7f71b5928290030190a2505050565b6008546040805160e060020a635173e83102815263ffffffff841660048201529051600092600160a060020a031691635173e83191602480830192602092919082900301818787803b15801561150457600080fd5b600080543390600160a060020a0316811480611eeb5750600554600160a060020a038281169116145b80611f035750600654600160a060020a038281169116145b80611f8857506002546040805160e060020a6333920503028152600160a060020a0384811660048301529151919092169163339205039160248083019260209291908290030181600087803b158015611f5b57600080fd5b505af1158015611f6f573d6000803e3d6000fd5b505050506040513d6020811015611f8557600080fd5b50515b1515611f9357600080fd5b6008546040805160e160020a6304526683028152600160a060020a03868116600483015263ffffffff891660248301529151879392909216916308a4cd06916044808201926020929091908290030181600087803b158015611ff457600080fd5b505af1158015612008573d6000803e3d6000fd5b505050506040513d602081101561201e57600080fd5b5051101561202b57600080fd5b600854600754604080517fa64b6e5f000000000000000000000000000000000000000000000000000000008152600160a060020a0380881660048301529283166024820152604481018890529051869550919092169163a64b6e5f91606480830192600092919082900301818387803b1580156120a757600080fd5b505af11580156120bb573d6000803e3d6000fd5b505050506120ca85858561478e565b604080518581524260208201528151600160a060020a0386169263ffffffff8916927fb6fce440600078caa51bc0bf48f0685581a0b678d1e8705afdc5306f4c4a54dd929081900390910190a35050505050565b600454600160a060020a031681565b6008546040805160e260020a631ca07e5f02815263ffffffff8086166004830152841660248201529051600092600160a060020a031691637281f97c91604480830192602092919082900301818787803b1580156108b657600080fd5b600054600160a060020a031633146121a157600080fd5b6008805473ffffffffffffffffffffffffffffffffffffffff1916600160a060020a038381169190911791829055604080517f79ba5097000000000000000000000000000000000000000000000000000000008152905192909116916379ba50979160048082019260009290919082900301818387803b15801561222457600080fd5b505af1158015612238573d6000803e3d6000fd5b5050505050565b600154600160a060020a0316331461225657600080fd5b60015460008054604051600160a060020a0393841693909116917f343765429aea5a34b3ff6a3785a98a5abb2597aca87bfbb58632c173d585373a91a3600180546000805473ffffffffffffffffffffffffffffffffffffffff19908116600160a060020a03841617909155169055565b6000543390600160a060020a03168114806122ef5750600554600160a060020a038281169116145b806123075750600654600160a060020a038281169116145b8061238c57506002546040805160e060020a6333920503028152600160a060020a0384811660048301529151919092169163339205039160248083019260209291908290030181600087803b15801561235f57600080fd5b505af1158015612373573d6000803e3d6000fd5b505050506040513d602081101561238957600080fd5b50515b151561239757600080fd5b600480546008546040805160e060020a6323b872dd0281523394810194909452600160a060020a03918216602485015260448401879052519116916323b872dd9160648083019260209291908290030181600087803b1580156123f957600080fd5b505af115801561240d573d6000803e3d6000fd5b505050506040513d602081101561242357600080fd5b506124319050848484614f59565b6040805184815263ffffffff848116602083015242828401529151918616917f8b652c189ad0b5a575ba84513da1ea972903ab79f62c54b453c438f326a4117f9181900360600190a250505050565b6000806000806000806000612494336146b7565b60008b116124a157600080fd5b6124ad8b600954614571565b965086600860009054906101000a9004600160a060020a0316600160a060020a0316635173e8318e6040518263ffffffff1660e060020a028152600401808263ffffffff1663ffffffff168152602001915050602060405180830381600087803b15801561251a57600080fd5b505af115801561252e573d6000803e3d6000fd5b505050506040513d602081101561254457600080fd5b5051101561255157600080fd5b61255b8c88614b1c565b6008546040805160e060020a6370a08231028152600160a060020a03928316600482015290518b9850918816916370a08231916024808201926020929091908290030181600087803b1580156125b057600080fd5b505af11580156125c4573d6000803e3d6000fd5b505050506040513d60208110156125da57600080fd5b5051600480546008546040805160e060020a6370a08231028152600160a060020a03928316948101949094525193985016916370a08231916024808201926020929091908290030181600087803b15801561263457600080fd5b505af1158015612648573d6000803e3d6000fd5b505050506040513d602081101561265e57600080fd5b50516008546040805160e260020a6303139f13028152306004820152602481018f90529051929650600160a060020a0390911691630c4e7c4c9160448082019260009290919082900301818387803b1580156126b957600080fd5b505af11580156126cd573d6000803e3d6000fd5b50506008546007546009546040805160e260020a6303139f13028152600160a060020a039384166004820152602481019290925251919092169350630c4e7c4c9250604480830192600092919082900301818387803b15801561272f57600080fd5b505af1158015612743573d6000803e3d6000fd5b505050508b63ffffffff1660008051602061534883398151915260095442604051808381526020018281526020019250505060405180910390a260048054604080517fdd62ed3e0000000000000000000000000000000000000000000000000000000081523093810193909352600160a060020a038b8116602485015290518e93919092169163dd62ed3e916044808201926020929091908290030181600087803b1580156127f157600080fd5b505af1158015612805573d6000803e3d6000fd5b505050506040513d602081101561281b57600080fd5b505110156128cc5760048054604080517f095ea7b3000000000000000000000000000000000000000000000000000000008152600160a060020a038c8116948201949094526000602482018190529151939092169263095ea7b3926044808201936020939283900390910190829087803b15801561289857600080fd5b505af11580156128ac573d6000803e3d6000fd5b505050506040513d60208110156128c257600080fd5b505115156128cc57fe5b60048054604080517f095ea7b3000000000000000000000000000000000000000000000000000000008152600160a060020a038c811694820194909452602481018f90529051929091169163095ea7b3916044808201926020929091908290030181600087803b15801561293f57600080fd5b505af1158015612953573d6000803e3d6000fd5b505050506040513d602081101561296957600080fd5b5051151561297357fe5b61297f8b8b8b8b614fee565b6008546040805160e060020a63a9059cbb028152600160a060020a03928316600482015260248101869052905194975092955090935088169163a9059cbb916044808201926020929091908290030181600087803b1580156129e057600080fd5b505af11580156129f4573d6000803e3d6000fd5b505050506040513d6020811015612a0a57600080fd5b50506008546040805160e060020a6370a08231028152600160a060020a0392831660048201529051612a92928916916370a082319160248083019260209291908290030181600087803b158015612a6057600080fd5b505af1158015612a74573d6000803e3d6000fd5b505050506040513d6020811015612a8a57600080fd5b50518661495e565b9450828514612a9d57fe5b612aff612aaa8584614571565b600480546008546040805160e060020a6370a08231028152600160a060020a0392831694810194909452519116916370a082319160248083019260209291908290030181600087803b15801561104f57600080fd5b9350868414612b0a57fe5b612b158c848b614d3e565b87600160a060020a031689600160a060020a03168d63ffffffff167f8dd95c863db7a901dee32bad840c807891c016810f2df354fa44017feb98899b612b648f612b5f8888614571565b61495e565b87612b6f8888614571565b600954604080519485526020850193909352838301919091526060830152426080830152519081900360a00190a46110958c8a614dd7565b600054600160a060020a031681565b600254600160a060020a031681565b60095481565b6008546040805160e060020a63947db38f028152600160a060020a03848116600483015263ffffffff861660248301529151600093849384938493919092169163947db38f91604480830192602092919082900301818787803b158015612c3157600080fd5b505af1158015612c45573d6000803e3d6000fd5b505050506040513d6020811015612c5b57600080fd5b5051925060008311156130a75784915081600160a060020a031663c5cd88db6040518163ffffffff1660e060020a028152600401602060405180830381600087803b158015612ca957600080fd5b505af1158015612cbd573d6000803e3d6000fd5b505050506040513d6020811015612cd357600080fd5b50511515612fab57600854604080517fce9b53f4000000000000000000000000000000000000000000000000000000008152600160a060020a039283166004820152905160009285169163ce9b53f491602480830192602092919082900301818787803b158015612d4357600080fd5b505af1158015612d57573d6000803e3d6000fd5b505050506040513d6020811015612d6d57600080fd5b50511115612ebb57600854604080517f6f764c53000000000000000000000000000000000000000000000000000000008152600160a060020a039283166004820152905191841691636f764c53916024808201926020929091908290030181600087803b158015612ddd57600080fd5b505af1158015612df1573d6000803e3d6000fd5b505050506040513d6020811015612e0757600080fd5b50516008546040805160e060020a63bebe8101028152600160a060020a03898116600483015291519394506402540be40093919092169163bebe81019160248083019260209291908290030181600087803b158015612e6557600080fd5b505af1158015612e79573d6000803e3d6000fd5b505050506040513d6020811015612e8f57600080fd5b5051811515612e9a57fe5b04612eaa6402540be40083611ba1565b811515612eb357fe5b0493506130ac565b6008546040805160e060020a63bebe8101028152600160a060020a03888116600483015291516402540be40093929092169163bebe8101916024808201926020929091908290030181600087803b158015612f1557600080fd5b505af1158015612f29573d6000803e3d6000fd5b505050506040513d6020811015612f3f57600080fd5b5051811515612f4a57fe5b6008546040805160e660020a6266c78d028152600160a060020a038a8116600483015291519490930493612eaa936402540be4009392909216916319b1e3409160248083019260209291908290030181600087803b158015611b6c57600080fd5b81600160a060020a031663a035b1fe6040518163ffffffff1660e060020a028152600401602060405180830381600087803b158015612fe957600080fd5b505af1158015612ffd573d6000803e3d6000fd5b505050506040513d602081101561301357600080fd5b5051604080517fba3f5a120000000000000000000000000000000000000000000000000000000081529051612eaa91600160a060020a0386169163ba3f5a12916004808201926020929091908290030181600087803b15801561307557600080fd5b505af1158015613089573d6000803e3d6000fd5b505050506040513d602081101561309f57600080fd5b505185614d1a565b600093505b50505092915050565b6000806000806000809054906101000a9004600160a060020a0316600160a060020a031685600160a060020a0316638da5cb5b6040518163ffffffff1660e060020a028152600401602060405180830381600087803b15801561311757600080fd5b505af115801561312b573d6000803e3d6000fd5b505050506040513d602081101561314157600080fd5b5051600160a060020a03161461315657600080fd5b84925082600160a060020a031663c9fddcd16040518163ffffffff1660e060020a028152600401602060405180830381600087803b15801561319757600080fd5b505af11580156131ab573d6000803e3d6000fd5b505050506040513d60208110156131c157600080fd5b5051156130a7576008546040805160e060020a63947db38f028152600160a060020a03888116600483015263ffffffff8a1660248301529151919092169163947db38f9160448083019260209291908290030181600087803b15801561322657600080fd5b505af115801561323a573d6000803e3d6000fd5b505050506040513d602081101561325057600080fd5b5051915060008211156130a757600854604080517f84d504bc000000000000000000000000000000000000000000000000000000008152600160a060020a0392831660048201529051918516916384d504bc916024808201926020929091908290030181600087803b1580156132c557600080fd5b505af11580156132d9573d6000803e3d6000fd5b505050506040513d60208110156132ef57600080fd5b5051156132ff57600193506130ac565b6008546040805160e060020a63bebe8101028152600160a060020a03888116600483015291516402540be40093929092169163bebe8101916024808201926020929091908290030181600087803b15801561335957600080fd5b505af115801561336d573d6000803e3d6000fd5b505050506040513d602081101561338357600080fd5b505181151561338e57fe5b6008546040805160e660020a6266c78d028152600160a060020a038a811660048301529151949093049361342b936402540be4009392909216916319b1e3409160248083019260209291908290030181600087803b1580156133ef57600080fd5b505af1158015613403573d6000803e3d6000fd5b505050506040513d602081101561341957600080fd5b505181151561342457fe5b0484614d1a565b81151561343457fe5b0490506000811193506130ac565b60008060008060008060008060008061345a336146b7565b60008c1161346757600080fd5b600860009054906101000a9004600160a060020a0316600160a060020a031663947db38f8c8f6040518363ffffffff1660e060020a0281526004018083600160a060020a0316600160a060020a031681526020018263ffffffff1663ffffffff16815260200192505050602060405180830381600087803b1580156134eb57600080fd5b505af11580156134ff573d6000803e3d6000fd5b505050506040513d602081101561351557600080fd5b5051151561352a576009546002029950613530565b60095499505b61353a8c8b614571565b600860009054906101000a9004600160a060020a0316600160a060020a0316635173e8318f6040518263ffffffff1660e060020a028152600401808263ffffffff1663ffffffff168152602001915050602060405180830381600087803b1580156135a457600080fd5b505af11580156135b8573d6000803e3d6000fd5b505050506040513d60208110156135ce57600080fd5b505110156135db57600080fd5b6008546007546040805160e260020a6303139f13028152600160a060020a039283166004820152602481018e905290519190921691630c4e7c4c91604480830192600092919082900301818387803b15801561363657600080fd5b505af115801561364a573d6000803e3d6000fd5b505050508c63ffffffff166000805160206153488339815191528b42604051808381526020018281526020019250505060405180910390a261368c8d8b614b1c565b600480546008546040805160e060020a6370a08231028152600160a060020a0392831694810194909452519116916370a082319160248083019260209291908290030181600087803b1580156136e157600080fd5b505af11580156136f5573d6000803e3d6000fd5b505050506040513d602081101561370b57600080fd5b81019080805190602001909291905050509850600860009054906101000a9004600160a060020a0316600160a060020a0316630c4e7c4c308e6040518363ffffffff1660e060020a0281526004018083600160a060020a0316600160a060020a0316815260200182815260200192505050600060405180830381600087803b15801561379657600080fd5b505af11580156137aa573d6000803e3d6000fd5b505050508a97508b600460009054906101000a9004600160a060020a0316600160a060020a031663dd62ed3e308e6040518363ffffffff1660e060020a0281526004018083600160a060020a0316600160a060020a0316815260200182600160a060020a0316600160a060020a0316815260200192505050602060405180830381600087803b15801561383c57600080fd5b505af1158015613850573d6000803e3d6000fd5b505050506040513d602081101561386657600080fd5b505110156139105760048054604080517f095ea7b3000000000000000000000000000000000000000000000000000000008152600160a060020a038f8116948201949094526000602482018190529151939092169263095ea7b3926044808201936020939283900390910190829087803b1580156138e357600080fd5b505af11580156138f7573d6000803e3d6000fd5b505050506040513d602081101561390d57600080fd5b50505b600460009054906101000a9004600160a060020a0316600160a060020a031663095ea7b38c8e6040518363ffffffff1660e060020a0281526004018083600160a060020a0316600160a060020a0316815260200182815260200192505050602060405180830381600087803b15801561398857600080fd5b505af115801561399c573d6000803e3d6000fd5b505050506040513d60208110156139b257600080fd5b5050600854604080517fb5397b11000000000000000000000000000000000000000000000000000000008152600160a060020a039283166004820152602481018f90529051918a169163b5397b11916044808201926060929091908290030181600087803b158015613a2357600080fd5b505af1158015613a37573d6000803e3d6000fd5b505050506040513d6060811015613a4d57600080fd5b50805160208201516040909201519098509096509450613a6d8c8861495e565b93506000841115613b0157600480546008546040805160e060020a63a9059cbb028152600160a060020a0392831694810194909452602484018890525191169163a9059cbb9160448083019260209291908290030181600087803b158015613ad457600080fd5b505af1158015613ae8573d6000803e3d6000fd5b505050506040513d6020811015613afe57600080fd5b50505b600480546008546040805160e060020a6370a08231028152600160a060020a0392831694810194909452519116916370a082319160248083019260209291908290030181600087803b158015613b5657600080fd5b505af1158015613b6a573d6000803e3d6000fd5b505050506040513d6020811015613b8057600080fd5b50519250613b8e898461495e565b9150848214613b9957fe5b613ba3878c6150a8565b613bae8d888d6151a5565b613bb88d88614b1c565b87600160a060020a031663327107f76040518163ffffffff1660e060020a028152600401602060405180830381600087803b158015613bf657600080fd5b505af1158015613c0a573d6000803e3d6000fd5b505050506040513d6020811015613c2057600080fd5b810190808051906020019092919050505090508a600160a060020a031681600160a060020a03168e63ffffffff167f79c788d4286fd938fc27ef030f37bf0deca43ab210d6f610bbb2da99e635350089898f426040518085815260200184815260200183815260200182815260200194505050505060405180910390a450505050505050505050505050565b600080543390600160a060020a0316811480613cd55750600554600160a060020a038281169116145b80613ced5750600654600160a060020a038281169116145b80613d7257506002546040805160e060020a6333920503028152600160a060020a0384811660048301529151919092169163339205039160248083019260209291908290030181600087803b158015613d4557600080fd5b505af1158015613d59573d6000803e3d6000fd5b505050506040513d6020811015613d6f57600080fd5b50515b1515613d7d57600080fd5b613d8983600954614571565b6008546040805160e060020a633fb95fb102815263ffffffff8816600482015290519294508492600160a060020a0390921691633fb95fb1916024808201926020929091908290030181600087803b158015613de457600080fd5b505af1158015613df8573d6000803e3d6000fd5b505050506040513d6020811015613e0e57600080fd5b50511015613e1b57600080fd5b6008546007546009546040805160e260020a6303139f13028152600160a060020a0393841660048201526024810192909252519190921691630c4e7c4c91604480830192600092919082900301818387803b158015613e7957600080fd5b505af1158015613e8d573d6000803e3d6000fd5b505060095460408051918252426020830152805163ffffffff891694506000805160206153488339815191529350918290030190a2613ecc8483614a8f565b613ed684846152ba565b60408051848152426020820152815163ffffffff8716927f2828433aee6e44dce5c7baee532f2a3aa1c7482dc1ed901ae295b1eb537dc275928290030190a250505050565b600354600160a060020a031681565b600154600160a060020a031681565b600054600160a060020a03163314613f5057600080fd5b600854604080517ff2fde38b000000000000000000000000000000000000000000000000000000008152600160a060020a0384811660048301529151919092169163f2fde38b91602480830192600092919082900301818387803b15801561222457600080fd5b600080543390600160a060020a0316811480613fe05750600554600160a060020a038281169116145b80613ff85750600654600160a060020a038281169116145b8061407d57506002546040805160e060020a6333920503028152600160a060020a0384811660048301529151919092169163339205039160248083019260209291908290030181600087803b15801561405057600080fd5b505af1158015614064573d6000803e3d6000fd5b505050506040513d602081101561407a57600080fd5b50515b151561408857600080fd5b600454600160a060020a03848116911614156140a057fe5b6008546040805160e060020a6323b872dd028152336004820152600160a060020a039283166024820152604481018790529051859450918416916323b872dd916064808201926020929091908290030181600087803b15801561410257600080fd5b505af1158015614116573d6000803e3d6000fd5b505050506040513d602081101561412c57600080fd5b5061413a9050858585614d3e565b6141448584614dd7565b604080518581524260208201528151600160a060020a0386169263ffffffff8916927f8828ce81f509aaae96d6f2ecfef78f524db72071a3be52386c8165b4ec92db36929081900390910190a35050505050565b600054600160a060020a031633146141af57600080fd5b60058054600160a060020a0393841673ffffffffffffffffffffffffffffffffffffffff199182161790915560068054929093169116179055565b600080543390600160a060020a03168114806142135750600554600160a060020a038281169116145b8061422b5750600654600160a060020a038281169116145b806142b057506002546040805160e060020a6333920503028152600160a060020a0384811660048301529151919092169163339205039160248083019260209291908290030181600087803b15801561428357600080fd5b505af1158015614297573d6000803e3d6000fd5b505050506040513d60208110156142ad57600080fd5b50515b15156142bb57600080fd5b6142c783600954614571565b60048054604080517fdd62ed3e0000000000000000000000000000000000000000000000000000000081523393810193909352306024840152519294508492600160a060020a039091169163dd62ed3e9160448083019260209291908290030181600087803b15801561433957600080fd5b505af115801561434d573d6000803e3d6000fd5b505050506040513d602081101561436357600080fd5b5051101561437057600080fd5b600480546007546009546040805160e060020a6323b872dd0281523395810195909552600160a060020a0392831660248601526044850191909152519116916323b872dd9160648083019260209291908290030181600087803b1580156143d657600080fd5b505af11580156143ea573d6000803e3d6000fd5b505050506040513d602081101561440057600080fd5b505060095460408051918252426020830152805163ffffffff87169260008051602061534883398151915292908290030190a2600480546008546040805160e060020a6323b872dd0281523394810194909452600160a060020a03918216602485015260448401879052519116916323b872dd9160648083019260209291908290030181600087803b15801561449557600080fd5b505af11580156144a9573d6000803e3d6000fd5b505050506040513d60208110156144bf57600080fd5b505060408051848152426020820152815163ffffffff8716927fad45225b9d0759a2d0eb45446294664b010b92fc04825784a6892600e996fa3f928290030190a261450a84846152ba565b50505050565b600054600160a060020a0316331461452757600080fd5b600054600160a060020a038281169116141561454257600080fd5b6001805473ffffffffffffffffffffffffffffffffffffffff1916600160a060020a0392909216919091179055565b60008282018381101561458057fe5b9392505050565b6008546040805160e260020a631ca07e5f02815263ffffffff8087166004830152841660248201529051600092600160a060020a031691637281f97c91604480830192602092919082900301818787803b1580156145e457600080fd5b505af11580156145f8573d6000803e3d6000fd5b505050506040513d602081101561460e57600080fd5b5051905061461c818461495e565b600854604080517fd2c023ee00000000000000000000000000000000000000000000000000000000815263ffffffff808916600483015260248201859052861660448201529051929350600160a060020a039091169163d2c023ee9160648082019260009290919082900301818387803b15801561469957600080fd5b505af11580156146ad573d6000803e3d6000fd5b5050505050505050565b6000548190600160a060020a03808316911614806146e25750600554600160a060020a038281169116145b806146fa5750600654600160a060020a038281169116145b8061477f57506002546040805160e060020a6333920503028152600160a060020a0384811660048301529151919092169163339205039160248083019260209291908290030181600087803b15801561475257600080fd5b505af1158015614766573d6000803e3d6000fd5b505050506040513d602081101561477c57600080fd5b50515b151561478a57600080fd5b5050565b6008546040805160e160020a6304526683028152600160a060020a03848116600483015263ffffffff87166024830152915160009392909216916308a4cd069160448082019260209290919082900301818787803b1580156147ef57600080fd5b505af1158015614803573d6000803e3d6000fd5b505050506040513d602081101561481957600080fd5b50519050614827818461495e565b600854604080517f784af991000000000000000000000000000000000000000000000000000000008152600160a060020a03868116600483015263ffffffff8916602483015260448201859052915193945091169163784af9919160648082019260009290919082900301818387803b15801561469957600080fd5b600080600080600080600087935083600160a060020a0316639a5c0abc8c8c6040518363ffffffff1660e060020a0281526004018083815260200182815260200192505050606060405180830381600087803b15801561490257600080fd5b505af1158015614916573d6000803e3d6000fd5b505050506040513d606081101561492c57600080fd5b508051602082015160409092015190945090925090508983101561494c57fe5b919b909a509098509650505050505050565b60008183101561496a57fe5b50900390565b6008546040805160e060020a633fb95fb102815263ffffffff851660048201529051600092600160a060020a031691633fb95fb191602480830192602092919082900301818787803b1580156149c557600080fd5b505af11580156149d9573d6000803e3d6000fd5b505050506040513d60208110156149ef57600080fd5b505190506149fd8183614571565b600854604080517f3550275e00000000000000000000000000000000000000000000000000000000815263ffffffff87166004820152602481018490529051929350600160a060020a0390911691633550275e9160448082019260009290919082900301818387803b158015614a7257600080fd5b505af1158015614a86573d6000803e3d6000fd5b50505050505050565b6008546040805160e060020a633fb95fb102815263ffffffff851660048201529051600092600160a060020a031691633fb95fb191602480830192602092919082900301818787803b158015614ae457600080fd5b505af1158015614af8573d6000803e3d6000fd5b505050506040513d6020811015614b0e57600080fd5b505190506149fd818361495e565b6008546040805160e060020a635173e83102815263ffffffff851660048201529051600092600160a060020a031691635173e83191602480830192602092919082900301818787803b158015614b7157600080fd5b505af1158015614b85573d6000803e3d6000fd5b505050506040513d6020811015614b9b57600080fd5b50519050614ba9818361495e565b600854604080517fa62a5a0000000000000000000000000000000000000000000000000000000000815263ffffffff87166004820152602481018490529051929350600160a060020a039091169163a62a5a009160448082019260009290919082900301818387803b158015614a7257600080fd5b6008546040805160e660020a6266c78d028152600160a060020a038481166004830152915160009392909216916319b1e3409160248082019260209290919082900301818787803b158015614c7257600080fd5b505af1158015614c86573d6000803e3d6000fd5b505050506040513d6020811015614c9c57600080fd5b50519050614caa8184614571565b600854604080517f93e94df6000000000000000000000000000000000000000000000000000000008152600160a060020a0386811660048301526024820185905291519394509116916393e94df69160448082019260009290919082900301818387803b158015614a7257600080fd5b6000828202831580614d365750828482811515614d3357fe5b04145b151561458057fe5b6008546040805160e160020a6304526683028152600160a060020a03848116600483015263ffffffff87166024830152915160009392909216916308a4cd069160448082019260209290919082900301818787803b158015614d9f57600080fd5b505af1158015614db3573d6000803e3d6000fd5b505050506040513d6020811015614dc957600080fd5b505190506148278184614571565b600854604080517f77ac56b1000000000000000000000000000000000000000000000000000000008152600160a060020a03848116600483015263ffffffff86166024830152915191909216916377ac56b19160448083019260209291908290030181600087803b158015614e4b57600080fd5b505af1158015614e5f573d6000803e3d6000fd5b505050506040513d6020811015614e7557600080fd5b5051151561478a57600854604080517f2f2d80e7000000000000000000000000000000000000000000000000000000008152600160a060020a03848116600483015263ffffffff861660248301526001604483015291519190921691632f2d80e791606480830192600092919082900301818387803b158015614ef757600080fd5b505af1158015614f0b573d6000803e3d6000fd5b5050604080514281529051600160a060020a038516935063ffffffff861692507fe9237cb14d0e4201c27a61b16e11cde12aecd0fea0c7e13cc9aa4fda0a57243a9181900360200190a35050565b6008546040805160e260020a631ca07e5f02815263ffffffff8087166004830152841660248201529051600092600160a060020a031691637281f97c91604480830192602092919082900301818787803b158015614fb657600080fd5b505af1158015614fca573d6000803e3d6000fd5b505050506040513d6020811015614fe057600080fd5b5051905061461c8184614571565b600080600080600080600087935083600160a060020a031663ae5fe1f28c8c6040518363ffffffff1660e060020a0281526004018083815260200182815260200192505050606060405180830381600087803b15801561504d57600080fd5b505af1158015615061573d6000803e3d6000fd5b505050506040513d606081101561507757600080fd5b508051602082015160409092015190945090925090508983101561509757fe5b919a90995090975095505050505050565b6008546040805160e060020a63bebe8101028152600160a060020a0384811660048301529151600093929092169163bebe81019160248082019260209290919082900301818787803b1580156150fd57600080fd5b505af1158015615111573d6000803e3d6000fd5b505050506040513d602081101561512757600080fd5b505190506151358184614571565b600854604080517f23c64e49000000000000000000000000000000000000000000000000000000008152600160a060020a0386811660048301526024820185905291519394509116916323c64e499160448082019260009290919082900301818387803b158015614a7257600080fd5b6008546040805160e060020a63947db38f028152600160a060020a03848116600483015263ffffffff871660248301529151600093929092169163947db38f9160448082019260209290919082900301818787803b15801561520657600080fd5b505af115801561521a573d6000803e3d6000fd5b505050506040513d602081101561523057600080fd5b5051905061523e8184614571565b600854604080517f56963e00000000000000000000000000000000000000000000000000000000008152600160a060020a03868116600483015263ffffffff891660248301526044820185905291519394509116916356963e009160648082019260009290919082900301818387803b15801561469957600080fd5b6008546040805160e060020a635173e83102815263ffffffff851660048201529051600092600160a060020a031691635173e83191602480830192602092919082900301818787803b15801561530f57600080fd5b505af1158015615323573d6000803e3d6000fd5b505050506040513d602081101561533957600080fd5b50519050614ba9818361457156001dfc114b723b55501bc1ecc910accb0d336d88fdbaa6f846317b41ebd07ef548a165627a7a723058209254c66f8223a74f6a14c5fc8e8f1690155d24880f7a70bc1da01101478653e40029",
  "source": "pragma solidity ^0.4.18;\nimport '../token/interfaces/IERC20Token.sol';\nimport './IFinancieInternalWallet.sol';\nimport './IFinancieBancorConverter.sol';\nimport './IFinancieInternalBank.sol';\nimport './IFinancieAuction.sol';\nimport './FinancieCoreComponents.sol';\nimport '../utility/Utils.sol';\n\ncontract FinancieInternalWallet is IFinancieInternalWallet, FinancieCoreComponents, Utils {\n\n    address teamWallet;\n    IFinancieInternalBank bank;\n    uint256 public transactionFee;\n\n    event TransactionFee(uint32 indexed _user_id, uint256 _amount, uint _timestamp);\n\n    event AddOwnedCardList(uint32 indexed _user_id, address indexed _address, uint _timestamp);\n\n    event DepositTokens(uint32 indexed _user_id, uint256 _amount, address indexed _token_address, uint _timestamp);\n    event WithdrawTokens(uint32 indexed _user_id, uint256 _amount, address indexed _token_address, uint _timestamp);\n\n    event DepositConsumableCurrencyTokens(uint32 indexed _user_id, uint256 _amount, uint _timestamp);\n    event DepositWithdrawableCurrencyTokens(uint32 indexed _user_id, uint256 _amount, uint _timestamp);\n    event DepositPendingRevenueCurrencyTokens(uint32 indexed _user_id, uint256 _amount, uint32 _revenueType, uint _timestamp);\n    event ConvertWithdrawableToCunsumableCurrencyTokens(uint32 indexed _user_id, uint256 _amount, uint _timestamp);\n    event WithdrawCurrencyTokens(uint32 indexed _user_id, uint256 _amount, uint _timestamp);\n    event WithdrawPendingRevenueCurrencyTokens(uint32 indexed _user_id, uint256 _amount, uint32 _revenueType, uint _timestamp);\n    event ExpireConsumableCurrencyTokens(uint32 indexed _user_id, uint256 _amount, uint _timestamp);\n\n    event BuyCards(uint32 indexed _user_id, uint256 _currency_amount, uint256 _card_amount, address indexed _token_address, address indexed _bancor_address, uint256 _trading_fee, uint256 _transaction_fee, uint _timestamp);\n    event SellCards(uint32 indexed _user_id, uint256 _currency_amount, uint256 _card_amount, address indexed _token_address, address indexed _bancor_address, uint256 _trading_fee, uint256 _transaction_fee, uint _timestamp);\n    event BidCards(uint32 indexed _user_id, uint256 _amount, address indexed _token_address, address indexed _auction_address, uint256 _trading_fee, uint256 _transaction_fee, uint _timestamp);\n    event ReceiveCards(uint32 indexed _user_id, uint256 _amount, address indexed _token_address, address indexed _auction_address, uint _timestamp);\n\n    constructor(address _teamWallet, address _managedContracts, address _platformToken, address _currencyToken)\n        public\n        FinancieCoreComponents(_managedContracts, _platformToken, _currencyToken)\n    {\n        teamWallet = _teamWallet;\n    }\n\n    function setInternalBank(address _bank)\n        public\n        ownerOnly\n    {\n        bank = IFinancieInternalBank(_bank);\n        bank.acceptOwnership();\n    }\n\n    function transferBnakOwnership(address _newOwner) public ownerOnly {\n        bank.transferOwnership(_newOwner);\n    }\n\n    function setTransactionFee(uint256 _amount)\n        public\n        ownerOnly\n    {\n        transactionFee = _amount;\n    }\n\n    function updateHolders(uint32 _userId, address _tokenAddress) internal {\n        if ( !bank.getHolderOfToken(_tokenAddress, _userId) ) {\n            bank.setHolderOfToken(_tokenAddress, _userId, true);\n            AddOwnedCardList(_userId, _tokenAddress, now);\n        }\n    }\n\n    function getBalanceOfToken(address _tokenAddress, uint32 _userId)\n        public\n        view\n        returns(uint256)\n    {\n        return bank.getBalanceOfToken(_tokenAddress, _userId);\n    }\n\n    function getBalanceOfConsumableCurrencyToken(uint32 _userId)\n        public\n        view\n        returns(uint256)\n    {\n        return bank.getBalanceOfConsumableCurrencyToken(_userId);\n    }\n\n    function getBalanceOfWithdrawableCurrencyToken(uint32 _userId)\n        public\n        view\n        returns(uint256)\n    {\n        return bank.getBalanceOfWithdrawableCurrencyToken(_userId);\n    }\n\n    function getBalanceOfPendingRevenueCurrencyToken(uint32 _userId, uint32 _revenueType)\n        public\n        view\n        returns(uint256)\n    {\n        return bank.getBalanceOfPendingRevenueCurrencyToken(_userId, _revenueType);\n    }\n\n    function depositTokens(uint32 _userId, uint256 _amount, address _tokenAddress)\n        public\n        validOperator(msg.sender)\n    {\n        assert(_tokenAddress != address(currencyToken));\n        IERC20Token token = IERC20Token(_tokenAddress);\n        token.transferFrom(msg.sender, address(bank), _amount);\n\n        addBalanceOfTokens(_userId, _amount, _tokenAddress);\n\n        updateHolders(_userId, _tokenAddress);\n\n        emit DepositTokens(_userId, _amount, _tokenAddress, now);\n    }\n\n    function depositConsumableCurrencyTokens(uint32 _userId, uint256 _amount)\n        public\n        validOperator(msg.sender)\n    {\n        uint256 totalAmount = safeAdd(_amount, transactionFee);\n        require(currencyToken.allowance(msg.sender, this) >= totalAmount);\n\n        // send transaction fee\n        currencyToken.transferFrom(msg.sender, teamWallet, transactionFee);\n        emit TransactionFee(_userId, transactionFee, now);\n\n        // deposit to bank\n        currencyToken.transferFrom(msg.sender, address(bank), _amount);\n        emit DepositConsumableCurrencyTokens(_userId, _amount, now);\n\n        addBalanceOfConsumableCurrencyTokens(_userId, _amount);\n    }\n\n    function depositWithdrawableCurrencyTokens(uint32 _userId, uint256 _amount)\n        public\n        validOperator(msg.sender)\n    {\n        currencyToken.transferFrom(msg.sender, address(bank), _amount);\n\n        addBalanceOfWithdrawableCurrencyTokens(_userId, _amount);\n\n        emit DepositWithdrawableCurrencyTokens(_userId, _amount, now);\n    }\n\n    function depositPendingRevenueCurrencyTokens(uint32 _userId, uint256 _amount, uint32 _revenueType)\n        public\n        validOperator(msg.sender)\n    {\n        currencyToken.transferFrom(msg.sender, address(bank), _amount);\n\n        addBalanceOfPendingRevenueCurrencyTokens(_userId, _amount, _revenueType);\n\n        emit DepositPendingRevenueCurrencyTokens(_userId, _amount, _revenueType, now);\n    }\n\n    function withdrawTokens(uint32 _userId, uint256 _amount, address _tokenAddress)\n        public\n        validOperator(msg.sender)\n    {\n        require(bank.getBalanceOfToken(_tokenAddress, _userId) >= _amount);\n        IERC20Token token = IERC20Token(_tokenAddress);\n\n        bank.transferTokens(_tokenAddress, teamWallet, _amount);\n\n        subBalanceOfTokens(_userId, _amount, _tokenAddress);\n\n        emit WithdrawTokens(_userId, _amount, _tokenAddress, now);\n    }\n\n    function convertWithdrawableToConsumableCurrencyTokens(uint32 _userId, uint256 _amount)\n        public\n        validOperator(msg.sender)\n    {\n        uint256 totalAmount = safeAdd(_amount, transactionFee);\n        require(bank.getBalanceOfWithdrawableCurrencyToken(_userId) >= totalAmount);\n\n        // send transaction fee\n        bank.transferCurrencyTokens(teamWallet, transactionFee);\n        emit TransactionFee(_userId, transactionFee, now);\n\n        // withdraw \"withdrawable\" currency\n        subBalanceOfWithdrawableCurrencyTokens(_userId, totalAmount);\n\n        // deposit as \"consumable\" currency\n        addBalanceOfConsumableCurrencyTokens(_userId, _amount);\n\n        emit ConvertWithdrawableToCunsumableCurrencyTokens(_userId, _amount, now);\n    }\n\n    function withdrawCurrencyTokens(uint32 _userId, uint256 _amount)\n        public\n        validOperator(msg.sender)\n    {\n        uint256 totalAmount = safeAdd(_amount, transactionFee);\n        require(bank.getBalanceOfWithdrawableCurrencyToken(_userId) >= totalAmount);\n\n        subBalanceOfWithdrawableCurrencyTokens(_userId, totalAmount);\n\n        bank.transferCurrencyTokens(teamWallet, totalAmount);\n\n        emit TransactionFee(_userId, transactionFee, now);\n        emit WithdrawCurrencyTokens(_userId, _amount, now);\n    }\n\n    function withdrawPendingRevenueCurrencyTokens(uint32 _userId, uint256 _amount, uint32 _revenueType)\n        public\n        validOperator(msg.sender)\n    {\n        uint256 totalAmount = safeAdd(_amount, transactionFee);\n        require(bank.getBalanceOfPendingRevenueCurrencyToken(_userId, _revenueType) >= totalAmount);\n\n        subBalanceOfPendingRevenueCurrencyTokens(_userId, totalAmount, _revenueType);\n\n        bank.transferCurrencyTokens(teamWallet, totalAmount);\n\n        emit TransactionFee(_userId, transactionFee, now);\n        emit WithdrawPendingRevenueCurrencyTokens(_userId, _amount, _revenueType, now);\n    }\n\n    function expireConsumableCurrencyTokens(uint32 _userId, uint256 _amount)\n        public\n        validOperator(msg.sender)\n    {\n        require(bank.getBalanceOfConsumableCurrencyToken(_userId) >= _amount);\n        subBalanceOfConsumableCurrencyTokens(_userId, _amount);\n\n        emit ExpireConsumableCurrencyTokens(_userId, _amount, now);\n    }\n\n    function _buyCards(uint256 _amount, uint256 _minReturn, address _tokenAddress, address _bancorAddress)\n        private\n        returns(uint256, uint256, uint256)\n    {\n        IFinancieBancorConverter converter = IFinancieBancorConverter(_bancorAddress);\n        uint256 result;\n        uint256 heroFee;\n        uint256 teamFee;\n        (result, heroFee, teamFee) = converter.buyCards(_amount, _minReturn);\n        assert(result >= _minReturn);\n\n        return (result, heroFee, teamFee);\n    }\n\n    function delegateBuyCards(uint32 _userId, uint256 _amount, uint256 _minReturn, address _tokenAddress, address _bancorAddress)\n        public\n    {\n        isValidOperator(msg.sender);\n        require(_amount > 0);\n        uint256 totalAmount = safeAdd(_amount, transactionFee);\n        require(bank.getBalanceOfConsumableCurrencyToken(_userId) >= totalAmount);\n\n        subBalanceOfConsumableCurrencyTokens(_userId, totalAmount);\n\n        IERC20Token token = IERC20Token(_tokenAddress);\n        uint256 tokenDiff = token.balanceOf(bank);\n        uint256 currencyDiff = currencyToken.balanceOf(bank);\n\n        // withdraw currency token to this internal wallet\n        bank.transferCurrencyTokens(this, _amount);\n\n        // send transaction fee\n        bank.transferCurrencyTokens(teamWallet, transactionFee);\n        emit TransactionFee(_userId, transactionFee, now);\n\n        if ( currencyToken.allowance(this, _bancorAddress) < _amount ) {\n            assert(currencyToken.approve(_bancorAddress, 0));\n        }\n        assert(currencyToken.approve(_bancorAddress, _amount));\n        /* approveBancor(_amount, address(currencyToken), _bancorAddress); */\n\n        uint256 result;\n        uint256 heroFee;\n        uint256 teamFee;\n        (result, heroFee, teamFee) = _buyCards(_amount, _minReturn, _tokenAddress, _bancorAddress);\n\n        token.transfer(bank, result);\n\n        tokenDiff = safeSub(token.balanceOf(bank), tokenDiff);\n        // check received card tokens amount equals to converted amount\n        assert(result == tokenDiff);\n\n        currencyDiff = safeSub(safeAdd(currencyDiff, heroFee), currencyToken.balanceOf(bank));\n        // check consumed currency tokens amount equals to specified amount\n        assert(totalAmount == currencyDiff);\n\n        addBalanceOfTokens(_userId, result, _tokenAddress);\n\n        emit BuyCards(_userId, safeSub(_amount, safeAdd(heroFee, teamFee)), result, _tokenAddress, _bancorAddress, safeAdd(heroFee, teamFee), transactionFee, now);\n\n        updateHolders(_userId, _tokenAddress);\n\n    }\n\n    function _sellCards(uint32 _userId, uint256 _amount, uint256 _minReturn, address _tokenAddress, address _bancorAddress)\n        private\n        returns(uint256, uint256, uint256)\n    {\n        IFinancieBancorConverter converter = IFinancieBancorConverter(_bancorAddress);\n        uint256 result;\n        uint256 heroFee;\n        uint256 teamFee;\n        (result, heroFee, teamFee) = converter.sellCards(_amount, _minReturn);\n        assert(result >= _minReturn);\n        return (result, heroFee, teamFee);\n    }\n\n    function delegateSellCards(uint32 _userId, uint256 _amount, uint256 _minReturn, address _tokenAddress, address _bancorAddress)\n        public\n    {\n        isValidOperator(msg.sender);\n        require(bank.getBalanceOfToken(_tokenAddress, _userId) >= _amount);\n        require(_amount > 0);\n\n        IERC20Token token = IERC20Token(_tokenAddress);\n        uint256 tokenDiff = token.balanceOf(bank);\n        uint256 currencyDiff = currencyToken.balanceOf(bank);\n\n        // withdraw card token to this internal wallet\n        bank.transferTokens(_tokenAddress, this, _amount);\n\n        if ( token.allowance(this, _bancorAddress) < _amount ) {\n            assert(token.approve(_bancorAddress, 0));\n        }\n        assert(token.approve(_bancorAddress, _amount));\n\n        subBalanceOfTokens(_userId, _amount, _tokenAddress);\n\n        uint256 result;\n        uint256 heroFee;\n        uint256 teamFee;\n        (result, heroFee, teamFee) = _sellCards(_userId, _amount, _minReturn, _tokenAddress, _bancorAddress);\n\n        uint256 net = safeSub(result, transactionFee);\n        currencyToken.transfer(bank, net);\n        emit SellCards(_userId, net, _amount, _tokenAddress, _bancorAddress, safeAdd(heroFee, teamFee), transactionFee, now);\n\n        // send transaction fee\n        currencyToken.transfer(teamWallet, transactionFee);\n        emit TransactionFee(_userId, transactionFee, now);\n\n        currencyDiff = safeSub(safeSub(currencyToken.balanceOf(bank), heroFee), currencyDiff);\n        // check received currency tokens amount equals to converted amount\n        assert(net == currencyDiff);\n\n        tokenDiff = safeSub(tokenDiff, token.balanceOf(bank));\n        // check consumed card tokens amount equals to specified amount\n        assert(_amount == tokenDiff);\n\n        addBalanceOfWithdrawableCurrencyTokens(_userId, net);\n    }\n\n    function delegateBidCards(uint32 _userId, uint256 _amount, address _auctionAddress)\n        public\n    {\n        isValidOperator(msg.sender);\n        require(_amount > 0);\n        uint256 totalFee;\n        if ( bank.getBidsOfAuctions(_auctionAddress, _userId) == 0 ) {\n            // fee = bid + receive\n            totalFee = transactionFee * 2;\n        } else {\n            // fee = bid\n            totalFee = transactionFee;\n        }\n        require(bank.getBalanceOfConsumableCurrencyToken(_userId) >= safeAdd(_amount, totalFee));\n\n        // send transaction fee\n        bank.transferCurrencyTokens(teamWallet, totalFee);\n        emit TransactionFee(_userId, totalFee, now);\n        subBalanceOfConsumableCurrencyTokens(_userId, totalFee);\n\n        uint256 currencyBefore = currencyToken.balanceOf(bank);\n\n        // withdraw currency token to this internal wallet\n        bank.transferCurrencyTokens(this, _amount);\n\n        // receive tokens on this wallet if available\n        IFinancieAuction auction = IFinancieAuction(_auctionAddress);\n        if ( currencyToken.allowance(this, _auctionAddress) < _amount ) {\n            currencyToken.approve(_auctionAddress, 0);\n        }\n        currencyToken.approve(_auctionAddress, _amount);\n\n        uint256 amount;\n        uint256 heroFee;\n        uint256 teamFee;\n        (amount, heroFee, teamFee) = auction.bidToken(bank, _amount);\n\n        uint256 extra = safeSub(_amount, amount);\n        if ( extra > 0 ) {\n            currencyToken.transfer(bank, extra);\n        }\n\n        uint256 currencyAfter = currencyToken.balanceOf(bank);\n\n        uint256 result = safeSub(currencyBefore, currencyAfter);\n        assert(result == teamFee);\n\n        addTotalBidsOfAuctions(amount, _auctionAddress);\n        addBidsOfAuctions(_userId, amount, _auctionAddress);\n        subBalanceOfConsumableCurrencyTokens(_userId, amount);\n\n        address tokenAddress = auction.targetToken();\n        emit BidCards(_userId, heroFee, tokenAddress, _auctionAddress, teamFee, totalFee, now);\n    }\n\n    function delegateReceiveCards(uint32 _userId, address _auctionAddress)\n        public\n        validOperator(msg.sender)\n    {\n        // receive tokens on this wallet if available\n        IFinancieAuction auction = IFinancieAuction(_auctionAddress);\n        require(auction.auctionFinished());\n\n        address tokenAddress = auction.targetToken();\n        IERC20Token token = IERC20Token(tokenAddress);\n\n        if ( auction.canClaimTokens(bank) ) {\n            uint256 amount = auction.estimateClaimTokens(bank);\n            assert(amount > 0);\n\n            uint256 tokenBefore = token.balanceOf(bank);\n            auction.proxyClaimTokens(bank);\n            uint256 tokenAfter = token.balanceOf(bank);\n\n            assert(safeSub(tokenAfter, tokenBefore) == amount);\n\n            addReceivedCardsOfAuctions(amount, _auctionAddress);\n        }\n\n        // assign tokens amount as received * bids / total\n        uint256 bidsauction_amount = bank.getBidsOfAuctions(_auctionAddress, _userId);\n        if ( bidsauction_amount > 0 ) {\n            uint256 result = safeMul(bank.getRecvCardsOfAuctions(_auctionAddress) / (10 ** 10), bidsauction_amount) / (bank.getTotalBidsOfAuctions(_auctionAddress) / (10 ** 10));\n            addBalanceOfTokens(_userId, result, tokenAddress);\n            bank.setBidsOfAuctions(_auctionAddress, _userId, 0);\n\n            emit ReceiveCards(_userId, result, tokenAddress, _auctionAddress, now);\n            updateHolders(_userId, tokenAddress);\n        }\n    }\n\n    function delegateCanClaimTokens(uint32 _userId, address _auctionAddress)\n        public\n        view\n        returns(bool)\n    {\n        require(IOwned(_auctionAddress).owner() == owner);\n\n        IFinancieAuction auction = IFinancieAuction(_auctionAddress);\n        if ( auction.auctionFinished() ) {\n            uint256 bidsauction_amount = bank.getBidsOfAuctions(_auctionAddress, _userId);\n            if ( bidsauction_amount > 0 ) {\n                if ( auction.canClaimTokens(bank) ) {\n                    return true;\n                }\n\n                uint256 estimate = safeMul(bank.getRecvCardsOfAuctions(_auctionAddress) / (10 ** 10), bidsauction_amount) / (bank.getTotalBidsOfAuctions(_auctionAddress) / (10 ** 10));\n                return estimate > 0;\n            }\n        }\n\n        return false;\n    }\n\n    function delegateEstimateClaimTokens(uint32 _userId, address _auctionAddress)\n        public\n        view\n        returns(uint256)\n    {\n        uint256 bidsauction_amount = bank.getBidsOfAuctions(_auctionAddress, _userId);\n        if ( bidsauction_amount > 0 ) {\n            IFinancieAuction auction = IFinancieAuction(_auctionAddress);\n            if ( auction.missingFundsToEndAuction() == 0 ) {\n                if ( auction.bidsAmount(bank) > 0 ) {\n                    // Bank had not received yet\n                    uint256 totalEstimation = auction.estimateClaimTokens(bank);\n                    return safeMul(totalEstimation / (10 ** 10), bidsauction_amount) / (bank.getTotalBidsOfAuctions(_auctionAddress) / (10 ** 10));\n                } else {\n                    // Bank had already received\n                    return safeMul(bank.getRecvCardsOfAuctions(_auctionAddress) / (10 ** 10), bidsauction_amount) / (bank.getTotalBidsOfAuctions(_auctionAddress) / (10 ** 10));\n                }\n            } else {\n                // Auction ongoing\n                return safeMul(auction.tokenMultiplier(), bidsauction_amount) / auction.price();\n            }\n        }\n\n        return 0;\n    }\n\n    function addBalanceOfConsumableCurrencyTokens(uint32 _userId, uint256 _amount) private {\n        uint256 amount = bank.getBalanceOfConsumableCurrencyToken(_userId);\n        amount = safeAdd(amount, _amount);\n        bank.setBalanceOfConsumableCurrencyToken(_userId, amount);\n    }\n\n    function subBalanceOfConsumableCurrencyTokens(uint32 _userId, uint256 _amount) private {\n        uint256 amount = bank.getBalanceOfConsumableCurrencyToken(_userId);\n        amount = safeSub(amount, _amount);\n        bank.setBalanceOfConsumableCurrencyToken(_userId, amount);\n    }\n\n    function addBalanceOfWithdrawableCurrencyTokens(uint32 _userId, uint256 _amount) private {\n        uint256 amount = bank.getBalanceOfWithdrawableCurrencyToken(_userId);\n        amount = safeAdd(amount, _amount);\n        bank.setBalanceOfWithdrawableCurrencyToken(_userId, amount);\n    }\n\n    function subBalanceOfWithdrawableCurrencyTokens(uint32 _userId, uint256 _amount) private {\n        uint256 amount = bank.getBalanceOfWithdrawableCurrencyToken(_userId);\n        amount = safeSub(amount, _amount);\n        bank.setBalanceOfWithdrawableCurrencyToken(_userId, amount);\n    }\n\n    function addBalanceOfPendingRevenueCurrencyTokens(uint32 _userId, uint256 _amount, uint32 _revenueType) private {\n        uint256 amount = bank.getBalanceOfPendingRevenueCurrencyToken(_userId, _revenueType);\n        amount = safeAdd(amount, _amount);\n        bank.setBalanceOfPendingRevenueCurrencyToken(_userId, amount, _revenueType);\n    }\n\n    function subBalanceOfPendingRevenueCurrencyTokens(uint32 _userId, uint256 _amount, uint32 _revenueType) private {\n        uint256 amount = bank.getBalanceOfPendingRevenueCurrencyToken(_userId, _revenueType);\n        amount = safeSub(amount, _amount);\n        bank.setBalanceOfPendingRevenueCurrencyToken(_userId, amount, _revenueType);\n    }\n\n    function addBalanceOfTokens(uint32 _userId, uint256 _amount, address _tokenAddress) private {\n        uint256 amount = bank.getBalanceOfToken(_tokenAddress, _userId);\n        amount = safeAdd(amount, _amount);\n        bank.setBalanceOfToken(_tokenAddress, _userId, amount);\n    }\n\n    function subBalanceOfTokens(uint32 _userId, uint256 _amount, address _tokenAddress) private {\n        uint256 amount = bank.getBalanceOfToken(_tokenAddress, _userId);\n        amount = safeSub(amount, _amount);\n        bank.setBalanceOfToken(_tokenAddress, _userId, amount);\n    }\n\n    function addTotalBidsOfAuctions(uint256 _amount, address _auctionAddress) private {\n        uint256 amount = bank.getTotalBidsOfAuctions(_auctionAddress);\n        amount = safeAdd(amount, _amount);\n        bank.setTotalBidsOfAuctions(_auctionAddress, amount);\n    }\n\n    function addBidsOfAuctions(uint32 _userId, uint256 _amount, address _auctionAddress) private {\n        uint256 amount = bank.getBidsOfAuctions(_auctionAddress, _userId);\n        amount = safeAdd(amount, _amount);\n        bank.setBidsOfAuctions(_auctionAddress, _userId, amount);\n    }\n\n    function addReceivedCardsOfAuctions(uint256 _amount, address _auctionAddress) private {\n        uint256 amount = bank.getRecvCardsOfAuctions(_auctionAddress);\n        amount = safeAdd(amount, _amount);\n        bank.setRecvCardsOfAuctions(_auctionAddress, amount);\n    }\n\n}\n",
  "sourcePath": "/Users/rudo/Documents/ichiba/submodules/contracts/solidity/contracts/Financie/FinancieInternalWallet.sol",
  "compiler": {
    "name": "solc",
    "version": "0.4.24+commit.e67f0147.Emscripten.clang"
  },
  "schemaVersion": "2.0.1",
  "updatedAt": "2019-03-03T10:38:53.300Z"
}