{
  "contractName": "FinancieTicketToken",
  "abi": [
    {
      "constant": true,
      "inputs": [],
      "name": "name",
      "outputs": [
        {
          "name": "",
          "type": "string"
        }
      ],
      "payable": false,
      "stateMutability": "view",
      "type": "function"
    },
    {
      "constant": true,
      "inputs": [],
      "name": "notifier",
      "outputs": [
        {
          "name": "",
          "type": "address"
        }
      ],
      "payable": false,
      "stateMutability": "view",
      "type": "function"
    },
    {
      "constant": false,
      "inputs": [
        {
          "name": "_spender",
          "type": "address"
        },
        {
          "name": "_value",
          "type": "uint256"
        }
      ],
      "name": "approve",
      "outputs": [
        {
          "name": "success",
          "type": "bool"
        }
      ],
      "payable": false,
      "stateMutability": "nonpayable",
      "type": "function"
    },
    {
      "constant": true,
      "inputs": [],
      "name": "totalSupply",
      "outputs": [
        {
          "name": "",
          "type": "uint256"
        }
      ],
      "payable": false,
      "stateMutability": "view",
      "type": "function"
    },
    {
      "constant": false,
      "inputs": [
        {
          "name": "_from",
          "type": "address"
        },
        {
          "name": "_to",
          "type": "address"
        },
        {
          "name": "_value",
          "type": "uint256"
        }
      ],
      "name": "transferFrom",
      "outputs": [
        {
          "name": "success",
          "type": "bool"
        }
      ],
      "payable": false,
      "stateMutability": "nonpayable",
      "type": "function"
    },
    {
      "constant": true,
      "inputs": [],
      "name": "decimals",
      "outputs": [
        {
          "name": "",
          "type": "uint8"
        }
      ],
      "payable": false,
      "stateMutability": "view",
      "type": "function"
    },
    {
      "constant": true,
      "inputs": [],
      "name": "standard",
      "outputs": [
        {
          "name": "",
          "type": "string"
        }
      ],
      "payable": false,
      "stateMutability": "view",
      "type": "function"
    },
    {
      "constant": true,
      "inputs": [
        {
          "name": "",
          "type": "address"
        }
      ],
      "name": "balanceOf",
      "outputs": [
        {
          "name": "",
          "type": "uint256"
        }
      ],
      "payable": false,
      "stateMutability": "view",
      "type": "function"
    },
    {
      "constant": false,
      "inputs": [],
      "name": "acceptOwnership",
      "outputs": [],
      "payable": false,
      "stateMutability": "nonpayable",
      "type": "function"
    },
    {
      "constant": true,
      "inputs": [],
      "name": "owner",
      "outputs": [
        {
          "name": "",
          "type": "address"
        }
      ],
      "payable": false,
      "stateMutability": "view",
      "type": "function"
    },
    {
      "constant": true,
      "inputs": [],
      "name": "symbol",
      "outputs": [
        {
          "name": "",
          "type": "string"
        }
      ],
      "payable": false,
      "stateMutability": "view",
      "type": "function"
    },
    {
      "constant": false,
      "inputs": [
        {
          "name": "_to",
          "type": "address"
        },
        {
          "name": "_value",
          "type": "uint256"
        }
      ],
      "name": "transfer",
      "outputs": [
        {
          "name": "success",
          "type": "bool"
        }
      ],
      "payable": false,
      "stateMutability": "nonpayable",
      "type": "function"
    },
    {
      "constant": true,
      "inputs": [],
      "name": "newOwner",
      "outputs": [
        {
          "name": "",
          "type": "address"
        }
      ],
      "payable": false,
      "stateMutability": "view",
      "type": "function"
    },
    {
      "constant": true,
      "inputs": [
        {
          "name": "",
          "type": "address"
        },
        {
          "name": "",
          "type": "address"
        }
      ],
      "name": "allowance",
      "outputs": [
        {
          "name": "",
          "type": "uint256"
        }
      ],
      "payable": false,
      "stateMutability": "view",
      "type": "function"
    },
    {
      "constant": false,
      "inputs": [
        {
          "name": "_newOwner",
          "type": "address"
        }
      ],
      "name": "transferOwnership",
      "outputs": [],
      "payable": false,
      "stateMutability": "nonpayable",
      "type": "function"
    },
    {
      "inputs": [
        {
          "name": "_name",
          "type": "string"
        },
        {
          "name": "_symbol",
          "type": "string"
        },
        {
          "name": "_issuer",
          "type": "uint32"
        },
        {
          "name": "_supply",
          "type": "uint32"
        },
        {
          "name": "_notifier",
          "type": "address"
        }
      ],
      "payable": false,
      "stateMutability": "nonpayable",
      "type": "constructor"
    },
    {
      "anonymous": false,
      "inputs": [
        {
          "indexed": true,
          "name": "_prevOwner",
          "type": "address"
        },
        {
          "indexed": true,
          "name": "_newOwner",
          "type": "address"
        }
      ],
      "name": "OwnerUpdate",
      "type": "event"
    },
    {
      "anonymous": false,
      "inputs": [
        {
          "indexed": true,
          "name": "_from",
          "type": "address"
        },
        {
          "indexed": true,
          "name": "_to",
          "type": "address"
        },
        {
          "indexed": false,
          "name": "_value",
          "type": "uint256"
        }
      ],
      "name": "Transfer",
      "type": "event"
    },
    {
      "anonymous": false,
      "inputs": [
        {
          "indexed": true,
          "name": "_owner",
          "type": "address"
        },
        {
          "indexed": true,
          "name": "_spender",
          "type": "address"
        },
        {
          "indexed": false,
          "name": "_value",
          "type": "uint256"
        }
      ],
      "name": "Approval",
      "type": "event"
    },
    {
      "constant": false,
      "inputs": [
        {
          "name": "_from",
          "type": "address"
        },
        {
          "name": "_amount",
          "type": "uint256"
        }
      ],
      "name": "burnFrom",
      "outputs": [],
      "payable": false,
      "stateMutability": "nonpayable",
      "type": "function"
    },
    {
      "constant": false,
      "inputs": [
        {
          "name": "_amount",
          "type": "uint256"
        }
      ],
      "name": "burn",
      "outputs": [],
      "payable": false,
      "stateMutability": "nonpayable",
      "type": "function"
    },
    {
      "constant": true,
      "inputs": [],
      "name": "getIssuer",
      "outputs": [
        {
          "name": "",
          "type": "uint32"
        }
      ],
      "payable": false,
      "stateMutability": "view",
      "type": "function"
    }
  ],
  "bytecode": "0x60c0604052600960808190527f546f6b656e20302e31000000000000000000000000000000000000000000000060a0908152620000409160009190620001cd565b506040805160208101918290526000908190526200006191600191620001cd565b506040805160208101918290526000908190526200008291600291620001cd565b506003805460ff1916905560006004553480156200009f57600080fd5b5060405162000e1c38038062000e1c8339810160409081528151602083015191830151606084015160808501519285018051909594909401939192909181908690869060009081108015620000f5575060008251115b15156200010157600080fd5b825162000116906001906020860190620001cd565b5081516200012c906002906020850190620001cd565b506003805460ff191660ff9290921691909117905550506007805433600160a060020a0319918216811790925560098054909116600160a060020a039390931692909217825563ffffffff938416600481905560009182526005602052604090912055805460a060020a63ffffffff021916740100000000000000000000000000000000000000009490931693909302919091179091555062000272915050565b828054600181600116156101000203166002900490600052602060002090601f016020900481019282601f106200021057805160ff191683800117855562000240565b8280016001018555821562000240579182015b828111156200024057825182559160200191906001019062000223565b506200024e92915062000252565b5090565b6200026f91905b808211156200024e576000815560010162000259565b90565b610b9a80620002826000396000f3006080604052600436106100fb5763ffffffff7c010000000000000000000000000000000000000000000000000000000060003504166306fdde03811461010057806309276ea41461018a578063095ea7b3146101bb57806318160ddd146101f357806323b872dd1461021a578063313ce5671461024457806342966c681461026f57806352556421146102895780635a3b7e42146102b757806370a08231146102cc57806379ba5097146102ed57806379cc6790146103025780638da5cb5b1461032657806395d89b411461033b578063a9059cbb14610350578063d4ee1d9014610374578063dd62ed3e14610389578063f2fde38b146103b0575b600080fd5b34801561010c57600080fd5b506101156103d1565b6040805160208082528351818301528351919283929083019185019080838360005b8381101561014f578181015183820152602001610137565b50505050905090810190601f16801561017c5780820380516001836020036101000a031916815260200191505b509250505060405180910390f35b34801561019657600080fd5b5061019f61045e565b60408051600160a060020a039092168252519081900360200190f35b3480156101c757600080fd5b506101df600160a060020a036004351660243561046d565b604080519115158252519081900360200190f35b3480156101ff57600080fd5b50610208610526565b60408051918252519081900360200190f35b34801561022657600080fd5b506101df600160a060020a036004358116906024351660443561052c565b34801561025057600080fd5b50610259610655565b6040805160ff9092168252519081900360200190f35b34801561027b57600080fd5b5061028760043561065e565b005b34801561029557600080fd5b5061029e6106c1565b6040805163ffffffff9092168252519081900360200190f35b3480156102c357600080fd5b506101156106e5565b3480156102d857600080fd5b50610208600160a060020a0360043516610740565b3480156102f957600080fd5b50610287610752565b34801561030e57600080fd5b50610287600160a060020a03600435166024356107dc565b34801561033257600080fd5b5061019f610853565b34801561034757600080fd5b50610115610862565b34801561035c57600080fd5b506101df600160a060020a03600435166024356108ba565b34801561038057600080fd5b5061019f610977565b34801561039557600080fd5b50610208600160a060020a0360043581169060243516610986565b3480156103bc57600080fd5b50610287600160a060020a03600435166109a3565b60018054604080516020600284861615610100026000190190941693909304601f810184900484028201840190925281815292918301828280156104565780601f1061042b57610100808354040283529160200191610456565b820191906000526020600020905b81548152906001019060200180831161043957829003601f168201915b505050505081565b600954600160a060020a031681565b600082600160a060020a038116151561048557600080fd5b8215806104b35750336000908152600660209081526040808320600160a060020a0388168452909152902054155b15156104be57600080fd5b336000818152600660209081526040808320600160a060020a03891680855290835292819020879055805187815290519293927f8c5be1e5ebec7d5bd14f71427d1e84f3dd0314c0f7b2291e5b200ac8c7c3b925929181900390910190a35060019392505050565b60045481565b600083600160a060020a038116151561054457600080fd5b83600160a060020a038116151561055a57600080fd5b600160a060020a03861660009081526006602090815260408083203384529091529020546105889085610a04565b600160a060020a0387166000818152600660209081526040808320338452825280832094909455918152600590915220546105c39085610a04565b600160a060020a0380881660009081526005602052604080822093909355908716815220546105f29085610a16565b600160a060020a0380871660008181526005602090815260409182902094909455805188815290519193928a16927fddf252ad1be2c89b69c2b068fc378daa952ba7f163c4a11628f55a4df523b3ef92918290030190a350600195945050505050565b60035460ff1681565b3360009081526005602052604090205481111561067a57600080fd5b336000908152600560205260409020546106949082610a04565b336000908152600560205260409020556004546106b19082610a04565b6004556106be3382610a2c565b50565b60095474010000000000000000000000000000000000000000900463ffffffff1690565b6000805460408051602060026001851615610100026000190190941693909304601f810184900484028201840190925281815292918301828280156104565780601f1061042b57610100808354040283529160200191610456565b60056020526000908152604090205481565b600854600160a060020a0316331461076957600080fd5b600854600754604051600160a060020a0392831692909116907f343765429aea5a34b3ff6a3785a98a5abb2597aca87bfbb58632c173d585373a90600090a3600880546007805473ffffffffffffffffffffffffffffffffffffffff19908116600160a060020a03841617909155169055565b6107e782338361052c565b15156107ef57fe5b3360009081526005602052604090205481111561080b57600080fd5b336000908152600560205260409020546108259082610a04565b336000908152600560205260409020556004546108429082610a04565b60045561084f8282610a2c565b5050565b600754600160a060020a031681565b6002805460408051602060018416156101000260001901909316849004601f810184900484028201840190925281815292918301828280156104565780601f1061042b57610100808354040283529160200191610456565b600082600160a060020a03811615156108d257600080fd5b336000908152600560205260409020546108ec9084610a04565b3360009081526005602052604080822092909255600160a060020a038616815220546109189084610a16565b600160a060020a0385166000818152600560209081526040918290209390935580518681529051919233927fddf252ad1be2c89b69c2b068fc378daa952ba7f163c4a11628f55a4df523b3ef9281900390910190a35060019392505050565b600854600160a060020a031681565b600660209081526000928352604080842090915290825290205481565b600754600160a060020a031633146109ba57600080fd5b600754600160a060020a03828116911614156109d557600080fd5b6008805473ffffffffffffffffffffffffffffffffffffffff1916600160a060020a0392909216919091179055565b600081831015610a1057fe5b50900390565b600082820183811015610a2557fe5b9392505050565b600960009054906101000a9004600160a060020a0316600160a060020a0316636f7798c96040518163ffffffff167c0100000000000000000000000000000000000000000000000000000000028152600401602060405180830381600087803b158015610a9857600080fd5b505af1158015610aac573d6000803e3d6000fd5b505050506040513d6020811015610ac257600080fd5b50516009805473ffffffffffffffffffffffffffffffffffffffff1916600160a060020a039283161790819055604080517f04d92e8c000000000000000000000000000000000000000000000000000000008152858416600482015260248101859052905191909216916304d92e8c91604480830192600092919082900301818387803b158015610b5257600080fd5b505af1158015610b66573d6000803e3d6000fd5b5050505050505600a165627a7a7230582080b8e209b6cc9fe88456eeb9e71437ee02b063226bc5da648aa56a018ab3b4f80029",
  "source": "pragma solidity ^0.4.18;\nimport '../utility/Utils.sol';\nimport '../token/ERC20Token.sol';\nimport './FinancieNotifierDelegate.sol';\nimport './IFinancieIssuerToken.sol';\n\n/**\n* Financie Ticket Token implementation\n*/\ncontract FinancieTicketToken is ERC20Token, FinancieNotifierDelegate, IFinancieIssuerToken {\n    uint32 issuer;\n\n    /**\n        @dev constructor\n        @param _name        token name\n        @param _symbol      token symbol\n    */\n    constructor(string _name, string _symbol, uint32 _issuer, uint32 _supply, address _notifier)\n        public\n        ERC20Token(_name, _symbol, 0)\n        FinancieNotifierDelegate(_notifier)\n    {\n        totalSupply = _supply;\n        balanceOf[msg.sender] = _supply;\n\n        issuer = _issuer;\n    }\n\n    function burnFrom(address _from, uint256 _amount) public {\n        assert(transferFrom(_from, msg.sender, _amount));\n        require(balanceOf[msg.sender] >= _amount);\n        balanceOf[msg.sender] = safeSub(balanceOf[msg.sender], _amount);\n        totalSupply = safeSub(totalSupply, _amount);\n\n        notifyBurnTickets(_from, _amount);\n    }\n\n    function burn(uint256 _amount) public {\n        require(balanceOf[msg.sender] >= _amount);\n        balanceOf[msg.sender] = safeSub(balanceOf[msg.sender], _amount);\n        totalSupply = safeSub(totalSupply, _amount);\n\n        notifyBurnTickets(msg.sender, _amount);\n    }\n\n    function getIssuer() public view returns(uint32) {\n        return issuer;\n    }\n\n}\n",
  "sourcePath": "/Users/rudo/Documents/ichiba/submodules/contracts/solidity/contracts/Financie/FinancieTicketToken.sol",
  "compiler": {
    "name": "solc",
    "version": "0.4.24+commit.e67f0147.Emscripten.clang"
  },
  "schemaVersion": "2.0.1",
  "updatedAt": "2019-03-01T08:20:46.952Z"
}