{
  "contractName": "FinancieBancorConverter",
  "abi": [
    {
      "constant": true,
      "inputs": [],
      "name": "notifier",
      "outputs": [
        {
          "name": "",
          "type": "address"
        }
      ],
      "payable": false,
      "stateMutability": "view",
      "type": "function"
    },
    {
      "constant": true,
      "inputs": [],
      "name": "BANCOR_CONVERTER_UPGRADER",
      "outputs": [
        {
          "name": "",
          "type": "bytes32"
        }
      ],
      "payable": false,
      "stateMutability": "view",
      "type": "function"
    },
    {
      "constant": false,
      "inputs": [
        {
          "name": "_connectorToken",
          "type": "address"
        },
        {
          "name": "_weight",
          "type": "uint32"
        },
        {
          "name": "_enableVirtualBalance",
          "type": "bool"
        },
        {
          "name": "_virtualBalance",
          "type": "uint256"
        }
      ],
      "name": "updateConnector",
      "outputs": [],
      "payable": false,
      "stateMutability": "nonpayable",
      "type": "function"
    },
    {
      "constant": true,
      "inputs": [
        {
          "name": "",
          "type": "address"
        }
      ],
      "name": "connectors",
      "outputs": [
        {
          "name": "virtualBalance",
          "type": "uint256"
        },
        {
          "name": "weight",
          "type": "uint32"
        },
        {
          "name": "isVirtualBalanceEnabled",
          "type": "bool"
        },
        {
          "name": "isPurchaseEnabled",
          "type": "bool"
        },
        {
          "name": "isSet",
          "type": "bool"
        }
      ],
      "payable": false,
      "stateMutability": "view",
      "type": "function"
    },
    {
      "constant": true,
      "inputs": [
        {
          "name": "",
          "type": "uint256"
        }
      ],
      "name": "connectorTokens",
      "outputs": [
        {
          "name": "",
          "type": "address"
        }
      ],
      "payable": false,
      "stateMutability": "view",
      "type": "function"
    },
    {
      "constant": true,
      "inputs": [],
      "name": "BNT_TOKEN",
      "outputs": [
        {
          "name": "",
          "type": "bytes32"
        }
      ],
      "payable": false,
      "stateMutability": "view",
      "type": "function"
    },
    {
      "constant": true,
      "inputs": [],
      "name": "allowRegistryUpdate",
      "outputs": [
        {
          "name": "",
          "type": "bool"
        }
      ],
      "payable": false,
      "stateMutability": "view",
      "type": "function"
    },
    {
      "constant": false,
      "inputs": [
        {
          "name": "_newOwner",
          "type": "address"
        }
      ],
      "name": "transferTokenOwnership",
      "outputs": [],
      "payable": false,
      "stateMutability": "nonpayable",
      "type": "function"
    },
    {
      "constant": false,
      "inputs": [
        {
          "name": "_disable",
          "type": "bool"
        }
      ],
      "name": "disableConversions",
      "outputs": [],
      "payable": false,
      "stateMutability": "nonpayable",
      "type": "function"
    },
    {
      "constant": true,
      "inputs": [],
      "name": "CONTRACT_REGISTRY",
      "outputs": [
        {
          "name": "",
          "type": "bytes32"
        }
      ],
      "payable": false,
      "stateMutability": "view",
      "type": "function"
    },
    {
      "constant": false,
      "inputs": [
        {
          "name": "_fromToken",
          "type": "address"
        },
        {
          "name": "_toToken",
          "type": "address"
        },
        {
          "name": "_amount",
          "type": "uint256"
        },
        {
          "name": "_minReturn",
          "type": "uint256"
        }
      ],
      "name": "convertInternal",
      "outputs": [
        {
          "name": "",
          "type": "uint256"
        }
      ],
      "payable": false,
      "stateMutability": "nonpayable",
      "type": "function"
    },
    {
      "constant": false,
      "inputs": [],
      "name": "acceptTokenOwnership",
      "outputs": [],
      "payable": false,
      "stateMutability": "nonpayable",
      "type": "function"
    },
    {
      "constant": true,
      "inputs": [
        {
          "name": "_amount",
          "type": "uint256"
        },
        {
          "name": "_magnitude",
          "type": "uint8"
        }
      ],
      "name": "getFinalAmount",
      "outputs": [
        {
          "name": "",
          "type": "uint256"
        }
      ],
      "payable": false,
      "stateMutability": "view",
      "type": "function"
    },
    {
      "constant": true,
      "inputs": [],
      "name": "converterType",
      "outputs": [
        {
          "name": "",
          "type": "string"
        }
      ],
      "payable": false,
      "stateMutability": "view",
      "type": "function"
    },
    {
      "constant": false,
      "inputs": [
        {
          "name": "_token",
          "type": "address"
        },
        {
          "name": "_weight",
          "type": "uint32"
        },
        {
          "name": "_enableVirtualBalance",
          "type": "bool"
        }
      ],
      "name": "addConnector",
      "outputs": [],
      "payable": false,
      "stateMutability": "nonpayable",
      "type": "function"
    },
    {
      "constant": false,
      "inputs": [
        {
          "name": "_amount",
          "type": "uint256"
        }
      ],
      "name": "liquidate",
      "outputs": [],
      "payable": false,
      "stateMutability": "nonpayable",
      "type": "function"
    },
    {
      "constant": false,
      "inputs": [
        {
          "name": "_token",
          "type": "address"
        },
        {
          "name": "_to",
          "type": "address"
        },
        {
          "name": "_amount",
          "type": "uint256"
        }
      ],
      "name": "withdrawFromToken",
      "outputs": [],
      "payable": false,
      "stateMutability": "nonpayable",
      "type": "function"
    },
    {
      "constant": true,
      "inputs": [],
      "name": "newManager",
      "outputs": [
        {
          "name": "",
          "type": "address"
        }
      ],
      "payable": false,
      "stateMutability": "view",
      "type": "function"
    },
    {
      "constant": true,
      "inputs": [],
      "name": "manager",
      "outputs": [
        {
          "name": "",
          "type": "address"
        }
      ],
      "payable": false,
      "stateMutability": "view",
      "type": "function"
    },
    {
      "constant": false,
      "inputs": [],
      "name": "updateRegistry",
      "outputs": [],
      "payable": false,
      "stateMutability": "nonpayable",
      "type": "function"
    },
    {
      "constant": false,
      "inputs": [
        {
          "name": "_whitelist",
          "type": "address"
        }
      ],
      "name": "setConversionWhitelist",
      "outputs": [],
      "payable": false,
      "stateMutability": "nonpayable",
      "type": "function"
    },
    {
      "constant": false,
      "inputs": [
        {
          "name": "_connectorToken",
          "type": "address"
        },
        {
          "name": "_disable",
          "type": "bool"
        }
      ],
      "name": "disableConnectorPurchases",
      "outputs": [],
      "payable": false,
      "stateMutability": "nonpayable",
      "type": "function"
    },
    {
      "constant": true,
      "inputs": [],
      "name": "version",
      "outputs": [
        {
          "name": "",
          "type": "bytes32"
        }
      ],
      "payable": false,
      "stateMutability": "view",
      "type": "function"
    },
    {
      "constant": true,
      "inputs": [],
      "name": "conversionFee",
      "outputs": [
        {
          "name": "",
          "type": "uint32"
        }
      ],
      "payable": false,
      "stateMutability": "view",
      "type": "function"
    },
    {
      "constant": true,
      "inputs": [],
      "name": "BANCOR_CONVERTER_FACTORY",
      "outputs": [
        {
          "name": "",
          "type": "bytes32"
        }
      ],
      "payable": false,
      "stateMutability": "view",
      "type": "function"
    },
    {
      "constant": false,
      "inputs": [
        {
          "name": "_token",
          "type": "address"
        },
        {
          "name": "_to",
          "type": "address"
        },
        {
          "name": "_amount",
          "type": "uint256"
        }
      ],
      "name": "withdrawTokens",
      "outputs": [],
      "payable": false,
      "stateMutability": "nonpayable",
      "type": "function"
    },
    {
      "constant": false,
      "inputs": [
        {
          "name": "_fromToken",
          "type": "address"
        },
        {
          "name": "_toToken",
          "type": "address"
        },
        {
          "name": "_amount",
          "type": "uint256"
        },
        {
          "name": "_minReturn",
          "type": "uint256"
        }
      ],
      "name": "change",
      "outputs": [
        {
          "name": "",
          "type": "uint256"
        }
      ],
      "payable": false,
      "stateMutability": "nonpayable",
      "type": "function"
    },
    {
      "constant": true,
      "inputs": [],
      "name": "prevRegistry",
      "outputs": [
        {
          "name": "",
          "type": "address"
        }
      ],
      "payable": false,
      "stateMutability": "view",
      "type": "function"
    },
    {
      "constant": true,
      "inputs": [],
      "name": "BNT_CONVERTER",
      "outputs": [
        {
          "name": "",
          "type": "bytes32"
        }
      ],
      "payable": false,
      "stateMutability": "view",
      "type": "function"
    },
    {
      "constant": true,
      "inputs": [],
      "name": "currencyToken",
      "outputs": [
        {
          "name": "",
          "type": "address"
        }
      ],
      "payable": false,
      "stateMutability": "view",
      "type": "function"
    },
    {
      "constant": true,
      "inputs": [],
      "name": "BANCOR_FORMULA",
      "outputs": [
        {
          "name": "",
          "type": "bytes32"
        }
      ],
      "payable": false,
      "stateMutability": "view",
      "type": "function"
    },
    {
      "constant": true,
      "inputs": [],
      "name": "team_wallet",
      "outputs": [
        {
          "name": "",
          "type": "address"
        }
      ],
      "payable": false,
      "stateMutability": "view",
      "type": "function"
    },
    {
      "constant": true,
      "inputs": [],
      "name": "connectorTokenCount",
      "outputs": [
        {
          "name": "",
          "type": "uint16"
        }
      ],
      "payable": false,
      "stateMutability": "view",
      "type": "function"
    },
    {
      "constant": true,
      "inputs": [
        {
          "name": "_connectorToken",
          "type": "address"
        },
        {
          "name": "_sellAmount",
          "type": "uint256"
        }
      ],
      "name": "getSaleReturn",
      "outputs": [
        {
          "name": "",
          "type": "uint256"
        },
        {
          "name": "",
          "type": "uint256"
        }
      ],
      "payable": false,
      "stateMutability": "view",
      "type": "function"
    },
    {
      "constant": false,
      "inputs": [
        {
          "name": "_fromToken",
          "type": "address"
        },
        {
          "name": "_toToken",
          "type": "address"
        },
        {
          "name": "_amount",
          "type": "uint256"
        },
        {
          "name": "_minReturn",
          "type": "uint256"
        }
      ],
      "name": "convert",
      "outputs": [
        {
          "name": "",
          "type": "uint256"
        }
      ],
      "payable": false,
      "stateMutability": "nonpayable",
      "type": "function"
    },
    {
      "constant": true,
      "inputs": [],
      "name": "pendingRevenueType",
      "outputs": [
        {
          "name": "",
          "type": "uint8"
        }
      ],
      "payable": false,
      "stateMutability": "view",
      "type": "function"
    },
    {
      "constant": false,
      "inputs": [],
      "name": "acceptOwnership",
      "outputs": [],
      "payable": false,
      "stateMutability": "nonpayable",
      "type": "function"
    },
    {
      "constant": true,
      "inputs": [],
      "name": "registry",
      "outputs": [
        {
          "name": "",
          "type": "address"
        }
      ],
      "payable": false,
      "stateMutability": "view",
      "type": "function"
    },
    {
      "constant": true,
      "inputs": [],
      "name": "CONTRACT_FEATURES",
      "outputs": [
        {
          "name": "",
          "type": "bytes32"
        }
      ],
      "payable": false,
      "stateMutability": "view",
      "type": "function"
    },
    {
      "constant": false,
      "inputs": [
        {
          "name": "_disable",
          "type": "bool"
        }
      ],
      "name": "disableTokenTransfers",
      "outputs": [],
      "payable": false,
      "stateMutability": "nonpayable",
      "type": "function"
    },
    {
      "constant": true,
      "inputs": [],
      "name": "claimTokensEnabled",
      "outputs": [
        {
          "name": "",
          "type": "bool"
        }
      ],
      "payable": false,
      "stateMutability": "view",
      "type": "function"
    },
    {
      "constant": true,
      "inputs": [],
      "name": "owner",
      "outputs": [
        {
          "name": "",
          "type": "address"
        }
      ],
      "payable": false,
      "stateMutability": "view",
      "type": "function"
    },
    {
      "constant": true,
      "inputs": [
        {
          "name": "_fromConnectorToken",
          "type": "address"
        },
        {
          "name": "_toConnectorToken",
          "type": "address"
        },
        {
          "name": "_sellAmount",
          "type": "uint256"
        }
      ],
      "name": "getCrossConnectorReturn",
      "outputs": [
        {
          "name": "",
          "type": "uint256"
        },
        {
          "name": "",
          "type": "uint256"
        }
      ],
      "payable": false,
      "stateMutability": "view",
      "type": "function"
    },
    {
      "constant": true,
      "inputs": [],
      "name": "BANCOR_NETWORK",
      "outputs": [
        {
          "name": "",
          "type": "bytes32"
        }
      ],
      "payable": false,
      "stateMutability": "view",
      "type": "function"
    },
    {
      "constant": true,
      "inputs": [],
      "name": "BANCOR_GAS_PRICE_LIMIT",
      "outputs": [
        {
          "name": "",
          "type": "bytes32"
        }
      ],
      "payable": false,
      "stateMutability": "view",
      "type": "function"
    },
    {
      "constant": true,
      "inputs": [],
      "name": "CONVERTER_CONVERSION_WHITELIST",
      "outputs": [
        {
          "name": "",
          "type": "uint256"
        }
      ],
      "payable": false,
      "stateMutability": "view",
      "type": "function"
    },
    {
      "constant": true,
      "inputs": [],
      "name": "maxConversionFee",
      "outputs": [
        {
          "name": "",
          "type": "uint32"
        }
      ],
      "payable": false,
      "stateMutability": "view",
      "type": "function"
    },
    {
      "constant": true,
      "inputs": [],
      "name": "heroFee",
      "outputs": [
        {
          "name": "",
          "type": "uint32"
        }
      ],
      "payable": false,
      "stateMutability": "view",
      "type": "function"
    },
    {
      "constant": true,
      "inputs": [
        {
          "name": "_connectorToken",
          "type": "address"
        },
        {
          "name": "_depositAmount",
          "type": "uint256"
        }
      ],
      "name": "getPurchaseReturn",
      "outputs": [
        {
          "name": "",
          "type": "uint256"
        },
        {
          "name": "",
          "type": "uint256"
        }
      ],
      "payable": false,
      "stateMutability": "view",
      "type": "function"
    },
    {
      "constant": false,
      "inputs": [
        {
          "name": "_enable",
          "type": "bool"
        }
      ],
      "name": "enableClaimTokens",
      "outputs": [],
      "payable": false,
      "stateMutability": "nonpayable",
      "type": "function"
    },
    {
      "constant": false,
      "inputs": [],
      "name": "restoreRegistry",
      "outputs": [],
      "payable": false,
      "stateMutability": "nonpayable",
      "type": "function"
    },
    {
      "constant": true,
      "inputs": [],
      "name": "conversionsEnabled",
      "outputs": [
        {
          "name": "",
          "type": "bool"
        }
      ],
      "payable": false,
      "stateMutability": "view",
      "type": "function"
    },
    {
      "constant": true,
      "inputs": [],
      "name": "hero_id",
      "outputs": [
        {
          "name": "",
          "type": "uint32"
        }
      ],
      "payable": false,
      "stateMutability": "view",
      "type": "function"
    },
    {
      "constant": true,
      "inputs": [],
      "name": "conversionWhitelist",
      "outputs": [
        {
          "name": "",
          "type": "address"
        }
      ],
      "payable": false,
      "stateMutability": "view",
      "type": "function"
    },
    {
      "constant": true,
      "inputs": [],
      "name": "BANCOR_X",
      "outputs": [
        {
          "name": "",
          "type": "bytes32"
        }
      ],
      "payable": false,
      "stateMutability": "view",
      "type": "function"
    },
    {
      "constant": false,
      "inputs": [],
      "name": "acceptManagement",
      "outputs": [],
      "payable": false,
      "stateMutability": "nonpayable",
      "type": "function"
    },
    {
      "constant": false,
      "inputs": [
        {
          "name": "_amount",
          "type": "uint256"
        }
      ],
      "name": "fund",
      "outputs": [],
      "payable": false,
      "stateMutability": "nonpayable",
      "type": "function"
    },
    {
      "constant": true,
      "inputs": [],
      "name": "newOwner",
      "outputs": [
        {
          "name": "",
          "type": "address"
        }
      ],
      "payable": false,
      "stateMutability": "view",
      "type": "function"
    },
    {
      "constant": false,
      "inputs": [],
      "name": "upgrade",
      "outputs": [],
      "payable": false,
      "stateMutability": "nonpayable",
      "type": "function"
    },
    {
      "constant": true,
      "inputs": [],
      "name": "teamFee",
      "outputs": [
        {
          "name": "",
          "type": "uint32"
        }
      ],
      "payable": false,
      "stateMutability": "view",
      "type": "function"
    },
    {
      "constant": true,
      "inputs": [
        {
          "name": "_connectorToken",
          "type": "address"
        }
      ],
      "name": "getConnectorBalance",
      "outputs": [
        {
          "name": "",
          "type": "uint256"
        }
      ],
      "payable": false,
      "stateMutability": "view",
      "type": "function"
    },
    {
      "constant": false,
      "inputs": [
        {
          "name": "_newManager",
          "type": "address"
        }
      ],
      "name": "transferManagement",
      "outputs": [],
      "payable": false,
      "stateMutability": "nonpayable",
      "type": "function"
    },
    {
      "constant": false,
      "inputs": [
        {
          "name": "_conversionFee",
          "type": "uint32"
        }
      ],
      "name": "setConversionFee",
      "outputs": [],
      "payable": false,
      "stateMutability": "nonpayable",
      "type": "function"
    },
    {
      "constant": false,
      "inputs": [
        {
          "name": "_path",
          "type": "address[]"
        },
        {
          "name": "_amount",
          "type": "uint256"
        },
        {
          "name": "_minReturn",
          "type": "uint256"
        }
      ],
      "name": "quickConvert",
      "outputs": [
        {
          "name": "",
          "type": "uint256"
        }
      ],
      "payable": true,
      "stateMutability": "payable",
      "type": "function"
    },
    {
      "constant": false,
      "inputs": [
        {
          "name": "_newOwner",
          "type": "address"
        }
      ],
      "name": "transferOwnership",
      "outputs": [],
      "payable": false,
      "stateMutability": "nonpayable",
      "type": "function"
    },
    {
      "constant": false,
      "inputs": [
        {
          "name": "_disable",
          "type": "bool"
        }
      ],
      "name": "disableRegistryUpdate",
      "outputs": [],
      "payable": false,
      "stateMutability": "nonpayable",
      "type": "function"
    },
    {
      "constant": true,
      "inputs": [],
      "name": "token",
      "outputs": [
        {
          "name": "",
          "type": "address"
        }
      ],
      "payable": false,
      "stateMutability": "view",
      "type": "function"
    },
    {
      "constant": false,
      "inputs": [
        {
          "name": "_from",
          "type": "address"
        },
        {
          "name": "_amount",
          "type": "uint256"
        }
      ],
      "name": "claimTokens",
      "outputs": [],
      "payable": false,
      "stateMutability": "nonpayable",
      "type": "function"
    },
    {
      "inputs": [
        {
          "name": "_token",
          "type": "address"
        },
        {
          "name": "_currencyToken",
          "type": "address"
        },
        {
          "name": "_connectorToken",
          "type": "address"
        },
        {
          "name": "_hero_id",
          "type": "uint32"
        },
        {
          "name": "_team_wallet",
          "type": "address"
        },
        {
          "name": "_registry",
          "type": "address"
        },
        {
          "name": "_notifier_address",
          "type": "address"
        },
        {
          "name": "_heroFee",
          "type": "uint32"
        },
        {
          "name": "_teamFee",
          "type": "uint32"
        },
        {
          "name": "_connectorWeight",
          "type": "uint32"
        },
        {
          "name": "_internalWallet",
          "type": "address"
        }
      ],
      "payable": false,
      "stateMutability": "nonpayable",
      "type": "constructor"
    },
    {
      "anonymous": false,
      "inputs": [
        {
          "indexed": true,
          "name": "_fromToken",
          "type": "address"
        },
        {
          "indexed": true,
          "name": "_toToken",
          "type": "address"
        },
        {
          "indexed": true,
          "name": "_trader",
          "type": "address"
        },
        {
          "indexed": false,
          "name": "_amount",
          "type": "uint256"
        },
        {
          "indexed": false,
          "name": "_return",
          "type": "uint256"
        },
        {
          "indexed": false,
          "name": "_conversionFee",
          "type": "int256"
        }
      ],
      "name": "Conversion",
      "type": "event"
    },
    {
      "anonymous": false,
      "inputs": [
        {
          "indexed": true,
          "name": "_connectorToken",
          "type": "address"
        },
        {
          "indexed": false,
          "name": "_tokenSupply",
          "type": "uint256"
        },
        {
          "indexed": false,
          "name": "_connectorBalance",
          "type": "uint256"
        },
        {
          "indexed": false,
          "name": "_connectorWeight",
          "type": "uint32"
        }
      ],
      "name": "PriceDataUpdate",
      "type": "event"
    },
    {
      "anonymous": false,
      "inputs": [
        {
          "indexed": false,
          "name": "_prevFee",
          "type": "uint32"
        },
        {
          "indexed": false,
          "name": "_newFee",
          "type": "uint32"
        }
      ],
      "name": "ConversionFeeUpdate",
      "type": "event"
    },
    {
      "anonymous": false,
      "inputs": [
        {
          "indexed": false,
          "name": "_conversionsEnabled",
          "type": "bool"
        }
      ],
      "name": "ConversionsEnable",
      "type": "event"
    },
    {
      "anonymous": false,
      "inputs": [
        {
          "indexed": true,
          "name": "_prevManager",
          "type": "address"
        },
        {
          "indexed": true,
          "name": "_newManager",
          "type": "address"
        }
      ],
      "name": "ManagerUpdate",
      "type": "event"
    },
    {
      "anonymous": false,
      "inputs": [
        {
          "indexed": true,
          "name": "_prevOwner",
          "type": "address"
        },
        {
          "indexed": true,
          "name": "_newOwner",
          "type": "address"
        }
      ],
      "name": "OwnerUpdate",
      "type": "event"
    },
    {
      "constant": true,
      "inputs": [],
      "name": "getVersion",
      "outputs": [
        {
          "name": "",
          "type": "uint256"
        }
      ],
      "payable": false,
      "stateMutability": "pure",
      "type": "function"
    },
    {
      "constant": false,
      "inputs": [],
      "name": "startTrading",
      "outputs": [],
      "payable": false,
      "stateMutability": "nonpayable",
      "type": "function"
    },
    {
      "constant": false,
      "inputs": [
        {
          "name": "_amount",
          "type": "uint256"
        },
        {
          "name": "_minReturn",
          "type": "uint256"
        }
      ],
      "name": "sellCards",
      "outputs": [
        {
          "name": "",
          "type": "uint256"
        },
        {
          "name": "",
          "type": "uint256"
        },
        {
          "name": "",
          "type": "uint256"
        }
      ],
      "payable": false,
      "stateMutability": "nonpayable",
      "type": "function"
    },
    {
      "constant": false,
      "inputs": [
        {
          "name": "_amount",
          "type": "uint256"
        },
        {
          "name": "_minReturn",
          "type": "uint256"
        }
      ],
      "name": "buyCards",
      "outputs": [
        {
          "name": "",
          "type": "uint256"
        },
        {
          "name": "",
          "type": "uint256"
        },
        {
          "name": "",
          "type": "uint256"
        }
      ],
      "payable": false,
      "stateMutability": "nonpayable",
      "type": "function"
    },
    {
      "constant": true,
      "inputs": [
        {
          "name": "_fromToken",
          "type": "address"
        },
        {
          "name": "_toToken",
          "type": "address"
        },
        {
          "name": "_amount",
          "type": "uint256"
        }
      ],
      "name": "getReturn",
      "outputs": [
        {
          "name": "",
          "type": "uint256"
        },
        {
          "name": "",
          "type": "uint256"
        }
      ],
      "payable": false,
      "stateMutability": "view",
      "type": "function"
    },
    {
      "constant": false,
      "inputs": [
        {
          "name": "_path",
          "type": "address[]"
        },
        {
          "name": "_amount",
          "type": "uint256"
        },
        {
          "name": "_minReturn",
          "type": "uint256"
        },
        {
          "name": "_block",
          "type": "uint256"
        },
        {
          "name": "_v",
          "type": "uint8"
        },
        {
          "name": "_r",
          "type": "bytes32"
        },
        {
          "name": "_s",
          "type": "bytes32"
        }
      ],
      "name": "quickConvertPrioritized",
      "outputs": [
        {
          "name": "",
          "type": "uint256"
        }
      ],
      "payable": true,
      "stateMutability": "payable",
      "type": "function"
    }
  ],
  "bytecode": "0x7f302e31310000000000000000000000000000000000000000000000000000000060055560c0604052600660808190527f62616e636f72000000000000000000000000000000000000000000000000000060a0908152620000629190816200073e565b506007805461ff001960ff19909116600117169055600c80546001606860020a0319166c01000000000000000000000000179055348015620000a357600080fd5b5060405161016080620058ab83398101604090815281516020830151918301516060840151608085015160a086015160c087015160e08801516101008901516101208a0151610140909a015160008054600160a060020a03191633178155989a979896979596949593949293919285908c9088908c86828580600160a060020a03811615156200013257600080fd5b5060028054600160a060020a03928316600160a060020a03199182161790915560038054909116331790558590811615156200016d57600080fd5b8460008163ffffffff16101580156200018f5750620f424063ffffffff821611155b15156200019b57600080fd5b60088054600160a060020a031916600160a060020a0389811691821792839055600780546201000060b060020a0319166201000090930292909217909155604080517fbb34534c0000000000000000000000000000000000000000000000000000000081527f436f6e747261637446656174757265730000000000000000000000000000000060048201529051929091169163bb34534c916024808201926020929091908290030181600087803b1580156200025657600080fd5b505af11580156200026b573d6000803e3d6000fd5b505050506040513d60208110156200028257600080fd5b50519250600160a060020a038316156200031957604080517f2c7077c000000000000000000000000000000000000000000000000000000000815260016004820181905260248201529051600160a060020a03851691632c7077c091604480830192600092919082900301818387803b158015620002ff57600080fd5b505af115801562000314573d6000803e3d6000fd5b505050505b600c805467ffffffff00000000191664010000000063ffffffff891602179055600160a060020a0385161562000360576200036085856000640100000000620003e9810204565b505050505050505080600e60006101000a815481600160a060020a030219169083600160a060020a031602179055505089601260006101000a815481600160a060020a030219169083600160a060020a03160217905550620003d884848a8a8e8660016200063f640100000000026401000000009004565b5050505050505050505050620007e3565b600054600160a060020a031633146200040157600080fd5b600254604080517f8da5cb5b00000000000000000000000000000000000000000000000000000000815290513092600160a060020a031691638da5cb5b9160048083019260209291908290030181600087803b1580156200046157600080fd5b505af115801562000476573d6000803e3d6000fd5b505050506040513d60208110156200048d57600080fd5b5051600160a060020a03161415620004a457600080fd5b82600160a060020a0381161515620004bb57600080fd5b83600160a060020a038116301415620004d357600080fd5b8360008163ffffffff16118015620004f45750620f424063ffffffff821611155b15156200050057600080fd5b600254600160a060020a03878116911614801590620005455750600160a060020a0386166000908152600b60205260409020600101546601000000000000900460ff16155b8015620005645750600c54620f424063ffffffff918216870190911611155b15156200057057600080fd5b505050600160a060020a039092166000818152600b602052604081208181556001908101805466ff0000000000001965ff0000000000199715156401000000000264ff000000001963ffffffff808a1663ffffffff1995861617919091169190911798909816650100000000001716660100000000000017909155600a805492830181559092527fc65a7bb8d6351c1cf70c95a316cc6a92839c986682d98bc35f958f4883f9d2a8018054600160a060020a031916909217909155600c80548085169093019093169116179055565b600e805460a060020a63ffffffff0219167401000000000000000000000000000000000000000063ffffffff8a811682029290921760c060020a63ffffffff02191678010000000000000000000000000000000000000000000000008a84160217600160e060020a03167c01000000000000000000000000000000000000000000000000000000009289169290920291909117909155600f8054600160a060020a0319908116600160a060020a03888116919091178084556010805484168984161790556011805490931691871691909117909155839260a060020a60ff0219909116908360028111156200073057fe5b021790555050505050505050565b828054600181600116156101000203166002900490600052602060002090601f016020900481019282601f106200078157805160ff1916838001178555620007b1565b82800160010185558215620007b1579182015b82811115620007b157825182559160200191906001019062000794565b50620007bf929150620007c3565b5090565b620007e091905b80821115620007bf5760008155600101620007ca565b90565b6150b880620007f36000396000f30060806040526004361061034a5763ffffffff60e060020a60003504166309276ea4811461034f5780630c87355e146103805780630ca78923146103a75780630d8e6e2c146103db5780630e53aae9146103f057806319b64015146104455780631d000b611461045d5780631e1401f81461047257806320d7d367146104b557806321e6b53d146104de57806322742564146104ff578063228d28201461056757806325f9bfef14610581578063293230b8146105965780632a2e2f0c146105ab57806338a5e016146105d85780633aa0145a146105ed5780633e8ff43f1461060b5780633f4d2fc214610695578063415f1240146106c457806341a5b33d146106dc5780634290602914610706578063481c6a751461071b57806349d10b64146107305780634af80f0e14610745578063514385be1461076657806354fd4d501461078c578063579cd3ca146107a15780635a46f06c146107cf5780635e35359e146107e45780635e5144eb1461080e57806361cd756e1461083b57806362614ae6146108505780636b2fa374146108655780636d7bd3fc1461087a5780636ea795831461088f57806371f52bf3146108a457806372b44b2c146108d057806375892cf1146108f45780637828b4f31461092157806379ba50971461095a5780637b1039991461096f57806383315b6e1461098457806385d5e631146109995780638b34839f146109b35780638da5cb5b146109c85780638e3047e0146109dd5780639232494e14610a075780639249993a14610a1c57806392d1abb714610a3157806394c275ad14610a465780639a5c0abc14610a5b5780639b0d37f814610a94578063a2c4c33614610aa9578063ad374f5b14610acd578063ae5fe1f214610ae7578063b4a176d314610b02578063bf75455814610b17578063c0d77c6514610b2c578063c45d3d9214610b41578063c4a8598e14610b56578063c8c2fe6c14610b6b578063ca1d209d14610b80578063d4ee1d9014610b98578063d55ec69714610bad578063d7c94efd14610bc2578063d895951214610bd7578063e4edf85214610bf8578063ecbca55d14610c19578063f0843ba914610c37578063f2fde38b14610c88578063fa1c594e14610ca9578063fc0c546a14610cc3578063fe417fa514610cd8575b600080fd5b34801561035b57600080fd5b50610364610cfc565b60408051600160a060020a039092168252519081900360200190f35b34801561038c57600080fd5b50610395610d0b565b60408051918252519081900360200190f35b3480156103b357600080fd5b506103d9600160a060020a036004351663ffffffff602435166044351515606435610d1d565b005b3480156103e757600080fd5b50610395610e30565b3480156103fc57600080fd5b50610411600160a060020a0360043516610e36565b6040805195865263ffffffff9094166020860152911515848401521515606084015215156080830152519081900360a00190f35b34801561045157600080fd5b50610364600435610e7c565b34801561046957600080fd5b50610395610ea4565b34801561047e57600080fd5b5061049c600160a060020a0360043581169060243516604435610ec8565b6040805192835260208301919091528051918290030190f35b3480156104c157600080fd5b506104ca61102d565b604080519115158252519081900360200190f35b3480156104ea57600080fd5b506103d9600160a060020a0360043516611036565b6040805160206004803580820135838102808601850190965280855261039595369593946024949385019291829185019084908082843750949750508435955050506020830135926040810135925060ff606082013516915060808101359060a00135611100565b34801561057357600080fd5b506103d96004351515611132565b34801561058d57600080fd5b506103956111f1565b3480156105a257600080fd5b506103d9611215565b3480156105b757600080fd5b50610395600160a060020a0360043581169060243516604435606435611245565b3480156105e457600080fd5b506103d9611711565b3480156105f957600080fd5b5061039560043560ff60243516611795565b34801561061757600080fd5b506106206117f1565b6040805160208082528351818301528351919283929083019185019080838360005b8381101561065a578181015183820152602001610642565b50505050905090810190601f1680156106875780820380516001836020036101000a031916815260200191505b509250505060405180910390f35b3480156106a157600080fd5b506103d9600160a060020a036004351663ffffffff60243516604435151561187f565b3480156106d057600080fd5b506103d9600435611ac9565b3480156106e857600080fd5b506103d9600160a060020a0360043581169060243516604435611d73565b34801561071257600080fd5b50610364611e14565b34801561072757600080fd5b50610364611e23565b34801561073c57600080fd5b506103d9611e32565b34801561075157600080fd5b506103d9600160a060020a0360043516611f79565b34801561077257600080fd5b506103d9600160a060020a03600435166024351515611fca565b34801561079857600080fd5b50610395612052565b3480156107ad57600080fd5b506107b6612058565b6040805163ffffffff9092168252519081900360200190f35b3480156107db57600080fd5b50610395612070565b3480156107f057600080fd5b506103d9600160a060020a0360043581169060243516604435612094565b34801561081a57600080fd5b50610395600160a060020a0360043581169060243516604435606435612215565b34801561084757600080fd5b5061036461222c565b34801561085c57600080fd5b50610395612241565b34801561087157600080fd5b50610364612265565b34801561088657600080fd5b50610395612274565b34801561089b57600080fd5b50610364612286565b3480156108b057600080fd5b506108b9612295565b6040805161ffff9092168252519081900360200190f35b3480156108dc57600080fd5b5061049c600160a060020a036004351660243561229b565b34801561090057600080fd5b50610395600160a060020a036004358116906024351660443560643561257f565b34801561092d57600080fd5b50610936612620565b6040518082600281111561094657fe5b60ff16815260200191505060405180910390f35b34801561096657600080fd5b506103d9612641565b34801561097b57600080fd5b506103646126bc565b34801561099057600080fd5b506103956126cb565b3480156109a557600080fd5b506103d960043515156126ef565b3480156109bf57600080fd5b506104ca612788565b3480156109d457600080fd5b50610364612796565b3480156109e957600080fd5b5061049c600160a060020a03600435811690602435166044356127a5565b348015610a1357600080fd5b50610395612a64565b348015610a2857600080fd5b50610395612a88565b348015610a3d57600080fd5b50610395612aac565b348015610a5257600080fd5b506107b6612ab1565b348015610a6757600080fd5b50610a76600435602435612ac5565b60408051938452602084019290925282820152519081900360600190f35b348015610aa057600080fd5b506107b6612ce6565b348015610ab557600080fd5b5061049c600160a060020a0360043516602435612d0a565b348015610ad957600080fd5b506103d96004351515612fbb565b348015610af357600080fd5b50610a76600435602435612fec565b348015610b0e57600080fd5b506103d9613210565b348015610b2357600080fd5b506104ca61326a565b348015610b3857600080fd5b506107b6613283565b348015610b4d57600080fd5b50610364613296565b348015610b6257600080fd5b506103956132a5565b348015610b7757600080fd5b506103d96132c9565b348015610b8c57600080fd5b506103d9600435613346565b348015610ba457600080fd5b50610364613613565b348015610bb957600080fd5b506103d9613622565b348015610bce57600080fd5b506107b6613753565b348015610be357600080fd5b50610395600160a060020a036004351661377b565b348015610c0457600080fd5b506103d9600160a060020a036004351661387f565b348015610c2557600080fd5b506103d963ffffffff600435166138ea565b60408051602060048035808201358381028086018501909652808552610395953695939460249493850192918291850190849080828437509497505084359550505060209092013591506139d19050565b348015610c9457600080fd5b506103d9600160a060020a0360043516613a13565b348015610cb557600080fd5b506103d96004351515613a67565b348015610ccf57600080fd5b50610364613aa7565b348015610ce457600080fd5b506103d9600160a060020a0360043516602435613ab6565b600e54600160a060020a031681565b60008051602061504d83398151915281565b60008054600160a060020a03163314610d3557600080fd5b600160a060020a0385166000908152600b602052604090206001015485906601000000000000900460ff161515610d6b57600080fd5b8460008163ffffffff16118015610d8b5750620f424063ffffffff821611155b1515610d9657600080fd5b600160a060020a0387166000908152600b602052604090206001810154600c54919450620f424063ffffffff918216928216929092038801161115610dda57600080fd5b5050600181018054600c805463ffffffff928316818416038801831663ffffffff199182161790915582549515156401000000000264ff0000000019929097169516949094179390931693909317909155905550565b600d5b90565b600b602052600090815260409020805460019091015463ffffffff81169060ff640100000000820481169165010000000000810482169166010000000000009091041685565b600a805482908110610e8a57fe5b600091825260209091200154600160a060020a0316905081565b7f424e54546f6b656e00000000000000000000000000000000000000000000000081565b6000806000806000806000600a6000815481101515610ee357fe5b600091825260209091200154600160a060020a038b811691161480610f155750601254600160a060020a038b81169116145b1515610f2057600080fd5b601254600160a060020a038a811691161480610f615750600a80546000908110610f4657fe5b600091825260209091200154600160a060020a038a81169116145b1515610f6c57600080fd5b600a80546000908110610f7b57fe5b600091825260209091200154600160a060020a038b811691161415610fdf57610fa58a8a8a613c76565b945090508315610fb157fe5b610fba81613cf3565b9450610fc68486613d15565b9250610fd28184613d2b565b9150818396509650611020565b610fe888613cf3565b9450610ff48886613d2b565b97506110018a8a8a613c76565b94509150831561100d57fe5b6110178486613d15565b92508183965096505b5050505050935093915050565b60075460ff1681565b600054600160a060020a0316331461104d57600080fd5b6008546040805160e260020a632ecd14d302815260008051602061504d83398151915260048201529051600092600160a060020a03169163bb34534c91602480830192602092919082900301818787803b1580156110aa57600080fd5b505af11580156110be573d6000803e3d6000fd5b505050506040513d60208110156110d457600080fd5b5051600054909150600160a060020a038083169116146110f357600080fd5b6110fc82613d3d565b5050565b6000876002815111801561111657506015815111155b801561112757508051600290066001145b151561034a57600080fd5b600054600160a060020a03163314806111555750600354600160a060020a031633145b151561116057600080fd5b600c5460ff6c0100000000000000000000000090910416151581151514156111ee57600c80546c01000000000000000000000000831581026cff000000000000000000000000199092169190911791829055604080519190920460ff161515815290517fb8e670608a57255ce4f35952b324cba70211a4200a91ce81d26e06d488c1f66b9181900360200190a15b50565b7f436f6e747261637452656769737472790000000000000000000000000000000081565b611243600a600081548110151561122857fe5b600091825260209091200154600160a060020a031630613dbb565b565b6008546040805160e260020a632ecd14d30281527f42616e636f724e6574776f726b0000000000000000000000000000000000000060048201529051600092839283928392839283928392600160a060020a03169163bb34534c91602480830192602092919082900301818787803b1580156112c057600080fd5b505af11580156112d4573d6000803e3d6000fd5b505050506040513d60208110156112ea57600080fd5b5051905033600160a060020a0382161461130357600080fd5b600c546c01000000000000000000000000900460ff16151561132157fe5b876000811161132f57600080fd5b600160a060020a038c8116908c16141561134857600080fd5b600254600160a060020a038c811691161415611370576113698c8b8b613ed8565b9750611702565b600254600160a060020a038d811691161415611391576113698b8b8b614142565b61139c8c8c8c6127a5565b909750955086158015906113b05750888710155b15156113bb57600080fd5b600160a060020a038c166000908152600b602052604090206001810154909550640100000000900460ff16156113fa5784546113f7908b613d15565b85555b600160a060020a038b166000908152600b602052604090206001810154909450640100000000900460ff16156114395783546114369088613d2b565b84555b6114428b61377b565b925082871061144d57fe5b6040805160e060020a6323b872dd028152336004820152306024820152604481018c90529051600160a060020a038e16916323b872dd9160648083019260209291908290030181600087803b1580156114a557600080fd5b505af11580156114b9573d6000803e3d6000fd5b505050506040513d60208110156114cf57600080fd5b505115156114d957fe5b6040805160e060020a63a9059cbb028152336004820152602481018990529051600160a060020a038d169163a9059cbb9160448083019260209291908290030181600087803b15801561152b57600080fd5b505af115801561153f573d6000803e3d6000fd5b505050506040513d602081101561155557600080fd5b5051151561155f57fe5b61156c8c8c8c8a8a6144f6565b8b600160a060020a031660008051602061506d833981519152600260009054906101000a9004600160a060020a0316600160a060020a03166318160ddd6040518163ffffffff1660e060020a028152600401602060405180830381600087803b1580156115d857600080fd5b505af11580156115ec573d6000803e3d6000fd5b505050506040513d602081101561160257600080fd5b505161160d8f61377b565b600189015460408051938452602084019290925263ffffffff1682820152519081900360600190a28a600160a060020a031660008051602061506d833981519152600260009054906101000a9004600160a060020a0316600160a060020a03166318160ddd6040518163ffffffff1660e060020a028152600401602060405180830381600087803b1580156116a157600080fd5b505af11580156116b5573d6000803e3d6000fd5b505050506040513d60208110156116cb57600080fd5b50516116d68e61377b565b600188015460408051938452602084019290925263ffffffff1682820152519081900360600190a28697505b50505050505050949350505050565b600054600160a060020a0316331461172857600080fd5b600260009054906101000a9004600160a060020a0316600160a060020a03166379ba50976040518163ffffffff1660e060020a028152600401600060405180830381600087803b15801561177b57600080fd5b505af115801561178f573d6000803e3d6000fd5b50505050565b60008160ff16620f42400a67ffffffffffffffff166117e0848460ff16600c60089054906101000a900463ffffffff1663ffffffff16620f4240030a67ffffffffffffffff1661457a565b8115156117e957fe5b049392505050565b6006805460408051602060026001851615610100026000190190941693909304601f810184900484028201840190925281815292918301828280156118775780601f1061184c57610100808354040283529160200191611877565b820191906000526020600020905b81548152906001019060200180831161185a57829003601f168201915b505050505081565b600054600160a060020a0316331461189657600080fd5b600254604080517f8da5cb5b00000000000000000000000000000000000000000000000000000000815290513092600160a060020a031691638da5cb5b9160048083019260209291908290030181600087803b1580156118f557600080fd5b505af1158015611909573d6000803e3d6000fd5b505050506040513d602081101561191f57600080fd5b5051600160a060020a0316141561193557600080fd5b82600160a060020a038116151561194b57600080fd5b83600160a060020a03811630141561196257600080fd5b8360008163ffffffff161180156119825750620f424063ffffffff821611155b151561198d57600080fd5b600254600160a060020a038781169116148015906119d15750600160a060020a0386166000908152600b60205260409020600101546601000000000000900460ff16155b80156119ef5750600c54620f424063ffffffff918216870190911611155b15156119fa57600080fd5b505050600160a060020a039092166000818152600b602052604081208181556001908101805466ff0000000000001965ff0000000000199715156401000000000264ff000000001963ffffffff808a1663ffffffff1995861617919091169190911798909816650100000000001716660100000000000017909155600a805492830181559092527fc65a7bb8d6351c1cf70c95a316cc6a92839c986682d98bc35f958f4883f9d2a8018054600160a060020a031916909217909155600c80548085169093019093169116179055565b600c546000908190819081908190819063ffffffff16620f424014611aed57600080fd5b600260009054906101000a9004600160a060020a0316600160a060020a03166318160ddd6040518163ffffffff1660e060020a028152600401602060405180830381600087803b158015611b4057600080fd5b505af1158015611b54573d6000803e3d6000fd5b505050506040513d6020811015611b6a57600080fd5b5051600254604080517fa24835d1000000000000000000000000000000000000000000000000000000008152336004820152602481018b90529051929850600160a060020a039091169163a24835d19160448082019260009290919082900301818387803b158015611bdb57600080fd5b505af1158015611bef573d6000803e3d6000fd5b50505050600091505b600a5461ffff83161015611d6a57600a805461ffff8416908110611c1857fe5b600091825260209091200154600160a060020a03169450611c388561377b565b935085611c45888661457a565b811515611c4e57fe5b600160a060020a0387166000908152600b6020526040902060018101549290910494509150640100000000900460ff1615611c92578054611c8f9084613d2b565b81555b6040805160e060020a63a9059cbb028152336004820152602481018590529051600160a060020a0387169163a9059cbb9160448083019260209291908290030181600087803b158015611ce457600080fd5b505af1158015611cf8573d6000803e3d6000fd5b505050506040513d6020811015611d0e57600080fd5b50511515611d1857fe5b6001810154604080518989038152858703602082015263ffffffff9092168282015251600160a060020a0387169160008051602061506d833981519152919081900360600190a2600190910190611bf8565b50505050505050565b600054600160a060020a03163314611d8a57600080fd5b600254604080517f5e35359e000000000000000000000000000000000000000000000000000000008152600160a060020a03868116600483015285811660248301526044820185905291519190921691635e35359e91606480830192600092919082900301818387803b158015611e0057600080fd5b505af1158015611d6a573d6000803e3d6000fd5b600454600160a060020a031681565b600354600160a060020a031681565b60075460009060ff1680611e505750600054600160a060020a031633145b1515611e5b57600080fd5b6008546040805160e260020a632ecd14d30281527f436f6e747261637452656769737472790000000000000000000000000000000060048201529051600160a060020a039092169163bb34534c916024808201926020929091908290030181600087803b158015611ecb57600080fd5b505af1158015611edf573d6000803e3d6000fd5b505050506040513d6020811015611ef557600080fd5b5051600854909150600160a060020a03808316911614801590611f205750600160a060020a03811615155b1515611f2b57600080fd5b600880546007805475ffffffffffffffffffffffffffffffffffffffff00001916600160a060020a03808416620100000291909117909155600160a060020a03199091169216919091179055565b600054600160a060020a03163314611f9057600080fd5b80600160a060020a038116301415611fa757600080fd5b5060098054600160a060020a031916600160a060020a0392909216919091179055565b600054600160a060020a03163314611fe157600080fd5b600160a060020a0382166000908152600b602052604090206001015482906601000000000000900460ff16151561201757600080fd5b50600160a060020a03919091166000908152600b60205260409020600101805465ff0000000000191691156501000000000002919091179055565b60055481565b600c5468010000000000000000900463ffffffff1681565b7f42616e636f72436f6e766572746572466163746f72790000000000000000000081565b6008546040805160e260020a632ecd14d302815260008051602061504d83398151915260048201529051600092600160a060020a03169163bb34534c91602480830192602092919082900301818787803b1580156120f157600080fd5b505af1158015612105573d6000803e3d6000fd5b505050506040513d602081101561211b57600080fd5b5051600160a060020a0385166000908152600b60205260409020600101549091506601000000000000900460ff1615806121e75750600254604080517f8da5cb5b00000000000000000000000000000000000000000000000000000000815290513092600160a060020a031691638da5cb5b9160048083019260209291908290030181600087803b1580156121af57600080fd5b505af11580156121c3573d6000803e3d6000fd5b505050506040513d60208110156121d957600080fd5b5051600160a060020a031614155b806121ff5750600054600160a060020a038281169116145b151561220a57600080fd5b61178f84848461459e565b600061222385858585611245565b95945050505050565b600754620100009004600160a060020a031681565b7f424e54436f6e766572746572000000000000000000000000000000000000000081565b601254600160a060020a031681565b60008051602061502d83398151915281565b600f54600160a060020a031681565b600a5490565b60008060008060008060008030600160a060020a0316600260009054906101000a9004600160a060020a0316600160a060020a0316638da5cb5b6040518163ffffffff1660e060020a028152600401602060405180830381600087803b15801561230457600080fd5b505af1158015612318573d6000803e3d6000fd5b505050506040513d602081101561232e57600080fd5b5051600160a060020a03161461234357600080fd5b600160a060020a038a166000908152600b60205260409020600101548a906601000000000000900460ff16151561237957600080fd5b600160a060020a03808c166000908152600b6020908152604080832060025482517f18160ddd0000000000000000000000000000000000000000000000000000000081529251919c50909416936318160ddd93600480840194938390030190829087803b1580156123e957600080fd5b505af11580156123fd573d6000803e3d6000fd5b505050506040513d602081101561241357600080fd5b505195506124208b61377b565b6008546040805160e260020a632ecd14d302815260008051602061502d83398151915260048201529051929750600160a060020a039091169163bb34534c916024808201926020929091908290030181600087803b15801561248157600080fd5b505af1158015612495573d6000803e3d6000fd5b505050506040513d60208110156124ab57600080fd5b50516001880154604080517f49f9b0f7000000000000000000000000000000000000000000000000000000008152600481018a90526024810189905263ffffffff9092166044830152606482018d905251919550600160a060020a038616916349f9b0f7916084808201926020929091908290030181600087803b15801561253257600080fd5b505af1158015612546573d6000803e3d6000fd5b505050506040513d602081101561255c57600080fd5b5051925061256b836001611795565b9b928c90039a509198505050505050505050565b60408051606081018252600160a060020a038087168252600254811660208301528516918101919091526000906125ba90600d906003614fa3565b50612223600d80548060200260200160405190810160405280929190818152602001828054801561261457602002820191906000526020600020905b8154600160a060020a031681526001909101906020018083116125f6575b505050505084846139d1565b600f5474010000000000000000000000000000000000000000900460ff1681565b600154600160a060020a0316331461265857600080fd5b60015460008054604051600160a060020a0393841693909116917f343765429aea5a34b3ff6a3785a98a5abb2597aca87bfbb58632c173d585373a91a36001805460008054600160a060020a0319908116600160a060020a03841617909155169055565b600854600160a060020a031681565b7f436f6e747261637446656174757265730000000000000000000000000000000081565b600054600160a060020a0316331461270657600080fd5b600254604080517f1608f18f00000000000000000000000000000000000000000000000000000000815283151560048201529051600160a060020a0390921691631608f18f9160248082019260009290919082900301818387803b15801561276d57600080fd5b505af1158015612781573d6000803e3d6000fd5b5050505050565b600754610100900460ff1681565b600054600160a060020a031681565b600080600080600080600030600160a060020a0316600260009054906101000a9004600160a060020a0316600160a060020a0316638da5cb5b6040518163ffffffff1660e060020a028152600401602060405180830381600087803b15801561280d57600080fd5b505af1158015612821573d6000803e3d6000fd5b505050506040513d602081101561283757600080fd5b5051600160a060020a03161461284c57600080fd5b600160a060020a038a166000908152600b60205260409020600101548a906601000000000000900460ff16151561288257600080fd5b600160a060020a038a166000908152600b60205260409020600101548a906601000000000000900460ff1615156128b857600080fd5b600160a060020a038c81166000908152600b6020526040808220928e16825290206001810154919850965065010000000000900460ff1615156128fa57600080fd5b6008546040805160e260020a632ecd14d302815260008051602061502d83398151915260048201529051600160a060020a039092169163bb34534c916024808201926020929091908290030181600087803b15801561295857600080fd5b505af115801561296c573d6000803e3d6000fd5b505050506040513d602081101561298257600080fd5b50519450600160a060020a0385166365098bb361299e8e61377b565b60018a015463ffffffff166129b28f61377b565b60018b01546040805163ffffffff87811660e060020a028252600482019690965293851660248501526044840192909252929092166064820152608481018e9052905160a48083019260209291908290030181600087803b158015612a1657600080fd5b505af1158015612a2a573d6000803e3d6000fd5b505050506040513d6020811015612a4057600080fd5b50519350612a4f846002611795565b9c938d90039b50929950505050505050505050565b7f42616e636f724e6574776f726b0000000000000000000000000000000000000081565b7f42616e636f7247617350726963654c696d69740000000000000000000000000081565b600181565b600c54640100000000900463ffffffff1681565b600080600080600080606060405190810160405280600a6000815481101515612aea57fe5b60009182526020918290200154600160a060020a03908116835260025481169183019190915260125416604090910152612b28906013906003614fa3565b50612b906013805480602002602001604051908101604052809291908181526020018280548015612b8257602002820191906000526020600020905b8154600160a060020a03168152600190910190602001808311612b64575b50505050508960013061468f565b9250612b9b83614927565b9150612ba78383613d2b565b6012546040805160e060020a63a9059cbb028152336004820152602481018490529051929350600160a060020a039091169163a9059cbb916044808201926020929091908290030181600087803b158015612c0157600080fd5b505af1158015612c15573d6000803e3d6000fd5b505050506040513d6020811015612c2b57600080fd5b5050600a8054612c659133916000908110612c4257fe5b600091825260209091200154601254600160a060020a0391821691168b85614cae565b86811015612c6f57fe5b612cc33330600a6000815481101515612c8457fe5b600091825260209091200154600e54600160a060020a039091169060e060020a900463ffffffff16612cb588614de4565b612cbe89614e28565b614e60565b80612ccd84614de4565b612cd685614e28565b9550955095505050509250925092565b600e5474010000000000000000000000000000000000000000900463ffffffff1681565b60008060008060008060008030600160a060020a0316600260009054906101000a9004600160a060020a0316600160a060020a0316638da5cb5b6040518163ffffffff1660e060020a028152600401602060405180830381600087803b158015612d7357600080fd5b505af1158015612d87573d6000803e3d6000fd5b505050506040513d6020811015612d9d57600080fd5b5051600160a060020a031614612db257600080fd5b600160a060020a038a166000908152600b60205260409020600101548a906601000000000000900460ff161515612de857600080fd5b600160a060020a038b166000908152600b60205260409020600181015490975065010000000000900460ff161515612e1f57600080fd5b600260009054906101000a9004600160a060020a0316600160a060020a03166318160ddd6040518163ffffffff1660e060020a028152600401602060405180830381600087803b158015612e7257600080fd5b505af1158015612e86573d6000803e3d6000fd5b505050506040513d6020811015612e9c57600080fd5b50519550612ea98b61377b565b6008546040805160e260020a632ecd14d302815260008051602061502d83398151915260048201529051929750600160a060020a039091169163bb34534c916024808201926020929091908290030181600087803b158015612f0a57600080fd5b505af1158015612f1e573d6000803e3d6000fd5b505050506040513d6020811015612f3457600080fd5b50516001880154604080517f29a00e7c000000000000000000000000000000000000000000000000000000008152600481018a90526024810189905263ffffffff9092166044830152606482018d905251919550600160a060020a038616916329a00e7c916084808201926020929091908290030181600087803b15801561253257600080fd5b600054600160a060020a03163314612fd257600080fd5b600780549115156101000261ff0019909216919091179055565b60125460009081908190819081908190600160a060020a03166323b872dd33306130158c613cf3565b6040805160e060020a63ffffffff8716028152600160a060020a0394851660048201529290931660248301526044820152905160648083019260209291908290030181600087803b15801561306957600080fd5b505af115801561307d573d6000803e3d6000fd5b505050506040513d602081101561309357600080fd5b5051151561309d57fe5b6130a688614927565b92506130b28884613d2b565b60408051606081018252601254600160a060020a039081168252600254166020820152600a805493955090929183019160009081106130ed57fe5b600091825260209091200154600160a060020a03169052613112906013906003614fa3565b5061317a601380548060200260200160405190810160405280929190818152602001828054801561316c57602002820191906000526020600020905b8154600160a060020a0316815260019091019060200180831161314e575b50505050508360013361468f565b601254600a80549293506131bc923392600160a060020a0316919060009081106131a057fe5b600091825260209091200154600160a060020a03168b85614cae565b868110156131c657fe5b601254600e546131fd9133913091600160a060020a03169060e060020a900463ffffffff166131f48d614de4565b612cbe8e614e28565b8061320789614de4565b612cd68a614e28565b600054600160a060020a03163314806132335750600354600160a060020a031633145b151561323e57600080fd5b6007805460088054600160a060020a031916600160a060020a036201000084041617905560ff19169055565b600c546c01000000000000000000000000900460ff1681565b600e5460e060020a900463ffffffff1681565b600954600160a060020a031681565b7f42616e636f72580000000000000000000000000000000000000000000000000081565b600454600160a060020a031633146132e057600080fd5b600454600354604051600160a060020a0392831692909116907fbe4cc281795971a471c980e842627a7f1ea3892ddfce8c5b6357cd2611c1973290600090a36004805460038054600160a060020a0319908116600160a060020a03841617909155169055565b600c546000908190819081908190819063ffffffff16620f42401461336a57600080fd5b600c546c01000000000000000000000000900460ff16151561338857fe5b600260009054906101000a9004600160a060020a0316600160a060020a03166318160ddd6040518163ffffffff1660e060020a028152600401602060405180830381600087803b1580156133db57600080fd5b505af11580156133ef573d6000803e3d6000fd5b505050506040513d602081101561340557600080fd5b50519550600091505b600a5461ffff8316101561358657600a805461ffff841690811061342e57fe5b600091825260209091200154600160a060020a0316945061344e8561377b565b93508561345b888661457a565b81151561346457fe5b600160a060020a0387166000908152600b6020526040902060018101549290910494509150640100000000900460ff16156134a85780546134a59084613d15565b81555b6040805160e060020a6323b872dd028152336004820152306024820152604481018590529051600160a060020a038716916323b872dd9160648083019260209291908290030181600087803b15801561350057600080fd5b505af1158015613514573d6000803e3d6000fd5b505050506040513d602081101561352a57600080fd5b5051151561353457fe5b600181015460408051888a018152868601602082015263ffffffff9092168282015251600160a060020a0387169160008051602061506d833981519152919081900360600190a260019091019061340e565b600254604080517f867904b4000000000000000000000000000000000000000000000000000000008152336004820152602481018a90529051600160a060020a039092169163867904b49160448082019260009290919082900301818387803b1580156135f257600080fd5b505af1158015613606573d6000803e3d6000fd5b5050505050505050505050565b600154600160a060020a031681565b60008054600160a060020a0316331461363a57600080fd5b6008546040805160e260020a632ecd14d302815260008051602061504d83398151915260048201529051600160a060020a039092169163bb34534c916024808201926020929091908290030181600087803b15801561369857600080fd5b505af11580156136ac573d6000803e3d6000fd5b505050506040513d60208110156136c257600080fd5b505190506136cf81613a13565b600554604080517fbc444e13000000000000000000000000000000000000000000000000000000008152600481019290925251600160a060020a0383169163bc444e1391602480830192600092919082900301818387803b15801561373357600080fd5b505af1158015613747573d6000803e3d6000fd5b505050506111ee612641565b600e547801000000000000000000000000000000000000000000000000900463ffffffff1681565b600160a060020a0381166000908152600b6020526040812060010154819083906601000000000000900460ff1615156137b357600080fd5b600160a060020a0384166000908152600b602052604090206001810154909250640100000000900460ff1661387457604080517f70a082310000000000000000000000000000000000000000000000000000000081523060048201529051600160a060020a038616916370a082319160248083019260209291908290030181600087803b15801561384357600080fd5b505af1158015613857573d6000803e3d6000fd5b505050506040513d602081101561386d57600080fd5b5051613877565b81545b949350505050565b600054600160a060020a03163314806138a25750600354600160a060020a031633145b15156138ad57600080fd5b600354600160a060020a03828116911614156138c857600080fd5b60048054600160a060020a031916600160a060020a0392909216919091179055565b600054600160a060020a031633148061390d5750600354600160a060020a031633145b151561391857600080fd5b8060008163ffffffff16101580156139445750600c5463ffffffff640100000000909104811690821611155b151561394f57600080fd5b600c546040805163ffffffff6801000000000000000090930483168152918416602083015280517f81cd2ffb37dd237c0e4e2a3de5265fcf9deb43d3e7801e80db9f1ccfba7ee6009281900390910190a150600c805463ffffffff90921668010000000000000000026bffffffff000000000000000019909216919091179055565b600083600281511180156139e757506015815111155b80156139f857508051600290066001145b1515613a0357600080fd5b6122238585856000808080611100565b600054600160a060020a03163314613a2a57600080fd5b600054600160a060020a0382811691161415613a4557600080fd5b60018054600160a060020a031916600160a060020a0392909216919091179055565b600054600160a060020a0316331480613a8a5750600354600160a060020a031633145b1515613a9557600080fd5b6007805460ff19169115919091179055565b600254600160a060020a031681565b600754600090610100900460ff161515613acf57600080fd5b6008546040805160e260020a632ecd14d30281527f42616e636f72580000000000000000000000000000000000000000000000000060048201529051600160a060020a039092169163bb34534c916024808201926020929091908290030181600087803b158015613b3f57600080fd5b505af1158015613b53573d6000803e3d6000fd5b505050506040513d6020811015613b6957600080fd5b5051905033600160a060020a03821614613b8257600080fd5b600254604080517fa24835d1000000000000000000000000000000000000000000000000000000008152600160a060020a038681166004830152602482018690529151919092169163a24835d191604480830192600092919082900301818387803b158015613bf057600080fd5b505af1158015613c04573d6000803e3d6000fd5b5050600254604080517f867904b4000000000000000000000000000000000000000000000000000000008152600160a060020a03868116600483015260248201889052915191909216935063867904b49250604480830192600092919082900301818387803b158015611e0057600080fd5b600080600160a060020a038581169085161415613c9257600080fd5b600254600160a060020a0385811691161415613cbb57613cb28584612d0a565b91509150613ceb565b600254600160a060020a0386811691161415613cdb57613cb2848461229b565b613ce68585856127a5565b915091505b935093915050565b6000613d0f613d0183614de4565b613d0a84614e28565b613d15565b92915050565b600082820183811015613d2457fe5b9392505050565b600081831015613d3757fe5b50900390565b600054600160a060020a03163314613d5457600080fd5b600254604080517ff2fde38b000000000000000000000000000000000000000000000000000000008152600160a060020a0384811660048301529151919092169163f2fde38b91602480830192600092919082900301818387803b15801561276d57600080fd5b600e60009054906101000a9004600160a060020a0316600160a060020a0316636f7798c96040518163ffffffff1660e060020a028152600401602060405180830381600087803b158015613e0e57600080fd5b505af1158015613e22573d6000803e3d6000fd5b505050506040513d6020811015613e3857600080fd5b5051600e8054600160a060020a031916600160a060020a039283161790819055604080517f3c6a912f0000000000000000000000000000000000000000000000000000000081528584166004820152848416602482015290519190921691633c6a912f91604480830192600092919082900301818387803b158015613ebc57600080fd5b505af1158015613ed0573d6000803e3d6000fd5b505050505050565b600080600080613ee88787612d0a565b90935091508215801590613efc5750848310155b1515613f0757600080fd5b50600160a060020a0386166000908152600b602052604090206001810154640100000000900460ff1615613f44578054613f419087613d15565b81555b6040805160e060020a6323b872dd028152336004820152306024820152604481018890529051600160a060020a038916916323b872dd9160648083019260209291908290030181600087803b158015613f9c57600080fd5b505af1158015613fb0573d6000803e3d6000fd5b505050506040513d6020811015613fc657600080fd5b50511515613fd057fe5b600254604080517f867904b4000000000000000000000000000000000000000000000000000000008152336004820152602481018690529051600160a060020a039092169163867904b49160448082019260009290919082900301818387803b15801561403c57600080fd5b505af1158015614050573d6000803e3d6000fd5b505060025461406e9250899150600160a060020a03168886866144f6565b86600160a060020a031660008051602061506d833981519152600260009054906101000a9004600160a060020a0316600160a060020a03166318160ddd6040518163ffffffff1660e060020a028152600401602060405180830381600087803b1580156140da57600080fd5b505af11580156140ee573d6000803e3d6000fd5b505050506040513d602081101561410457600080fd5b505161410f8a61377b565b600185015460408051938452602084019290925263ffffffff1682820152519081900360600190a2509095945050505050565b600254604080517f70a08231000000000000000000000000000000000000000000000000000000008152336004820152905160009283928392839283928392600160a060020a03909216916370a082319160248082019260209290919082900301818787803b1580156141b457600080fd5b505af11580156141c8573d6000803e3d6000fd5b505050506040513d60208110156141de57600080fd5b50518811156141ec57600080fd5b6141f6898961229b565b9095509350841580159061420a5750868510155b151561421557600080fd5b600260009054906101000a9004600160a060020a0316600160a060020a03166318160ddd6040518163ffffffff1660e060020a028152600401602060405180830381600087803b15801561426857600080fd5b505af115801561427c573d6000803e3d6000fd5b505050506040513d602081101561429257600080fd5b5051925061429f8961377b565b9150818510806142b8575081851480156142b857508288145b15156142c057fe5b50600160a060020a0388166000908152600b602052604090206001810154640100000000900460ff16156142fd5780546142fa9086613d2b565b81555b600254604080517fa24835d1000000000000000000000000000000000000000000000000000000008152336004820152602481018b90529051600160a060020a039092169163a24835d19160448082019260009290919082900301818387803b15801561436957600080fd5b505af115801561437d573d6000803e3d6000fd5b50506040805160e060020a63a9059cbb028152336004820152602481018990529051600160a060020a038d16935063a9059cbb925060448083019260209291908290030181600087803b1580156143d357600080fd5b505af11580156143e7573d6000803e3d6000fd5b505050506040513d60208110156143fd57600080fd5b5051151561440757fe5b60025461442090600160a060020a03168a8a88886144f6565b88600160a060020a031660008051602061506d833981519152600260009054906101000a9004600160a060020a0316600160a060020a03166318160ddd6040518163ffffffff1660e060020a028152600401602060405180830381600087803b15801561448c57600080fd5b505af11580156144a0573d6000803e3d6000fd5b505050506040513d60208110156144b657600080fd5b50516144c18c61377b565b600185015460408051938452602084019290925263ffffffff1682820152519081900360600190a25092979650505050505050565b7f800000000000000000000000000000000000000000000000000000000000000081111561452057fe5b604080518481526020810184905280820183905290513391600160a060020a0387811692908916917f276856b36cbc45526a0ba64f44611557a2a8b68662c5388e9fe6d72e86e1c8cb919081900360600190a45050505050565b6000828202831580614596575082848281151561459357fe5b04145b1515613d2457fe5b600054600160a060020a031633146145b557600080fd5b82600160a060020a03811615156145cb57600080fd5b82600160a060020a03811615156145e157600080fd5b83600160a060020a0381163014156145f857600080fd5b85600160a060020a031663a9059cbb86866040518363ffffffff1660e060020a0281526004018083600160a060020a0316600160a060020a0316815260200182815260200192505050602060405180830381600087803b15801561465b57600080fd5b505af115801561466f573d6000803e3d6000fd5b505050506040513d602081101561468557600080fd5b50511515613ed057fe5b600080600086600281511180156146a857506015815111155b80156146b957508051600290066001145b15156146c457600080fd5b8760008151811015156146d357fe5b60209081029091018101516008546040805160e260020a632ecd14d30281527f42616e636f724e6574776f726b0000000000000000000000000000000000000060048201529051929650600160a060020a039091169263bb34534c926024808401938290030181600087803b15801561474b57600080fd5b505af115801561475f573d6000803e3d6000fd5b505050506040513d602081101561477557600080fd5b50516040805160e060020a6323b872dd028152336004820152600160a060020a038084166024830152604482018b90529151929450908516916323b872dd916064808201926020929091908290030181600087803b1580156147d657600080fd5b505af11580156147ea573d6000803e3d6000fd5b505050506040513d602081101561480057600080fd5b5051151561480a57fe5b6040517f6b08f2ef0000000000000000000000000000000000000000000000000000000081526024810188905260448101879052600160a060020a03868116606483015260006084830181905260a4830181905260c4830181905260e48301819052610100600484019081528b516101048501528b5192861693636b08f2ef938d938d938d938d93839283928392829161012401906020808d019102808383885b838110156148c35781810151838201526020016148ab565b505050509050019950505050505050505050602060405180830381600087803b1580156148ef57600080fd5b505af1158015614903573d6000803e3d6000fd5b505050506040513d602081101561491957600080fd5b505198975050505050505050565b600080600061493584614de4565b915061494084614e28565b90506000821115614c1457600e5460e060020a900463ffffffff16151561496657600080fd5b601054601154604080517fdd62ed3e000000000000000000000000000000000000000000000000000000008152306004820152600160a060020a03928316602482015290518593929092169163dd62ed3e916044808201926020929091908290030181600087803b1580156149da57600080fd5b505af11580156149ee573d6000803e3d6000fd5b505050506040513d6020811015614a0457600080fd5b50511015614aad57601054601154604080517f095ea7b3000000000000000000000000000000000000000000000000000000008152600160a060020a0392831660048201526000602482018190529151929093169263095ea7b39260448083019360209383900390910190829087803b158015614a8057600080fd5b505af1158015614a94573d6000803e3d6000fd5b505050506040513d6020811015614aaa57600080fd5b50505b601054601154604080517f095ea7b3000000000000000000000000000000000000000000000000000000008152600160a060020a039283166004820152602481018690529051919092169163095ea7b39160448083019260209291908290030181600087803b158015614b1f57600080fd5b505af1158015614b33573d6000803e3d6000fd5b505050506040513d6020811015614b4957600080fd5b5050601154600e54600f54600160a060020a0390921691637aa54eec9160e060020a900463ffffffff1690859074010000000000000000000000000000000000000000900460ff166002811115614b9c57fe5b6040518463ffffffff1660e060020a028152600401808463ffffffff1663ffffffff1681526020018381526020018263ffffffff1663ffffffff1681526020019350505050600060405180830381600087803b158015614bfb57600080fd5b505af1158015614c0f573d6000803e3d6000fd5b505050505b601054600f546040805160e060020a63a9059cbb028152600160a060020a039283166004820152602481018590529051919092169163a9059cbb9160448083019260209291908290030181600087803b158015614c7057600080fd5b505af1158015614c84573d6000803e3d6000fd5b505050506040513d6020811015614c9a57600080fd5b50511515614ca457fe5b6138778282613d15565b600e60009054906101000a9004600160a060020a0316600160a060020a0316636f7798c96040518163ffffffff1660e060020a028152600401602060405180830381600087803b158015614d0157600080fd5b505af1158015614d15573d6000803e3d6000fd5b505050506040513d6020811015614d2b57600080fd5b5051600e8054600160a060020a031916600160a060020a039283161790819055604080517fc2999e1c00000000000000000000000000000000000000000000000000000000815288841660048201528784166024820152868416604482015260648101869052608481018590529051919092169163c2999e1c9160a480830192600092919082900301818387803b158015614dc557600080fd5b505af1158015614dd9573d6000803e3d6000fd5b505050505050505050565b600e54600090620f424090614e1890849074010000000000000000000000000000000000000000900463ffffffff1661457a565b811515614e2157fe5b0492915050565b600e54600090620f424090614e189084907801000000000000000000000000000000000000000000000000900463ffffffff1661457a565b600e60009054906101000a9004600160a060020a0316600160a060020a0316636f7798c96040518163ffffffff1660e060020a028152600401602060405180830381600087803b158015614eb357600080fd5b505af1158015614ec7573d6000803e3d6000fd5b505050506040513d6020811015614edd57600080fd5b5051600e8054600160a060020a031916600160a060020a039283161790819055604080517f621a0a2500000000000000000000000000000000000000000000000000000000815289841660048201528884166024820152878416604482015263ffffffff871660648201526084810186905260a481018590529051919092169163621a0a259160c480830192600092919082900301818387803b158015614f8357600080fd5b505af1158015614f97573d6000803e3d6000fd5b50505050505050505050565b828054828255906000526020600020908101928215614ff8579160200282015b82811115614ff85782518254600160a060020a031916600160a060020a03909116178255602090920191600190910190614fc3565b50615004929150615008565b5090565b610e3391905b80821115615004578054600160a060020a031916815560010161500e560042616e636f72466f726d756c610000000000000000000000000000000000000042616e636f72436f6e76657274657255706772616465720000000000000000008a6a7f53b3c8fa1dc4b83e3f1be668c1b251ff8d44cdcb83eb3acec3fec6a788a165627a7a72305820583816e0bbb5a5995578a3e4dcbb4e7bf2c102271f126ad7bae44ea3e2b45f560029",
  "source": "pragma solidity ^0.4.18;\nimport '../converter/BancorConverter.sol';\nimport './FinancieFee.sol';\nimport '../token/interfaces/IERC20Token.sol';\nimport './FinancieNotifierDelegate.sol';\nimport './IFinancieBancorConverter.sol';\n\n/**\n* Financie Bancor Converter\n*\n*  Based on BancorConverter, extended and overriden for...\n*    - allow conversion only from ETH/Card to Card/ETH\n*    - ignore base fee model and use Financie fee model\n*\n*/\ncontract FinancieBancorConverter is IFinancieBancorConverter, BancorConverter, FinancieNotifierDelegate, FinancieFee {\n\n    IERC20Token public currencyToken;\n    IERC20Token[] private convertPath;\n\n    /**\n    *   @dev constructor\n    *\n    *   @param  _token                smart token governed by the converter\n    *   @param  _currencyToken        currency token for payment\n    *   @param  _connectorToken       card connector for defining the first connector at deployment time\n    *   @param  _hero_id              issuer's id\n    *   @param  _team_wallet          Financie team wallet\n    *   @param  _registry             address of a bancor converter extensions contract\n    *   @param  _notifier_address     address of Financie Notifier contract\n    *   @param  _heroFee              fee for financie hero, represented in ppm\n    *   @param  _teamFee              fee for financie team, represented in ppm\n    *   @param  _connectorWeight      weight for the initial connector\n    *   @param  _internalWallet       internal wallet contract\n    */\n    constructor(\n        ISmartToken _token,\n        IERC20Token _currencyToken,\n        IERC20Token _connectorToken,\n        uint32      _hero_id,\n        address     _team_wallet,\n        IContractRegistry _registry,\n        address     _notifier_address,\n        uint32      _heroFee,\n        uint32      _teamFee,\n        uint32      _connectorWeight,\n        address     _internalWallet\n        )\n        public\n        BancorConverter(_token, _registry, 0, _connectorToken, _connectorWeight)\n        FinancieNotifierDelegate(_notifier_address)\n    {\n        currencyToken = _currencyToken;\n\n        setFee(\n          _heroFee,\n          _teamFee,\n          _hero_id,\n          _team_wallet,\n          _currencyToken,\n          _internalWallet,\n          FinancieFee.RevenueType.ExchangeFee\n        );\n    }\n\n    function getVersion() public pure returns (uint256) {\n        return 13;\n    }\n\n    function startTrading() public {\n        notifyApproveNewBancor(address(connectorTokens[0]), address(this));\n    }\n\n    /**\n    *   @dev Sell Card Tokens - required approval for this contract before calling this function\n    *\n    *   @param  _amount           amount of sale tokens in wei\n    *   @param  _minReturn        minimum demands currency in wei, in case of lower result, the function will be failed\n    */\n    function sellCards(uint256 _amount, uint256 _minReturn) public returns (uint256, uint256, uint256) {\n        convertPath = [connectorTokens[0], token, currencyToken];\n        uint256 result = quickConvertInternal(convertPath, _amount, 1, this);\n\n        uint256 feeAmount = distributeFees(result);\n        uint256 net = safeSub(result, feeAmount);\n\n        currencyToken.transfer(msg.sender, net);\n\n        notifyConvertCards(msg.sender, address(connectorTokens[0]), address(currencyToken), _amount, net);\n        assert(net >= _minReturn);\n\n        // Notify logs of revenue\n        notifyExchangeRevenue(msg.sender, address(this), address(connectorTokens[0]), hero_id, getHeroFee(result), getTeamFee(result));\n\n        return (net, getHeroFee(result), getTeamFee(result));\n    }\n\n    /**\n    *   @dev Buy Card Tokens - required specified amount of currency\n    *\n    *   @param  _amount           amount of purchase payment currency in wei\n    *   @param  _minReturn        minimum demands cards in wei, in case of lower result, the function will be failed\n    */\n    function buyCards(uint256 _amount, uint256 _minReturn) public returns (uint256, uint256, uint256) {\n        assert(currencyToken.transferFrom(msg.sender, this, getFinancieFee(_amount)));\n        uint256 feeAmount = distributeFees(_amount);\n        uint256 net = safeSub(_amount, feeAmount);\n\n        convertPath = [currencyToken, token, connectorTokens[0]];\n        uint256 result = quickConvertInternal(convertPath, net, 1, msg.sender);\n\n        notifyConvertCards(msg.sender, address(currencyToken), address(connectorTokens[0]), _amount, result);\n        assert(result >= _minReturn);\n\n        // Notify logs of revenue\n        notifyExchangeRevenue(msg.sender, address(this), address(currencyToken), hero_id, getHeroFee(_amount), getTeamFee(_amount));\n\n        return (result, getHeroFee(_amount), getTeamFee(_amount));\n    }\n\n    /**\n    *   @dev Convert with Quick Converter - overriden for specified amount conversion\n    */\n    function quickConvertInternal(IERC20Token[] _path, uint256 _amount, uint256 _minReturn, address _spender)\n        internal\n        validConversionPath(_path)\n        returns (uint256)\n    {\n        IERC20Token fromToken = _path[0];\n        IBancorNetwork bancorNetwork = IBancorNetwork(registry.addressOf(ContractIds.BANCOR_NETWORK));\n\n        // otherwise, we assume we already have allowance, transfer the tokens directly to the BancorNetwork contract\n        assert(fromToken.transferFrom(msg.sender, bancorNetwork, _amount));\n\n        // execute the conversion and pass on the ETH with the call\n        return bancorNetwork.convertForPrioritized2(_path, _amount, _minReturn, _spender, 0x0, 0x0, 0x0, 0x0);\n    }\n\n\n    /**\n    *   @dev Overridden for original fee model\n    */\n    function getReturn(IERC20Token _fromToken, IERC20Token _toToken, uint256 _amount) public view returns (uint256, uint256) {\n        require(_fromToken == connectorTokens[0] || _fromToken == currencyToken);\n        require(_toToken == currencyToken || _toToken == connectorTokens[0]);\n\n        uint256 financieFee;\n        uint256 bancorFee;\n        uint256 totalFee;\n        uint256 net;\n        if ( _fromToken == connectorTokens[0] ) {\n            uint256 gross;\n            (gross, bancorFee) = super.getReturn(_fromToken, _toToken, _amount);\n            assert(bancorFee == 0);\n            financieFee = getFinancieFee(gross);\n            totalFee = safeAdd(bancorFee, financieFee);\n            net = safeSub(gross, totalFee);\n            return (net, totalFee);\n        } else {\n            financieFee = getFinancieFee(_amount);\n            _amount = safeSub(_amount, financieFee);\n            (net, bancorFee) = super.getReturn(_fromToken, _toToken, _amount);\n            assert(bancorFee == 0);\n            totalFee = safeAdd(bancorFee, financieFee);\n            return (net, totalFee);\n        }\n\n    }\n\n    function quickConvertPrioritized(IERC20Token[] _path, uint256 _amount, uint256 _minReturn, uint256 _block, uint8 _v, bytes32 _r, bytes32 _s)\n        public\n        payable\n        validConversionPath(_path)\n        returns (uint256)\n    {\n        revert();\n    }\n\n}\n",
  "sourcePath": "/Users/rudo/Documents/ichiba/submodules/contracts/solidity/contracts/Financie/FinancieBancorConverter.sol",
  "compiler": {
    "name": "solc",
    "version": "0.4.24+commit.e67f0147.Emscripten.clang"
  },
  "schemaVersion": "2.0.1",
  "updatedAt": "2019-03-03T08:58:01.564Z"
}