{
  "contractName": "FinancieFee",
  "abi": [
    {
      "constant": true,
      "inputs": [],
      "name": "team_wallet",
      "outputs": [
        {
          "name": "",
          "type": "address"
        }
      ],
      "payable": false,
      "stateMutability": "view",
      "type": "function"
    },
    {
      "constant": true,
      "inputs": [],
      "name": "pendingRevenueType",
      "outputs": [
        {
          "name": "",
          "type": "uint8"
        }
      ],
      "payable": false,
      "stateMutability": "view",
      "type": "function"
    },
    {
      "constant": true,
      "inputs": [],
      "name": "heroFee",
      "outputs": [
        {
          "name": "",
          "type": "uint32"
        }
      ],
      "payable": false,
      "stateMutability": "view",
      "type": "function"
    },
    {
      "constant": true,
      "inputs": [],
      "name": "hero_id",
      "outputs": [
        {
          "name": "",
          "type": "uint32"
        }
      ],
      "payable": false,
      "stateMutability": "view",
      "type": "function"
    },
    {
      "constant": true,
      "inputs": [],
      "name": "teamFee",
      "outputs": [
        {
          "name": "",
          "type": "uint32"
        }
      ],
      "payable": false,
      "stateMutability": "view",
      "type": "function"
    }
  ],
  "bytecode": "0x60806040526101d9806100136000396000f30060806040526004361061006c5763ffffffff7c01000000000000000000000000000000000000000000000000000000006000350416636ea7958381146100715780637828b4f3146100af5780639b0d37f8146100e8578063c0d77c6514610116578063d7c94efd1461012b575b600080fd5b34801561007d57600080fd5b50610086610140565b6040805173ffffffffffffffffffffffffffffffffffffffff9092168252519081900360200190f35b3480156100bb57600080fd5b506100c461016c565b604051808260028111156100d457fe5b60ff16815260200191505060405180910390f35b3480156100f457600080fd5b506100fd610175565b6040805163ffffffff9092168252519081900360200190f35b34801561012257600080fd5b506100fd610181565b34801561013757600080fd5b506100fd610199565b6000546c01000000000000000000000000900473ffffffffffffffffffffffffffffffffffffffff1681565b60015460ff1681565b60005463ffffffff1681565b60005468010000000000000000900463ffffffff1681565b600054640100000000900463ffffffff16815600a165627a7a72305820a4a7c9377338e4215791d56efc7a034a6aca259869789bf49cfd6a73368547690029",
  "source": "pragma solidity ^0.4.18;\nimport '../utility/Utils.sol';\nimport '../token/interfaces/IERC20Token.sol';\nimport './IFinancieInternalWallet.sol';\n\n/**\n    **FROZEN**\n    Financie fee management contract\n*/\ncontract FinancieFee is Utils {\n\n    // Max fee percentage in ppm(=100%)\n    uint32 private constant MAX_FINANCIE_FEE = 1000000;\n\n    // Fee percentage in ppm for hero\n    uint32 public heroFee;\n    // Fee percentage in ppm for team\n    uint32 public teamFee;\n    // Receiver wallet id for hero fee\n    uint32 public hero_id;\n    // Receiver wallet address for team fee\n    address public team_wallet;\n\n    /*\n     * Enums\n     */\n    enum RevenueType {\n        Auction,\n        ExchangeFee,\n        GoodsSales\n    }\n    RevenueType public pendingRevenueType;\n\n    // Currency token for payment\n    IERC20Token payment_currenty_token;\n\n    IFinancieInternalWallet internalWallet;\n\n\n    /**\n    *   @dev setFee\n    *   @param _heroFee       Fee percentage in ppm for hero\n    *   @param _teamFee       Fee percentage in ppm for team\n    *   @param _hero_id       Receiver id for hero fee\n    *   @param _team_wallet   Receiver wallet address for team fee\n    *   @param _payment_currency_token Currency token for payment\n    */\n    function setFee(\n        uint32 _heroFee,\n        uint32 _teamFee,\n        uint32 _hero_id,\n        address _team_wallet,\n        address _payment_currency_token,\n        address _internalWallet,\n        RevenueType _pendingRevenueType\n    ) internal {\n        heroFee = _heroFee;\n        teamFee = _teamFee;\n        hero_id = _hero_id;\n        team_wallet = _team_wallet;\n        payment_currenty_token = IERC20Token(_payment_currency_token);\n        internalWallet = IFinancieInternalWallet(_internalWallet);\n        pendingRevenueType = _pendingRevenueType;\n    }\n\n    /**\n    *   @dev Distribute fee in ether\n    *   @param _amount        Fee target amount in wei\n    *   @return               Distributed fee amount in wei\n    */\n    function distributeFees(uint256 _amount) internal returns (uint256) {\n        uint256 _heroFee = getHeroFee(_amount);\n        uint256 _teamFee = getTeamFee(_amount);\n        if ( _heroFee > 0 ) {\n            require(hero_id != 0);\n            if ( payment_currenty_token.allowance(this, address(internalWallet)) < _heroFee ) {\n                payment_currenty_token.approve(address(internalWallet), 0);\n            }\n            payment_currenty_token.approve(address(internalWallet), _heroFee);\n            internalWallet.depositPendingRevenueCurrencyTokens(hero_id, _heroFee, uint32(pendingRevenueType));\n        }\n        assert(payment_currenty_token.transfer(team_wallet, _teamFee));\n\n        return safeAdd(_heroFee, _teamFee);\n    }\n\n    /**\n    *   @dev Calculate fee for hero\n    *   @param _amount        Fee target amount in wei\n    *   @return               Fee amount for hero in wei\n    */\n    function getHeroFee(uint256 _amount) internal view returns (uint256) {\n        return safeMul(_amount, heroFee) / MAX_FINANCIE_FEE;\n    }\n\n    /**\n    *   @dev Calculate fee for team\n    *   @param _amount        Fee target amount in wei\n    *   @return               Fee amount for team in wei\n    */\n    function getTeamFee(uint256 _amount) internal view returns (uint256) {\n        return safeMul(_amount, teamFee) / MAX_FINANCIE_FEE;\n    }\n\n    /**\n    *   @dev Calculate total fee\n    *   @param _amount        Fee target amount in wei\n    *   @return               Total fee amount in wei\n    */\n    function getFinancieFee(uint256 _amount) internal view returns (uint256) {\n        return safeAdd(getHeroFee(_amount), getTeamFee(_amount));\n    }\n\n}\n",
  "sourcePath": "/Users/rudo/Documents/ichiba/submodules/contracts/solidity/contracts/Financie/FinancieFee.sol",
  "compiler": {
    "name": "solc",
    "version": "0.4.24+commit.e67f0147.Emscripten.clang"
  },
  "schemaVersion": "2.0.1",
  "updatedAt": "2019-03-03T09:13:38.252Z"
}