{
  "contractName": "FinancieInternalWalletUpgrade",
  "abi": [
    {
      "constant": false,
      "inputs": [],
      "name": "acceptOwnership",
      "outputs": [],
      "payable": false,
      "stateMutability": "nonpayable",
      "type": "function"
    },
    {
      "constant": true,
      "inputs": [],
      "name": "owner",
      "outputs": [
        {
          "name": "",
          "type": "address"
        }
      ],
      "payable": false,
      "stateMutability": "view",
      "type": "function"
    },
    {
      "constant": true,
      "inputs": [],
      "name": "newOwner",
      "outputs": [
        {
          "name": "",
          "type": "address"
        }
      ],
      "payable": false,
      "stateMutability": "view",
      "type": "function"
    },
    {
      "constant": false,
      "inputs": [
        {
          "name": "_newOwner",
          "type": "address"
        }
      ],
      "name": "transferOwnership",
      "outputs": [],
      "payable": false,
      "stateMutability": "nonpayable",
      "type": "function"
    },
    {
      "inputs": [
        {
          "name": "_walletFactory",
          "type": "address"
        },
        {
          "name": "_teamwallet",
          "type": "address"
        },
        {
          "name": "_managedContracts",
          "type": "address"
        },
        {
          "name": "_platformToken",
          "type": "address"
        },
        {
          "name": "_currencyToken",
          "type": "address"
        },
        {
          "name": "_walletdata",
          "type": "address"
        }
      ],
      "payable": false,
      "stateMutability": "nonpayable",
      "type": "constructor"
    },
    {
      "anonymous": false,
      "inputs": [
        {
          "indexed": true,
          "name": "_oldWallet",
          "type": "address"
        },
        {
          "indexed": true,
          "name": "_newWallet",
          "type": "address"
        }
      ],
      "name": "WalletUpgrade",
      "type": "event"
    },
    {
      "anonymous": false,
      "inputs": [
        {
          "indexed": true,
          "name": "_oldWallet",
          "type": "address"
        },
        {
          "indexed": true,
          "name": "_owner",
          "type": "address"
        }
      ],
      "name": "WalletOwned",
      "type": "event"
    },
    {
      "anonymous": false,
      "inputs": [
        {
          "indexed": true,
          "name": "_prevOwner",
          "type": "address"
        },
        {
          "indexed": true,
          "name": "_newOwner",
          "type": "address"
        }
      ],
      "name": "OwnerUpdate",
      "type": "event"
    },
    {
      "constant": false,
      "inputs": [
        {
          "name": "_oldWallet",
          "type": "address"
        }
      ],
      "name": "upgrade",
      "outputs": [],
      "payable": false,
      "stateMutability": "nonpayable",
      "type": "function"
    }
  ],
  "bytecode": "0x608060405234801561001057600080fd5b5060405160c08061077d83398101604090815281516020830151918301516060840151608085015160a0909501516000805433600160a060020a0319918216178255600280548216600160a060020a0397881617905560038054821697871697909717909655600480548716928616929092179091556005805486169385169390931790925560068054851691841691909117905560078054909316919093161790556106ba9081906100c390396000f3006080604052600436106100535763ffffffff60e060020a6000350416630900f010811461005857806379ba50971461007b5780638da5cb5b14610090578063d4ee1d90146100c1578063f2fde38b146100d6575b600080fd5b34801561006457600080fd5b50610079600160a060020a03600435166100f7565b005b34801561008757600080fd5b5061007961032b565b34801561009c57600080fd5b506100a56103b3565b60408051600160a060020a039092168252519081900360200190f35b3480156100cd57600080fd5b506100a56103c2565b3480156100e257600080fd5b50610079600160a060020a03600435166103d1565b600061010282610432565b61010a61053f565b905081600160a060020a031663d75d382e826040518263ffffffff1660e060020a0281526004018082600160a060020a0316600160a060020a03168152602001915050600060405180830381600087803b15801561016757600080fd5b505af115801561017b573d6000803e3d6000fd5b505060048054604080517f77338701000000000000000000000000000000000000000000000000000000008152600160a060020a039283169381019390935251908516935063773387019250602480830192600092919082900301818387803b1580156101e757600080fd5b505af11580156101fb573d6000803e3d6000fd5b5050604080517ff2fde38b0000000000000000000000000000000000000000000000000000000081523360048201529051600160a060020a038616935063f2fde38b9250602480830192600092919082900301818387803b15801561025f57600080fd5b505af1158015610273573d6000803e3d6000fd5b5050604080517ff2fde38b0000000000000000000000000000000000000000000000000000000081523360048201529051600160a060020a038516935063f2fde38b9250602480830192600092919082900301818387803b1580156102d757600080fd5b505af11580156102eb573d6000803e3d6000fd5b5050604051600160a060020a038085169350851691507f8a527e75e5418f51353a0598cecccefa63e2882b88ad96914a1f467fc2b0f19690600090a35050565b600154600160a060020a0316331461034257600080fd5b60015460008054604051600160a060020a0393841693909116917f343765429aea5a34b3ff6a3785a98a5abb2597aca87bfbb58632c173d585373a91a3600180546000805473ffffffffffffffffffffffffffffffffffffffff19908116600160a060020a03841617909155169055565b600054600160a060020a031681565b600154600160a060020a031681565b600054600160a060020a031633146103e857600080fd5b600054600160a060020a038281169116141561040357600080fd5b6001805473ffffffffffffffffffffffffffffffffffffffff1916600160a060020a0392909216919091179055565b80600160a060020a0316638da5cb5b6040518163ffffffff1660e060020a028152600401602060405180830381600087803b15801561047057600080fd5b505af1158015610484573d6000803e3d6000fd5b505050506040513d602081101561049a57600080fd5b5051600160a060020a031633146104b057600080fd5b80600160a060020a03166379ba50976040518163ffffffff1660e060020a028152600401600060405180830381600087803b1580156104ee57600080fd5b505af1158015610502573d6000803e3d6000fd5b5050604051309250600160a060020a03841691507f628e19de0c2346f086dfda01daf5e40bda9771c7f4d3e289b1e4636783f2d6b590600090a350565b60025460035460055460065460075460048054604080517f2c4a9f3d000000000000000000000000000000000000000000000000000000008152600160a060020a0397881693810193909352948616602483015292851660448201529084166064820152908316608482015290516000939290921691839182918491632c4a9f3d9160a480830192602092919082900301818787803b1580156105e157600080fd5b505af11580156105f5573d6000803e3d6000fd5b505050506040513d602081101561060b57600080fd5b5051604080517f79ba50970000000000000000000000000000000000000000000000000000000081529051919350839250600160a060020a038316916379ba50979160048082019260009290919082900301818387803b15801561066e57600080fd5b505af1158015610682573d6000803e3d6000fd5b509296955050505050505600a165627a7a723058202d93205fc64822536c778eb7efa31a05fae0448e3d3149081a2ef4f25c4f03790029",
  "source": "pragma solidity ^0.4.18;\nimport '../utility/Owned.sol';\nimport './IFinancieInternalWallet.sol';\nimport './IFinancieInternalWalletFactory.sol';\n\ncontract FinancieInternalWalletUpgrade is Owned {\n    address walletFactory;\n    address teamwallet;\n    address walletdata;\n    address managedContracts;\n    address platformToken;\n    address currencyToken;\n\n    event WalletUpgrade(address indexed _oldWallet, address indexed _newWallet);\n\n    event WalletOwned(address indexed _oldWallet, address indexed _owner);\n\n    constructor(\n        address _walletFactory,\n        address _teamwallet,\n        address _managedContracts,\n        address _platformToken,\n        address _currencyToken,\n        address _walletdata\n    ) public {\n        walletFactory = _walletFactory;\n        teamwallet = _teamwallet;\n        walletdata = _walletdata;\n        managedContracts = _managedContracts;\n        platformToken = _platformToken;\n        currencyToken = _currencyToken;\n    }\n\n    function upgrade(IFinancieInternalWallet _oldWallet) public {\n        acceptConverterOwnership(_oldWallet);\n\n        IFinancieInternalWallet newWallet = createWallet();\n\n        _oldWallet.transferBnakOwnership(newWallet);\n        newWallet.setInternalBank(walletdata);\n\n        _oldWallet.transferOwnership(msg.sender);\n        newWallet.transferOwnership(msg.sender);\n\n        emit WalletUpgrade(address(_oldWallet), address(newWallet));\n    }\n\n    function acceptConverterOwnership(IFinancieInternalWallet _oldWallet) private {\n        require(msg.sender == _oldWallet.owner());\n        _oldWallet.acceptOwnership();\n        emit WalletOwned(_oldWallet, this);\n    }\n\n    function createWallet() private returns(IFinancieInternalWallet) {\n        IFinancieInternalWalletFactory factory = IFinancieInternalWalletFactory(walletFactory);\n\n        address walletAdderess  = factory.createInternalWallet(\n            teamwallet,\n            managedContracts,\n            platformToken,\n            currencyToken,\n            walletdata\n        );\n\n        IFinancieInternalWallet wallet = IFinancieInternalWallet(walletAdderess);\n        wallet.acceptOwnership();\n\n        return wallet;\n    }\n}\n",
  "sourcePath": "/Users/rudo/Documents/ichiba/submodules/contracts/solidity/contracts/Financie/FinancieInternalWalletUpgrade.sol",
  "compiler": {
    "name": "solc",
    "version": "0.4.24+commit.e67f0147.Emscripten.clang"
  },
  "schemaVersion": "2.0.1",
  "updatedAt": "2019-03-03T09:13:38.266Z"
}