{
  "contractName": "FinancieTicketStoreUpgrade",
  "abi": [
    {
      "constant": true,
      "inputs": [],
      "name": "ticketStoreFactory",
      "outputs": [
        {
          "name": "",
          "type": "address"
        }
      ],
      "payable": false,
      "stateMutability": "view",
      "type": "function"
    },
    {
      "constant": false,
      "inputs": [],
      "name": "acceptOwnership",
      "outputs": [],
      "payable": false,
      "stateMutability": "nonpayable",
      "type": "function"
    },
    {
      "constant": true,
      "inputs": [],
      "name": "owner",
      "outputs": [
        {
          "name": "",
          "type": "address"
        }
      ],
      "payable": false,
      "stateMutability": "view",
      "type": "function"
    },
    {
      "constant": true,
      "inputs": [],
      "name": "newOwner",
      "outputs": [
        {
          "name": "",
          "type": "address"
        }
      ],
      "payable": false,
      "stateMutability": "view",
      "type": "function"
    },
    {
      "constant": false,
      "inputs": [
        {
          "name": "_newOwner",
          "type": "address"
        }
      ],
      "name": "transferOwnership",
      "outputs": [],
      "payable": false,
      "stateMutability": "nonpayable",
      "type": "function"
    },
    {
      "inputs": [
        {
          "name": "_ticketStoreFactory",
          "type": "address"
        }
      ],
      "payable": false,
      "stateMutability": "nonpayable",
      "type": "constructor"
    },
    {
      "anonymous": false,
      "inputs": [
        {
          "indexed": true,
          "name": "_oldStore",
          "type": "address"
        },
        {
          "indexed": true,
          "name": "_newStore",
          "type": "address"
        }
      ],
      "name": "TicketStoreUpgrade",
      "type": "event"
    },
    {
      "anonymous": false,
      "inputs": [
        {
          "indexed": true,
          "name": "_oldStore",
          "type": "address"
        },
        {
          "indexed": true,
          "name": "__owner",
          "type": "address"
        }
      ],
      "name": "TicketStoreOwned",
      "type": "event"
    },
    {
      "anonymous": false,
      "inputs": [
        {
          "indexed": true,
          "name": "_prevOwner",
          "type": "address"
        },
        {
          "indexed": true,
          "name": "_newOwner",
          "type": "address"
        }
      ],
      "name": "OwnerUpdate",
      "type": "event"
    },
    {
      "constant": false,
      "inputs": [
        {
          "name": "_oldStore",
          "type": "address"
        }
      ],
      "name": "upgrade",
      "outputs": [],
      "payable": false,
      "stateMutability": "nonpayable",
      "type": "function"
    }
  ],
  "bytecode": "0x608060405234801561001057600080fd5b50604051602080610f3b833981016040525160008054600160a060020a0319908116331790915560028054600160a060020a0390931692909116919091179055610edc8061005f6000396000f30060806040526004361061005e5763ffffffff60e060020a6000350416630900f010811461006357806359d096c41461008657806379ba5097146100b75780638da5cb5b146100cc578063d4ee1d90146100e1578063f2fde38b146100f6575b600080fd5b34801561006f57600080fd5b50610084600160a060020a0360043516610117565b005b34801561009257600080fd5b5061009b61026d565b60408051600160a060020a039092168252519081900360200190f35b3480156100c357600080fd5b5061008461027c565b3480156100d857600080fd5b5061009b610304565b3480156100ed57600080fd5b5061009b610313565b34801561010257600080fd5b50610084600160a060020a0360043516610322565b600061012282610383565b61012b82610490565b905061013782826107e9565b6101418282610bd6565b604080517ff2fde38b0000000000000000000000000000000000000000000000000000000081523360048201529051600160a060020a0384169163f2fde38b91602480830192600092919082900301818387803b1580156101a157600080fd5b505af11580156101b5573d6000803e3d6000fd5b5050604080517ff2fde38b0000000000000000000000000000000000000000000000000000000081523360048201529051600160a060020a038516935063f2fde38b9250602480830192600092919082900301818387803b15801561021957600080fd5b505af115801561022d573d6000803e3d6000fd5b5050604051600160a060020a038085169350851691507f400e4a1335f7831f8f7e73bf005266119e79fa7f385772de141ea48c0354c76e90600090a35050565b600254600160a060020a031681565b600154600160a060020a0316331461029357600080fd5b60015460008054604051600160a060020a0393841693909116917f343765429aea5a34b3ff6a3785a98a5abb2597aca87bfbb58632c173d585373a91a3600180546000805473ffffffffffffffffffffffffffffffffffffffff19908116600160a060020a03841617909155169055565b600054600160a060020a031681565b600154600160a060020a031681565b600054600160a060020a0316331461033957600080fd5b600054600160a060020a038281169116141561035457600080fd5b6001805473ffffffffffffffffffffffffffffffffffffffff1916600160a060020a0392909216919091179055565b80600160a060020a0316638da5cb5b6040518163ffffffff1660e060020a028152600401602060405180830381600087803b1580156103c157600080fd5b505af11580156103d5573d6000803e3d6000fd5b505050506040513d60208110156103eb57600080fd5b5051600160a060020a0316331461040157600080fd5b80600160a060020a03166379ba50976040518163ffffffff1660e060020a028152600401600060405180830381600087803b15801561043f57600080fd5b505af1158015610453573d6000803e3d6000fd5b5050604051309250600160a060020a03841691507fe43be20f62f625d7531abe0a0c72efc409607ded1c826912608b635254c5f9a790600090a350565b6000806000806000806000806000808a985088600160a060020a03166309276ea46040518163ffffffff1660e060020a028152600401602060405180830381600087803b1580156104e057600080fd5b505af11580156104f4573d6000803e3d6000fd5b505050506040513d602081101561050a57600080fd5b5051604080517f97ff1f9600000000000000000000000000000000000000000000000000000000815290519199508c9850600160a060020a038916916397ff1f96916004808201926020929091908290030181600087803b15801561056e57600080fd5b505af1158015610582573d6000803e3d6000fd5b505050506040513d602081101561059857600080fd5b5051604080517fd1b812cd0000000000000000000000000000000000000000000000000000000081529051919750600160a060020a0389169163d1b812cd916004808201926020929091908290030181600087803b1580156105f957600080fd5b505af115801561060d573d6000803e3d6000fd5b505050506040513d602081101561062357600080fd5b5051604080517fb8066bcb0000000000000000000000000000000000000000000000000000000081529051919650600160a060020a0389169163b8066bcb916004808201926020929091908290030181600087803b15801561068457600080fd5b505af1158015610698573d6000803e3d6000fd5b505050506040513d60208110156106ae57600080fd5b5051600254604080517f720ea852000000000000000000000000000000000000000000000000000000008152600160a060020a038c811660048301528a8116602483015289811660448301528085166064830152915193975091169450849163720ea852916084808201926020929091908290030181600087803b15801561073557600080fd5b505af1158015610749573d6000803e3d6000fd5b505050506040513d602081101561075f57600080fd5b5051604080517f79ba50970000000000000000000000000000000000000000000000000000000081529051919350839250600160a060020a038316916379ba50979160048082019260009290919082900301818387803b1580156107c257600080fd5b505af11580156107d6573d6000803e3d6000fd5b50929d9c50505050505050505050505050565b60008060008060008087955086945085600160a060020a031663188593356040518163ffffffff1660e060020a028152600401602060405180830381600087803b15801561083657600080fd5b505af115801561084a573d6000803e3d6000fd5b505050506040513d602081101561086057600080fd5b50519350600092505b8361ffff168361ffff161015610bcc5785600160a060020a031663b59239a4846040518263ffffffff1660e060020a028152600401808261ffff168152602001915050602060405180830381600087803b1580156108c657600080fd5b505af11580156108da573d6000803e3d6000fd5b505050506040513d60208110156108f057600080fd5b5051604080517ffdbafc6d000000000000000000000000000000000000000000000000000000008152600160a060020a03808416600483015291519294508493508188169263211df828928592908b169163fdbafc6d916024808201926020929091908290030181600087803b15801561096957600080fd5b505af115801561097d573d6000803e3d6000fd5b505050506040513d602081101561099357600080fd5b5051604080517f81b92e5d000000000000000000000000000000000000000000000000000000008152600160a060020a0388811660048301529151918c16916381b92e5d916024808201926020929091908290030181600087803b1580156109fa57600080fd5b505af1158015610a0e573d6000803e3d6000fd5b505050506040513d6020811015610a2457600080fd5b5051604080517ffab042b7000000000000000000000000000000000000000000000000000000008152600160a060020a0389811660048301529151918d169163fab042b7916024808201926020929091908290030181600087803b158015610a8b57600080fd5b505af1158015610a9f573d6000803e3d6000fd5b505050506040513d6020811015610ab557600080fd5b5051604080517f16b150b9000000000000000000000000000000000000000000000000000000008152600160a060020a038a811660048301529151918e16916316b150b9916024808201926020929091908290030181600087803b158015610b1c57600080fd5b505af1158015610b30573d6000803e3d6000fd5b505050506040513d6020811015610b4657600080fd5b50516040805160e060020a63ffffffff8916028152600160a060020a039687166004820152949095166024850152604484019290925260648301526084820152905160a480830192600092919082900301818387803b158015610ba857600080fd5b505af1158015610bbc573d6000803e3d6000fd5b5050600190940193506108699050565b5050505050505050565b600080600080600080600088965087955086600160a060020a031663188593356040518163ffffffff1660e060020a028152600401602060405180830381600087803b158015610c2557600080fd5b505af1158015610c39573d6000803e3d6000fd5b505050506040513d6020811015610c4f57600080fd5b50519450600093505b8461ffff168461ffff161015610ea55786600160a060020a031663b59239a4856040518263ffffffff1660e060020a028152600401808261ffff168152602001915050602060405180830381600087803b158015610cb557600080fd5b505af1158015610cc9573d6000803e3d6000fd5b505050506040513d6020811015610cdf57600080fd5b5051604080517f70a08231000000000000000000000000000000000000000000000000000000008152600160a060020a038c811660048301529151929550859450908416916370a08231916024808201926020929091908290030181600087803b158015610d4c57600080fd5b505af1158015610d60573d6000803e3d6000fd5b505050506040513d6020811015610d7657600080fd5b5051604080517fc2b0ea1c000000000000000000000000000000000000000000000000000000008152600160a060020a0386811660048301528b811660248301526044820184905291519293509089169163c2b0ea1c9160648082019260009290919082900301818387803b158015610dee57600080fd5b505af1158015610e02573d6000803e3d6000fd5b5050604080517f90567f7c000000000000000000000000000000000000000000000000000000008152600160a060020a0387811660048301528d811660248301528c81166044830152606482018690529151918a1693506390567f7c925060848082019260009290919082900301818387803b158015610e8157600080fd5b505af1158015610e95573d6000803e3d6000fd5b505060019095019450610c589050565b5050505050505050505600a165627a7a7230582094a7eb47b19d67bae9933ebb8c626dc82dc0f5946074eb84f3b28e257c21f73e0029",
  "source": "pragma solidity ^0.4.18;\nimport '../utility/Owned.sol';\nimport './IFinancieTicketStore.sol';\nimport './IFinancieNotifier.sol';\nimport './IFinancieTicketStoreFactory.sol';\nimport './IFinancieManagedContracts.sol';\nimport './FinancieNotifierDelegate.sol';\nimport './FinancieCoreComponents.sol';\nimport './FinancieTicketStore.sol';\n\ncontract FinancieTicketStoreUpgrade is Owned {\n  address public ticketStoreFactory;\n\n  event TicketStoreUpgrade(address indexed _oldStore, address indexed _newStore);\n\n  event TicketStoreOwned(address indexed _oldStore, address indexed __owner);\n\n  constructor(address _ticketStoreFactory) public {\n    ticketStoreFactory = _ticketStoreFactory;\n  }\n\n  function upgrade(IFinancieTicketStore _oldStore) public {\n    acceptConverterOwnership(_oldStore);\n    IFinancieTicketStore newStore = createTicketStore(_oldStore);\n    copyTicketSales(_oldStore, newStore);\n    transferTicketSaleBalances(_oldStore, newStore);\n\n    _oldStore.transferOwnership(msg.sender);\n    newStore.transferOwnership(msg.sender);\n\n    emit TicketStoreUpgrade(address(_oldStore), address(newStore));\n  }\n\n  function acceptConverterOwnership(IFinancieTicketStore _oldStore) private {\n      require(msg.sender == _oldStore.owner());\n      _oldStore.acceptOwnership();\n      emit TicketStoreOwned(_oldStore, this);\n  }\n\n  function createTicketStore(IFinancieTicketStore _oldStore) private returns(IFinancieTicketStore) {\n    FinancieNotifierDelegate notifierdelgate = FinancieNotifierDelegate(_oldStore);\n    IFinancieNotifier notifier = notifierdelgate.notifier();\n\n    FinancieCoreComponents core = FinancieCoreComponents(_oldStore);\n    IFinancieManagedContracts managedContracts = core.managedContracts();\n    IERC20Token platformtoken = core.platformToken();\n    IERC20Token etherToken = core.etherToken();\n\n    IFinancieTicketStoreFactory factory = IFinancieTicketStoreFactory(ticketStoreFactory);\n\n    address ticketStoreAdderess  = factory.createTicketStore(\n        notifier,\n        managedContracts,\n        platformtoken,\n        etherToken\n    );\n\n    IFinancieTicketStore ticketStore = IFinancieTicketStore(ticketStoreAdderess);\n    ticketStore.acceptOwnership();\n\n    return ticketStore;\n  }\n\n  function copyTicketSales(IFinancieTicketStore _oldStore, IFinancieTicketStore _newStore) private {\n    FinancieTicketStore oldStore = FinancieTicketStore(_oldStore);\n    FinancieTicketStore newStore = FinancieTicketStore(_newStore);\n\n    uint16 ticketSaleTokenCount = oldStore.ticketsaleTokenCount();\n\n    for (uint16 i = 0; i < ticketSaleTokenCount; i++) {\n      IERC20Token ticketaddress = oldStore.ticketsaleTokens(i);\n      IFinancieIssuerToken ticket = IFinancieIssuerToken(ticketaddress);\n      newStore.setTicketSale(ticketaddress,\n        oldStore.getTicketCurrency(ticketaddress),\n        oldStore.getTicketPrice(ticketaddress),\n        oldStore.getTicketStartAt(ticketaddress),\n        oldStore.getTicketEndAt(ticketaddress)\n        );\n    }\n  }\n\n  function transferTicketSaleBalances(IFinancieTicketStore _oldStore, IFinancieTicketStore _newStore) private {\n    FinancieTicketStore oldStore = FinancieTicketStore(_oldStore);\n    FinancieTicketStore newStore = FinancieTicketStore(_newStore);\n\n    uint16 ticketSaleTokenCount = oldStore.ticketsaleTokenCount();\n\n    for (uint16 i = 0; i < ticketSaleTokenCount; i++) {\n      address ticketaddress = oldStore.ticketsaleTokens(i);\n      IERC20Token tokenTicket = IERC20Token(ticketaddress);\n\n      uint256 amount = tokenTicket.balanceOf(_oldStore);\n      oldStore.approveTicket(ticketaddress, _newStore, amount);\n      newStore.transferTicket(ticketaddress, _oldStore, _newStore, amount);\n\n    }\n  }\n}\n",
  "sourcePath": "/Users/rudo/Documents/ichiba/submodules/contracts/solidity/contracts/Financie/FinancieTicketStoreUpgrade.sol",
  "compiler": {
    "name": "solc",
    "version": "0.4.24+commit.e67f0147.Emscripten.clang"
  },
  "schemaVersion": "2.0.1",
  "updatedAt": "2019-03-01T08:20:46.951Z"
}