{
  "contractName": "FinancieNotifier",
  "abi": [
    {
      "constant": false,
      "inputs": [],
      "name": "acceptOwnership",
      "outputs": [],
      "payable": false,
      "stateMutability": "nonpayable",
      "type": "function"
    },
    {
      "constant": true,
      "inputs": [],
      "name": "owner",
      "outputs": [
        {
          "name": "",
          "type": "address"
        }
      ],
      "payable": false,
      "stateMutability": "view",
      "type": "function"
    },
    {
      "constant": true,
      "inputs": [],
      "name": "managedContracts",
      "outputs": [
        {
          "name": "",
          "type": "address"
        }
      ],
      "payable": false,
      "stateMutability": "view",
      "type": "function"
    },
    {
      "constant": true,
      "inputs": [],
      "name": "etherToken",
      "outputs": [
        {
          "name": "",
          "type": "address"
        }
      ],
      "payable": false,
      "stateMutability": "view",
      "type": "function"
    },
    {
      "constant": true,
      "inputs": [],
      "name": "platformToken",
      "outputs": [
        {
          "name": "",
          "type": "address"
        }
      ],
      "payable": false,
      "stateMutability": "view",
      "type": "function"
    },
    {
      "constant": true,
      "inputs": [],
      "name": "newOwner",
      "outputs": [
        {
          "name": "",
          "type": "address"
        }
      ],
      "payable": false,
      "stateMutability": "view",
      "type": "function"
    },
    {
      "constant": false,
      "inputs": [
        {
          "name": "_newOwner",
          "type": "address"
        }
      ],
      "name": "transferOwnership",
      "outputs": [],
      "payable": false,
      "stateMutability": "nonpayable",
      "type": "function"
    },
    {
      "inputs": [
        {
          "name": "_managedContracts",
          "type": "address"
        },
        {
          "name": "_platformToken",
          "type": "address"
        },
        {
          "name": "_ether_token",
          "type": "address"
        }
      ],
      "payable": false,
      "stateMutability": "nonpayable",
      "type": "constructor"
    },
    {
      "payable": true,
      "stateMutability": "payable",
      "type": "fallback"
    },
    {
      "anonymous": false,
      "inputs": [
        {
          "indexed": true,
          "name": "_sender",
          "type": "address"
        },
        {
          "indexed": true,
          "name": "_userId",
          "type": "uint32"
        },
        {
          "indexed": false,
          "name": "_timestamp",
          "type": "uint256"
        }
      ],
      "name": "ActivateUser",
      "type": "event"
    },
    {
      "anonymous": false,
      "inputs": [
        {
          "indexed": true,
          "name": "_card",
          "type": "address"
        },
        {
          "indexed": false,
          "name": "_timestamp",
          "type": "uint256"
        }
      ],
      "name": "ApproveNewCards",
      "type": "event"
    },
    {
      "anonymous": false,
      "inputs": [
        {
          "indexed": true,
          "name": "_card",
          "type": "address"
        },
        {
          "indexed": true,
          "name": "_auction",
          "type": "address"
        },
        {
          "indexed": false,
          "name": "_timestamp",
          "type": "uint256"
        }
      ],
      "name": "CardAuctionFinalized",
      "type": "event"
    },
    {
      "anonymous": false,
      "inputs": [
        {
          "indexed": true,
          "name": "_card",
          "type": "address"
        },
        {
          "indexed": true,
          "name": "_bancor",
          "type": "address"
        },
        {
          "indexed": false,
          "name": "_timestamp",
          "type": "uint256"
        }
      ],
      "name": "ApproveNewBancor",
      "type": "event"
    },
    {
      "anonymous": false,
      "inputs": [
        {
          "indexed": true,
          "name": "_sender",
          "type": "address"
        },
        {
          "indexed": true,
          "name": "_target",
          "type": "address"
        },
        {
          "indexed": true,
          "name": "_eventType",
          "type": "uint8"
        },
        {
          "indexed": false,
          "name": "_from",
          "type": "address"
        },
        {
          "indexed": false,
          "name": "_to",
          "type": "address"
        },
        {
          "indexed": false,
          "name": "_paidAmount",
          "type": "uint256"
        },
        {
          "indexed": false,
          "name": "_receivedAmount",
          "type": "uint256"
        },
        {
          "indexed": false,
          "name": "_timestamp",
          "type": "uint256"
        }
      ],
      "name": "Log",
      "type": "event"
    },
    {
      "anonymous": false,
      "inputs": [
        {
          "indexed": true,
          "name": "_sender",
          "type": "address"
        },
        {
          "indexed": true,
          "name": "_address",
          "type": "address"
        },
        {
          "indexed": false,
          "name": "_timestamp",
          "type": "uint256"
        }
      ],
      "name": "AddOwnedCardList",
      "type": "event"
    },
    {
      "anonymous": false,
      "inputs": [
        {
          "indexed": true,
          "name": "_sender",
          "type": "address"
        },
        {
          "indexed": true,
          "name": "_ticket",
          "type": "address"
        },
        {
          "indexed": false,
          "name": "_timestamp",
          "type": "uint256"
        }
      ],
      "name": "AddOwnedTicketList",
      "type": "event"
    },
    {
      "anonymous": false,
      "inputs": [
        {
          "indexed": true,
          "name": "_sender",
          "type": "address"
        },
        {
          "indexed": true,
          "name": "_ticket",
          "type": "address"
        },
        {
          "indexed": false,
          "name": "_amount",
          "type": "uint256"
        },
        {
          "indexed": false,
          "name": "_timestamp",
          "type": "uint256"
        }
      ],
      "name": "AddPaidTicketList",
      "type": "event"
    },
    {
      "anonymous": false,
      "inputs": [
        {
          "indexed": true,
          "name": "_sender",
          "type": "address"
        },
        {
          "indexed": true,
          "name": "_from",
          "type": "address"
        },
        {
          "indexed": true,
          "name": "_to",
          "type": "address"
        },
        {
          "indexed": false,
          "name": "_amountFrom",
          "type": "uint256"
        },
        {
          "indexed": false,
          "name": "_amountTo",
          "type": "uint256"
        },
        {
          "indexed": false,
          "name": "_timestamp",
          "type": "uint256"
        }
      ],
      "name": "ConvertCards",
      "type": "event"
    },
    {
      "anonymous": false,
      "inputs": [
        {
          "indexed": true,
          "name": "_sender",
          "type": "address"
        },
        {
          "indexed": true,
          "name": "_to",
          "type": "address"
        },
        {
          "indexed": false,
          "name": "_amount",
          "type": "uint256"
        },
        {
          "indexed": false,
          "name": "_timestamp",
          "type": "uint256"
        }
      ],
      "name": "BidCards",
      "type": "event"
    },
    {
      "anonymous": false,
      "inputs": [
        {
          "indexed": true,
          "name": "_sender",
          "type": "address"
        },
        {
          "indexed": true,
          "name": "_to",
          "type": "address"
        },
        {
          "indexed": false,
          "name": "_bids",
          "type": "uint256"
        },
        {
          "indexed": false,
          "name": "_amount",
          "type": "uint256"
        },
        {
          "indexed": false,
          "name": "_timestamp",
          "type": "uint256"
        }
      ],
      "name": "WithdrawalCards",
      "type": "event"
    },
    {
      "anonymous": false,
      "inputs": [
        {
          "indexed": true,
          "name": "_sender",
          "type": "address"
        },
        {
          "indexed": true,
          "name": "_card",
          "type": "address"
        },
        {
          "indexed": false,
          "name": "_amount",
          "type": "uint256"
        },
        {
          "indexed": false,
          "name": "_timestamp",
          "type": "uint256"
        }
      ],
      "name": "BurnCards",
      "type": "event"
    },
    {
      "anonymous": false,
      "inputs": [
        {
          "indexed": true,
          "name": "_sender",
          "type": "address"
        },
        {
          "indexed": true,
          "name": "_ticket",
          "type": "address"
        },
        {
          "indexed": false,
          "name": "_amount",
          "type": "uint256"
        },
        {
          "indexed": false,
          "name": "_timestamp",
          "type": "uint256"
        }
      ],
      "name": "BurnTickets",
      "type": "event"
    },
    {
      "anonymous": false,
      "inputs": [
        {
          "indexed": false,
          "name": "_sender",
          "type": "address"
        },
        {
          "indexed": true,
          "name": "_target",
          "type": "address"
        },
        {
          "indexed": true,
          "name": "_card",
          "type": "address"
        },
        {
          "indexed": true,
          "name": "_receiver",
          "type": "uint32"
        },
        {
          "indexed": false,
          "name": "_amount",
          "type": "uint256"
        },
        {
          "indexed": false,
          "name": "_timestamp",
          "type": "uint256"
        }
      ],
      "name": "AuctionHeroRevenue",
      "type": "event"
    },
    {
      "anonymous": false,
      "inputs": [
        {
          "indexed": false,
          "name": "_sender",
          "type": "address"
        },
        {
          "indexed": true,
          "name": "_target",
          "type": "address"
        },
        {
          "indexed": true,
          "name": "_card",
          "type": "address"
        },
        {
          "indexed": false,
          "name": "_amount",
          "type": "uint256"
        },
        {
          "indexed": false,
          "name": "_timestamp",
          "type": "uint256"
        }
      ],
      "name": "AuctionTeamRevenue",
      "type": "event"
    },
    {
      "anonymous": false,
      "inputs": [
        {
          "indexed": false,
          "name": "_sender",
          "type": "address"
        },
        {
          "indexed": true,
          "name": "_target",
          "type": "address"
        },
        {
          "indexed": true,
          "name": "_card",
          "type": "address"
        },
        {
          "indexed": true,
          "name": "_receiver",
          "type": "uint32"
        },
        {
          "indexed": false,
          "name": "_amount",
          "type": "uint256"
        },
        {
          "indexed": false,
          "name": "_timestamp",
          "type": "uint256"
        }
      ],
      "name": "ExchangeHeroRevenue",
      "type": "event"
    },
    {
      "anonymous": false,
      "inputs": [
        {
          "indexed": false,
          "name": "_sender",
          "type": "address"
        },
        {
          "indexed": true,
          "name": "_target",
          "type": "address"
        },
        {
          "indexed": true,
          "name": "_card",
          "type": "address"
        },
        {
          "indexed": false,
          "name": "_amount",
          "type": "uint256"
        },
        {
          "indexed": false,
          "name": "_timestamp",
          "type": "uint256"
        }
      ],
      "name": "ExchangeTeamRevenue",
      "type": "event"
    },
    {
      "anonymous": false,
      "inputs": [
        {
          "indexed": true,
          "name": "_prevOwner",
          "type": "address"
        },
        {
          "indexed": true,
          "name": "_newOwner",
          "type": "address"
        }
      ],
      "name": "OwnerUpdate",
      "type": "event"
    },
    {
      "constant": false,
      "inputs": [
        {
          "name": "_latest",
          "type": "address"
        }
      ],
      "name": "setLatestNotifier",
      "outputs": [],
      "payable": false,
      "stateMutability": "nonpayable",
      "type": "function"
    },
    {
      "constant": false,
      "inputs": [],
      "name": "latestNotifier",
      "outputs": [
        {
          "name": "",
          "type": "address"
        }
      ],
      "payable": false,
      "stateMutability": "nonpayable",
      "type": "function"
    },
    {
      "constant": false,
      "inputs": [
        {
          "name": "_userId",
          "type": "uint32"
        }
      ],
      "name": "activateUser",
      "outputs": [],
      "payable": false,
      "stateMutability": "nonpayable",
      "type": "function"
    },
    {
      "constant": false,
      "inputs": [
        {
          "name": "_card",
          "type": "address"
        }
      ],
      "name": "notifyApproveNewCards",
      "outputs": [],
      "payable": false,
      "stateMutability": "nonpayable",
      "type": "function"
    },
    {
      "constant": false,
      "inputs": [
        {
          "name": "_card",
          "type": "address"
        },
        {
          "name": "_auction",
          "type": "address"
        }
      ],
      "name": "notifyCardAuctionFinalized",
      "outputs": [],
      "payable": false,
      "stateMutability": "nonpayable",
      "type": "function"
    },
    {
      "constant": false,
      "inputs": [
        {
          "name": "_card",
          "type": "address"
        },
        {
          "name": "_bancor",
          "type": "address"
        }
      ],
      "name": "notifyApproveNewBancor",
      "outputs": [],
      "payable": false,
      "stateMutability": "nonpayable",
      "type": "function"
    },
    {
      "constant": false,
      "inputs": [
        {
          "name": "_sender",
          "type": "address"
        },
        {
          "name": "_card",
          "type": "address"
        },
        {
          "name": "_ticket",
          "type": "address"
        },
        {
          "name": "_price",
          "type": "uint256"
        },
        {
          "name": "_amount",
          "type": "uint256"
        }
      ],
      "name": "notifyPurchaseTickets",
      "outputs": [],
      "payable": false,
      "stateMutability": "nonpayable",
      "type": "function"
    },
    {
      "constant": false,
      "inputs": [
        {
          "name": "_sender",
          "type": "address"
        },
        {
          "name": "_amount",
          "type": "uint256"
        }
      ],
      "name": "notifyBurnTickets",
      "outputs": [],
      "payable": false,
      "stateMutability": "nonpayable",
      "type": "function"
    },
    {
      "constant": false,
      "inputs": [
        {
          "name": "_sender",
          "type": "address"
        },
        {
          "name": "_from",
          "type": "address"
        },
        {
          "name": "_to",
          "type": "address"
        },
        {
          "name": "_amountFrom",
          "type": "uint256"
        },
        {
          "name": "_amountTo",
          "type": "uint256"
        }
      ],
      "name": "notifyConvertCards",
      "outputs": [],
      "payable": false,
      "stateMutability": "nonpayable",
      "type": "function"
    },
    {
      "constant": false,
      "inputs": [
        {
          "name": "_sender",
          "type": "address"
        },
        {
          "name": "_to",
          "type": "address"
        },
        {
          "name": "_amount",
          "type": "uint256"
        }
      ],
      "name": "notifyBidCards",
      "outputs": [],
      "payable": false,
      "stateMutability": "nonpayable",
      "type": "function"
    },
    {
      "constant": false,
      "inputs": [
        {
          "name": "_sender",
          "type": "address"
        },
        {
          "name": "_to",
          "type": "address"
        },
        {
          "name": "_bids",
          "type": "uint256"
        },
        {
          "name": "_amount",
          "type": "uint256"
        }
      ],
      "name": "notifyWithdrawalCards",
      "outputs": [],
      "payable": false,
      "stateMutability": "nonpayable",
      "type": "function"
    },
    {
      "constant": false,
      "inputs": [
        {
          "name": "_sender",
          "type": "address"
        },
        {
          "name": "_amount",
          "type": "uint256"
        }
      ],
      "name": "notifyBurnCards",
      "outputs": [],
      "payable": false,
      "stateMutability": "nonpayable",
      "type": "function"
    },
    {
      "constant": false,
      "inputs": [
        {
          "name": "_sender",
          "type": "address"
        },
        {
          "name": "_target",
          "type": "address"
        },
        {
          "name": "_card",
          "type": "address"
        },
        {
          "name": "_hero",
          "type": "uint32"
        },
        {
          "name": "_hero_amount",
          "type": "uint256"
        },
        {
          "name": "_team_amount",
          "type": "uint256"
        }
      ],
      "name": "notifyAuctionRevenue",
      "outputs": [],
      "payable": false,
      "stateMutability": "nonpayable",
      "type": "function"
    },
    {
      "constant": false,
      "inputs": [
        {
          "name": "_sender",
          "type": "address"
        },
        {
          "name": "_target",
          "type": "address"
        },
        {
          "name": "_card",
          "type": "address"
        },
        {
          "name": "_hero",
          "type": "uint32"
        },
        {
          "name": "_hero_amount",
          "type": "uint256"
        },
        {
          "name": "_team_amount",
          "type": "uint256"
        }
      ],
      "name": "notifyExchangeRevenue",
      "outputs": [],
      "payable": false,
      "stateMutability": "nonpayable",
      "type": "function"
    }
  ],
  "bytecode": "0x608060405234801561001057600080fd5b5060405160608061171e8339810160409081528151602083015191909201516000805433600160a060020a0319918216178255600280548216600160a060020a0396871617905560038054821694861694909417909355600480548416949092169390931790556005805430921691909117905561168a90819061009490396000f3006080604052600436106101035763ffffffff60e060020a60003504166304d92e8c811461010857806319a4bef41461012e5780632d00e244146101555780633bce6426146101795780633c6a912f1461019a57806349747f2f146101c157806350c42901146101ee5780635b62fabf1461020f578063621a0a25146102425780636b6e11eb1461027e5780636f7798c91461029c57806379ba5097146102cd57806383505556146102e25780638da5cb5b1461030c57806397ff1f9614610321578063a90b56f014610336578063b8066bcb14610372578063c2999e1c14610387578063d1b812cd146103ba578063d4ee1d90146103cf578063f2fde38b146103e4575b600080fd5b34801561011457600080fd5b5061012c600160a060020a0360043516602435610405565b005b34801561013a57600080fd5b5061012c600160a060020a0360043581169060243516610590565b34801561016157600080fd5b5061012c600160a060020a036004351660243561068e565b34801561018557600080fd5b5061012c600160a060020a03600435166107c9565b3480156101a657600080fd5b5061012c600160a060020a03600435811690602435166108ba565b3480156101cd57600080fd5b5061012c600160a060020a03600435811690602435166044356064356109b8565b3480156101fa57600080fd5b5061012c600160a060020a0360043516610b56565b34801561021b57600080fd5b5061012c600160a060020a0360043581169060243581169060443516606435608435610c34565b34801561024e57600080fd5b5061012c600160a060020a036004358116906024358116906044351663ffffffff6064351660843560a435610d83565b34801561028a57600080fd5b5061012c63ffffffff60043516610ee4565b3480156102a857600080fd5b506102b1610f39565b60408051600160a060020a039092168252519081900360200190f35b3480156102d957600080fd5b5061012c611045565b3480156102ee57600080fd5b5061012c600160a060020a03600435811690602435166044356110cd565b34801561031857600080fd5b506102b1611225565b34801561032d57600080fd5b506102b1611234565b34801561034257600080fd5b5061012c600160a060020a036004358116906024358116906044351663ffffffff6064351660843560a435611243565b34801561037e57600080fd5b506102b16113a4565b34801561039357600080fd5b5061012c600160a060020a03600435811690602435811690604435166064356084356113b3565b3480156103c657600080fd5b506102b16115bf565b3480156103db57600080fd5b506102b16115ce565b3480156103f057600080fd5b5061012c600160a060020a03600435166115dd565b600054600160a060020a03163314806104ac57506000809054906101000a9004600160a060020a0316600160a060020a031633600160a060020a0316638da5cb5b6040518163ffffffff1660e060020a028152600401602060405180830381600087803b15801561047557600080fd5b505af1158015610489573d6000803e3d6000fd5b505050506040513d602081101561049f57600080fd5b5051600160a060020a0316145b15156104b457fe5b6040805182815242602082015281513392600160a060020a038616927ffac6038885c6a8c44b6c14f2b0e0075431a5123cdd8f8a04efcf0595bf23321b929081900390910190a36006604080513380825260006020830181905282840186905260608301524260808301529151600160a060020a0386169160008051602061163f833981519152919081900360a00190a46040805182815242602082015281513392600160a060020a038616927f5b8878e7ece9cc0f709ecb7aab49f15ca2e75705dbdc209c38c18d9c510fa577929081900390910190a35050565b600054600160a060020a031633148061063757506000809054906101000a9004600160a060020a0316600160a060020a031633600160a060020a0316638da5cb5b6040518163ffffffff1660e060020a028152600401602060405180830381600087803b15801561060057600080fd5b505af1158015610614573d6000803e3d6000fd5b505050506040513d602081101561062a57600080fd5b5051600160a060020a0316145b151561063f57fe5b80600160a060020a031682600160a060020a03167f24070acad5706e498a5871c674315745bf49d8791cb1ad430ac2c1611004739c426040518082815260200191505060405180910390a35050565b600054600160a060020a031633148061073557506000809054906101000a9004600160a060020a0316600160a060020a031633600160a060020a0316638da5cb5b6040518163ffffffff1660e060020a028152600401602060405180830381600087803b1580156106fe57600080fd5b505af1158015610712573d6000803e3d6000fd5b505050506040513d602081101561072857600080fd5b5051600160a060020a0316145b151561073d57fe5b6004604080513380825260006020830181905282840186905260608301524260808301529151600160a060020a0386169160008051602061163f833981519152919081900360a00190a4604080518281524260208201528151339283927f4a9b55c94be3e5af6b29b011401bff1f663ea6421d5ed69df65ff4d99d4105f4929081900390910190a35050565b600054600160a060020a031633148061087057506000809054906101000a9004600160a060020a0316600160a060020a031633600160a060020a0316638da5cb5b6040518163ffffffff1660e060020a028152600401602060405180830381600087803b15801561083957600080fd5b505af115801561084d573d6000803e3d6000fd5b505050506040513d602081101561086357600080fd5b5051600160a060020a0316145b151561087857fe5b604080514281529051600160a060020a038316917f438201a67963588e7c6102e5cb79340252c251fab808179f472ff1a10e57e832919081900360200190a250565b600054600160a060020a031633148061096157506000809054906101000a9004600160a060020a0316600160a060020a031633600160a060020a0316638da5cb5b6040518163ffffffff1660e060020a028152600401602060405180830381600087803b15801561092a57600080fd5b505af115801561093e573d6000803e3d6000fd5b505050506040513d602081101561095457600080fd5b5051600160a060020a0316145b151561096957fe5b80600160a060020a031682600160a060020a03167f1ac735972caed6fc3f1ea2ba0e6077ead7eb5efc81470f7b10ca5369b1fe205d426040518082815260200191505060405180910390a35050565b600054600160a060020a0316331480610a5f57506000809054906101000a9004600160a060020a0316600160a060020a031633600160a060020a0316638da5cb5b6040518163ffffffff1660e060020a028152600401602060405180830381600087803b158015610a2857600080fd5b505af1158015610a3c573d6000803e3d6000fd5b505050506040513d6020811015610a5257600080fd5b5051600160a060020a0316145b1515610a6757fe5b82600160a060020a031684600160a060020a03167f72fa5a1a4dfe5bacf961e2fd3007900e40cc0f1d49ba142ba2f27f75b6863ce1426040518082815260200191505060405180910390a36001604080516000808252600160a060020a03878116602084015282840191909152606082018590524260808301529151339288169160008051602061163f833981519152919081900360a00190a4604080518381526020810183905242818301529051600160a060020a0380861692908716917f3438d9dea42d6842278127a31ddfb5d948b29697a3f01d04dbc0fbeae82b6d399181900360600190a350505050565b600054600160a060020a0316331480610bfd57506000809054906101000a9004600160a060020a0316600160a060020a031633600160a060020a0316638da5cb5b6040518163ffffffff1660e060020a028152600401602060405180830381600087803b158015610bc657600080fd5b505af1158015610bda573d6000803e3d6000fd5b505050506040513d6020811015610bf057600080fd5b5051600160a060020a0316145b1515610c0557fe5b6005805473ffffffffffffffffffffffffffffffffffffffff1916600160a060020a0392909216919091179055565b600054600160a060020a0316331480610cdb57506000809054906101000a9004600160a060020a0316600160a060020a031633600160a060020a0316638da5cb5b6040518163ffffffff1660e060020a028152600401602060405180830381600087803b158015610ca457600080fd5b505af1158015610cb8573d6000803e3d6000fd5b505050506040513d6020811015610cce57600080fd5b5051600160a060020a0316145b1515610ce357fe5b82600160a060020a031685600160a060020a03167f22936d8cc55a3447ca6c46527656cf58fa06bba0d22038d056fe75aac896bd61426040518082815260200191505060405180910390a3600560408051600160a060020a0387811682528681166020830152818301869052606082018590524260808301529151339289169160008051602061163f833981519152919081900360a00190a45050505050565b600054600160a060020a0316331480610e2a57506000809054906101000a9004600160a060020a0316600160a060020a031633600160a060020a0316638da5cb5b6040518163ffffffff1660e060020a028152600401602060405180830381600087803b158015610df357600080fd5b505af1158015610e07573d6000803e3d6000fd5b505050506040513d6020811015610e1d57600080fd5b5051600160a060020a0316145b1515610e3257fe5b60408051600160a060020a038881168252602082018590524282840152915163ffffffff86169280881692908916917fb77589a28adc4657906bccbd9fbbfb877a8276deb028f4fa2c5516c006c697d79181900360600190a460408051600160a060020a0388811682526020820184905242828401529151828716928816917f3a014b840eb98c4f059e1d2a6b7fae789041e1f71063212a49ed84bc909893e9919081900360600190a3505050505050565b63ffffffff811660008111610ef857600080fd5b60408051428152905163ffffffff84169133917f940b527e9587870cd8c079f5239003273f081e12706fcaf790e79c0950a3152f9181900360200190a35050565b6005546000908190600160a060020a0316301415610f6457600554600160a060020a03169150611041565b600560009054906101000a9004600160a060020a0316600160a060020a0316636f7798c96040518163ffffffff1660e060020a028152600401602060405180830381600087803b158015610fb757600080fd5b505af1158015610fcb573d6000803e3d6000fd5b505050506040513d6020811015610fe157600080fd5b5051600554909150600160a060020a038083169116141561100f57600554600160a060020a03169150611041565b6005805473ffffffffffffffffffffffffffffffffffffffff1916600160a060020a0383811691909117918290551691505b5090565b600154600160a060020a0316331461105c57600080fd5b60015460008054604051600160a060020a0393841693909116917f343765429aea5a34b3ff6a3785a98a5abb2597aca87bfbb58632c173d585373a91a3600180546000805473ffffffffffffffffffffffffffffffffffffffff19908116600160a060020a03841617909155169055565b600054600160a060020a031633148061117457506000809054906101000a9004600160a060020a0316600160a060020a031633600160a060020a0316638da5cb5b6040518163ffffffff1660e060020a028152600401602060405180830381600087803b15801561113d57600080fd5b505af1158015611151573d6000803e3d6000fd5b505050506040513d602081101561116757600080fd5b5051600160a060020a0316145b151561117c57fe5b600060045460408051600160a060020a0392831681528583166020820152808201859052600060608201524260808201529051339287169160008051602061163f833981519152919081900360a00190a481600160a060020a031683600160a060020a03167f3837fb0972ad0d0915a4e8dd87ad5509f99a7d58bb49f7c2eec58184294fbbdb8342604051808381526020018281526020019250505060405180910390a3505050565b600054600160a060020a031681565b600254600160a060020a031681565b600054600160a060020a03163314806112ea57506000809054906101000a9004600160a060020a0316600160a060020a031633600160a060020a0316638da5cb5b6040518163ffffffff1660e060020a028152600401602060405180830381600087803b1580156112b357600080fd5b505af11580156112c7573d6000803e3d6000fd5b505050506040513d60208110156112dd57600080fd5b5051600160a060020a0316145b15156112f257fe5b60408051600160a060020a038881168252602082018590524282840152915163ffffffff86169280881692908916917f7d646745ea8ed2db7919687e4a986ac743da822b5775784565544d50f34c23db9181900360600190a460408051600160a060020a0388811682526020820184905242828401529151828716928816917f38e6fd5184a95c3cb46111c47c4c5e0468b9b05c522e5f3be35e51fddf9cd729919081900360600190a3505050505050565b600454600160a060020a031681565b600054600160a060020a031633148061145a57506000809054906101000a9004600160a060020a0316600160a060020a031633600160a060020a0316638da5cb5b6040518163ffffffff1660e060020a028152600401602060405180830381600087803b15801561142357600080fd5b505af1158015611437573d6000803e3d6000fd5b505050506040513d602081101561144d57600080fd5b5051600160a060020a0316145b151561146257fe5b600454600160a060020a03848116911614156114cb57600260408051600160a060020a0387811682528681166020830152818301869052606082018590524260808301529151339289169160008051602061163f833981519152919081900360a00190a4611565565b600360408051600160a060020a0387811682528681166020830152818301869052606082018590524260808301529151339289169160008051602061163f833981519152919081900360a00190a482600160a060020a031685600160a060020a03167f72fa5a1a4dfe5bacf961e2fd3007900e40cc0f1d49ba142ba2f27f75b6863ce1426040518082815260200191505060405180910390a35b604080518381526020810183905242818301529051600160a060020a038086169287821692918916917f6e8d1614edaf87565f4fcec53c32a1b407b0b48aecf46d16ffddf38a8c6d73d39181900360600190a45050505050565b600354600160a060020a031681565b600154600160a060020a031681565b600054600160a060020a031633146115f457600080fd5b600054600160a060020a038281169116141561160f57600080fd5b6001805473ffffffffffffffffffffffffffffffffffffffff1916600160a060020a039290921691909117905556004464fd77e8f8e4455a3b2fd053826a0c858cd89d6c2edeae8cfaf341123d741da165627a7a7230582015574d9fc80aed31d985322b07c301e7b54259c10c4a52f3dda6e15c18d718380029",
  "source": "pragma solidity ^0.4.18;\nimport './IFinancieNotifier.sol';\nimport './FinancieCoreComponents.sol';\nimport '../utility/Utils.sol';\n\ncontract FinancieNotifier is IFinancieNotifier, FinancieCoreComponents, Utils {\n    address latest;\n\n    event ActivateUser(address indexed _sender, uint32 indexed _userId, uint _timestamp);\n\n    event ApproveNewCards(address indexed _card, uint _timestamp);\n    event CardAuctionFinalized(address indexed _card, address indexed _auction, uint _timestamp);\n    event ApproveNewBancor(address indexed _card, address indexed _bancor, uint _timestamp);\n\n    event Log(address indexed _sender, address indexed _target, EventType indexed _eventType, address _from, address _to, uint256 _paidAmount, uint256 _receivedAmount, uint _timestamp);\n\n    event AddOwnedCardList(address indexed _sender, address indexed _address, uint _timestamp);\n    event AddOwnedTicketList(address indexed _sender, address indexed _ticket, uint _timestamp);\n    event AddPaidTicketList(address indexed _sender, address indexed _ticket, uint256 _amount, uint _timestamp);\n\n    event ConvertCards(address indexed _sender, address indexed _from, address indexed _to, uint256 _amountFrom, uint256 _amountTo, uint _timestamp);\n    event BidCards(address indexed _sender, address indexed _to, uint256 _amount, uint _timestamp);\n    event WithdrawalCards(address indexed _sender, address indexed _to, uint256 _bids, uint256 _amount, uint _timestamp);\n    event BurnCards(address indexed _sender, address indexed _card, uint256 _amount, uint _timestamp);\n\n    event BurnTickets(address indexed _sender, address indexed _ticket, uint256 _amount, uint _timestamp);\n\n    event AuctionHeroRevenue(address _sender, address indexed _target, address indexed _card, uint32 indexed _receiver, uint256 _amount, uint _timestamp);\n    event AuctionTeamRevenue(address _sender, address indexed _target, address indexed _card, uint256 _amount, uint _timestamp);\n    event ExchangeHeroRevenue(address _sender, address indexed _target, address indexed _card, uint32 indexed _receiver, uint256 _amount, uint _timestamp);\n    event ExchangeTeamRevenue(address _sender, address indexed _target, address indexed _card, uint256 _amount, uint _timestamp);\n\n    constructor(address _managedContracts, address _platformToken, address _ether_token)\n        public\n        FinancieCoreComponents(_managedContracts, _platformToken, _ether_token)\n    {\n        latest = address(this);\n    }\n\n    modifier sameOwner {\n        assert(msg.sender == owner || IOwned(msg.sender).owner() == owner);\n        _;\n    }\n\n    /**\n    *   @notice Set latest notifier\n    */\n    function setLatestNotifier(address _latest)\n        public\n        sameOwner\n    {\n        latest = _latest;\n    }\n\n    /**\n    *   @notice returns latest notifier and update itself if expired\n    */\n    function latestNotifier()\n        public\n        returns (address)\n    {\n        // this contract is latest\n        if ( latest == address(this) ) {\n            return latest;\n        }\n\n        // up to date?\n        address _latest = IFinancieNotifier(latest).latestNotifier();\n        if ( latest == _latest ) {\n            return latest;\n        }\n\n        // update and return\n        latest = _latest;\n        return latest;\n    }\n\n    /**\n    *   @notice To prevent receiving ether\n    */\n    function() payable public {\n        revert();\n    }\n\n    /**\n    *\n    */\n    function activateUser(uint32 _userId)\n        public\n        greaterThanZero(_userId)\n    {\n        emit ActivateUser(msg.sender, _userId, now);\n    }\n\n    /**\n    *\n    */\n    function notifyApproveNewCards(address _card)\n        public\n        sameOwner\n    {\n        emit ApproveNewCards(_card, now);\n    }\n\n    /**\n    *\n    */\n    function notifyCardAuctionFinalized(address _card, address _auction)\n        public\n        sameOwner\n    {\n        emit CardAuctionFinalized(_card, _auction, now);\n    }\n\n    /**\n    *\n    */\n    function notifyApproveNewBancor(address _card, address _bancor)\n        public\n        sameOwner\n    {\n        emit ApproveNewBancor(_card, _bancor, now);\n    }\n\n    /**\n    *   @notice log the purchase of ticket\n    */\n    function notifyPurchaseTickets(address _sender, address _card, address _ticket, uint256 _price, uint256 _amount)\n        public\n        sameOwner\n    {\n        emit AddOwnedTicketList(_sender, _ticket, now);\n\n        emit Log(\n          _sender,\n          msg.sender,\n          EventType.BuyTicket,\n          _card,\n          _ticket,\n          _price,\n          _amount,\n          now);\n    }\n\n    /**\n    *   @notice log the burn of tickets\n    */\n    function notifyBurnTickets(address _sender, uint256 _amount)\n        public\n        sameOwner\n    {\n        emit AddPaidTicketList(_sender, msg.sender, _amount, now);\n\n        emit Log(\n          _sender,\n          msg.sender,\n          EventType.BurnTicket,\n          msg.sender,\n          0x0,\n          _amount,\n          0,\n          now);\n\n        emit BurnTickets(_sender, msg.sender, _amount, now);\n    }\n\n    function notifyConvertCards(\n        address _sender,\n        address _from,\n        address _to,\n        uint256 _amountFrom,\n        uint256 _amountTo)\n        public\n        sameOwner\n    {\n        if ( _to == address(etherToken) ) {\n            emit Log(\n              _sender,\n              msg.sender,\n              EventType.SellCards,\n              _from,\n              _to,\n              _amountFrom,\n              _amountTo,\n              now);\n        } else {\n            emit Log(\n              _sender,\n              msg.sender,\n              EventType.BuyCards,\n              _from,\n              _to,\n              _amountFrom,\n              _amountTo,\n              now);\n            emit AddOwnedCardList(_sender, _to, now);\n        }\n        emit ConvertCards(_sender, _from, _to, _amountFrom, _amountTo, now);\n    }\n\n    /**\n    *   @notice log the bid of cards for sales contract\n    */\n    function notifyBidCards(address _sender, address _to, uint256 _amount)\n        public\n        sameOwner\n    {\n        emit Log(\n          _sender,\n          msg.sender,\n          EventType.BidCards,\n          etherToken,\n          _to,\n          _amount,\n          0,\n          now);\n\n        emit BidCards(_sender, _to, _amount, now);\n    }\n\n    /**\n    *   @notice log the withdrawal of cards from sales contract\n    */\n    function notifyWithdrawalCards(address _sender, address _to, uint256 _bids, uint256 _amount)\n        public\n        sameOwner\n    {\n        emit AddOwnedCardList(_sender, _to, now);\n\n        emit Log(\n          _sender,\n          msg.sender,\n          EventType.WithdrawCards,\n          0x0,\n          _to,\n          0,\n          _amount,\n          now);\n\n        emit WithdrawalCards(_sender, _to, _bids, _amount, now);\n    }\n\n    /**\n    *   @notice log the burn of cards\n    */\n    function notifyBurnCards(address _sender, uint256 _amount)\n        public\n        sameOwner\n    {\n        emit Log(\n          _sender,\n          msg.sender,\n          EventType.BurnCards,\n          msg.sender,\n          0x0,\n          _amount,\n          0,\n          now);\n\n        emit BurnCards(msg.sender, msg.sender, _amount, now);\n    }\n\n    /**\n    *   @notice log the revenue of auction\n    */\n    function notifyAuctionRevenue(\n        address _sender,\n        address _target,\n        address _card,\n        uint32  _hero,\n        uint256 _hero_amount,\n        uint256 _team_amount)\n        public\n        sameOwner\n    {\n        emit AuctionHeroRevenue(_sender, _target, _card, _hero, _hero_amount, now);\n        emit AuctionTeamRevenue(_sender, _target, _card, _team_amount, now);\n    }\n\n    /**\n    *   @notice log the revenue of exchange\n    */\n    function notifyExchangeRevenue(\n        address _sender,\n        address _target,\n        address _card,\n        uint32  _hero,\n        uint256 _hero_amount,\n        uint256 _team_amount)\n        public\n        sameOwner\n    {\n        emit ExchangeHeroRevenue(_sender, _target, _card, _hero, _hero_amount, now);\n        emit ExchangeTeamRevenue(_sender, _target, _card, _team_amount, now);\n    }\n\n}\n",
  "sourcePath": "/Users/rudo/Documents/ichiba/submodules/contracts/solidity/contracts/Financie/FinancieNotifier.sol",
  "compiler": {
    "name": "solc",
    "version": "0.4.24+commit.e67f0147.Emscripten.clang"
  },
  "schemaVersion": "2.0.1",
  "updatedAt": "2019-03-01T08:20:46.946Z"
}