{
  "contractName": "FinancieManagedContracts",
  "abi": [
    {
      "constant": false,
      "inputs": [],
      "name": "acceptOwnership",
      "outputs": [],
      "payable": false,
      "stateMutability": "nonpayable",
      "type": "function"
    },
    {
      "constant": true,
      "inputs": [],
      "name": "owner",
      "outputs": [
        {
          "name": "",
          "type": "address"
        }
      ],
      "payable": false,
      "stateMutability": "view",
      "type": "function"
    },
    {
      "constant": true,
      "inputs": [],
      "name": "newOwner",
      "outputs": [
        {
          "name": "",
          "type": "address"
        }
      ],
      "payable": false,
      "stateMutability": "view",
      "type": "function"
    },
    {
      "constant": false,
      "inputs": [
        {
          "name": "_newOwner",
          "type": "address"
        }
      ],
      "name": "transferOwnership",
      "outputs": [],
      "payable": false,
      "stateMutability": "nonpayable",
      "type": "function"
    },
    {
      "inputs": [],
      "payable": false,
      "stateMutability": "nonpayable",
      "type": "constructor"
    },
    {
      "anonymous": false,
      "inputs": [
        {
          "indexed": true,
          "name": "_prevOwner",
          "type": "address"
        },
        {
          "indexed": true,
          "name": "_newOwner",
          "type": "address"
        }
      ],
      "name": "OwnerUpdate",
      "type": "event"
    },
    {
      "constant": true,
      "inputs": [
        {
          "name": "_contract",
          "type": "address"
        }
      ],
      "name": "validTargetContract",
      "outputs": [
        {
          "name": "",
          "type": "bool"
        }
      ],
      "payable": false,
      "stateMutability": "view",
      "type": "function"
    },
    {
      "constant": false,
      "inputs": [
        {
          "name": "_contract",
          "type": "address"
        },
        {
          "name": "_enabled",
          "type": "bool"
        }
      ],
      "name": "activateTargetContract",
      "outputs": [],
      "payable": false,
      "stateMutability": "nonpayable",
      "type": "function"
    }
  ],
  "bytecode": "0x608060405234801561001057600080fd5b5060008054600160a060020a031916331790556102ff806100326000396000f3006080604052600436106100775763ffffffff7c010000000000000000000000000000000000000000000000000000000060003504166333920503811461007c57806379ba5097146100b15780638322ada6146100c85780638da5cb5b146100ee578063d4ee1d901461011f578063f2fde38b14610134575b600080fd5b34801561008857600080fd5b5061009d600160a060020a0360043516610155565b604080519115158252519081900360200190f35b3480156100bd57600080fd5b506100c6610173565b005b3480156100d457600080fd5b506100c6600160a060020a036004351660243515156101fb565b3480156100fa57600080fd5b50610103610254565b60408051600160a060020a039092168252519081900360200190f35b34801561012b57600080fd5b50610103610263565b34801561014057600080fd5b506100c6600160a060020a0360043516610272565b600160a060020a031660009081526002602052604090205460ff1690565b600154600160a060020a0316331461018a57600080fd5b60015460008054604051600160a060020a0393841693909116917f343765429aea5a34b3ff6a3785a98a5abb2597aca87bfbb58632c173d585373a91a3600180546000805473ffffffffffffffffffffffffffffffffffffffff19908116600160a060020a03841617909155169055565b600054600160a060020a0316331461021257600080fd5b81600160a060020a038116151561022857600080fd5b50600160a060020a03919091166000908152600260205260409020805460ff1916911515919091179055565b600054600160a060020a031681565b600154600160a060020a031681565b600054600160a060020a0316331461028957600080fd5b600054600160a060020a03828116911614156102a457600080fd5b6001805473ffffffffffffffffffffffffffffffffffffffff1916600160a060020a03929092169190911790555600a165627a7a72305820bef008a86c80cf332bbad9a6a22d3bdde33fe09eb032055b94e0d4cae8eb261a0029",
  "source": "pragma solidity ^0.4.18;\nimport './IFinancieManagedContracts.sol';\nimport '../utility/Utils.sol';\nimport '../utility/Owned.sol';\n\n/**\n    **FROZEN**\n    Financie contract management for white-listed contracts\n*/\ncontract FinancieManagedContracts is IFinancieManagedContracts, Owned, Utils {\n\n    // White-listed status of contracts\n    mapping (address => bool) targetContracts;\n\n    /**\n    *   @dev Constructor\n    */\n    constructor() public {\n    }\n\n    /**\n    *   @dev Check a contact is whether Financie 'Caller' or not\n    *   @return true if the contact is a Financie 'Caller'\n    */\n    function validTargetContract(address _contract) public view returns(bool) {\n        return targetContracts[_contract];\n    }\n\n    /**\n    *   @dev Allow/Disallow a contact as a Financie 'Caller'\n    *        For example, 'Caller' can call Financie notifier\n    *   @param _contract Contract address\n    *   @param _enabled True/False to allow/disallow contact as a Financie 'Caller'\n    */\n    function activateTargetContract(address _contract, bool _enabled)\n        public\n        ownerOnly\n        validAddress(_contract)\n    {\n        targetContracts[_contract] = _enabled;\n    }\n\n}\n",
  "sourcePath": "/Users/rudo/Documents/ichiba/submodules/contracts/solidity/contracts/Financie/FinancieManagedContracts.sol",
  "compiler": {
    "name": "solc",
    "version": "0.4.24+commit.e67f0147.Emscripten.clang"
  },
  "schemaVersion": "2.0.1",
  "updatedAt": "2019-03-01T08:20:46.946Z"
}