{
  "contractName": "FinancieInternalWallet",
  "abi": [
    {
      "constant": false,
      "inputs": [],
      "name": "acceptOwnership",
      "outputs": [],
      "payable": false,
      "stateMutability": "nonpayable",
      "type": "function"
    },
    {
      "constant": true,
      "inputs": [],
      "name": "owner",
      "outputs": [
        {
          "name": "",
          "type": "address"
        }
      ],
      "payable": false,
      "stateMutability": "view",
      "type": "function"
    },
    {
      "constant": true,
      "inputs": [],
      "name": "transactionFee",
      "outputs": [
        {
          "name": "",
          "type": "uint256"
        }
      ],
      "payable": false,
      "stateMutability": "view",
      "type": "function"
    },
    {
      "constant": true,
      "inputs": [],
      "name": "newOwner",
      "outputs": [
        {
          "name": "",
          "type": "address"
        }
      ],
      "payable": false,
      "stateMutability": "view",
      "type": "function"
    },
    {
      "constant": false,
      "inputs": [
        {
          "name": "_newOwner",
          "type": "address"
        }
      ],
      "name": "transferOwnership",
      "outputs": [],
      "payable": false,
      "stateMutability": "nonpayable",
      "type": "function"
    },
    {
      "inputs": [
        {
          "name": "_teamWallet",
          "type": "address"
        },
        {
          "name": "_paymentCurrencyToken",
          "type": "address"
        }
      ],
      "payable": false,
      "stateMutability": "nonpayable",
      "type": "constructor"
    },
    {
      "anonymous": false,
      "inputs": [
        {
          "indexed": true,
          "name": "_user_id",
          "type": "uint32"
        },
        {
          "indexed": false,
          "name": "_amount",
          "type": "uint256"
        },
        {
          "indexed": false,
          "name": "_timestamp",
          "type": "uint256"
        }
      ],
      "name": "TransactionFee",
      "type": "event"
    },
    {
      "anonymous": false,
      "inputs": [
        {
          "indexed": true,
          "name": "_user_id",
          "type": "uint32"
        },
        {
          "indexed": true,
          "name": "_address",
          "type": "address"
        },
        {
          "indexed": false,
          "name": "_timestamp",
          "type": "uint256"
        }
      ],
      "name": "AddOwnedCardList",
      "type": "event"
    },
    {
      "anonymous": false,
      "inputs": [
        {
          "indexed": true,
          "name": "_user_id",
          "type": "uint32"
        },
        {
          "indexed": false,
          "name": "_amount",
          "type": "uint256"
        },
        {
          "indexed": true,
          "name": "_token_address",
          "type": "address"
        },
        {
          "indexed": false,
          "name": "_timestamp",
          "type": "uint256"
        }
      ],
      "name": "DepositTokens",
      "type": "event"
    },
    {
      "anonymous": false,
      "inputs": [
        {
          "indexed": true,
          "name": "_user_id",
          "type": "uint32"
        },
        {
          "indexed": false,
          "name": "_amount",
          "type": "uint256"
        },
        {
          "indexed": true,
          "name": "_token_address",
          "type": "address"
        },
        {
          "indexed": false,
          "name": "_timestamp",
          "type": "uint256"
        }
      ],
      "name": "WithdrawTokens",
      "type": "event"
    },
    {
      "anonymous": false,
      "inputs": [
        {
          "indexed": true,
          "name": "_user_id",
          "type": "uint32"
        },
        {
          "indexed": false,
          "name": "_amount",
          "type": "uint256"
        },
        {
          "indexed": false,
          "name": "_timestamp",
          "type": "uint256"
        }
      ],
      "name": "DepositConsumableCurrencyTokens",
      "type": "event"
    },
    {
      "anonymous": false,
      "inputs": [
        {
          "indexed": true,
          "name": "_user_id",
          "type": "uint32"
        },
        {
          "indexed": false,
          "name": "_amount",
          "type": "uint256"
        },
        {
          "indexed": false,
          "name": "_timestamp",
          "type": "uint256"
        }
      ],
      "name": "DepositWithdrawableCurrencyTokens",
      "type": "event"
    },
    {
      "anonymous": false,
      "inputs": [
        {
          "indexed": true,
          "name": "_user_id",
          "type": "uint32"
        },
        {
          "indexed": false,
          "name": "_amount",
          "type": "uint256"
        },
        {
          "indexed": false,
          "name": "_revenueType",
          "type": "uint32"
        },
        {
          "indexed": false,
          "name": "_timestamp",
          "type": "uint256"
        }
      ],
      "name": "DepositPendingRevenueCurrencyTokens",
      "type": "event"
    },
    {
      "anonymous": false,
      "inputs": [
        {
          "indexed": true,
          "name": "_user_id",
          "type": "uint32"
        },
        {
          "indexed": false,
          "name": "_amount",
          "type": "uint256"
        },
        {
          "indexed": false,
          "name": "_timestamp",
          "type": "uint256"
        }
      ],
      "name": "ConvertWithdrawableToCunsumableCurrencyTokens",
      "type": "event"
    },
    {
      "anonymous": false,
      "inputs": [
        {
          "indexed": true,
          "name": "_user_id",
          "type": "uint32"
        },
        {
          "indexed": false,
          "name": "_amount",
          "type": "uint256"
        },
        {
          "indexed": false,
          "name": "_timestamp",
          "type": "uint256"
        }
      ],
      "name": "WithdrawCurrencyTokens",
      "type": "event"
    },
    {
      "anonymous": false,
      "inputs": [
        {
          "indexed": true,
          "name": "_user_id",
          "type": "uint32"
        },
        {
          "indexed": false,
          "name": "_amount",
          "type": "uint256"
        },
        {
          "indexed": false,
          "name": "_revenueType",
          "type": "uint32"
        },
        {
          "indexed": false,
          "name": "_timestamp",
          "type": "uint256"
        }
      ],
      "name": "WithdrawPendingRevenueCurrencyTokens",
      "type": "event"
    },
    {
      "anonymous": false,
      "inputs": [
        {
          "indexed": true,
          "name": "_user_id",
          "type": "uint32"
        },
        {
          "indexed": false,
          "name": "_currency_amount",
          "type": "uint256"
        },
        {
          "indexed": false,
          "name": "_card_amount",
          "type": "uint256"
        },
        {
          "indexed": true,
          "name": "_token_address",
          "type": "address"
        },
        {
          "indexed": true,
          "name": "_bancor_address",
          "type": "address"
        },
        {
          "indexed": false,
          "name": "_trading_fee",
          "type": "uint256"
        },
        {
          "indexed": false,
          "name": "_transaction_fee",
          "type": "uint256"
        },
        {
          "indexed": false,
          "name": "_timestamp",
          "type": "uint256"
        }
      ],
      "name": "BuyCards",
      "type": "event"
    },
    {
      "anonymous": false,
      "inputs": [
        {
          "indexed": true,
          "name": "_user_id",
          "type": "uint32"
        },
        {
          "indexed": false,
          "name": "_currency_amount",
          "type": "uint256"
        },
        {
          "indexed": false,
          "name": "_card_amount",
          "type": "uint256"
        },
        {
          "indexed": true,
          "name": "_token_address",
          "type": "address"
        },
        {
          "indexed": true,
          "name": "_bancor_address",
          "type": "address"
        },
        {
          "indexed": false,
          "name": "_trading_fee",
          "type": "uint256"
        },
        {
          "indexed": false,
          "name": "_transaction_fee",
          "type": "uint256"
        },
        {
          "indexed": false,
          "name": "_timestamp",
          "type": "uint256"
        }
      ],
      "name": "SellCards",
      "type": "event"
    },
    {
      "anonymous": false,
      "inputs": [
        {
          "indexed": true,
          "name": "_user_id",
          "type": "uint32"
        },
        {
          "indexed": false,
          "name": "_amount",
          "type": "uint256"
        },
        {
          "indexed": true,
          "name": "_token_address",
          "type": "address"
        },
        {
          "indexed": true,
          "name": "_auction_address",
          "type": "address"
        },
        {
          "indexed": false,
          "name": "_trading_fee",
          "type": "uint256"
        },
        {
          "indexed": false,
          "name": "_transaction_fee",
          "type": "uint256"
        },
        {
          "indexed": false,
          "name": "_timestamp",
          "type": "uint256"
        }
      ],
      "name": "BidCards",
      "type": "event"
    },
    {
      "anonymous": false,
      "inputs": [
        {
          "indexed": true,
          "name": "_user_id",
          "type": "uint32"
        },
        {
          "indexed": false,
          "name": "_amount",
          "type": "uint256"
        },
        {
          "indexed": true,
          "name": "_token_address",
          "type": "address"
        },
        {
          "indexed": true,
          "name": "_auction_address",
          "type": "address"
        },
        {
          "indexed": false,
          "name": "_timestamp",
          "type": "uint256"
        }
      ],
      "name": "ReceiveCards",
      "type": "event"
    },
    {
      "anonymous": false,
      "inputs": [
        {
          "indexed": true,
          "name": "_prevOwner",
          "type": "address"
        },
        {
          "indexed": true,
          "name": "_newOwner",
          "type": "address"
        }
      ],
      "name": "OwnerUpdate",
      "type": "event"
    },
    {
      "constant": false,
      "inputs": [
        {
          "name": "_bank",
          "type": "address"
        }
      ],
      "name": "setInternalBank",
      "outputs": [],
      "payable": false,
      "stateMutability": "nonpayable",
      "type": "function"
    },
    {
      "constant": false,
      "inputs": [
        {
          "name": "_newOwner",
          "type": "address"
        }
      ],
      "name": "transferBnakOwnership",
      "outputs": [],
      "payable": false,
      "stateMutability": "nonpayable",
      "type": "function"
    },
    {
      "constant": false,
      "inputs": [
        {
          "name": "_amount",
          "type": "uint256"
        }
      ],
      "name": "setTransactionFee",
      "outputs": [],
      "payable": false,
      "stateMutability": "nonpayable",
      "type": "function"
    },
    {
      "constant": true,
      "inputs": [
        {
          "name": "_tokenAddress",
          "type": "address"
        },
        {
          "name": "_userId",
          "type": "uint32"
        }
      ],
      "name": "getBalanceOfToken",
      "outputs": [
        {
          "name": "",
          "type": "uint256"
        }
      ],
      "payable": false,
      "stateMutability": "view",
      "type": "function"
    },
    {
      "constant": true,
      "inputs": [
        {
          "name": "_userId",
          "type": "uint32"
        }
      ],
      "name": "getBalanceOfConsumableCurrencyToken",
      "outputs": [
        {
          "name": "",
          "type": "uint256"
        }
      ],
      "payable": false,
      "stateMutability": "view",
      "type": "function"
    },
    {
      "constant": true,
      "inputs": [
        {
          "name": "_userId",
          "type": "uint32"
        }
      ],
      "name": "getBalanceOfWithdrawableCurrencyToken",
      "outputs": [
        {
          "name": "",
          "type": "uint256"
        }
      ],
      "payable": false,
      "stateMutability": "view",
      "type": "function"
    },
    {
      "constant": true,
      "inputs": [
        {
          "name": "_userId",
          "type": "uint32"
        },
        {
          "name": "_revenueType",
          "type": "uint32"
        }
      ],
      "name": "getBalanceOfPendingRevenueCurrencyToken",
      "outputs": [
        {
          "name": "",
          "type": "uint256"
        }
      ],
      "payable": false,
      "stateMutability": "view",
      "type": "function"
    },
    {
      "constant": false,
      "inputs": [
        {
          "name": "_userId",
          "type": "uint32"
        },
        {
          "name": "_amount",
          "type": "uint256"
        },
        {
          "name": "_tokenAddress",
          "type": "address"
        }
      ],
      "name": "depositTokens",
      "outputs": [],
      "payable": false,
      "stateMutability": "nonpayable",
      "type": "function"
    },
    {
      "constant": false,
      "inputs": [
        {
          "name": "_userId",
          "type": "uint32"
        },
        {
          "name": "_amount",
          "type": "uint256"
        }
      ],
      "name": "depositConsumableCurrencyTokens",
      "outputs": [],
      "payable": false,
      "stateMutability": "nonpayable",
      "type": "function"
    },
    {
      "constant": false,
      "inputs": [
        {
          "name": "_userId",
          "type": "uint32"
        },
        {
          "name": "_amount",
          "type": "uint256"
        }
      ],
      "name": "depositWithdrawableCurrencyTokens",
      "outputs": [],
      "payable": false,
      "stateMutability": "nonpayable",
      "type": "function"
    },
    {
      "constant": false,
      "inputs": [
        {
          "name": "_userId",
          "type": "uint32"
        },
        {
          "name": "_amount",
          "type": "uint256"
        },
        {
          "name": "_revenueType",
          "type": "uint32"
        }
      ],
      "name": "depositPendingRevenueCurrencyTokens",
      "outputs": [],
      "payable": false,
      "stateMutability": "nonpayable",
      "type": "function"
    },
    {
      "constant": false,
      "inputs": [
        {
          "name": "_userId",
          "type": "uint32"
        },
        {
          "name": "_amount",
          "type": "uint256"
        },
        {
          "name": "_tokenAddress",
          "type": "address"
        }
      ],
      "name": "withdrawTokens",
      "outputs": [],
      "payable": false,
      "stateMutability": "nonpayable",
      "type": "function"
    },
    {
      "constant": false,
      "inputs": [
        {
          "name": "_userId",
          "type": "uint32"
        },
        {
          "name": "_amount",
          "type": "uint256"
        }
      ],
      "name": "convertWithdrawableToConsumableCurrencyTokens",
      "outputs": [],
      "payable": false,
      "stateMutability": "nonpayable",
      "type": "function"
    },
    {
      "constant": false,
      "inputs": [
        {
          "name": "_userId",
          "type": "uint32"
        },
        {
          "name": "_amount",
          "type": "uint256"
        }
      ],
      "name": "withdrawCurrencyTokens",
      "outputs": [],
      "payable": false,
      "stateMutability": "nonpayable",
      "type": "function"
    },
    {
      "constant": false,
      "inputs": [
        {
          "name": "_userId",
          "type": "uint32"
        },
        {
          "name": "_amount",
          "type": "uint256"
        },
        {
          "name": "_revenueType",
          "type": "uint32"
        }
      ],
      "name": "withdrawPendingRevenueCurrencyTokens",
      "outputs": [],
      "payable": false,
      "stateMutability": "nonpayable",
      "type": "function"
    },
    {
      "constant": false,
      "inputs": [
        {
          "name": "_userId",
          "type": "uint32"
        },
        {
          "name": "_amount",
          "type": "uint256"
        },
        {
          "name": "_minReturn",
          "type": "uint256"
        },
        {
          "name": "_tokenAddress",
          "type": "address"
        },
        {
          "name": "_bancorAddress",
          "type": "address"
        }
      ],
      "name": "delegateBuyCards",
      "outputs": [],
      "payable": false,
      "stateMutability": "nonpayable",
      "type": "function"
    },
    {
      "constant": false,
      "inputs": [
        {
          "name": "_userId",
          "type": "uint32"
        },
        {
          "name": "_amount",
          "type": "uint256"
        },
        {
          "name": "_minReturn",
          "type": "uint256"
        },
        {
          "name": "_tokenAddress",
          "type": "address"
        },
        {
          "name": "_bancorAddress",
          "type": "address"
        }
      ],
      "name": "delegateSellCards",
      "outputs": [],
      "payable": false,
      "stateMutability": "nonpayable",
      "type": "function"
    },
    {
      "constant": false,
      "inputs": [
        {
          "name": "_userId",
          "type": "uint32"
        },
        {
          "name": "_amount",
          "type": "uint256"
        },
        {
          "name": "_auctionAddress",
          "type": "address"
        }
      ],
      "name": "delegateBidCards",
      "outputs": [],
      "payable": false,
      "stateMutability": "nonpayable",
      "type": "function"
    },
    {
      "constant": false,
      "inputs": [
        {
          "name": "_userId",
          "type": "uint32"
        },
        {
          "name": "_auctionAddress",
          "type": "address"
        }
      ],
      "name": "delegateReceiveCards",
      "outputs": [],
      "payable": false,
      "stateMutability": "nonpayable",
      "type": "function"
    },
    {
      "constant": true,
      "inputs": [
        {
          "name": "_userId",
          "type": "uint32"
        },
        {
          "name": "_auctionAddress",
          "type": "address"
        }
      ],
      "name": "delegateCanClaimTokens",
      "outputs": [
        {
          "name": "",
          "type": "bool"
        }
      ],
      "payable": false,
      "stateMutability": "view",
      "type": "function"
    },
    {
      "constant": true,
      "inputs": [
        {
          "name": "_userId",
          "type": "uint32"
        },
        {
          "name": "_auctionAddress",
          "type": "address"
        }
      ],
      "name": "delegateEstimateClaimTokens",
      "outputs": [
        {
          "name": "",
          "type": "uint256"
        }
      ],
      "payable": false,
      "stateMutability": "view",
      "type": "function"
    }
  ],
  "bytecode": "0x608060405234801561001057600080fd5b5060405160408061515883398101604052805160209091015160008054600160a060020a0319908116331790915560028054600160a060020a03948516908316179055600480549390921692169190911790556150e6806100726000396000f30060806040526004361061013a5763ffffffff60e060020a6000350416630668ec26811461013f57806308a4cd0614610169578063096a8ab7146101a55780630ca7817b146101bd578063157e98e7146101f35780633fb95fb11461021457806342372e3f146102325780634868eb7c1461025c5780635173e8311461027d57806365d24f5b1461029b5780637281f97c146102c857806377338701146102ec57806379ba50971461030d5780637aa54eec14610322578063854cff2e1461034a5780638da5cb5b146103805780639ed3edf0146103b1578063a20153b1146103c6578063a5efbd58146103f0578063b7fdbd8b1461042e578063caa22e811461045b578063d4ee1d901461047c578063d75d382e14610491578063ddcf4e4f146104b2578063e08b0748146104df578063f2fde38b14610500575b600080fd5b34801561014b57600080fd5b5061016763ffffffff6004358116906024359060443516610521565b005b34801561017557600080fd5b50610193600160a060020a036004351663ffffffff60243516610775565b60408051918252519081900360200190f35b3480156101b157600080fd5b50610167600435610809565b3480156101c957600080fd5b5061016763ffffffff60043516602435604435600160a060020a0360643581169060843516610825565b3480156101ff57600080fd5b5061016763ffffffff6004351660243561106b565b34801561022057600080fd5b5061019363ffffffff600435166112ab565b34801561023e57600080fd5b5061016763ffffffff60043516600160a060020a0360243516611332565b34801561026857600080fd5b5061016763ffffffff60043516602435611a8e565b34801561028957600080fd5b5061019363ffffffff60043516611c19565b3480156102a757600080fd5b5061016763ffffffff60043516602435600160a060020a0360443516611c84565b3480156102d457600080fd5b5061019363ffffffff60043581169060243516611ebf565b3480156102f857600080fd5b50610167600160a060020a0360043516611f1c565b34801561031957600080fd5b50610167611fd1565b34801561032e57600080fd5b5061016763ffffffff6004358116906024359060443516612059565b34801561035657600080fd5b5061016763ffffffff60043516602435604435600160a060020a03606435811690608435166121f0565b34801561038c57600080fd5b506103956129bf565b60408051600160a060020a039092168252519081900360200190f35b3480156103bd57600080fd5b506101936129ce565b3480156103d257600080fd5b5061019363ffffffff60043516600160a060020a03602435166129d4565b3480156103fc57600080fd5b5061041a63ffffffff60043516600160a060020a0360243516612ef6565b604080519115158252519081900360200190f35b34801561043a57600080fd5b5061016763ffffffff60043516602435600160a060020a0360443516613247565b34801561046757600080fd5b5061016763ffffffff60043516602435613b72565b34801561048857600080fd5b50610395613dbf565b34801561049d57600080fd5b50610167600160a060020a0360043516613dce565b3480156104be57600080fd5b5061016763ffffffff60043516602435600160a060020a0360443516613e4c565b3480156104eb57600080fd5b5061016763ffffffff60043516602435614009565b34801561050c57600080fd5b50610167600160a060020a036004351661430d565b60008054600160a060020a03163314806105c957506000809054906101000a9004600160a060020a0316600160a060020a031633600160a060020a0316638da5cb5b6040518163ffffffff1660e060020a028152600401602060405180830381600087803b15801561059257600080fd5b505af11580156105a6573d6000803e3d6000fd5b505050506040513d60208110156105bc57600080fd5b5051600160a060020a0316145b15156105d157fe5b6105dd8360055461436e565b6003546040805160e260020a631ca07e5f02815263ffffffff80891660048301528616602482015290519293508392600160a060020a0390921691637281f97c916044808201926020929091908290030181600087803b15801561064057600080fd5b505af1158015610654573d6000803e3d6000fd5b505050506040513d602081101561066a57600080fd5b5051101561067757600080fd5b610682848284614384565b6003546002546040805160e260020a6303139f13028152600160a060020a0392831660048201526024810185905290519190921691630c4e7c4c91604480830192600092919082900301818387803b1580156106dd57600080fd5b505af11580156106f1573d6000803e3d6000fd5b505060055460408051918252426020830152805163ffffffff8916945060008051602061509b8339815191529350918290030190a26040805184815263ffffffff848116602083015242828401529151918616917f554ef03683061be81e833742338ba8aad8d69bc979590a2091ff708bb8ba7c7f9181900360600190a250505050565b6003546040805160e160020a6304526683028152600160a060020a03858116600483015263ffffffff85166024830152915160009392909216916308a4cd069160448082019260209290919082900301818787803b1580156107d657600080fd5b505af11580156107ea573d6000803e3d6000fd5b505050506040513d602081101561080057600080fd5b50519392505050565b600054600160a060020a0316331461082057600080fd5b600555565b60008054819081908190819081908190600160a060020a03163314806108d957506000809054906101000a9004600160a060020a0316600160a060020a031633600160a060020a0316638da5cb5b6040518163ffffffff1660e060020a028152600401602060405180830381600087803b1580156108a257600080fd5b505af11580156108b6573d6000803e3d6000fd5b505050506040513d60208110156108cc57600080fd5b5051600160a060020a0316145b15156108e157fe5b8a600360009054906101000a9004600160a060020a0316600160a060020a03166308a4cd068b8f6040518363ffffffff1660e060020a0281526004018083600160a060020a0316600160a060020a031681526020018263ffffffff1663ffffffff16815260200192505050602060405180830381600087803b15801561096657600080fd5b505af115801561097a573d6000803e3d6000fd5b505050506040513d602081101561099057600080fd5b5051101561099d57600080fd5b60008b116109aa57600080fd5b6003546040805160e060020a6370a08231028152600160a060020a03928316600482015290518b9950918916916370a08231916024808201926020929091908290030181600087803b1580156109ff57600080fd5b505af1158015610a13573d6000803e3d6000fd5b505050506040513d6020811015610a2957600080fd5b5051600480546003546040805160e060020a6370a08231028152600160a060020a03928316948101949094525193995016916370a08231916024808201926020929091908290030181600087803b158015610a8357600080fd5b505af1158015610a97573d6000803e3d6000fd5b505050506040513d6020811015610aad57600080fd5b81019080805190602001909291905050509450600360009054906101000a9004600160a060020a0316600160a060020a031663a64b6e5f8a308e6040518463ffffffff1660e060020a0281526004018084600160a060020a0316600160a060020a0316815260200183600160a060020a0316600160a060020a031681526020018281526020019350505050600060405180830381600087803b158015610b5257600080fd5b505af1158015610b66573d6000803e3d6000fd5b5050604080517fdd62ed3e000000000000000000000000000000000000000000000000000000008152306004820152600160a060020a038c8116602483015291518f9450918b16925063dd62ed3e9160448083019260209291908290030181600087803b158015610bd657600080fd5b505af1158015610bea573d6000803e3d6000fd5b505050506040513d6020811015610c0057600080fd5b50511015610ca05786600160a060020a031663095ea7b38960006040518363ffffffff1660e060020a0281526004018083600160a060020a0316600160a060020a0316815260200182815260200192505050602060405180830381600087803b158015610c6c57600080fd5b505af1158015610c80573d6000803e3d6000fd5b505050506040513d6020811015610c9657600080fd5b50511515610ca057fe5b86600160a060020a031663095ea7b3898d6040518363ffffffff1660e060020a0281526004018083600160a060020a0316600160a060020a0316815260200182815260200192505050602060405180830381600087803b158015610d0357600080fd5b505af1158015610d17573d6000803e3d6000fd5b505050506040513d6020811015610d2d57600080fd5b50511515610d3757fe5b610d428c8c8b6144b4565b610d4f8c8c8c8c8c6145c9565b6005549296509094509250610d65908590614684565b600480546003546040805160e060020a63a9059cbb028152600160a060020a03928316948101949094526024840185905251939450169163a9059cbb916044808201926020929091908290030181600087803b158015610dc457600080fd5b505af1158015610dd8573d6000803e3d6000fd5b505050506040513d6020811015610dee57600080fd5b5050600160a060020a03808916908a1663ffffffff8e167f370d88b0fc9bf0fc184e80e6952e726403e76e932aa10c4661e2e635499e5421848f610e32898961436e565b600554604080519485526020850193909352838301919091526060830152426080830152519081900360a00190a4600480546002546005546040805160e060020a63a9059cbb028152600160a060020a039384169581019590955260248501919091525191169163a9059cbb9160448083019260209291908290030181600087803b158015610ec057600080fd5b505af1158015610ed4573d6000803e3d6000fd5b505050506040513d6020811015610eea57600080fd5b505060055460408051918252426020830152805163ffffffff8f169260008051602061509b83398151915292908290030190a2600480546003546040805160e060020a6370a08231028152600160a060020a039283169481019490945251610fb493610fae9392909216916370a082319160248083019260209291908290030181600087803b158015610f7c57600080fd5b505af1158015610f90573d6000803e3d6000fd5b505050506040513d6020811015610fa657600080fd5b505185614684565b86614684565b9450808514610fbf57fe5b6003546040805160e060020a6370a08231028152600160a060020a0392831660048201529051611048928992908b16916370a08231916024808201926020929091908290030181600087803b15801561101757600080fd5b505af115801561102b573d6000803e3d6000fd5b505050506040513d602081101561104157600080fd5b5051614684565b95508a861461105357fe5b61105d8c82614696565b505050505050505050505050565b60008054600160a060020a031633148061111357506000809054906101000a9004600160a060020a0316600160a060020a031633600160a060020a0316638da5cb5b6040518163ffffffff1660e060020a028152600401602060405180830381600087803b1580156110dc57600080fd5b505af11580156110f0573d6000803e3d6000fd5b505050506040513d602081101561110657600080fd5b5051600160a060020a0316145b151561111b57fe5b6111278260055461436e565b6003546040805160e060020a633fb95fb102815263ffffffff8716600482015290519293508392600160a060020a0390921691633fb95fb1916024808201926020929091908290030181600087803b15801561118257600080fd5b505af1158015611196573d6000803e3d6000fd5b505050506040513d60208110156111ac57600080fd5b505110156111b957600080fd5b6111c383826147b5565b6003546002546040805160e260020a6303139f13028152600160a060020a0392831660048201526024810185905290519190921691630c4e7c4c91604480830192600092919082900301818387803b15801561121e57600080fd5b505af1158015611232573d6000803e3d6000fd5b505060055460408051918252426020830152805163ffffffff8816945060008051602061509b8339815191529350918290030190a260408051838152426020820152815163ffffffff8616927f677cfcd8555fa1d644238df923035472a1e72e249bf047b915dd9646e6271b51928290030190a2505050565b6003546040805160e060020a633fb95fb102815263ffffffff841660048201529051600092600160a060020a031691633fb95fb191602480830192602092919082900301818787803b15801561130057600080fd5b505af1158015611314573d6000803e3d6000fd5b505050506040513d602081101561132a57600080fd5b505192915050565b600080548190819081908190819081908190600160a060020a03163314806113e857506000809054906101000a9004600160a060020a0316600160a060020a031633600160a060020a0316638da5cb5b6040518163ffffffff1660e060020a028152600401602060405180830381600087803b1580156113b157600080fd5b505af11580156113c5573d6000803e3d6000fd5b505050506040513d60208110156113db57600080fd5b5051600160a060020a0316145b15156113f057fe5b88975087600160a060020a031663c9fddcd16040518163ffffffff1660e060020a028152600401602060405180830381600087803b15801561143157600080fd5b505af1158015611445573d6000803e3d6000fd5b505050506040513d602081101561145b57600080fd5b5051151561146857600080fd5b87600160a060020a031663327107f76040518163ffffffff1660e060020a028152600401602060405180830381600087803b1580156114a657600080fd5b505af11580156114ba573d6000803e3d6000fd5b505050506040513d60208110156114d057600080fd5b5051600354604080517f84d504bc000000000000000000000000000000000000000000000000000000008152600160a060020a0392831660048201529051929950899850908a16916384d504bc916024808201926020929091908290030181600087803b15801561154057600080fd5b505af1158015611554573d6000803e3d6000fd5b505050506040513d602081101561156a57600080fd5b5051156117c257600354604080517f6f764c53000000000000000000000000000000000000000000000000000000008152600160a060020a0392831660048201529051918a1691636f764c53916024808201926020929091908290030181600087803b1580156115d957600080fd5b505af11580156115ed573d6000803e3d6000fd5b505050506040513d602081101561160357600080fd5b505194506000851161161157fe5b6003546040805160e060020a6370a08231028152600160a060020a0392831660048201529051918816916370a08231916024808201926020929091908290030181600087803b15801561166357600080fd5b505af1158015611677573d6000803e3d6000fd5b505050506040513d602081101561168d57600080fd5b5051600354604080517faeaaaa08000000000000000000000000000000000000000000000000000000008152600160a060020a0392831660048201529051929650908a169163aeaaaa08916024808201926020929091908290030181600087803b1580156116fa57600080fd5b505af115801561170e573d6000803e3d6000fd5b505050506040513d602081101561172457600080fd5b50506003546040805160e060020a6370a08231028152600160a060020a0392831660048201529051918816916370a08231916024808201926020929091908290030181600087803b15801561177857600080fd5b505af115801561178c573d6000803e3d6000fd5b505050506040513d60208110156117a257600080fd5b50519250846117b18486614684565b146117b857fe5b6117c2858a614842565b6003546040805160e060020a63947db38f028152600160a060020a038c8116600483015263ffffffff8e1660248301529151919092169163947db38f9160448083019260209291908290030181600087803b15801561182057600080fd5b505af1158015611834573d6000803e3d6000fd5b505050506040513d602081101561184a57600080fd5b505191506000821115611a82576003546040805160e060020a63bebe8101028152600160a060020a038c8116600483015291516402540be40093929092169163bebe8101916024808201926020929091908290030181600087803b1580156118b157600080fd5b505af11580156118c5573d6000803e3d6000fd5b505050506040513d60208110156118db57600080fd5b50518115156118e657fe5b6003546040805160e660020a6266c78d028152600160a060020a038e8116600483015291519490930493611983936402540be4009392909216916319b1e3409160248083019260209291908290030181600087803b15801561194757600080fd5b505af115801561195b573d6000803e3d6000fd5b505050506040513d602081101561197157600080fd5b505181151561197c57fe5b048461493e565b81151561198c57fe5b04905061199a8a8289614962565b600354604080517f56963e00000000000000000000000000000000000000000000000000000000008152600160a060020a038c8116600483015263ffffffff8e16602483015260006044830181905292519316926356963e009260648084019391929182900301818387803b158015611a1257600080fd5b505af1158015611a26573d6000803e3d6000fd5b5050604080518481524260208201528151600160a060020a03808f1695508c16935063ffffffff8f16927fae3d149cfd7a5e45ccf0d3e4465daf6a706cb97e60cc28436cd73879869e46e7928290030190a4611a828a886149fb565b50505050505050505050565b600054600160a060020a0316331480611b3557506000809054906101000a9004600160a060020a0316600160a060020a031633600160a060020a0316638da5cb5b6040518163ffffffff1660e060020a028152600401602060405180830381600087803b158015611afe57600080fd5b505af1158015611b12573d6000803e3d6000fd5b505050506040513d6020811015611b2857600080fd5b5051600160a060020a0316145b1515611b3d57fe5b600480546003546040805160e060020a6323b872dd0281523394810194909452600160a060020a03918216602485015260448401859052519116916323b872dd9160648083019260209291908290030181600087803b158015611b9f57600080fd5b505af1158015611bb3573d6000803e3d6000fd5b505050506040513d6020811015611bc957600080fd5b50611bd690508282614696565b60408051828152426020820152815163ffffffff8516927f9a541d3c41bc46208becd88ecd75a59efd86eb872c99dc37c514be4d0f7f71b5928290030190a25050565b600354604080517f5173e83100000000000000000000000000000000000000000000000000000000815263ffffffff841660048201529051600092600160a060020a031691635173e83191602480830192602092919082900301818787803b15801561130057600080fd5b60008054600160a060020a0316331480611d2c57506000809054906101000a9004600160a060020a0316600160a060020a031633600160a060020a0316638da5cb5b6040518163ffffffff1660e060020a028152600401602060405180830381600087803b158015611cf557600080fd5b505af1158015611d09573d6000803e3d6000fd5b505050506040513d6020811015611d1f57600080fd5b5051600160a060020a0316145b1515611d3457fe5b6003546040805160e160020a6304526683028152600160a060020a03858116600483015263ffffffff881660248301529151869392909216916308a4cd06916044808201926020929091908290030181600087803b158015611d9557600080fd5b505af1158015611da9573d6000803e3d6000fd5b505050506040513d6020811015611dbf57600080fd5b50511015611dcc57600080fd5b50600354600254604080517fa64b6e5f000000000000000000000000000000000000000000000000000000008152600160a060020a03808616600483015292831660248201526044810186905290518493929092169163a64b6e5f9160648082019260009290919082900301818387803b158015611e4957600080fd5b505af1158015611e5d573d6000803e3d6000fd5b50505050611e6c8484846144b4565b604080518481524260208201528151600160a060020a0385169263ffffffff8816927fb6fce440600078caa51bc0bf48f0685581a0b678d1e8705afdc5306f4c4a54dd929081900390910190a350505050565b6003546040805160e260020a631ca07e5f02815263ffffffff8086166004830152841660248201529051600092600160a060020a031691637281f97c91604480830192602092919082900301818787803b1580156107d657600080fd5b600054600160a060020a03163314611f3357600080fd5b6003805473ffffffffffffffffffffffffffffffffffffffff1916600160a060020a038381169190911791829055604080517f79ba5097000000000000000000000000000000000000000000000000000000008152905192909116916379ba50979160048082019260009290919082900301818387803b158015611fb657600080fd5b505af1158015611fca573d6000803e3d6000fd5b5050505050565b600154600160a060020a03163314611fe857600080fd5b60015460008054604051600160a060020a0393841693909116917f343765429aea5a34b3ff6a3785a98a5abb2597aca87bfbb58632c173d585373a91a3600180546000805473ffffffffffffffffffffffffffffffffffffffff19908116600160a060020a03841617909155169055565b600054600160a060020a031633148061210057506000809054906101000a9004600160a060020a0316600160a060020a031633600160a060020a0316638da5cb5b6040518163ffffffff1660e060020a028152600401602060405180830381600087803b1580156120c957600080fd5b505af11580156120dd573d6000803e3d6000fd5b505050506040513d60208110156120f357600080fd5b5051600160a060020a0316145b151561210857fe5b600480546003546040805160e060020a6323b872dd0281523394810194909452600160a060020a03918216602485015260448401869052519116916323b872dd9160648083019260209291908290030181600087803b15801561216a57600080fd5b505af115801561217e573d6000803e3d6000fd5b505050506040513d602081101561219457600080fd5b506121a29050838383614b7e565b6040805183815263ffffffff838116602083015242828401529151918516917f8b652c189ad0b5a575ba84513da1ea972903ab79f62c54b453c438f326a4117f9181900360600190a2505050565b60008054819081908190819081908190600160a060020a03163314806122a457506000809054906101000a9004600160a060020a0316600160a060020a031633600160a060020a0316638da5cb5b6040518163ffffffff1660e060020a028152600401602060405180830381600087803b15801561226d57600080fd5b505af1158015612281573d6000803e3d6000fd5b505050506040513d602081101561229757600080fd5b5051600160a060020a0316145b15156122ac57fe5b60008b116122b957600080fd5b6122c58b60055461436e565b965086600360009054906101000a9004600160a060020a0316600160a060020a0316635173e8318e6040518263ffffffff1660e060020a028152600401808263ffffffff1663ffffffff168152602001915050602060405180830381600087803b15801561233257600080fd5b505af1158015612346573d6000803e3d6000fd5b505050506040513d602081101561235c57600080fd5b5051101561236957600080fd5b6123738c88614c13565b6003546040805160e060020a6370a08231028152600160a060020a03928316600482015290518b9850918816916370a08231916024808201926020929091908290030181600087803b1580156123c857600080fd5b505af11580156123dc573d6000803e3d6000fd5b505050506040513d60208110156123f257600080fd5b5051600480546003546040805160e060020a6370a08231028152600160a060020a03928316948101949094525193985016916370a08231916024808201926020929091908290030181600087803b15801561244c57600080fd5b505af1158015612460573d6000803e3d6000fd5b505050506040513d602081101561247657600080fd5b50516003546040805160e260020a6303139f13028152306004820152602481018f90529051929650600160a060020a0390911691630c4e7c4c9160448082019260009290919082900301818387803b1580156124d157600080fd5b505af11580156124e5573d6000803e3d6000fd5b50506003546002546005546040805160e260020a6303139f13028152600160a060020a039384166004820152602481019290925251919092169350630c4e7c4c9250604480830192600092919082900301818387803b15801561254757600080fd5b505af115801561255b573d6000803e3d6000fd5b505050508b63ffffffff1660008051602061509b83398151915260055442604051808381526020018281526020019250505060405180910390a260048054604080517fdd62ed3e0000000000000000000000000000000000000000000000000000000081523093810193909352600160a060020a038b8116602485015290518e93919092169163dd62ed3e916044808201926020929091908290030181600087803b15801561260957600080fd5b505af115801561261d573d6000803e3d6000fd5b505050506040513d602081101561263357600080fd5b505110156126e45760048054604080517f095ea7b3000000000000000000000000000000000000000000000000000000008152600160a060020a038c8116948201949094526000602482018190529151939092169263095ea7b3926044808201936020939283900390910190829087803b1580156126b057600080fd5b505af11580156126c4573d6000803e3d6000fd5b505050506040513d60208110156126da57600080fd5b505115156126e457fe5b60048054604080517f095ea7b3000000000000000000000000000000000000000000000000000000008152600160a060020a038c811694820194909452602481018f90529051929091169163095ea7b3916044808201926020929091908290030181600087803b15801561275757600080fd5b505af115801561276b573d6000803e3d6000fd5b505050506040513d602081101561278157600080fd5b5051151561278b57fe5b6127978b8b8b8b614d2b565b6003546040805160e060020a63a9059cbb028152600160a060020a03928316600482015260248101869052905194975092955090935088169163a9059cbb916044808201926020929091908290030181600087803b1580156127f857600080fd5b505af115801561280c573d6000803e3d6000fd5b505050506040513d602081101561282257600080fd5b50506003546040805160e060020a6370a08231028152600160a060020a03928316600482015290516128aa928916916370a082319160248083019260209291908290030181600087803b15801561287857600080fd5b505af115801561288c573d6000803e3d6000fd5b505050506040513d60208110156128a257600080fd5b505186614684565b94508285146128b557fe5b6129176128c2858461436e565b600480546003546040805160e060020a6370a08231028152600160a060020a0392831694810194909452519116916370a082319160248083019260209291908290030181600087803b15801561101757600080fd5b935086841461292257fe5b61292d8c848b614962565b87600160a060020a031689600160a060020a03168d63ffffffff167f8dd95c863db7a901dee32bad840c807891c016810f2df354fa44017feb98899b61297c8f612977888861436e565b614684565b87612987888861436e565b600554604080519485526020850193909352838301919091526060830152426080830152519081900360a00190a461105d8c8a6149fb565b600054600160a060020a031681565b60055481565b6003546040805160e060020a63947db38f028152600160a060020a03848116600483015263ffffffff861660248301529151600093849384938493919092169163947db38f91604480830192602092919082900301818787803b158015612a3a57600080fd5b505af1158015612a4e573d6000803e3d6000fd5b505050506040513d6020811015612a6457600080fd5b505192506000831115612ee85784915081600160a060020a031663c5cd88db6040518163ffffffff1660e060020a028152600401602060405180830381600087803b158015612ab257600080fd5b505af1158015612ac6573d6000803e3d6000fd5b505050506040513d6020811015612adc57600080fd5b50511515612dec57600354604080517fce9b53f4000000000000000000000000000000000000000000000000000000008152600160a060020a039283166004820152905160009285169163ce9b53f491602480830192602092919082900301818787803b158015612b4c57600080fd5b505af1158015612b60573d6000803e3d6000fd5b505050506040513d6020811015612b7657600080fd5b50511115612cc757600354604080517f6f764c53000000000000000000000000000000000000000000000000000000008152600160a060020a039283166004820152905191841691636f764c53916024808201926020929091908290030181600087803b158015612be657600080fd5b505af1158015612bfa573d6000803e3d6000fd5b505050506040513d6020811015612c1057600080fd5b50516003546040805160e060020a63bebe8101028152600160a060020a03898116600483015291519394506402540be40093919092169163bebe81019160248083019260209291908290030181600087803b158015612c6e57600080fd5b505af1158015612c82573d6000803e3d6000fd5b505050506040513d6020811015612c9857600080fd5b5051811515612ca357fe5b04612cb66402540be400835b048561493e565b811515612cbf57fe5b049350612eed565b6003546040805160e060020a63bebe8101028152600160a060020a03888116600483015291516402540be40093929092169163bebe8101916024808201926020929091908290030181600087803b158015612d2157600080fd5b505af1158015612d35573d6000803e3d6000fd5b505050506040513d6020811015612d4b57600080fd5b5051811515612d5657fe5b6003546040805160e660020a6266c78d028152600160a060020a038a8116600483015291519490930493612cb6936402540be4009392909216916319b1e3409160248083019260209291908290030181600087803b158015612db757600080fd5b505af1158015612dcb573d6000803e3d6000fd5b505050506040513d6020811015612de157600080fd5b5051811515612caf57fe5b81600160a060020a031663a035b1fe6040518163ffffffff1660e060020a028152600401602060405180830381600087803b158015612e2a57600080fd5b505af1158015612e3e573d6000803e3d6000fd5b505050506040513d6020811015612e5457600080fd5b5051604080517fba3f5a120000000000000000000000000000000000000000000000000000000081529051612cb691600160a060020a0386169163ba3f5a12916004808201926020929091908290030181600087803b158015612eb657600080fd5b505af1158015612eca573d6000803e3d6000fd5b505050506040513d6020811015612ee057600080fd5b50518561493e565b600093505b50505092915050565b6000806000806000809054906101000a9004600160a060020a0316600160a060020a031685600160a060020a0316638da5cb5b6040518163ffffffff1660e060020a028152600401602060405180830381600087803b158015612f5857600080fd5b505af1158015612f6c573d6000803e3d6000fd5b505050506040513d6020811015612f8257600080fd5b5051600160a060020a031614612f9757600080fd5b84925082600160a060020a031663c9fddcd16040518163ffffffff1660e060020a028152600401602060405180830381600087803b158015612fd857600080fd5b505af1158015612fec573d6000803e3d6000fd5b505050506040513d602081101561300257600080fd5b505115612ee8576003546040805160e060020a63947db38f028152600160a060020a03888116600483015263ffffffff8a1660248301529151919092169163947db38f9160448083019260209291908290030181600087803b15801561306757600080fd5b505af115801561307b573d6000803e3d6000fd5b505050506040513d602081101561309157600080fd5b505191506000821115612ee857600354604080517f84d504bc000000000000000000000000000000000000000000000000000000008152600160a060020a0392831660048201529051918516916384d504bc916024808201926020929091908290030181600087803b15801561310657600080fd5b505af115801561311a573d6000803e3d6000fd5b505050506040513d602081101561313057600080fd5b5051156131405760019350612eed565b6003546040805160e060020a63bebe8101028152600160a060020a03888116600483015291516402540be40093929092169163bebe8101916024808201926020929091908290030181600087803b15801561319a57600080fd5b505af11580156131ae573d6000803e3d6000fd5b505050506040513d60208110156131c457600080fd5b50518115156131cf57fe5b6003546040805160e660020a6266c78d028152600160a060020a038a8116600483015291519490930493613230936402540be4009392909216916319b1e3409160248083019260209291908290030181600087803b15801561194757600080fd5b81151561323957fe5b049050600081119350612eed565b6000806000806000806000806000806000809054906101000a9004600160a060020a0316600160a060020a031633600160a060020a0316148061331857506000809054906101000a9004600160a060020a0316600160a060020a031633600160a060020a0316638da5cb5b6040518163ffffffff1660e060020a028152600401602060405180830381600087803b1580156132e157600080fd5b505af11580156132f5573d6000803e3d6000fd5b505050506040513d602081101561330b57600080fd5b5051600160a060020a0316145b151561332057fe5b60008c1161332d57600080fd5b600360009054906101000a9004600160a060020a0316600160a060020a031663947db38f8c8f6040518363ffffffff1660e060020a0281526004018083600160a060020a0316600160a060020a031681526020018263ffffffff1663ffffffff16815260200192505050602060405180830381600087803b1580156133b157600080fd5b505af11580156133c5573d6000803e3d6000fd5b505050506040513d60208110156133db57600080fd5b505115156133f05760055460020299506133f6565b60055499505b6134008c8b61436e565b600360009054906101000a9004600160a060020a0316600160a060020a0316635173e8318f6040518263ffffffff1660e060020a028152600401808263ffffffff1663ffffffff168152602001915050602060405180830381600087803b15801561346a57600080fd5b505af115801561347e573d6000803e3d6000fd5b505050506040513d602081101561349457600080fd5b505110156134a157600080fd5b6003546002546040805160e260020a6303139f13028152600160a060020a039283166004820152602481018e905290519190921691630c4e7c4c91604480830192600092919082900301818387803b1580156134fc57600080fd5b505af1158015613510573d6000803e3d6000fd5b505050508c63ffffffff1660008051602061509b8339815191528b42604051808381526020018281526020019250505060405180910390a26135528d8b614c13565b600480546003546040805160e060020a6370a08231028152600160a060020a0392831694810194909452519116916370a082319160248083019260209291908290030181600087803b1580156135a757600080fd5b505af11580156135bb573d6000803e3d6000fd5b505050506040513d60208110156135d157600080fd5b81019080805190602001909291905050509850600360009054906101000a9004600160a060020a0316600160a060020a0316630c4e7c4c308e6040518363ffffffff1660e060020a0281526004018083600160a060020a0316600160a060020a0316815260200182815260200192505050600060405180830381600087803b15801561365c57600080fd5b505af1158015613670573d6000803e3d6000fd5b505050508a97508b600460009054906101000a9004600160a060020a0316600160a060020a031663dd62ed3e308e6040518363ffffffff1660e060020a0281526004018083600160a060020a0316600160a060020a0316815260200182600160a060020a0316600160a060020a0316815260200192505050602060405180830381600087803b15801561370257600080fd5b505af1158015613716573d6000803e3d6000fd5b505050506040513d602081101561372c57600080fd5b505110156137d65760048054604080517f095ea7b3000000000000000000000000000000000000000000000000000000008152600160a060020a038f8116948201949094526000602482018190529151939092169263095ea7b3926044808201936020939283900390910190829087803b1580156137a957600080fd5b505af11580156137bd573d6000803e3d6000fd5b505050506040513d60208110156137d357600080fd5b50505b600460009054906101000a9004600160a060020a0316600160a060020a031663095ea7b38c8e6040518363ffffffff1660e060020a0281526004018083600160a060020a0316600160a060020a0316815260200182815260200192505050602060405180830381600087803b15801561384e57600080fd5b505af1158015613862573d6000803e3d6000fd5b505050506040513d602081101561387857600080fd5b5050600354604080517fb5397b11000000000000000000000000000000000000000000000000000000008152600160a060020a039283166004820152602481018f90529051918a169163b5397b11916044808201926060929091908290030181600087803b1580156138e957600080fd5b505af11580156138fd573d6000803e3d6000fd5b505050506040513d606081101561391357600080fd5b508051602082015160409092015190985090965094506139338c88614684565b935060008411156139c757600480546003546040805160e060020a63a9059cbb028152600160a060020a0392831694810194909452602484018890525191169163a9059cbb9160448083019260209291908290030181600087803b15801561399a57600080fd5b505af11580156139ae573d6000803e3d6000fd5b505050506040513d60208110156139c457600080fd5b50505b600480546003546040805160e060020a6370a08231028152600160a060020a0392831694810194909452519116916370a082319160248083019260209291908290030181600087803b158015613a1c57600080fd5b505af1158015613a30573d6000803e3d6000fd5b505050506040513d6020811015613a4657600080fd5b50519250613a548984614684565b9150848214613a5f57fe5b613a69878c614de5565b613a748d888d614ee2565b613a7e8d88614c13565b87600160a060020a031663327107f76040518163ffffffff1660e060020a028152600401602060405180830381600087803b158015613abc57600080fd5b505af1158015613ad0573d6000803e3d6000fd5b505050506040513d6020811015613ae657600080fd5b810190808051906020019092919050505090508a600160a060020a031681600160a060020a03168e63ffffffff167f79c788d4286fd938fc27ef030f37bf0deca43ab210d6f610bbb2da99e635350089898f426040518085815260200184815260200183815260200182815260200194505050505060405180910390a450505050505050505050505050565b60008054600160a060020a0316331480613c1a57506000809054906101000a9004600160a060020a0316600160a060020a031633600160a060020a0316638da5cb5b6040518163ffffffff1660e060020a028152600401602060405180830381600087803b158015613be357600080fd5b505af1158015613bf7573d6000803e3d6000fd5b505050506040513d6020811015613c0d57600080fd5b5051600160a060020a0316145b1515613c2257fe5b613c2e8260055461436e565b6003546040805160e060020a633fb95fb102815263ffffffff8716600482015290519293508392600160a060020a0390921691633fb95fb1916024808201926020929091908290030181600087803b158015613c8957600080fd5b505af1158015613c9d573d6000803e3d6000fd5b505050506040513d6020811015613cb357600080fd5b50511015613cc057600080fd5b6003546002546005546040805160e260020a6303139f13028152600160a060020a0393841660048201526024810192909252519190921691630c4e7c4c91604480830192600092919082900301818387803b158015613d1e57600080fd5b505af1158015613d32573d6000803e3d6000fd5b505060055460408051918252426020830152805163ffffffff8816945060008051602061509b8339815191529350918290030190a2613d7183826147b5565b613d7b8383614ff7565b60408051838152426020820152815163ffffffff8616927f2828433aee6e44dce5c7baee532f2a3aa1c7482dc1ed901ae295b1eb537dc275928290030190a2505050565b600154600160a060020a031681565b600054600160a060020a03163314613de557600080fd5b600354604080517ff2fde38b000000000000000000000000000000000000000000000000000000008152600160a060020a0384811660048301529151919092169163f2fde38b91602480830192600092919082900301818387803b158015611fb657600080fd5b60008054600160a060020a0316331480613ef457506000809054906101000a9004600160a060020a0316600160a060020a031633600160a060020a0316638da5cb5b6040518163ffffffff1660e060020a028152600401602060405180830381600087803b158015613ebd57600080fd5b505af1158015613ed1573d6000803e3d6000fd5b505050506040513d6020811015613ee757600080fd5b5051600160a060020a0316145b1515613efc57fe5b600454600160a060020a0383811691161415613f1457fe5b506003546040805160e060020a6323b872dd028152336004820152600160a060020a03928316602482015260448101859052905183928316916323b872dd9160648083019260209291908290030181600087803b158015613f7457600080fd5b505af1158015613f88573d6000803e3d6000fd5b505050506040513d6020811015613f9e57600080fd5b50613fac9050848484614962565b613fb684836149fb565b604080518481524260208201528151600160a060020a0385169263ffffffff8816927f8828ce81f509aaae96d6f2ecfef78f524db72071a3be52386c8165b4ec92db36929081900390910190a350505050565b60008054600160a060020a03163314806140b157506000809054906101000a9004600160a060020a0316600160a060020a031633600160a060020a0316638da5cb5b6040518163ffffffff1660e060020a028152600401602060405180830381600087803b15801561407a57600080fd5b505af115801561408e573d6000803e3d6000fd5b505050506040513d60208110156140a457600080fd5b5051600160a060020a0316145b15156140b957fe5b6140c58260055461436e565b60048054604080517fdd62ed3e0000000000000000000000000000000000000000000000000000000081523393810193909352306024840152519293508392600160a060020a039091169163dd62ed3e9160448083019260209291908290030181600087803b15801561413757600080fd5b505af115801561414b573d6000803e3d6000fd5b505050506040513d602081101561416157600080fd5b5051101561416e57600080fd5b600480546002546005546040805160e060020a6323b872dd0281523395810195909552600160a060020a0392831660248601526044850191909152519116916323b872dd9160648083019260209291908290030181600087803b1580156141d457600080fd5b505af11580156141e8573d6000803e3d6000fd5b505050506040513d60208110156141fe57600080fd5b505060055460408051918252426020830152805163ffffffff86169260008051602061509b83398151915292908290030190a2600480546003546040805160e060020a6323b872dd0281523394810194909452600160a060020a03918216602485015260448401869052519116916323b872dd9160648083019260209291908290030181600087803b15801561429357600080fd5b505af11580156142a7573d6000803e3d6000fd5b505050506040513d60208110156142bd57600080fd5b505060408051838152426020820152815163ffffffff8616927fad45225b9d0759a2d0eb45446294664b010b92fc04825784a6892600e996fa3f928290030190a26143088383614ff7565b505050565b600054600160a060020a0316331461432457600080fd5b600054600160a060020a038281169116141561433f57600080fd5b6001805473ffffffffffffffffffffffffffffffffffffffff1916600160a060020a0392909216919091179055565b60008282018381101561437d57fe5b9392505050565b6003546040805160e260020a631ca07e5f02815263ffffffff8087166004830152841660248201529051600092600160a060020a031691637281f97c91604480830192602092919082900301818787803b1580156143e157600080fd5b505af11580156143f5573d6000803e3d6000fd5b505050506040513d602081101561440b57600080fd5b505190506144198184614684565b600354604080517fd2c023ee00000000000000000000000000000000000000000000000000000000815263ffffffff808916600483015260248201859052861660448201529051929350600160a060020a039091169163d2c023ee9160648082019260009290919082900301818387803b15801561449657600080fd5b505af11580156144aa573d6000803e3d6000fd5b5050505050505050565b6003546040805160e160020a6304526683028152600160a060020a03848116600483015263ffffffff87166024830152915160009392909216916308a4cd069160448082019260209290919082900301818787803b15801561451557600080fd5b505af1158015614529573d6000803e3d6000fd5b505050506040513d602081101561453f57600080fd5b5051905061454d8184614684565b600354604080517f784af991000000000000000000000000000000000000000000000000000000008152600160a060020a03868116600483015263ffffffff8916602483015260448201859052915193945091169163784af9919160648082019260009290919082900301818387803b15801561449657600080fd5b600080600080600080600087935083600160a060020a0316639a5c0abc8c8c6040518363ffffffff1660e060020a0281526004018083815260200182815260200192505050606060405180830381600087803b15801561462857600080fd5b505af115801561463c573d6000803e3d6000fd5b505050506040513d606081101561465257600080fd5b508051602082015160409092015190945090925090508983101561467257fe5b919b909a509098509650505050505050565b60008183101561469057fe5b50900390565b6003546040805160e060020a633fb95fb102815263ffffffff851660048201529051600092600160a060020a031691633fb95fb191602480830192602092919082900301818787803b1580156146eb57600080fd5b505af11580156146ff573d6000803e3d6000fd5b505050506040513d602081101561471557600080fd5b50519050614723818361436e565b600354604080517f3550275e00000000000000000000000000000000000000000000000000000000815263ffffffff87166004820152602481018490529051929350600160a060020a0390911691633550275e9160448082019260009290919082900301818387803b15801561479857600080fd5b505af11580156147ac573d6000803e3d6000fd5b50505050505050565b6003546040805160e060020a633fb95fb102815263ffffffff851660048201529051600092600160a060020a031691633fb95fb191602480830192602092919082900301818787803b15801561480a57600080fd5b505af115801561481e573d6000803e3d6000fd5b505050506040513d602081101561483457600080fd5b505190506147238183614684565b6003546040805160e660020a6266c78d028152600160a060020a038481166004830152915160009392909216916319b1e3409160248082019260209290919082900301818787803b15801561489657600080fd5b505af11580156148aa573d6000803e3d6000fd5b505050506040513d60208110156148c057600080fd5b505190506148ce818461436e565b600354604080517f93e94df6000000000000000000000000000000000000000000000000000000008152600160a060020a0386811660048301526024820185905291519394509116916393e94df69160448082019260009290919082900301818387803b15801561479857600080fd5b600082820283158061495a575082848281151561495757fe5b04145b151561437d57fe5b6003546040805160e160020a6304526683028152600160a060020a03848116600483015263ffffffff87166024830152915160009392909216916308a4cd069160448082019260209290919082900301818787803b1580156149c357600080fd5b505af11580156149d7573d6000803e3d6000fd5b505050506040513d60208110156149ed57600080fd5b5051905061454d818461436e565b600354604080517f77ac56b1000000000000000000000000000000000000000000000000000000008152600160a060020a03848116600483015263ffffffff86166024830152915191909216916377ac56b19160448083019260209291908290030181600087803b158015614a6f57600080fd5b505af1158015614a83573d6000803e3d6000fd5b505050506040513d6020811015614a9957600080fd5b50511515614b7a57600354604080517f2f2d80e7000000000000000000000000000000000000000000000000000000008152600160a060020a03848116600483015263ffffffff861660248301526001604483015291519190921691632f2d80e791606480830192600092919082900301818387803b158015614b1b57600080fd5b505af1158015614b2f573d6000803e3d6000fd5b5050604080514281529051600160a060020a038516935063ffffffff861692507fe9237cb14d0e4201c27a61b16e11cde12aecd0fea0c7e13cc9aa4fda0a57243a9181900360200190a35b5050565b6003546040805160e260020a631ca07e5f02815263ffffffff8087166004830152841660248201529051600092600160a060020a031691637281f97c91604480830192602092919082900301818787803b158015614bdb57600080fd5b505af1158015614bef573d6000803e3d6000fd5b505050506040513d6020811015614c0557600080fd5b50519050614419818461436e565b600354604080517f5173e83100000000000000000000000000000000000000000000000000000000815263ffffffff851660048201529051600092600160a060020a031691635173e83191602480830192602092919082900301818787803b158015614c7e57600080fd5b505af1158015614c92573d6000803e3d6000fd5b505050506040513d6020811015614ca857600080fd5b50519050614cb68183614684565b600354604080517fa62a5a0000000000000000000000000000000000000000000000000000000000815263ffffffff87166004820152602481018490529051929350600160a060020a039091169163a62a5a009160448082019260009290919082900301818387803b15801561479857600080fd5b600080600080600080600087935083600160a060020a031663ae5fe1f28c8c6040518363ffffffff1660e060020a0281526004018083815260200182815260200192505050606060405180830381600087803b158015614d8a57600080fd5b505af1158015614d9e573d6000803e3d6000fd5b505050506040513d6060811015614db457600080fd5b5080516020820151604090920151909450909250905089831015614dd457fe5b919a90995090975095505050505050565b6003546040805160e060020a63bebe8101028152600160a060020a0384811660048301529151600093929092169163bebe81019160248082019260209290919082900301818787803b158015614e3a57600080fd5b505af1158015614e4e573d6000803e3d6000fd5b505050506040513d6020811015614e6457600080fd5b50519050614e72818461436e565b600354604080517f23c64e49000000000000000000000000000000000000000000000000000000008152600160a060020a0386811660048301526024820185905291519394509116916323c64e499160448082019260009290919082900301818387803b15801561479857600080fd5b6003546040805160e060020a63947db38f028152600160a060020a03848116600483015263ffffffff871660248301529151600093929092169163947db38f9160448082019260209290919082900301818787803b158015614f4357600080fd5b505af1158015614f57573d6000803e3d6000fd5b505050506040513d6020811015614f6d57600080fd5b50519050614f7b818461436e565b600354604080517f56963e00000000000000000000000000000000000000000000000000000000008152600160a060020a03868116600483015263ffffffff891660248301526044820185905291519394509116916356963e009160648082019260009290919082900301818387803b15801561449657600080fd5b600354604080517f5173e83100000000000000000000000000000000000000000000000000000000815263ffffffff851660048201529051600092600160a060020a031691635173e83191602480830192602092919082900301818787803b15801561506257600080fd5b505af1158015615076573d6000803e3d6000fd5b505050506040513d602081101561508c57600080fd5b50519050614cb6818361436e56001dfc114b723b55501bc1ecc910accb0d336d88fdbaa6f846317b41ebd07ef548a165627a7a72305820eda98759d1226a6afc4de60bf570cc963383ad883630b972021e2f6077c26e1b0029",
  "source": "pragma solidity ^0.4.18;\nimport '../token/interfaces/IERC20Token.sol';\nimport './IFinancieInternalWallet.sol';\nimport './IFinancieBancorConverter.sol';\nimport './IFinancieInternalBank.sol';\nimport './IFinancieAuction.sol';\nimport '../utility/Owned.sol';\nimport '../utility/Utils.sol';\n\ncontract FinancieInternalWallet is IFinancieInternalWallet, Owned, Utils {\n\n    address teamWallet;\n    IFinancieInternalBank bank;\n    IERC20Token paymentCurrencyToken;\n    uint256 public transactionFee;\n\n    event TransactionFee(uint32 indexed _user_id, uint256 _amount, uint _timestamp);\n\n    event AddOwnedCardList(uint32 indexed _user_id, address indexed _address, uint _timestamp);\n\n    event DepositTokens(uint32 indexed _user_id, uint256 _amount, address indexed _token_address, uint _timestamp);\n    event WithdrawTokens(uint32 indexed _user_id, uint256 _amount, address indexed _token_address, uint _timestamp);\n\n    event DepositConsumableCurrencyTokens(uint32 indexed _user_id, uint256 _amount, uint _timestamp);\n    event DepositWithdrawableCurrencyTokens(uint32 indexed _user_id, uint256 _amount, uint _timestamp);\n    event DepositPendingRevenueCurrencyTokens(uint32 indexed _user_id, uint256 _amount, uint32 _revenueType, uint _timestamp);\n    event ConvertWithdrawableToCunsumableCurrencyTokens(uint32 indexed _user_id, uint256 _amount, uint _timestamp);\n    event WithdrawCurrencyTokens(uint32 indexed _user_id, uint256 _amount, uint _timestamp);\n    event WithdrawPendingRevenueCurrencyTokens(uint32 indexed _user_id, uint256 _amount, uint32 _revenueType, uint _timestamp);\n\n    event BuyCards(uint32 indexed _user_id, uint256 _currency_amount, uint256 _card_amount, address indexed _token_address, address indexed _bancor_address, uint256 _trading_fee, uint256 _transaction_fee, uint _timestamp);\n    event SellCards(uint32 indexed _user_id, uint256 _currency_amount, uint256 _card_amount, address indexed _token_address, address indexed _bancor_address, uint256 _trading_fee, uint256 _transaction_fee, uint _timestamp);\n    event BidCards(uint32 indexed _user_id, uint256 _amount, address indexed _token_address, address indexed _auction_address, uint256 _trading_fee, uint256 _transaction_fee, uint _timestamp);\n    event ReceiveCards(uint32 indexed _user_id, uint256 _amount, address indexed _token_address, address indexed _auction_address, uint _timestamp);\n\n    constructor(address _teamWallet, address _paymentCurrencyToken) public {\n        teamWallet = _teamWallet;\n        paymentCurrencyToken = IERC20Token(_paymentCurrencyToken);\n    }\n\n    modifier sameOwner {\n        assert(msg.sender == owner || IOwned(msg.sender).owner() == owner);\n        _;\n    }\n\n    function setInternalBank(address _bank)\n        public\n        ownerOnly\n    {\n        bank = IFinancieInternalBank(_bank);\n        bank.acceptOwnership();\n    }\n\n    function transferBnakOwnership(address _newOwner) public ownerOnly {\n        bank.transferOwnership(_newOwner);\n    }\n\n    function setTransactionFee(uint256 _amount)\n        public\n        ownerOnly\n    {\n        transactionFee = _amount;\n    }\n\n    function updateHolders(uint32 _userId, address _tokenAddress) internal {\n        if ( !bank.getHolderOfToken(_tokenAddress, _userId) ) {\n            bank.setHolderOfToken(_tokenAddress, _userId, true);\n            AddOwnedCardList(_userId, _tokenAddress, now);\n        }\n    }\n\n    function getBalanceOfToken(address _tokenAddress, uint32 _userId)\n        public\n        view\n        returns(uint256)\n    {\n        return bank.getBalanceOfToken(_tokenAddress, _userId);\n    }\n\n    function getBalanceOfConsumableCurrencyToken(uint32 _userId)\n        public\n        view\n        returns(uint256)\n    {\n        return bank.getBalanceOfConsumableCurrencyToken(_userId);\n    }\n\n    function getBalanceOfWithdrawableCurrencyToken(uint32 _userId)\n        public\n        view\n        returns(uint256)\n    {\n        return bank.getBalanceOfWithdrawableCurrencyToken(_userId);\n    }\n\n    function getBalanceOfPendingRevenueCurrencyToken(uint32 _userId, uint32 _revenueType)\n        public\n        view\n        returns(uint256)\n    {\n        return bank.getBalanceOfPendingRevenueCurrencyToken(_userId, _revenueType);\n    }\n\n    function depositTokens(uint32 _userId, uint256 _amount, address _tokenAddress)\n        public\n        sameOwner\n    {\n        assert(_tokenAddress != address(paymentCurrencyToken));\n        IERC20Token token = IERC20Token(_tokenAddress);\n        token.transferFrom(msg.sender, address(bank), _amount);\n\n        addBalanceOfTokens(_userId, _amount, _tokenAddress);\n\n        updateHolders(_userId, _tokenAddress);\n\n        emit DepositTokens(_userId, _amount, _tokenAddress, now);\n    }\n\n    function depositConsumableCurrencyTokens(uint32 _userId, uint256 _amount)\n        public\n        sameOwner\n    {\n        uint256 totalAmount = safeAdd(_amount, transactionFee);\n        require(paymentCurrencyToken.allowance(msg.sender, this) >= totalAmount);\n\n        // send transaction fee\n        paymentCurrencyToken.transferFrom(msg.sender, teamWallet, transactionFee);\n        emit TransactionFee(_userId, transactionFee, now);\n\n        // deposit to bank\n        paymentCurrencyToken.transferFrom(msg.sender, address(bank), _amount);\n        emit DepositConsumableCurrencyTokens(_userId, _amount, now);\n\n        addBalanceOfConsumableCurrencyTokens(_userId, _amount);\n    }\n\n    function depositWithdrawableCurrencyTokens(uint32 _userId, uint256 _amount)\n        public\n        sameOwner\n    {\n        paymentCurrencyToken.transferFrom(msg.sender, address(bank), _amount);\n\n        addBalanceOfWithdrawableCurrencyTokens(_userId, _amount);\n\n        emit DepositWithdrawableCurrencyTokens(_userId, _amount, now);\n    }\n\n    function depositPendingRevenueCurrencyTokens(uint32 _userId, uint256 _amount, uint32 _revenueType)\n        public\n        sameOwner\n    {\n        paymentCurrencyToken.transferFrom(msg.sender, address(bank), _amount);\n\n        addBalanceOfPendingRevenueCurrencyTokens(_userId, _amount, _revenueType);\n\n        emit DepositPendingRevenueCurrencyTokens(_userId, _amount, _revenueType, now);\n    }\n\n    function withdrawTokens(uint32 _userId, uint256 _amount, address _tokenAddress)\n        public\n        sameOwner\n    {\n        require(bank.getBalanceOfToken(_tokenAddress, _userId) >= _amount);\n        IERC20Token token = IERC20Token(_tokenAddress);\n\n        bank.transferTokens(_tokenAddress, teamWallet, _amount);\n\n        subBalanceOfTokens(_userId, _amount, _tokenAddress);\n\n        emit WithdrawTokens(_userId, _amount, _tokenAddress, now);\n    }\n\n    function convertWithdrawableToConsumableCurrencyTokens(uint32 _userId, uint256 _amount)\n        public\n        sameOwner\n    {\n        uint256 totalAmount = safeAdd(_amount, transactionFee);\n        require(bank.getBalanceOfWithdrawableCurrencyToken(_userId) >= totalAmount);\n\n        // send transaction fee\n        bank.transferCurrencyTokens(teamWallet, transactionFee);\n        emit TransactionFee(_userId, transactionFee, now);\n\n        // withdraw \"withdrawable\" currency\n        subBalanceOfWithdrawableCurrencyTokens(_userId, totalAmount);\n\n        // deposit as \"consumable\" currency\n        addBalanceOfConsumableCurrencyTokens(_userId, _amount);\n\n        emit ConvertWithdrawableToCunsumableCurrencyTokens(_userId, _amount, now);\n    }\n\n    function withdrawCurrencyTokens(uint32 _userId, uint256 _amount)\n        public\n        sameOwner\n    {\n        uint256 totalAmount = safeAdd(_amount, transactionFee);\n        require(bank.getBalanceOfWithdrawableCurrencyToken(_userId) >= totalAmount);\n\n        subBalanceOfWithdrawableCurrencyTokens(_userId, totalAmount);\n\n        bank.transferCurrencyTokens(teamWallet, totalAmount);\n\n        emit TransactionFee(_userId, transactionFee, now);\n        emit WithdrawCurrencyTokens(_userId, _amount, now);\n    }\n\n    function withdrawPendingRevenueCurrencyTokens(uint32 _userId, uint256 _amount, uint32 _revenueType)\n        public\n        sameOwner\n    {\n        uint256 totalAmount = safeAdd(_amount, transactionFee);\n        require(bank.getBalanceOfPendingRevenueCurrencyToken(_userId, _revenueType) >= totalAmount);\n\n        subBalanceOfPendingRevenueCurrencyTokens(_userId, totalAmount, _revenueType);\n\n        bank.transferCurrencyTokens(teamWallet, totalAmount);\n\n        emit TransactionFee(_userId, transactionFee, now);\n        emit WithdrawPendingRevenueCurrencyTokens(_userId, _amount, _revenueType, now);\n    }\n\n    function _buyCards(uint256 _amount, uint256 _minReturn, address _tokenAddress, address _bancorAddress)\n        private\n        returns(uint256, uint256, uint256)\n    {\n        IFinancieBancorConverter converter = IFinancieBancorConverter(_bancorAddress);\n        uint256 result;\n        uint256 heroFee;\n        uint256 teamFee;\n        (result, heroFee, teamFee) = converter.buyCards(_amount, _minReturn);\n        assert(result >= _minReturn);\n\n        return (result, heroFee, teamFee);\n    }\n\n    function delegateBuyCards(uint32 _userId, uint256 _amount, uint256 _minReturn, address _tokenAddress, address _bancorAddress)\n        public\n        sameOwner\n    {\n        require(_amount > 0);\n        uint256 totalAmount = safeAdd(_amount, transactionFee);\n        require(bank.getBalanceOfConsumableCurrencyToken(_userId) >= totalAmount);\n\n        subBalanceOfConsumableCurrencyTokens(_userId, totalAmount);\n\n        IERC20Token token = IERC20Token(_tokenAddress);\n        uint256 tokenDiff = token.balanceOf(bank);\n        uint256 currencyDiff = paymentCurrencyToken.balanceOf(bank);\n\n        // withdraw currency token to this internal wallet\n        bank.transferCurrencyTokens(this, _amount);\n\n        // send transaction fee\n        bank.transferCurrencyTokens(teamWallet, transactionFee);\n        emit TransactionFee(_userId, transactionFee, now);\n\n        if ( paymentCurrencyToken.allowance(this, _bancorAddress) < _amount ) {\n            assert(paymentCurrencyToken.approve(_bancorAddress, 0));\n        }\n        assert(paymentCurrencyToken.approve(_bancorAddress, _amount));\n        /* approveBancor(_amount, address(paymentCurrencyToken), _bancorAddress); */\n\n        uint256 result;\n        uint256 heroFee;\n        uint256 teamFee;\n        (result, heroFee, teamFee) = _buyCards(_amount, _minReturn, _tokenAddress, _bancorAddress);\n\n        token.transfer(bank, result);\n\n        tokenDiff = safeSub(token.balanceOf(bank), tokenDiff);\n        // check received card tokens amount equals to converted amount\n        assert(result == tokenDiff);\n\n        currencyDiff = safeSub(safeAdd(currencyDiff, heroFee), paymentCurrencyToken.balanceOf(bank));\n        // check consumed currency tokens amount equals to specified amount\n        assert(totalAmount == currencyDiff);\n\n        addBalanceOfTokens(_userId, result, _tokenAddress);\n\n        emit BuyCards(_userId, safeSub(_amount, safeAdd(heroFee, teamFee)), result, _tokenAddress, _bancorAddress, safeAdd(heroFee, teamFee), transactionFee, now);\n\n        updateHolders(_userId, _tokenAddress);\n\n    }\n\n    function _sellCards(uint32 _userId, uint256 _amount, uint256 _minReturn, address _tokenAddress, address _bancorAddress)\n        private\n        returns(uint256, uint256, uint256)\n    {\n        IFinancieBancorConverter converter = IFinancieBancorConverter(_bancorAddress);\n        uint256 result;\n        uint256 heroFee;\n        uint256 teamFee;\n        (result, heroFee, teamFee) = converter.sellCards(_amount, _minReturn);\n        assert(result >= _minReturn);\n        return (result, heroFee, teamFee);\n    }\n\n    function delegateSellCards(uint32 _userId, uint256 _amount, uint256 _minReturn, address _tokenAddress, address _bancorAddress)\n        public\n        sameOwner\n    {\n        require(bank.getBalanceOfToken(_tokenAddress, _userId) >= _amount);\n        require(_amount > 0);\n\n        IERC20Token token = IERC20Token(_tokenAddress);\n        uint256 tokenDiff = token.balanceOf(bank);\n        uint256 currencyDiff = paymentCurrencyToken.balanceOf(bank);\n\n        // withdraw card token to this internal wallet\n        bank.transferTokens(_tokenAddress, this, _amount);\n\n        if ( token.allowance(this, _bancorAddress) < _amount ) {\n            assert(token.approve(_bancorAddress, 0));\n        }\n        assert(token.approve(_bancorAddress, _amount));\n\n        subBalanceOfTokens(_userId, _amount, _tokenAddress);\n\n        uint256 result;\n        uint256 heroFee;\n        uint256 teamFee;\n        (result, heroFee, teamFee) = _sellCards(_userId, _amount, _minReturn, _tokenAddress, _bancorAddress);\n\n        uint256 net = safeSub(result, transactionFee);\n        paymentCurrencyToken.transfer(bank, net);\n        emit SellCards(_userId, net, _amount, _tokenAddress, _bancorAddress, safeAdd(heroFee, teamFee), transactionFee, now);\n\n        // send transaction fee\n        paymentCurrencyToken.transfer(teamWallet, transactionFee);\n        emit TransactionFee(_userId, transactionFee, now);\n\n        currencyDiff = safeSub(safeSub(paymentCurrencyToken.balanceOf(bank), heroFee), currencyDiff);\n        // check received currency tokens amount equals to converted amount\n        assert(net == currencyDiff);\n\n        tokenDiff = safeSub(tokenDiff, token.balanceOf(bank));\n        // check consumed card tokens amount equals to specified amount\n        assert(_amount == tokenDiff);\n\n        addBalanceOfWithdrawableCurrencyTokens(_userId, net);\n    }\n\n    function delegateBidCards(uint32 _userId, uint256 _amount, address _auctionAddress)\n        public\n        sameOwner\n    {\n        require(_amount > 0);\n        uint256 totalFee;\n        if ( bank.getBidsOfAuctions(_auctionAddress, _userId) == 0 ) {\n            // fee = bid + receive\n            totalFee = transactionFee * 2;\n        } else {\n            // fee = bid\n            totalFee = transactionFee;\n        }\n        require(bank.getBalanceOfConsumableCurrencyToken(_userId) >= safeAdd(_amount, totalFee));\n\n        // send transaction fee\n        bank.transferCurrencyTokens(teamWallet, totalFee);\n        emit TransactionFee(_userId, totalFee, now);\n        subBalanceOfConsumableCurrencyTokens(_userId, totalFee);\n\n        uint256 currencyBefore = paymentCurrencyToken.balanceOf(bank);\n\n        // withdraw currency token to this internal wallet\n        bank.transferCurrencyTokens(this, _amount);\n\n        // receive tokens on this wallet if available\n        IFinancieAuction auction = IFinancieAuction(_auctionAddress);\n        if ( paymentCurrencyToken.allowance(this, _auctionAddress) < _amount ) {\n            paymentCurrencyToken.approve(_auctionAddress, 0);\n        }\n        paymentCurrencyToken.approve(_auctionAddress, _amount);\n\n        uint256 amount;\n        uint256 heroFee;\n        uint256 teamFee;\n        (amount, heroFee, teamFee) = auction.bidToken(bank, _amount);\n\n        uint256 extra = safeSub(_amount, amount);\n        if ( extra > 0 ) {\n            paymentCurrencyToken.transfer(bank, extra);\n        }\n\n        uint256 currencyAfter = paymentCurrencyToken.balanceOf(bank);\n\n        uint256 result = safeSub(currencyBefore, currencyAfter);\n        assert(result == teamFee);\n\n        addTotalBidsOfAuctions(amount, _auctionAddress);\n        addBidsOfAuctions(_userId, amount, _auctionAddress);\n        subBalanceOfConsumableCurrencyTokens(_userId, amount);\n\n        address tokenAddress = auction.targetToken();\n        emit BidCards(_userId, heroFee, tokenAddress, _auctionAddress, teamFee, totalFee, now);\n    }\n\n    function delegateReceiveCards(uint32 _userId, address _auctionAddress)\n        public\n        sameOwner\n    {\n        // receive tokens on this wallet if available\n        IFinancieAuction auction = IFinancieAuction(_auctionAddress);\n        require(auction.auctionFinished());\n\n        address tokenAddress = auction.targetToken();\n        IERC20Token token = IERC20Token(tokenAddress);\n\n        if ( auction.canClaimTokens(bank) ) {\n            uint256 amount = auction.estimateClaimTokens(bank);\n            assert(amount > 0);\n\n            uint256 tokenBefore = token.balanceOf(bank);\n            auction.proxyClaimTokens(bank);\n            uint256 tokenAfter = token.balanceOf(bank);\n\n            assert(safeSub(tokenAfter, tokenBefore) == amount);\n\n            addReceivedCardsOfAuctions(amount, _auctionAddress);\n        }\n\n        // assign tokens amount as received * bids / total\n        uint256 bidsauction_amount = bank.getBidsOfAuctions(_auctionAddress, _userId);\n        if ( bidsauction_amount > 0 ) {\n            uint256 result = safeMul(bank.getRecvCardsOfAuctions(_auctionAddress) / (10 ** 10), bidsauction_amount) / (bank.getTotalBidsOfAuctions(_auctionAddress) / (10 ** 10));\n            addBalanceOfTokens(_userId, result, tokenAddress);\n            bank.setBidsOfAuctions(_auctionAddress, _userId, 0);\n\n            emit ReceiveCards(_userId, result, tokenAddress, _auctionAddress, now);\n            updateHolders(_userId, tokenAddress);\n        }\n    }\n\n    function delegateCanClaimTokens(uint32 _userId, address _auctionAddress)\n        public\n        view\n        returns(bool)\n    {\n        require(IOwned(_auctionAddress).owner() == owner);\n\n        IFinancieAuction auction = IFinancieAuction(_auctionAddress);\n        if ( auction.auctionFinished() ) {\n            uint256 bidsauction_amount = bank.getBidsOfAuctions(_auctionAddress, _userId);\n            if ( bidsauction_amount > 0 ) {\n                if ( auction.canClaimTokens(bank) ) {\n                    return true;\n                }\n\n                uint256 estimate = safeMul(bank.getRecvCardsOfAuctions(_auctionAddress) / (10 ** 10), bidsauction_amount) / (bank.getTotalBidsOfAuctions(_auctionAddress) / (10 ** 10));\n                return estimate > 0;\n            }\n        }\n\n        return false;\n    }\n\n    function delegateEstimateClaimTokens(uint32 _userId, address _auctionAddress)\n        public\n        view\n        returns(uint256)\n    {\n        uint256 bidsauction_amount = bank.getBidsOfAuctions(_auctionAddress, _userId);\n        if ( bidsauction_amount > 0 ) {\n            IFinancieAuction auction = IFinancieAuction(_auctionAddress);\n            if ( auction.missingFundsToEndAuction() == 0 ) {\n                if ( auction.bidsAmount(bank) > 0 ) {\n                    // Bank had not received yet\n                    uint256 totalEstimation = auction.estimateClaimTokens(bank);\n                    return safeMul(totalEstimation / (10 ** 10), bidsauction_amount) / (bank.getTotalBidsOfAuctions(_auctionAddress) / (10 ** 10));\n                } else {\n                    // Bank had already received\n                    return safeMul(bank.getRecvCardsOfAuctions(_auctionAddress) / (10 ** 10), bidsauction_amount) / (bank.getTotalBidsOfAuctions(_auctionAddress) / (10 ** 10));\n                }\n            } else {\n                // Auction ongoing\n                return safeMul(auction.tokenMultiplier(), bidsauction_amount) / auction.price();\n            }\n        }\n\n        return 0;\n    }\n\n    function addBalanceOfConsumableCurrencyTokens(uint32 _userId, uint256 _amount) private {\n        uint256 amount = bank.getBalanceOfConsumableCurrencyToken(_userId);\n        amount = safeAdd(amount, _amount);\n        bank.setBalanceOfConsumableCurrencyToken(_userId, amount);\n    }\n\n    function subBalanceOfConsumableCurrencyTokens(uint32 _userId, uint256 _amount) private {\n        uint256 amount = bank.getBalanceOfConsumableCurrencyToken(_userId);\n        amount = safeSub(amount, _amount);\n        bank.setBalanceOfConsumableCurrencyToken(_userId, amount);\n    }\n\n    function addBalanceOfWithdrawableCurrencyTokens(uint32 _userId, uint256 _amount) private {\n        uint256 amount = bank.getBalanceOfWithdrawableCurrencyToken(_userId);\n        amount = safeAdd(amount, _amount);\n        bank.setBalanceOfWithdrawableCurrencyToken(_userId, amount);\n    }\n\n    function subBalanceOfWithdrawableCurrencyTokens(uint32 _userId, uint256 _amount) private {\n        uint256 amount = bank.getBalanceOfWithdrawableCurrencyToken(_userId);\n        amount = safeSub(amount, _amount);\n        bank.setBalanceOfWithdrawableCurrencyToken(_userId, amount);\n    }\n\n    function addBalanceOfPendingRevenueCurrencyTokens(uint32 _userId, uint256 _amount, uint32 _revenueType) private {\n        uint256 amount = bank.getBalanceOfPendingRevenueCurrencyToken(_userId, _revenueType);\n        amount = safeAdd(amount, _amount);\n        bank.setBalanceOfPendingRevenueCurrencyToken(_userId, amount, _revenueType);\n    }\n\n    function subBalanceOfPendingRevenueCurrencyTokens(uint32 _userId, uint256 _amount, uint32 _revenueType) private {\n        uint256 amount = bank.getBalanceOfPendingRevenueCurrencyToken(_userId, _revenueType);\n        amount = safeSub(amount, _amount);\n        bank.setBalanceOfPendingRevenueCurrencyToken(_userId, amount, _revenueType);\n    }\n\n    function addBalanceOfTokens(uint32 _userId, uint256 _amount, address _tokenAddress) private {\n        uint256 amount = bank.getBalanceOfToken(_tokenAddress, _userId);\n        amount = safeAdd(amount, _amount);\n        bank.setBalanceOfToken(_tokenAddress, _userId, amount);\n    }\n\n    function subBalanceOfTokens(uint32 _userId, uint256 _amount, address _tokenAddress) private {\n        uint256 amount = bank.getBalanceOfToken(_tokenAddress, _userId);\n        amount = safeSub(amount, _amount);\n        bank.setBalanceOfToken(_tokenAddress, _userId, amount);\n    }\n\n    function addTotalBidsOfAuctions(uint256 _amount, address _auctionAddress) private {\n        uint256 amount = bank.getTotalBidsOfAuctions(_auctionAddress);\n        amount = safeAdd(amount, _amount);\n        bank.setTotalBidsOfAuctions(_auctionAddress, amount);\n    }\n\n    function addBidsOfAuctions(uint32 _userId, uint256 _amount, address _auctionAddress) private {\n        uint256 amount = bank.getBidsOfAuctions(_auctionAddress, _userId);\n        amount = safeAdd(amount, _amount);\n        bank.setBidsOfAuctions(_auctionAddress, _userId, amount);\n    }\n\n    function addReceivedCardsOfAuctions(uint256 _amount, address _auctionAddress) private {\n        uint256 amount = bank.getRecvCardsOfAuctions(_auctionAddress);\n        amount = safeAdd(amount, _amount);\n        bank.setRecvCardsOfAuctions(_auctionAddress, amount);\n    }\n\n}\n",
  "sourcePath": "/Users/rudo/Documents/ichiba/submodules/contracts/solidity/contracts/Financie/FinancieInternalWallet.sol",
  "compiler": {
    "name": "solc",
    "version": "0.4.24+commit.e67f0147.Emscripten.clang"
  },
  "schemaVersion": "2.0.1",
  "updatedAt": "2019-03-01T08:20:46.937Z"
}