{
  "contractName": "FinancieTicketStoreFactory",
  "abi": [
    {
      "inputs": [],
      "payable": false,
      "stateMutability": "nonpayable",
      "type": "constructor"
    },
    {
      "anonymous": false,
      "inputs": [
        {
          "indexed": true,
          "name": "_storeAddress",
          "type": "address"
        },
        {
          "indexed": true,
          "name": "_owner",
          "type": "address"
        }
      ],
      "name": "NewTicketStore",
      "type": "event"
    },
    {
      "constant": false,
      "inputs": [
        {
          "name": "_notifier_address",
          "type": "address"
        },
        {
          "name": "_managedContracts",
          "type": "address"
        },
        {
          "name": "_platformToken",
          "type": "address"
        },
        {
          "name": "_ether_token",
          "type": "address"
        }
      ],
      "name": "createTicketStore",
      "outputs": [
        {
          "name": "storeAddress",
          "type": "address"
        }
      ],
      "payable": false,
      "stateMutability": "nonpayable",
      "type": "function"
    }
  ],
  "bytecode": "0x608060405234801561001057600080fd5b5061141b806100206000396000f3006080604052600436106100405763ffffffff7c0100000000000000000000000000000000000000000000000000000000600035041663720ea8528114610045575b600080fd5b34801561005157600080fd5b5061008573ffffffffffffffffffffffffffffffffffffffff600435811690602435811690604435811690606435166100ae565b6040805173ffffffffffffffffffffffffffffffffffffffff9092168252519081900360200190f35b6000806000868686866100bf6101ed565b73ffffffffffffffffffffffffffffffffffffffff9485168152928416602084015290831660408084019190915292166060820152905190819003608001906000f080158015610113573d6000803e3d6000fd5b50604080517ff2fde38b000000000000000000000000000000000000000000000000000000008152336004820152905191935073ffffffffffffffffffffffffffffffffffffffff84169163f2fde38b9160248082019260009290919082900301818387803b15801561018557600080fd5b505af1158015610199573d6000803e3d6000fd5b505060405184935033925073ffffffffffffffffffffffffffffffffffffffff841691507f477bb4b0f47cc83348faea9d7f11e31e514c9aec45026e958c2399f658a49d3d90600090a39695505050505050565b6040516111f2806101fe833901905600608060405234801561001057600080fd5b506040516080806111f283398101604090815281516020830151918301516060909301516000805433600160a060020a0319918216178255600280548216600160a060020a03958616179055600380548216958516959095179094556004805485169584169590951790945560058054909316911617905561115a90819061009890396000f3006080604052600436106100f85763ffffffff60e060020a60003504166309276ea481146100fd57806316b150b91461012e5780631885933514610161578063211df8281461018d57806321749841146101bf57806379ba5097146101e057806381b92e5d146101f5578063849abc8b146102165780638da5cb5b1461024957806390567f7c1461025e57806397ff1f961461028e578063a5f8cdbb146102a3578063b59239a4146102c4578063b8066bcb146102dc578063c2b0ea1c146102f1578063d1b812cd1461031b578063d4ee1d9014610330578063f2fde38b14610345578063fab042b714610366578063fdbafc6d14610387575b600080fd5b34801561010957600080fd5b506101126103a8565b60408051600160a060020a039092168252519081900360200190f35b34801561013a57600080fd5b5061014f600160a060020a03600435166103b7565b60408051918252519081900360200190f35b34801561016d57600080fd5b506101766103d5565b6040805161ffff9092168252519081900360200190f35b34801561019957600080fd5b506101bd600160a060020a03600435811690602435166044356064356084356103db565b005b3480156101cb57600080fd5b5061014f600160a060020a036004351661056a565b3480156101ec57600080fd5b506101bd610602565b34801561020157600080fd5b5061014f600160a060020a036004351661068a565b34801561022257600080fd5b506101bd600160a060020a036004358116906024351660443560643560843560a4356106a8565b34801561025557600080fd5b506101126109c6565b34801561026a57600080fd5b506101bd600160a060020a03600435811690602435811690604435166064356109d5565b34801561029a57600080fd5b50610112610a9d565b3480156102af57600080fd5b506101bd600160a060020a0360043516610aac565b3480156102d057600080fd5b50610112600435610e3a565b3480156102e857600080fd5b50610112610e62565b3480156102fd57600080fd5b506101bd600160a060020a0360043581169060243516604435610e71565b34801561032757600080fd5b50610112610f28565b34801561033c57600080fd5b50610112610f37565b34801561035157600080fd5b506101bd600160a060020a0360043516610f46565b34801561037257600080fd5b5061014f600160a060020a0360043516610fa7565b34801561039357600080fd5b50610112600160a060020a0360043516610fc5565b600254600160a060020a031681565b600160a060020a031660009081526006602052604090206003015490565b60075490565b60008054600160a060020a031633146103f357600080fd5b85905060a06040519081016040528082600160a060020a031663525564216040518163ffffffff1660e060020a028152600401602060405180830381600087803b15801561044057600080fd5b505af1158015610454573d6000803e3d6000fd5b505050506040513d602081101561046a57600080fd5b505163ffffffff9081168252600160a060020a039788166020838101919091526040808401989098526060808401979097526080928301959095529787166000818152600686528781208451815497860151909a166401000000000277ffffffffffffffffffffffffffffffffffffffff00000000199a909b1663ffffffff1990971696909617989098169890981784559481015160018085019190915593810151600284015590930151600390910155600780549182018155909252507fa66cc928b5edb82af9bd49922954155ab7b0942694bea4ce44661d9a8736c68801805473ffffffffffffffffffffffffffffffffffffffff19169091179055565b604080517f70a0823100000000000000000000000000000000000000000000000000000000815230600482015290516000918391600160a060020a038316916370a0823191602480830192602092919082900301818887803b1580156105cf57600080fd5b505af11580156105e3573d6000803e3d6000fd5b505050506040513d60208110156105f957600080fd5b50519392505050565b600154600160a060020a0316331461061957600080fd5b60015460008054604051600160a060020a0393841693909116917f343765429aea5a34b3ff6a3785a98a5abb2597aca87bfbb58632c173d585373a91a3600180546000805473ffffffffffffffffffffffffffffffffffffffff19908116600160a060020a03841617909155169055565b600160a060020a031660009081526006602052604090206001015490565b600354604080517f33920503000000000000000000000000000000000000000000000000000000008152600160a060020a03808a166004830152915160009384938b9391169163339205039160248082019260209290919082900301818887803b15801561071557600080fd5b505af1158015610729573d6000803e3d6000fd5b505050506040513d602081101561073f57600080fd5b5051151561074c57600080fd5b600354604080517f33920503000000000000000000000000000000000000000000000000000000008152600160a060020a03808c16600483015291518b9392909216916333920503916024808201926020929091908290030181600087803b1580156107b757600080fd5b505af11580156107cb573d6000803e3d6000fd5b505050506040513d60208110156107e157600080fd5b505115156107ee57600080fd5b600054600160a060020a0316331461080557600080fd5b6000881161081257600080fd5b6000871161081f57600080fd5b6000861161082c57600080fd5b6000851161083957600080fd5b604080517f23b872dd000000000000000000000000000000000000000000000000000000008152336004820152306024820152604481018a905290518b9550859450600160a060020a038516916323b872dd9160648083019260209291908290030181600087803b1580156108ad57600080fd5b505af11580156108c1573d6000803e3d6000fd5b505050506040513d60208110156108d757600080fd5b505115156108e157fe5b6108ee8a8a8989896103db565b88600160a060020a031684600160a060020a031663525564216040518163ffffffff1660e060020a028152600401602060405180830381600087803b15801561093657600080fd5b505af115801561094a573d6000803e3d6000fd5b505050506040513d602081101561096057600080fd5b505160408051338152600160a060020a038e1660208201528082018c9052606081018b9052905163ffffffff909216917f8f5fdd208285241ed50ec09cde9140a51fef6fffa09a3145a8b1b6fae485032e9181900360800190a350505050505050505050565b600054600160a060020a031681565b60008054600160a060020a031633146109ed57600080fd5b50604080517f23b872dd000000000000000000000000000000000000000000000000000000008152600160a060020a038581166004830152848116602483015260448201849052915186928316916323b872dd9160648083019260209291908290030181600087803b158015610a6257600080fd5b505af1158015610a76573d6000803e3d6000fd5b505050506040513d6020811015610a8c57600080fd5b50511515610a9657fe5b5050505050565b600354600160a060020a031681565b600160a060020a03811660009081526006602052604081206002810154909190819081904210801590610ae25750836003015442105b1515610aed57600080fd5b83546001850154604080517f70a082310000000000000000000000000000000000000000000000000000000081523360048201529051640100000000909304600160a060020a03169550909185916370a082319160248083019260209291908290030181600087803b158015610b6257600080fd5b505af1158015610b76573d6000803e3d6000fd5b505050506040513d6020811015610b8c57600080fd5b50511015610b9957600080fd5b83546001850154604080517f79cc6790000000000000000000000000000000000000000000000000000000008152336004820152602481019290925251640100000000909204600160a060020a0316935083916379cc67909160448082019260009290919082900301818387803b158015610c1357600080fd5b505af1158015610c27573d6000803e3d6000fd5b5050604080517f70a08231000000000000000000000000000000000000000000000000000000008152306004820152905188945060019350600160a060020a03851692506370a08231916024808201926020929091908290030181600087803b158015610c9357600080fd5b505af1158015610ca7573d6000803e3d6000fd5b505050506040513d6020811015610cbd57600080fd5b50511015610cca57600080fd5b604080517fa9059cbb000000000000000000000000000000000000000000000000000000008152336004820152600160248201529051600160a060020a0383169163a9059cbb9160448083019260209291908290030181600087803b158015610d3257600080fd5b505af1158015610d46573d6000803e3d6000fd5b505050506040513d6020811015610d5c57600080fd5b5050600180850154610d749133918591859190610feb565b84600160a060020a031682600160a060020a031663525564216040518163ffffffff1660e060020a028152600401602060405180830381600087803b158015610dbc57600080fd5b505af1158015610dd0573d6000803e3d6000fd5b505050506040513d6020811015610de657600080fd5b5051600186810154604080519283526020830191909152805163ffffffff9093169233927f8b81c441e6a2d50721c862fec17639bcb8b0f90493c1a705139e6e5f206ad93c92908290030190a45050505050565b6007805482908110610e4857fe5b600091825260209091200154600160a060020a0316905081565b600554600160a060020a031681565b60008054600160a060020a03163314610e8957600080fd5b50604080517f095ea7b3000000000000000000000000000000000000000000000000000000008152600160a060020a038481166004830152602482018490529151859283169163095ea7b39160448083019260209291908290030181600087803b158015610ef657600080fd5b505af1158015610f0a573d6000803e3d6000fd5b505050506040513d6020811015610f2057600080fd5b505050505050565b600454600160a060020a031681565b600154600160a060020a031681565b600054600160a060020a03163314610f5d57600080fd5b600054600160a060020a0382811691161415610f7857600080fd5b6001805473ffffffffffffffffffffffffffffffffffffffff1916600160a060020a0392909216919091179055565b600160a060020a031660009081526006602052604090206002015490565b600160a060020a0390811660009081526006602052604090205464010000000090041690565b600260009054906101000a9004600160a060020a0316600160a060020a0316636f7798c96040518163ffffffff1660e060020a028152600401602060405180830381600087803b15801561103e57600080fd5b505af1158015611052573d6000803e3d6000fd5b505050506040513d602081101561106857600080fd5b50516002805473ffffffffffffffffffffffffffffffffffffffff1916600160a060020a039283161790819055604080517f5b62fabf000000000000000000000000000000000000000000000000000000008152888416600482015287841660248201528684166044820152606481018690526084810185905290519190921691635b62fabf9160a480830192600092919082900301818387803b15801561110f57600080fd5b505af1158015611123573d6000803e3d6000fd5b5050505050505050505600a165627a7a72305820545561b8ad7fcb47788135b5fa5a39f4ecc745483f19140461c3e4a1e13ddc270029a165627a7a72305820fd785d23b54f15303bf215c84ef6d6c3873bb830c12a7220540071836f851f8f0029",
  "source": "pragma solidity ^0.4.18;\nimport './IFinancieNotifier.sol';\nimport './IFinancieManagedContracts.sol';\nimport './IFinancieTicketStoreFactory.sol';\nimport './FinancieTicketStore.sol';\n\n\ncontract FinancieTicketStoreFactory is IFinancieTicketStoreFactory {\n\n  event NewTicketStore(address indexed _storeAddress, address indexed _owner);\n\n    /**\n        @dev constructor\n    */\n    constructor() public{}\n\n    /**\n        @dev creates a new ticketstore with the given arguments and transfers\n        the ownership and management to the sender.\n\n        @param  _notifier_address      FinancieNotifier\n        @param  _managedContracts      FnancieMangeContracts\n        @param  _platformToken         FinanciePlatformToken\n        @param  _ether_token           EtherToken\n\n        @return a new ticketstore\n    */\n    function createTicketStore(\n        IFinancieNotifier _notifier_address,\n        IFinancieManagedContracts _managedContracts,\n        IERC20Token _platformToken,\n        IERC20Token _ether_token\n    ) public returns(address storeAddress) {\n        FinancieTicketStore store = new FinancieTicketStore(\n            address(_notifier_address),\n            address(_managedContracts),\n            address(_platformToken),\n            address(_ether_token)\n        );\n\n        store.transferOwnership(msg.sender);\n\n        address _storeAddress = address(store);\n        emit NewTicketStore(_storeAddress, msg.sender);\n        return _storeAddress;\n    }\n\n}\n",
  "sourcePath": "/Users/rudo/Documents/ichiba/submodules/contracts/solidity/contracts/Financie/FinancieTicketStoreFactory.sol",
  "compiler": {
    "name": "solc",
    "version": "0.4.24+commit.e67f0147.Emscripten.clang"
  },
  "schemaVersion": "2.0.1",
  "updatedAt": "2019-03-01T08:20:46.951Z"
}