{
  "contractName": "FinancieNotifier",
  "abi": [
    {
      "constant": true,
      "inputs": [],
      "name": "currencyToken",
      "outputs": [
        {
          "name": "",
          "type": "address"
        }
      ],
      "payable": false,
      "stateMutability": "view",
      "type": "function"
    },
    {
      "constant": false,
      "inputs": [],
      "name": "acceptOwnership",
      "outputs": [],
      "payable": false,
      "stateMutability": "nonpayable",
      "type": "function"
    },
    {
      "constant": true,
      "inputs": [],
      "name": "owner",
      "outputs": [
        {
          "name": "",
          "type": "address"
        }
      ],
      "payable": false,
      "stateMutability": "view",
      "type": "function"
    },
    {
      "constant": true,
      "inputs": [],
      "name": "managedContracts",
      "outputs": [
        {
          "name": "",
          "type": "address"
        }
      ],
      "payable": false,
      "stateMutability": "view",
      "type": "function"
    },
    {
      "constant": true,
      "inputs": [],
      "name": "platformToken",
      "outputs": [
        {
          "name": "",
          "type": "address"
        }
      ],
      "payable": false,
      "stateMutability": "view",
      "type": "function"
    },
    {
      "constant": true,
      "inputs": [],
      "name": "newOwner",
      "outputs": [
        {
          "name": "",
          "type": "address"
        }
      ],
      "payable": false,
      "stateMutability": "view",
      "type": "function"
    },
    {
      "constant": false,
      "inputs": [
        {
          "name": "_tradeOperator",
          "type": "address"
        },
        {
          "name": "_fundOperator",
          "type": "address"
        }
      ],
      "name": "setOperators",
      "outputs": [],
      "payable": false,
      "stateMutability": "nonpayable",
      "type": "function"
    },
    {
      "constant": false,
      "inputs": [
        {
          "name": "_newOwner",
          "type": "address"
        }
      ],
      "name": "transferOwnership",
      "outputs": [],
      "payable": false,
      "stateMutability": "nonpayable",
      "type": "function"
    },
    {
      "inputs": [
        {
          "name": "_managedContracts",
          "type": "address"
        },
        {
          "name": "_platformToken",
          "type": "address"
        },
        {
          "name": "_currencyToken",
          "type": "address"
        }
      ],
      "payable": false,
      "stateMutability": "nonpayable",
      "type": "constructor"
    },
    {
      "payable": true,
      "stateMutability": "payable",
      "type": "fallback"
    },
    {
      "anonymous": false,
      "inputs": [
        {
          "indexed": true,
          "name": "_card",
          "type": "address"
        },
        {
          "indexed": false,
          "name": "_timestamp",
          "type": "uint256"
        }
      ],
      "name": "ApproveNewCards",
      "type": "event"
    },
    {
      "anonymous": false,
      "inputs": [
        {
          "indexed": true,
          "name": "_card",
          "type": "address"
        },
        {
          "indexed": true,
          "name": "_auction",
          "type": "address"
        },
        {
          "indexed": false,
          "name": "_timestamp",
          "type": "uint256"
        }
      ],
      "name": "CardAuctionFinalized",
      "type": "event"
    },
    {
      "anonymous": false,
      "inputs": [
        {
          "indexed": true,
          "name": "_card",
          "type": "address"
        },
        {
          "indexed": true,
          "name": "_bancor",
          "type": "address"
        },
        {
          "indexed": false,
          "name": "_timestamp",
          "type": "uint256"
        }
      ],
      "name": "ApproveNewBancor",
      "type": "event"
    },
    {
      "anonymous": false,
      "inputs": [
        {
          "indexed": true,
          "name": "_sender",
          "type": "address"
        },
        {
          "indexed": true,
          "name": "_target",
          "type": "address"
        },
        {
          "indexed": true,
          "name": "_eventType",
          "type": "uint8"
        },
        {
          "indexed": false,
          "name": "_from",
          "type": "address"
        },
        {
          "indexed": false,
          "name": "_to",
          "type": "address"
        },
        {
          "indexed": false,
          "name": "_paidAmount",
          "type": "uint256"
        },
        {
          "indexed": false,
          "name": "_receivedAmount",
          "type": "uint256"
        },
        {
          "indexed": false,
          "name": "_timestamp",
          "type": "uint256"
        }
      ],
      "name": "Log",
      "type": "event"
    },
    {
      "anonymous": false,
      "inputs": [
        {
          "indexed": true,
          "name": "_sender",
          "type": "address"
        },
        {
          "indexed": true,
          "name": "_address",
          "type": "address"
        },
        {
          "indexed": false,
          "name": "_timestamp",
          "type": "uint256"
        }
      ],
      "name": "AddOwnedCardList",
      "type": "event"
    },
    {
      "anonymous": false,
      "inputs": [
        {
          "indexed": true,
          "name": "_sender",
          "type": "address"
        },
        {
          "indexed": true,
          "name": "_from",
          "type": "address"
        },
        {
          "indexed": true,
          "name": "_to",
          "type": "address"
        },
        {
          "indexed": false,
          "name": "_amountFrom",
          "type": "uint256"
        },
        {
          "indexed": false,
          "name": "_amountTo",
          "type": "uint256"
        },
        {
          "indexed": false,
          "name": "_timestamp",
          "type": "uint256"
        }
      ],
      "name": "ConvertCards",
      "type": "event"
    },
    {
      "anonymous": false,
      "inputs": [
        {
          "indexed": true,
          "name": "_sender",
          "type": "address"
        },
        {
          "indexed": true,
          "name": "_to",
          "type": "address"
        },
        {
          "indexed": false,
          "name": "_amount",
          "type": "uint256"
        },
        {
          "indexed": false,
          "name": "_timestamp",
          "type": "uint256"
        }
      ],
      "name": "BidCards",
      "type": "event"
    },
    {
      "anonymous": false,
      "inputs": [
        {
          "indexed": true,
          "name": "_sender",
          "type": "address"
        },
        {
          "indexed": true,
          "name": "_to",
          "type": "address"
        },
        {
          "indexed": false,
          "name": "_bids",
          "type": "uint256"
        },
        {
          "indexed": false,
          "name": "_amount",
          "type": "uint256"
        },
        {
          "indexed": false,
          "name": "_timestamp",
          "type": "uint256"
        }
      ],
      "name": "WithdrawalCards",
      "type": "event"
    },
    {
      "anonymous": false,
      "inputs": [
        {
          "indexed": true,
          "name": "_sender",
          "type": "address"
        },
        {
          "indexed": true,
          "name": "_card",
          "type": "address"
        },
        {
          "indexed": false,
          "name": "_amount",
          "type": "uint256"
        },
        {
          "indexed": false,
          "name": "_timestamp",
          "type": "uint256"
        }
      ],
      "name": "BurnCards",
      "type": "event"
    },
    {
      "anonymous": false,
      "inputs": [
        {
          "indexed": false,
          "name": "_sender",
          "type": "address"
        },
        {
          "indexed": true,
          "name": "_target",
          "type": "address"
        },
        {
          "indexed": true,
          "name": "_card",
          "type": "address"
        },
        {
          "indexed": true,
          "name": "_receiver",
          "type": "uint32"
        },
        {
          "indexed": false,
          "name": "_amount",
          "type": "uint256"
        },
        {
          "indexed": false,
          "name": "_timestamp",
          "type": "uint256"
        }
      ],
      "name": "AuctionHeroRevenue",
      "type": "event"
    },
    {
      "anonymous": false,
      "inputs": [
        {
          "indexed": false,
          "name": "_sender",
          "type": "address"
        },
        {
          "indexed": true,
          "name": "_target",
          "type": "address"
        },
        {
          "indexed": true,
          "name": "_card",
          "type": "address"
        },
        {
          "indexed": false,
          "name": "_amount",
          "type": "uint256"
        },
        {
          "indexed": false,
          "name": "_timestamp",
          "type": "uint256"
        }
      ],
      "name": "AuctionTeamRevenue",
      "type": "event"
    },
    {
      "anonymous": false,
      "inputs": [
        {
          "indexed": false,
          "name": "_sender",
          "type": "address"
        },
        {
          "indexed": true,
          "name": "_target",
          "type": "address"
        },
        {
          "indexed": true,
          "name": "_card",
          "type": "address"
        },
        {
          "indexed": true,
          "name": "_receiver",
          "type": "uint32"
        },
        {
          "indexed": false,
          "name": "_amount",
          "type": "uint256"
        },
        {
          "indexed": false,
          "name": "_timestamp",
          "type": "uint256"
        }
      ],
      "name": "ExchangeHeroRevenue",
      "type": "event"
    },
    {
      "anonymous": false,
      "inputs": [
        {
          "indexed": false,
          "name": "_sender",
          "type": "address"
        },
        {
          "indexed": true,
          "name": "_target",
          "type": "address"
        },
        {
          "indexed": true,
          "name": "_card",
          "type": "address"
        },
        {
          "indexed": false,
          "name": "_amount",
          "type": "uint256"
        },
        {
          "indexed": false,
          "name": "_timestamp",
          "type": "uint256"
        }
      ],
      "name": "ExchangeTeamRevenue",
      "type": "event"
    },
    {
      "anonymous": false,
      "inputs": [
        {
          "indexed": true,
          "name": "_prevOwner",
          "type": "address"
        },
        {
          "indexed": true,
          "name": "_newOwner",
          "type": "address"
        }
      ],
      "name": "OwnerUpdate",
      "type": "event"
    },
    {
      "constant": false,
      "inputs": [
        {
          "name": "_latest",
          "type": "address"
        }
      ],
      "name": "setLatestNotifier",
      "outputs": [],
      "payable": false,
      "stateMutability": "nonpayable",
      "type": "function"
    },
    {
      "constant": false,
      "inputs": [],
      "name": "latestNotifier",
      "outputs": [
        {
          "name": "",
          "type": "address"
        }
      ],
      "payable": false,
      "stateMutability": "nonpayable",
      "type": "function"
    },
    {
      "constant": false,
      "inputs": [
        {
          "name": "_card",
          "type": "address"
        }
      ],
      "name": "notifyApproveNewCards",
      "outputs": [],
      "payable": false,
      "stateMutability": "nonpayable",
      "type": "function"
    },
    {
      "constant": false,
      "inputs": [
        {
          "name": "_card",
          "type": "address"
        },
        {
          "name": "_auction",
          "type": "address"
        }
      ],
      "name": "notifyCardAuctionFinalized",
      "outputs": [],
      "payable": false,
      "stateMutability": "nonpayable",
      "type": "function"
    },
    {
      "constant": false,
      "inputs": [
        {
          "name": "_card",
          "type": "address"
        },
        {
          "name": "_bancor",
          "type": "address"
        }
      ],
      "name": "notifyApproveNewBancor",
      "outputs": [],
      "payable": false,
      "stateMutability": "nonpayable",
      "type": "function"
    },
    {
      "constant": false,
      "inputs": [
        {
          "name": "_sender",
          "type": "address"
        },
        {
          "name": "_from",
          "type": "address"
        },
        {
          "name": "_to",
          "type": "address"
        },
        {
          "name": "_amountFrom",
          "type": "uint256"
        },
        {
          "name": "_amountTo",
          "type": "uint256"
        }
      ],
      "name": "notifyConvertCards",
      "outputs": [],
      "payable": false,
      "stateMutability": "nonpayable",
      "type": "function"
    },
    {
      "constant": false,
      "inputs": [
        {
          "name": "_sender",
          "type": "address"
        },
        {
          "name": "_to",
          "type": "address"
        },
        {
          "name": "_amount",
          "type": "uint256"
        }
      ],
      "name": "notifyBidCards",
      "outputs": [],
      "payable": false,
      "stateMutability": "nonpayable",
      "type": "function"
    },
    {
      "constant": false,
      "inputs": [
        {
          "name": "_sender",
          "type": "address"
        },
        {
          "name": "_to",
          "type": "address"
        },
        {
          "name": "_bids",
          "type": "uint256"
        },
        {
          "name": "_amount",
          "type": "uint256"
        }
      ],
      "name": "notifyWithdrawalCards",
      "outputs": [],
      "payable": false,
      "stateMutability": "nonpayable",
      "type": "function"
    },
    {
      "constant": false,
      "inputs": [
        {
          "name": "_sender",
          "type": "address"
        },
        {
          "name": "_amount",
          "type": "uint256"
        }
      ],
      "name": "notifyBurnCards",
      "outputs": [],
      "payable": false,
      "stateMutability": "nonpayable",
      "type": "function"
    },
    {
      "constant": false,
      "inputs": [
        {
          "name": "_sender",
          "type": "address"
        },
        {
          "name": "_target",
          "type": "address"
        },
        {
          "name": "_card",
          "type": "address"
        },
        {
          "name": "_hero",
          "type": "uint32"
        },
        {
          "name": "_hero_amount",
          "type": "uint256"
        },
        {
          "name": "_team_amount",
          "type": "uint256"
        }
      ],
      "name": "notifyAuctionRevenue",
      "outputs": [],
      "payable": false,
      "stateMutability": "nonpayable",
      "type": "function"
    },
    {
      "constant": false,
      "inputs": [
        {
          "name": "_sender",
          "type": "address"
        },
        {
          "name": "_target",
          "type": "address"
        },
        {
          "name": "_card",
          "type": "address"
        },
        {
          "name": "_hero",
          "type": "uint32"
        },
        {
          "name": "_hero_amount",
          "type": "uint256"
        },
        {
          "name": "_team_amount",
          "type": "uint256"
        }
      ],
      "name": "notifyExchangeRevenue",
      "outputs": [],
      "payable": false,
      "stateMutability": "nonpayable",
      "type": "function"
    }
  ],
  "bytecode": "0x608060405234801561001057600080fd5b506040516060806115638339810160409081528151602083015191909201516000805433600160a060020a0319918216178255600280548216600160a060020a039687161790556003805482169486169490941790935560048054841694909216939093179055600780543092169190911790556114cf90819061009490396000f3006080604052600436106101065763ffffffff7c010000000000000000000000000000000000000000000000000000000060003504166319a4bef4811461010b5780632d00e244146101345780633bce6426146101585780633c6a912f1461017957806349747f2f146101a057806350c42901146101cd578063621a0a25146101ee5780636b2fa3741461022a5780636f7798c91461025b57806379ba50971461027057806383505556146102855780638da5cb5b146102af57806397ff1f96146102c4578063a90b56f0146102d9578063c2999e1c14610315578063d1b812cd14610348578063d4ee1d901461035d578063dfa571f714610372578063f2fde38b14610399575b600080fd5b34801561011757600080fd5b50610132600160a060020a03600435811690602435166103ba565b005b34801561014057600080fd5b50610132600160a060020a03600435166024356104da565b34801561016457600080fd5b50610132600160a060020a0360043516610637565b34801561018557600080fd5b50610132600160a060020a036004358116906024351661074a565b3480156101ac57600080fd5b50610132600160a060020a036004358116906024351660443560643561086a565b3480156101d957600080fd5b50610132600160a060020a0360043516610a2a565b3480156101fa57600080fd5b50610132600160a060020a036004358116906024358116906044351663ffffffff6064351660843560a435610b2a565b34801561023657600080fd5b5061023f610cad565b60408051600160a060020a039092168252519081900360200190f35b34801561026757600080fd5b5061023f610cbc565b34801561027c57600080fd5b50610132610de1565b34801561029157600080fd5b50610132600160a060020a0360043581169060243516604435610e69565b3480156102bb57600080fd5b5061023f610fe3565b3480156102d057600080fd5b5061023f610ff2565b3480156102e557600080fd5b50610132600160a060020a036004358116906024358116906044351663ffffffff6064351660843560a435611001565b34801561032157600080fd5b50610132600160a060020a0360043581169060243581169060443516606435608435611184565b34801561035457600080fd5b5061023f6113b2565b34801561036957600080fd5b5061023f6113c1565b34801561037e57600080fd5b50610132600160a060020a03600435811690602435166113d0565b3480156103a557600080fd5b50610132600160a060020a0360043516611422565b6000543390600160a060020a03168114806103e25750600554600160a060020a038281169116145b806103fa5750600654600160a060020a038281169116145b8061047f57506002546040805160e060020a6333920503028152600160a060020a0384811660048301529151919092169163339205039160248083019260209291908290030181600087803b15801561045257600080fd5b505af1158015610466573d6000803e3d6000fd5b505050506040513d602081101561047c57600080fd5b50515b151561048a57600080fd5b81600160a060020a031683600160a060020a03167f24070acad5706e498a5871c674315745bf49d8791cb1ad430ac2c1611004739c426040518082815260200191505060405180910390a3505050565b6000543390600160a060020a03168114806105025750600554600160a060020a038281169116145b8061051a5750600654600160a060020a038281169116145b8061059f57506002546040805160e060020a6333920503028152600160a060020a0384811660048301529151919092169163339205039160248083019260209291908290030181600087803b15801561057257600080fd5b505af1158015610586573d6000803e3d6000fd5b505050506040513d602081101561059c57600080fd5b50515b15156105aa57600080fd5b6004604080513380825260006020830181905282840187905260608301524260808301529151600160a060020a03871691600080516020611484833981519152919081900360a00190a4604080518381524260208201528151339283927f4a9b55c94be3e5af6b29b011401bff1f663ea6421d5ed69df65ff4d99d4105f4929081900390910190a3505050565b6000543390600160a060020a031681148061065f5750600554600160a060020a038281169116145b806106775750600654600160a060020a038281169116145b806106fc57506002546040805160e060020a6333920503028152600160a060020a0384811660048301529151919092169163339205039160248083019260209291908290030181600087803b1580156106cf57600080fd5b505af11580156106e3573d6000803e3d6000fd5b505050506040513d60208110156106f957600080fd5b50515b151561070757600080fd5b604080514281529051600160a060020a038416917f438201a67963588e7c6102e5cb79340252c251fab808179f472ff1a10e57e832919081900360200190a25050565b6000543390600160a060020a03168114806107725750600554600160a060020a038281169116145b8061078a5750600654600160a060020a038281169116145b8061080f57506002546040805160e060020a6333920503028152600160a060020a0384811660048301529151919092169163339205039160248083019260209291908290030181600087803b1580156107e257600080fd5b505af11580156107f6573d6000803e3d6000fd5b505050506040513d602081101561080c57600080fd5b50515b151561081a57600080fd5b81600160a060020a031683600160a060020a03167f1ac735972caed6fc3f1ea2ba0e6077ead7eb5efc81470f7b10ca5369b1fe205d426040518082815260200191505060405180910390a3505050565b6000543390600160a060020a03168114806108925750600554600160a060020a038281169116145b806108aa5750600654600160a060020a038281169116145b8061092f57506002546040805160e060020a6333920503028152600160a060020a0384811660048301529151919092169163339205039160248083019260209291908290030181600087803b15801561090257600080fd5b505af1158015610916573d6000803e3d6000fd5b505050506040513d602081101561092c57600080fd5b50515b151561093a57600080fd5b83600160a060020a031685600160a060020a03167f72fa5a1a4dfe5bacf961e2fd3007900e40cc0f1d49ba142ba2f27f75b6863ce1426040518082815260200191505060405180910390a36001604080516000808252600160a060020a038881166020840152828401919091526060820186905242608083015291513392891691600080516020611484833981519152919081900360a00190a4604080518481526020810184905242818301529051600160a060020a0380871692908816917f3438d9dea42d6842278127a31ddfb5d948b29697a3f01d04dbc0fbeae82b6d399181900360600190a35050505050565b6000543390600160a060020a0316811480610a525750600554600160a060020a038281169116145b80610a6a5750600654600160a060020a038281169116145b80610aef57506002546040805160e060020a6333920503028152600160a060020a0384811660048301529151919092169163339205039160248083019260209291908290030181600087803b158015610ac257600080fd5b505af1158015610ad6573d6000803e3d6000fd5b505050506040513d6020811015610aec57600080fd5b50515b1515610afa57600080fd5b506007805473ffffffffffffffffffffffffffffffffffffffff1916600160a060020a0392909216919091179055565b6000543390600160a060020a0316811480610b525750600554600160a060020a038281169116145b80610b6a5750600654600160a060020a038281169116145b80610bef57506002546040805160e060020a6333920503028152600160a060020a0384811660048301529151919092169163339205039160248083019260209291908290030181600087803b158015610bc257600080fd5b505af1158015610bd6573d6000803e3d6000fd5b505050506040513d6020811015610bec57600080fd5b50515b1515610bfa57600080fd5b60408051600160a060020a038981168252602082018690524282840152915163ffffffff87169280891692908a16917fb77589a28adc4657906bccbd9fbbfb877a8276deb028f4fa2c5516c006c697d79181900360600190a460408051600160a060020a0389811682526020820185905242828401529151828816928916917f3a014b840eb98c4f059e1d2a6b7fae789041e1f71063212a49ed84bc909893e9919081900360600190a350505050505050565b600454600160a060020a031681565b6007546000908190600160a060020a0316301415610ce757600754600160a060020a03169150610ddd565b600760009054906101000a9004600160a060020a0316600160a060020a0316636f7798c96040518163ffffffff167c0100000000000000000000000000000000000000000000000000000000028152600401602060405180830381600087803b158015610d5357600080fd5b505af1158015610d67573d6000803e3d6000fd5b505050506040513d6020811015610d7d57600080fd5b5051600754909150600160a060020a0380831691161415610dab57600754600160a060020a03169150610ddd565b6007805473ffffffffffffffffffffffffffffffffffffffff1916600160a060020a0383811691909117918290551691505b5090565b600154600160a060020a03163314610df857600080fd5b60015460008054604051600160a060020a0393841693909116917f343765429aea5a34b3ff6a3785a98a5abb2597aca87bfbb58632c173d585373a91a3600180546000805473ffffffffffffffffffffffffffffffffffffffff19908116600160a060020a03841617909155169055565b6000543390600160a060020a0316811480610e915750600554600160a060020a038281169116145b80610ea95750600654600160a060020a038281169116145b80610f2e57506002546040805160e060020a6333920503028152600160a060020a0384811660048301529151919092169163339205039160248083019260209291908290030181600087803b158015610f0157600080fd5b505af1158015610f15573d6000803e3d6000fd5b505050506040513d6020811015610f2b57600080fd5b50515b1515610f3957600080fd5b600060045460408051600160a060020a03928316815286831660208201528082018690526000606082015242608082015290513392881691600080516020611484833981519152919081900360a00190a482600160a060020a031684600160a060020a03167f3837fb0972ad0d0915a4e8dd87ad5509f99a7d58bb49f7c2eec58184294fbbdb8442604051808381526020018281526020019250505060405180910390a350505050565b600054600160a060020a031681565b600254600160a060020a031681565b6000543390600160a060020a03168114806110295750600554600160a060020a038281169116145b806110415750600654600160a060020a038281169116145b806110c657506002546040805160e060020a6333920503028152600160a060020a0384811660048301529151919092169163339205039160248083019260209291908290030181600087803b15801561109957600080fd5b505af11580156110ad573d6000803e3d6000fd5b505050506040513d60208110156110c357600080fd5b50515b15156110d157600080fd5b60408051600160a060020a038981168252602082018690524282840152915163ffffffff87169280891692908a16917f7d646745ea8ed2db7919687e4a986ac743da822b5775784565544d50f34c23db9181900360600190a460408051600160a060020a0389811682526020820185905242828401529151828816928916917f38e6fd5184a95c3cb46111c47c4c5e0468b9b05c522e5f3be35e51fddf9cd729919081900360600190a350505050505050565b6000543390600160a060020a03168114806111ac5750600554600160a060020a038281169116145b806111c45750600654600160a060020a038281169116145b8061124957506002546040805160e060020a6333920503028152600160a060020a0384811660048301529151919092169163339205039160248083019260209291908290030181600087803b15801561121c57600080fd5b505af1158015611230573d6000803e3d6000fd5b505050506040513d602081101561124657600080fd5b50515b151561125457600080fd5b600454600160a060020a03858116911614156112bd57600260408051600160a060020a038881168252878116602083015281830187905260608201869052426080830152915133928a1691600080516020611484833981519152919081900360a00190a4611357565b600360408051600160a060020a038881168252878116602083015281830187905260608201869052426080830152915133928a1691600080516020611484833981519152919081900360a00190a483600160a060020a031686600160a060020a03167f72fa5a1a4dfe5bacf961e2fd3007900e40cc0f1d49ba142ba2f27f75b6863ce1426040518082815260200191505060405180910390a35b604080518481526020810184905242818301529051600160a060020a038087169288821692918a16917f6e8d1614edaf87565f4fcec53c32a1b407b0b48aecf46d16ffddf38a8c6d73d39181900360600190a4505050505050565b600354600160a060020a031681565b600154600160a060020a031681565b600054600160a060020a031633146113e757600080fd5b60058054600160a060020a0393841673ffffffffffffffffffffffffffffffffffffffff199182161790915560068054929093169116179055565b600054600160a060020a0316331461143957600080fd5b600054600160a060020a038281169116141561145457600080fd5b6001805473ffffffffffffffffffffffffffffffffffffffff1916600160a060020a039290921691909117905556004464fd77e8f8e4455a3b2fd053826a0c858cd89d6c2edeae8cfaf341123d741da165627a7a723058206ad643d68eec653e17d40cccb12c36ae7c742d9d067536d6da93a18f33fb95710029",
  "source": "pragma solidity ^0.4.18;\nimport './IFinancieNotifier.sol';\nimport './FinancieCoreComponents.sol';\nimport '../utility/Utils.sol';\n\ncontract FinancieNotifier is IFinancieNotifier, FinancieCoreComponents, Utils {\n    address latest;\n\n    event ApproveNewCards(address indexed _card, uint _timestamp);\n    event CardAuctionFinalized(address indexed _card, address indexed _auction, uint _timestamp);\n    event ApproveNewBancor(address indexed _card, address indexed _bancor, uint _timestamp);\n\n    event Log(address indexed _sender, address indexed _target, EventType indexed _eventType, address _from, address _to, uint256 _paidAmount, uint256 _receivedAmount, uint _timestamp);\n\n    event AddOwnedCardList(address indexed _sender, address indexed _address, uint _timestamp);\n\n    event ConvertCards(address indexed _sender, address indexed _from, address indexed _to, uint256 _amountFrom, uint256 _amountTo, uint _timestamp);\n    event BidCards(address indexed _sender, address indexed _to, uint256 _amount, uint _timestamp);\n    event WithdrawalCards(address indexed _sender, address indexed _to, uint256 _bids, uint256 _amount, uint _timestamp);\n    event BurnCards(address indexed _sender, address indexed _card, uint256 _amount, uint _timestamp);\n\n    event AuctionHeroRevenue(address _sender, address indexed _target, address indexed _card, uint32 indexed _receiver, uint256 _amount, uint _timestamp);\n    event AuctionTeamRevenue(address _sender, address indexed _target, address indexed _card, uint256 _amount, uint _timestamp);\n    event ExchangeHeroRevenue(address _sender, address indexed _target, address indexed _card, uint32 indexed _receiver, uint256 _amount, uint _timestamp);\n    event ExchangeTeamRevenue(address _sender, address indexed _target, address indexed _card, uint256 _amount, uint _timestamp);\n\n    constructor(address _managedContracts, address _platformToken, address _currencyToken)\n        public\n        FinancieCoreComponents(_managedContracts, _platformToken, _currencyToken)\n    {\n        latest = address(this);\n    }\n\n    /**\n    *   @notice Set latest notifier\n    */\n    function setLatestNotifier(address _latest)\n        public\n        validOperator(msg.sender)\n    {\n        latest = _latest;\n    }\n\n    /**\n    *   @notice returns latest notifier and update itself if expired\n    */\n    function latestNotifier()\n        public\n        returns (address)\n    {\n        // this contract is latest\n        if ( latest == address(this) ) {\n            return latest;\n        }\n\n        // up to date?\n        address _latest = IFinancieNotifier(latest).latestNotifier();\n        if ( latest == _latest ) {\n            return latest;\n        }\n\n        // update and return\n        latest = _latest;\n        return latest;\n    }\n\n    /**\n    *   @notice To prevent receiving ether\n    */\n    function() payable public {\n        revert();\n    }\n\n    /**\n    *\n    */\n    function notifyApproveNewCards(address _card)\n        public\n        validOperator(msg.sender)\n    {\n        emit ApproveNewCards(_card, now);\n    }\n\n    /**\n    *\n    */\n    function notifyCardAuctionFinalized(address _card, address _auction)\n        public\n        validOperator(msg.sender)\n    {\n        emit CardAuctionFinalized(_card, _auction, now);\n    }\n\n    /**\n    *\n    */\n    function notifyApproveNewBancor(address _card, address _bancor)\n        public\n        validOperator(msg.sender)\n    {\n        emit ApproveNewBancor(_card, _bancor, now);\n    }\n\n    function notifyConvertCards(\n        address _sender,\n        address _from,\n        address _to,\n        uint256 _amountFrom,\n        uint256 _amountTo)\n        public\n        validOperator(msg.sender)\n    {\n        if ( _to == address(currencyToken) ) {\n            emit Log(\n              _sender,\n              msg.sender,\n              EventType.SellCards,\n              _from,\n              _to,\n              _amountFrom,\n              _amountTo,\n              now);\n        } else {\n            emit Log(\n              _sender,\n              msg.sender,\n              EventType.BuyCards,\n              _from,\n              _to,\n              _amountFrom,\n              _amountTo,\n              now);\n            emit AddOwnedCardList(_sender, _to, now);\n        }\n        emit ConvertCards(_sender, _from, _to, _amountFrom, _amountTo, now);\n    }\n\n    /**\n    *   @notice log the bid of cards for sales contract\n    */\n    function notifyBidCards(address _sender, address _to, uint256 _amount)\n        public\n        validOperator(msg.sender)\n    {\n        emit Log(\n          _sender,\n          msg.sender,\n          EventType.BidCards,\n          currencyToken,\n          _to,\n          _amount,\n          0,\n          now);\n\n        emit BidCards(_sender, _to, _amount, now);\n    }\n\n    /**\n    *   @notice log the withdrawal of cards from sales contract\n    */\n    function notifyWithdrawalCards(address _sender, address _to, uint256 _bids, uint256 _amount)\n        public\n        validOperator(msg.sender)\n    {\n        emit AddOwnedCardList(_sender, _to, now);\n\n        emit Log(\n          _sender,\n          msg.sender,\n          EventType.WithdrawCards,\n          0x0,\n          _to,\n          0,\n          _amount,\n          now);\n\n        emit WithdrawalCards(_sender, _to, _bids, _amount, now);\n    }\n\n    /**\n    *   @notice log the burn of cards\n    */\n    function notifyBurnCards(address _sender, uint256 _amount)\n        public\n        validOperator(msg.sender)\n    {\n        emit Log(\n          _sender,\n          msg.sender,\n          EventType.BurnCards,\n          msg.sender,\n          0x0,\n          _amount,\n          0,\n          now);\n\n        emit BurnCards(msg.sender, msg.sender, _amount, now);\n    }\n\n    /**\n    *   @notice log the revenue of auction\n    */\n    function notifyAuctionRevenue(\n        address _sender,\n        address _target,\n        address _card,\n        uint32  _hero,\n        uint256 _hero_amount,\n        uint256 _team_amount)\n        public\n        validOperator(msg.sender)\n    {\n        emit AuctionHeroRevenue(_sender, _target, _card, _hero, _hero_amount, now);\n        emit AuctionTeamRevenue(_sender, _target, _card, _team_amount, now);\n    }\n\n    /**\n    *   @notice log the revenue of exchange\n    */\n    function notifyExchangeRevenue(\n        address _sender,\n        address _target,\n        address _card,\n        uint32  _hero,\n        uint256 _hero_amount,\n        uint256 _team_amount)\n        public\n        validOperator(msg.sender)\n    {\n        emit ExchangeHeroRevenue(_sender, _target, _card, _hero, _hero_amount, now);\n        emit ExchangeTeamRevenue(_sender, _target, _card, _team_amount, now);\n    }\n\n}\n",
  "sourcePath": "/Users/rudo/Documents/ichiba/submodules/contracts/solidity/contracts/Financie/FinancieNotifier.sol",
  "compiler": {
    "name": "solc",
    "version": "0.4.24+commit.e67f0147.Emscripten.clang"
  },
  "schemaVersion": "2.0.1",
  "updatedAt": "2019-03-03T07:14:05.138Z"
}