{
  "contractName": "FinancieInternalBank",
  "abi": [
    {
      "constant": false,
      "inputs": [],
      "name": "acceptOwnership",
      "outputs": [],
      "payable": false,
      "stateMutability": "nonpayable",
      "type": "function"
    },
    {
      "constant": true,
      "inputs": [],
      "name": "owner",
      "outputs": [
        {
          "name": "",
          "type": "address"
        }
      ],
      "payable": false,
      "stateMutability": "view",
      "type": "function"
    },
    {
      "constant": true,
      "inputs": [],
      "name": "newOwner",
      "outputs": [
        {
          "name": "",
          "type": "address"
        }
      ],
      "payable": false,
      "stateMutability": "view",
      "type": "function"
    },
    {
      "constant": false,
      "inputs": [
        {
          "name": "_newOwner",
          "type": "address"
        }
      ],
      "name": "transferOwnership",
      "outputs": [],
      "payable": false,
      "stateMutability": "nonpayable",
      "type": "function"
    },
    {
      "inputs": [
        {
          "name": "_paymentCurrencyToken",
          "type": "address"
        }
      ],
      "payable": false,
      "stateMutability": "nonpayable",
      "type": "constructor"
    },
    {
      "anonymous": false,
      "inputs": [
        {
          "indexed": true,
          "name": "_prevOwner",
          "type": "address"
        },
        {
          "indexed": true,
          "name": "_newOwner",
          "type": "address"
        }
      ],
      "name": "OwnerUpdate",
      "type": "event"
    },
    {
      "constant": false,
      "inputs": [
        {
          "name": "_tokenAddress",
          "type": "address"
        },
        {
          "name": "_to",
          "type": "address"
        },
        {
          "name": "_amount",
          "type": "uint256"
        }
      ],
      "name": "transferTokens",
      "outputs": [],
      "payable": false,
      "stateMutability": "nonpayable",
      "type": "function"
    },
    {
      "constant": false,
      "inputs": [
        {
          "name": "_to",
          "type": "address"
        },
        {
          "name": "_amount",
          "type": "uint256"
        }
      ],
      "name": "transferCurrencyTokens",
      "outputs": [],
      "payable": false,
      "stateMutability": "nonpayable",
      "type": "function"
    },
    {
      "constant": false,
      "inputs": [
        {
          "name": "_tokenAddress",
          "type": "address"
        },
        {
          "name": "_userId",
          "type": "uint32"
        },
        {
          "name": "_amount",
          "type": "uint256"
        }
      ],
      "name": "setBalanceOfToken",
      "outputs": [],
      "payable": false,
      "stateMutability": "nonpayable",
      "type": "function"
    },
    {
      "constant": true,
      "inputs": [
        {
          "name": "_tokenAddress",
          "type": "address"
        },
        {
          "name": "_userId",
          "type": "uint32"
        }
      ],
      "name": "getBalanceOfToken",
      "outputs": [
        {
          "name": "",
          "type": "uint256"
        }
      ],
      "payable": false,
      "stateMutability": "view",
      "type": "function"
    },
    {
      "constant": false,
      "inputs": [
        {
          "name": "_userId",
          "type": "uint32"
        },
        {
          "name": "_amount",
          "type": "uint256"
        }
      ],
      "name": "setBalanceOfConsumableCurrencyToken",
      "outputs": [],
      "payable": false,
      "stateMutability": "nonpayable",
      "type": "function"
    },
    {
      "constant": true,
      "inputs": [
        {
          "name": "_userId",
          "type": "uint32"
        }
      ],
      "name": "getBalanceOfConsumableCurrencyToken",
      "outputs": [
        {
          "name": "",
          "type": "uint256"
        }
      ],
      "payable": false,
      "stateMutability": "view",
      "type": "function"
    },
    {
      "constant": false,
      "inputs": [
        {
          "name": "_userId",
          "type": "uint32"
        },
        {
          "name": "_amount",
          "type": "uint256"
        }
      ],
      "name": "setBalanceOfWithdrawableCurrencyToken",
      "outputs": [],
      "payable": false,
      "stateMutability": "nonpayable",
      "type": "function"
    },
    {
      "constant": true,
      "inputs": [
        {
          "name": "_userId",
          "type": "uint32"
        }
      ],
      "name": "getBalanceOfWithdrawableCurrencyToken",
      "outputs": [
        {
          "name": "",
          "type": "uint256"
        }
      ],
      "payable": false,
      "stateMutability": "view",
      "type": "function"
    },
    {
      "constant": false,
      "inputs": [
        {
          "name": "_userId",
          "type": "uint32"
        },
        {
          "name": "_amount",
          "type": "uint256"
        },
        {
          "name": "_revenueType",
          "type": "uint32"
        }
      ],
      "name": "setBalanceOfPendingRevenueCurrencyToken",
      "outputs": [],
      "payable": false,
      "stateMutability": "nonpayable",
      "type": "function"
    },
    {
      "constant": true,
      "inputs": [
        {
          "name": "_userId",
          "type": "uint32"
        },
        {
          "name": "_revenueType",
          "type": "uint32"
        }
      ],
      "name": "getBalanceOfPendingRevenueCurrencyToken",
      "outputs": [
        {
          "name": "",
          "type": "uint256"
        }
      ],
      "payable": false,
      "stateMutability": "view",
      "type": "function"
    },
    {
      "constant": false,
      "inputs": [
        {
          "name": "_tokenAddress",
          "type": "address"
        },
        {
          "name": "_userId",
          "type": "uint32"
        },
        {
          "name": "_flg",
          "type": "bool"
        }
      ],
      "name": "setHolderOfToken",
      "outputs": [],
      "payable": false,
      "stateMutability": "nonpayable",
      "type": "function"
    },
    {
      "constant": true,
      "inputs": [
        {
          "name": "_tokenAddress",
          "type": "address"
        },
        {
          "name": "_userId",
          "type": "uint32"
        }
      ],
      "name": "getHolderOfToken",
      "outputs": [
        {
          "name": "",
          "type": "bool"
        }
      ],
      "payable": false,
      "stateMutability": "view",
      "type": "function"
    },
    {
      "constant": false,
      "inputs": [
        {
          "name": "_auctionAddress",
          "type": "address"
        },
        {
          "name": "_userId",
          "type": "uint32"
        },
        {
          "name": "_amount",
          "type": "uint256"
        }
      ],
      "name": "setBidsOfAuctions",
      "outputs": [],
      "payable": false,
      "stateMutability": "nonpayable",
      "type": "function"
    },
    {
      "constant": true,
      "inputs": [
        {
          "name": "_auctionAddress",
          "type": "address"
        },
        {
          "name": "_userId",
          "type": "uint32"
        }
      ],
      "name": "getBidsOfAuctions",
      "outputs": [
        {
          "name": "",
          "type": "uint256"
        }
      ],
      "payable": false,
      "stateMutability": "view",
      "type": "function"
    },
    {
      "constant": false,
      "inputs": [
        {
          "name": "_auctionAddress",
          "type": "address"
        },
        {
          "name": "_amount",
          "type": "uint256"
        }
      ],
      "name": "setTotalBidsOfAuctions",
      "outputs": [],
      "payable": false,
      "stateMutability": "nonpayable",
      "type": "function"
    },
    {
      "constant": true,
      "inputs": [
        {
          "name": "_auctionAddress",
          "type": "address"
        }
      ],
      "name": "getTotalBidsOfAuctions",
      "outputs": [
        {
          "name": "",
          "type": "uint256"
        }
      ],
      "payable": false,
      "stateMutability": "view",
      "type": "function"
    },
    {
      "constant": false,
      "inputs": [
        {
          "name": "_auctionAddress",
          "type": "address"
        },
        {
          "name": "_amount",
          "type": "uint256"
        }
      ],
      "name": "setRecvCardsOfAuctions",
      "outputs": [],
      "payable": false,
      "stateMutability": "nonpayable",
      "type": "function"
    },
    {
      "constant": true,
      "inputs": [
        {
          "name": "_auctionAddress",
          "type": "address"
        }
      ],
      "name": "getRecvCardsOfAuctions",
      "outputs": [
        {
          "name": "",
          "type": "uint256"
        }
      ],
      "payable": false,
      "stateMutability": "view",
      "type": "function"
    }
  ],
  "bytecode": "0x608060405234801561001057600080fd5b50604051602080610ac8833981016040525160008054600160a060020a0319908116331790915560028054600160a060020a0390931692909116919091179055610a698061005f6000396000f3006080604052600436106101275763ffffffff7c010000000000000000000000000000000000000000000000000000000060003504166308a4cd06811461012c5780630c4e7c4c1461016857806319b1e3401461018e57806323c64e49146101af5780632f2d80e7146101d35780633550275e146102025780633fb95fb1146102235780635173e8311461024157806356963e001461025f5780637281f97c1461028c57806377ac56b1146102b0578063784af991146102ee57806379ba50971461031b5780638da5cb5b1461033057806393e94df614610361578063947db38f14610385578063a62a5a00146103af578063a64b6e5f146103d0578063bebe8101146103fa578063d2c023ee1461041b578063d4ee1d9014610443578063f2fde38b14610458575b600080fd5b34801561013857600080fd5b50610156600160a060020a036004351663ffffffff60243516610479565b60408051918252519081900360200190f35b34801561017457600080fd5b5061018c600160a060020a03600435166024356104c5565b005b34801561019a57600080fd5b50610156600160a060020a036004351661057b565b3480156101bb57600080fd5b5061018c600160a060020a0360043516602435610596565b3480156101df57600080fd5b5061018c600160a060020a036004351663ffffffff6024351660443515156105c9565b34801561020e57600080fd5b5061018c63ffffffff6004351660243561061d565b34801561022f57600080fd5b5061015663ffffffff6004351661064d565b34801561024d57600080fd5b5061015663ffffffff60043516610665565b34801561026b57600080fd5b5061018c600160a060020a036004351663ffffffff6024351660443561067d565b34801561029857600080fd5b5061015663ffffffff600435811690602435166106c1565b3480156102bc57600080fd5b506102da600160a060020a036004351663ffffffff602435166106ea565b604080519115158252519081900360200190f35b3480156102fa57600080fd5b5061018c600160a060020a036004351663ffffffff6024351660443561071d565b34801561032757600080fd5b5061018c610779565b34801561033c57600080fd5b50610345610801565b60408051600160a060020a039092168252519081900360200190f35b34801561036d57600080fd5b5061018c600160a060020a0360043516602435610810565b34801561039157600080fd5b50610156600160a060020a036004351663ffffffff60243516610843565b3480156103bb57600080fd5b5061018c63ffffffff60043516602435610873565b3480156103dc57600080fd5b5061018c600160a060020a03600435811690602435166044356108a3565b34801561040657600080fd5b50610156600160a060020a0360043516610972565b34801561042757600080fd5b5061018c63ffffffff600435811690602435906044351661098d565b34801561044f57600080fd5b506103456109cd565b34801561046457600080fd5b5061018c600160a060020a03600435166109dc565b600254600090600160a060020a038481169116141561049457fe5b50600160a060020a038216600090815260066020908152604080832063ffffffff8516845290915290205492915050565b600054600160a060020a031633146104dc57600080fd5b600254604080517fa9059cbb000000000000000000000000000000000000000000000000000000008152600160a060020a038581166004830152602482018590529151919092169163a9059cbb9160448083019260209291908290030181600087803b15801561054b57600080fd5b505af115801561055f573d6000803e3d6000fd5b505050506040513d602081101561057557600080fd5b50505050565b600160a060020a03166000908152600a602052604090205490565b600054600160a060020a031633146105ad57600080fd5b600160a060020a03909116600090815260096020526040902055565b600054600160a060020a031633146105e057600080fd5b600160a060020a03909216600090815260076020908152604080832063ffffffff909416835292905220805491151560ff19909216919091179055565b600054600160a060020a0316331461063457600080fd5b63ffffffff909116600090815260046020526040902055565b63ffffffff1660009081526004602052604090205490565b63ffffffff1660009081526003602052604090205490565b600054600160a060020a0316331461069457600080fd5b600160a060020a03909216600090815260086020908152604080832063ffffffff90941683529290522055565b63ffffffff80821660009081526005602090815260408083209386168352929052205492915050565b600160a060020a038216600090815260076020908152604080832063ffffffff8516845290915290205460ff1692915050565b600054600160a060020a0316331461073457600080fd5b600254600160a060020a038481169116141561074c57fe5b600160a060020a03909216600090815260066020908152604080832063ffffffff90941683529290522055565b600154600160a060020a0316331461079057600080fd5b60015460008054604051600160a060020a0393841693909116917f343765429aea5a34b3ff6a3785a98a5abb2597aca87bfbb58632c173d585373a91a3600180546000805473ffffffffffffffffffffffffffffffffffffffff19908116600160a060020a03841617909155169055565b600054600160a060020a031681565b600054600160a060020a0316331461082757600080fd5b600160a060020a039091166000908152600a6020526040902055565b600160a060020a038216600090815260086020908152604080832063ffffffff8516845290915290205492915050565b600054600160a060020a0316331461088a57600080fd5b63ffffffff909116600090815260036020526040902055565b60008054600160a060020a031633146108bb57600080fd5b600254600160a060020a03858116911614156108d357fe5b50604080517fa9059cbb000000000000000000000000000000000000000000000000000000008152600160a060020a038481166004830152602482018490529151859283169163a9059cbb9160448083019260209291908290030181600087803b15801561094057600080fd5b505af1158015610954573d6000803e3d6000fd5b505050506040513d602081101561096a57600080fd5b505050505050565b600160a060020a031660009081526009602052604090205490565b600054600160a060020a031633146109a457600080fd5b63ffffffff90811660009081526005602090815260408083209590931682529390935290912055565b600154600160a060020a031681565b600054600160a060020a031633146109f357600080fd5b600054600160a060020a0382811691161415610a0e57600080fd5b6001805473ffffffffffffffffffffffffffffffffffffffff1916600160a060020a03929092169190911790555600a165627a7a72305820420d8cadd9bc96d30263ce55b37cb1692bfc52dc98fcfe7b45494bd634d42eb80029",
  "source": "pragma solidity ^0.4.18;\nimport '../utility/Utils.sol';\nimport './IFinancieInternalBank.sol';\nimport '../utility/Owned.sol';\nimport '../token/interfaces/IERC20Token.sol';\n\ncontract FinancieInternalBank is IFinancieInternalBank, Utils, Owned {\n\n    IERC20Token paymentCurrencyToken;\n    mapping (uint32 => uint256) balanceOfConsumableCurrencyTokens;\n    mapping (uint32 => uint256) balanceOfWithdrawableCurrencyTokens;\n    mapping (uint32 => mapping(uint32 => uint256)) balanceOfPendingRevenueCurrencyTokens;\n    mapping (address => mapping (uint32 => uint256)) balanceOfTokens;\n    mapping (address => mapping (uint32 => bool)) holderOfTokens;\n    mapping (address => mapping (uint32 => uint256)) bidsOfAuctions;\n    mapping (address => uint256) totalBidsOfAuctions;\n    mapping (address => uint256) receivedCardsOfAuctions;\n\n    constructor(address _paymentCurrencyToken) public {\n        paymentCurrencyToken = IERC20Token(_paymentCurrencyToken);\n    }\n\n    function transferTokens(address _tokenAddress, address _to, uint256 _amount)\n        public\n        ownerOnly\n    {\n        assert(_tokenAddress != address(paymentCurrencyToken));\n        IERC20Token token = IERC20Token(_tokenAddress);\n        token.transfer(_to, _amount);\n    }\n\n    function transferCurrencyTokens(address _to, uint256 _amount)\n        public\n        ownerOnly\n    {\n        paymentCurrencyToken.transfer(_to, _amount);\n    }\n\n    function setBalanceOfToken(address _tokenAddress, uint32 _userId, uint256 _amount)\n        public\n        ownerOnly\n    {\n        assert(_tokenAddress != address(paymentCurrencyToken));\n        balanceOfTokens[_tokenAddress][_userId] = _amount;\n    }\n\n    function getBalanceOfToken(address _tokenAddress, uint32 _userId)\n        public\n        view\n        returns(uint256)\n    {\n        assert(_tokenAddress != address(paymentCurrencyToken));\n        return balanceOfTokens[_tokenAddress][_userId];\n    }\n\n    function setBalanceOfConsumableCurrencyToken(uint32 _userId, uint256 _amount)\n        public\n        ownerOnly\n    {\n        balanceOfConsumableCurrencyTokens[_userId] = _amount;\n    }\n\n    function getBalanceOfConsumableCurrencyToken(uint32 _userId)\n        public\n        view\n        returns(uint256)\n    {\n        return balanceOfConsumableCurrencyTokens[_userId];\n    }\n\n    function setBalanceOfWithdrawableCurrencyToken(uint32 _userId, uint256 _amount)\n        public\n        ownerOnly\n    {\n        balanceOfWithdrawableCurrencyTokens[_userId] = _amount;\n    }\n\n    function getBalanceOfWithdrawableCurrencyToken(uint32 _userId)\n        public\n        view\n        returns(uint256)\n    {\n        return balanceOfWithdrawableCurrencyTokens[_userId];\n    }\n\n    function setBalanceOfPendingRevenueCurrencyToken(uint32 _userId, uint256 _amount, uint32 _revenueType)\n        public\n        ownerOnly\n    {\n        balanceOfPendingRevenueCurrencyTokens[_revenueType][_userId] = _amount;\n    }\n\n    function getBalanceOfPendingRevenueCurrencyToken(uint32 _userId, uint32 _revenueType)\n        public\n        view\n        returns(uint256)\n    {\n        return balanceOfPendingRevenueCurrencyTokens[_revenueType][_userId];\n    }\n\n    function setHolderOfToken(address _tokenAddress, uint32 _userId, bool _flg)\n        public\n        ownerOnly\n    {\n        holderOfTokens[_tokenAddress][_userId] = _flg;\n    }\n\n    function getHolderOfToken(address _tokenAddress, uint32 _userId)\n        public\n        view\n        returns(bool)\n    {\n        return holderOfTokens[_tokenAddress][_userId];\n    }\n\n    function setBidsOfAuctions(address _auctionAddress, uint32 _userId, uint256 _amount)\n        public\n        ownerOnly\n    {\n        bidsOfAuctions[_auctionAddress][_userId] = _amount;\n    }\n\n    function getBidsOfAuctions(address _auctionAddress, uint32 _userId)\n        public\n        view\n        returns(uint256)\n    {\n        return bidsOfAuctions[_auctionAddress][_userId];\n    }\n\n    function setTotalBidsOfAuctions(address _auctionAddress, uint256 _amount)\n        public\n        ownerOnly\n    {\n        totalBidsOfAuctions[_auctionAddress] = _amount;\n    }\n\n    function getTotalBidsOfAuctions(address _auctionAddress)\n        public\n        view\n        returns(uint256)\n    {\n        return totalBidsOfAuctions[_auctionAddress];\n    }\n\n    function setRecvCardsOfAuctions(address _auctionAddress, uint256 _amount)\n        public\n        ownerOnly\n    {\n        receivedCardsOfAuctions[_auctionAddress] = _amount;\n    }\n\n    function getRecvCardsOfAuctions(address _auctionAddress)\n        public\n        view\n        returns(uint256)\n    {\n        return receivedCardsOfAuctions[_auctionAddress];\n    }\n\n}\n",
  "sourcePath": "/Users/rudo/Documents/ichiba/submodules/contracts/solidity/contracts/Financie/FinancieInternalBank.sol",
  "compiler": {
    "name": "solc",
    "version": "0.4.24+commit.e67f0147.Emscripten.clang"
  },
  "schemaVersion": "2.0.1",
  "updatedAt": "2019-03-03T08:58:01.572Z"
}