{
  "contractName": "TestUtils",
  "abi": [
    {
      "inputs": [],
      "payable": false,
      "stateMutability": "nonpayable",
      "type": "constructor"
    },
    {
      "constant": true,
      "inputs": [
        {
          "name": "_x",
          "type": "uint256"
        },
        {
          "name": "_y",
          "type": "uint256"
        }
      ],
      "name": "testSafeAdd",
      "outputs": [
        {
          "name": "",
          "type": "uint256"
        }
      ],
      "payable": false,
      "stateMutability": "pure",
      "type": "function"
    },
    {
      "constant": true,
      "inputs": [
        {
          "name": "_x",
          "type": "uint256"
        },
        {
          "name": "_y",
          "type": "uint256"
        }
      ],
      "name": "testSafeSub",
      "outputs": [
        {
          "name": "",
          "type": "uint256"
        }
      ],
      "payable": false,
      "stateMutability": "pure",
      "type": "function"
    },
    {
      "constant": true,
      "inputs": [
        {
          "name": "_x",
          "type": "uint256"
        },
        {
          "name": "_y",
          "type": "uint256"
        }
      ],
      "name": "testSafeMul",
      "outputs": [
        {
          "name": "",
          "type": "uint256"
        }
      ],
      "payable": false,
      "stateMutability": "pure",
      "type": "function"
    }
  ],
  "bytecode": "0x608060405234801561001057600080fd5b5061015a806100206000396000f3006080604052600436106100565763ffffffff7c01000000000000000000000000000000000000000000000000000000006000350416639ee6ff70811461005b578063de47864c14610088578063ec0da330146100a3575b600080fd5b34801561006757600080fd5b506100766004356024356100be565b60408051918252519081900360200190f35b34801561009457600080fd5b506100766004356024356100d1565b3480156100af57600080fd5b506100766004356024356100dd565b60006100ca83836100e9565b9392505050565b60006100ca838361010d565b60006100ca838361011c565b6000828202831580610105575082848281151561010257fe5b04145b15156100ca57fe5b6000828201838110156100ca57fe5b60008183101561012857fe5b509003905600a165627a7a72305820784a8685ba10e3605ed777fc28d792ae60360cbd0c38f80dd9b71ead9b0d94fd0029",
  "source": "pragma solidity ^0.4.24;\nimport '../utility/Utils.sol';\n\n/*\n    Utils test helper that exposes the safe math functions\n*/\ncontract TestUtils is Utils {\n    constructor() public {\n    }\n\n    function testSafeAdd(uint256 _x, uint256 _y) public pure returns (uint256) {\n        return super.safeAdd(_x, _y);\n    }\n\n    function testSafeSub(uint256 _x, uint256 _y) public pure returns (uint256) {\n        return super.safeSub(_x, _y);\n    }\n\n    function testSafeMul(uint256 _x, uint256 _y) public pure returns (uint256) {\n        return super.safeMul(_x, _y);\n    }\n}\n",
  "sourcePath": "/Users/rudo/Documents/ichiba/submodules/contracts/solidity/contracts/helpers/TestUtils.sol",
  "compiler": {
    "name": "solc",
    "version": "0.4.24+commit.e67f0147.Emscripten.clang"
  },
  "schemaVersion": "2.0.1",
  "updatedAt": "2019-03-03T08:58:01.626Z"
}